{
  "contractName": "Core",
  "abi": [
    {
      "constant": false,
      "inputs": [
        {
          "name": "_addr",
          "type": "address"
        }
      ],
      "name": "upgrade",
      "outputs": [],
      "payable": false,
      "stateMutability": "nonpayable",
      "type": "function"
    },
    {
      "constant": true,
      "inputs": [
        {
          "name": "",
          "type": "address"
        }
      ],
      "name": "balances",
      "outputs": [
        {
          "name": "",
          "type": "uint256"
        }
      ],
      "payable": false,
      "stateMutability": "view",
      "type": "function"
    },
    {
      "constant": false,
      "inputs": [
        {
          "name": "_addr",
          "type": "address"
        },
        {
          "name": "_value",
          "type": "uint256"
        }
      ],
      "name": "setBalances",
      "outputs": [],
      "payable": false,
      "stateMutability": "nonpayable",
      "type": "function"
    },
    {
      "constant": false,
      "inputs": [
        {
          "name": "_addr",
          "type": "address"
        },
        {
          "name": "_status",
          "type": "bool"
        }
      ],
      "name": "setCharityStatus",
      "outputs": [],
      "payable": false,
      "stateMutability": "nonpayable",
      "type": "function"
    },
    {
      "constant": false,
      "inputs": [
        {
          "name": "_addr",
          "type": "address"
        },
        {
          "name": "_allowed",
          "type": "address"
        },
        {
          "name": "_value",
          "type": "uint256"
        }
      ],
      "name": "setAllowed",
      "outputs": [],
      "payable": false,
      "stateMutability": "nonpayable",
      "type": "function"
    },
    {
      "constant": false,
      "inputs": [
        {
          "name": "_addr",
          "type": "address"
        }
      ],
      "name": "addApproved",
      "outputs": [],
      "payable": false,
      "stateMutability": "nonpayable",
      "type": "function"
    },
    {
      "constant": false,
      "inputs": [
        {
          "name": "_addr",
          "type": "address"
        },
        {
          "name": "_value",
          "type": "uint256"
        }
      ],
      "name": "setFrozenValue",
      "outputs": [],
      "payable": false,
      "stateMutability": "nonpayable",
      "type": "function"
    },
    {
      "constant": true,
      "inputs": [
        {
          "name": "",
          "type": "address"
        },
        {
          "name": "",
          "type": "address"
        }
      ],
      "name": "allowed",
      "outputs": [
        {
          "name": "",
          "type": "uint256"
        }
      ],
      "payable": false,
      "stateMutability": "view",
      "type": "function"
    },
    {
      "constant": false,
      "inputs": [
        {
          "name": "_addr",
          "type": "address"
        },
        {
          "name": "_time",
          "type": "uint256"
        }
      ],
      "name": "setCharityTime",
      "outputs": [],
      "payable": false,
      "stateMutability": "nonpayable",
      "type": "function"
    },
    {
      "constant": true,
      "inputs": [
        {
          "name": "",
          "type": "address"
        }
      ],
      "name": "charityStatus",
      "outputs": [
        {
          "name": "",
          "type": "bool"
        }
      ],
      "payable": false,
      "stateMutability": "view",
      "type": "function"
    },
    {
      "constant": false,
      "inputs": [
        {
          "name": "_addr",
          "type": "address"
        }
      ],
      "name": "removeApproved",
      "outputs": [],
      "payable": false,
      "stateMutability": "nonpayable",
      "type": "function"
    },
    {
      "constant": true,
      "inputs": [
        {
          "name": "",
          "type": "address"
        }
      ],
      "name": "frozenTime",
      "outputs": [
        {
          "name": "",
          "type": "uint256"
        }
      ],
      "payable": false,
      "stateMutability": "view",
      "type": "function"
    },
    {
      "constant": false,
      "inputs": [
        {
          "name": "_addr",
          "type": "address"
        },
        {
          "name": "_time",
          "type": "uint256"
        }
      ],
      "name": "setFrozenTime",
      "outputs": [],
      "payable": false,
      "stateMutability": "nonpayable",
      "type": "function"
    },
    {
      "constant": false,
      "inputs": [
        {
          "name": "_to",
          "type": "address"
        },
        {
          "name": "_from",
          "type": "address"
        },
        {
          "name": "_value",
          "type": "uint256"
        }
      ],
      "name": "transfer",
      "outputs": [],
      "payable": false,
      "stateMutability": "nonpayable",
      "type": "function"
    },
    {
      "constant": true,
      "inputs": [
        {
          "name": "",
          "type": "address"
        }
      ],
      "name": "frozenValue",
      "outputs": [
        {
          "name": "",
          "type": "uint256"
        }
      ],
      "payable": false,
      "stateMutability": "view",
      "type": "function"
    },
    {
      "constant": true,
      "inputs": [
        {
          "name": "",
          "type": "address"
        }
      ],
      "name": "approved",
      "outputs": [
        {
          "name": "",
          "type": "bool"
        }
      ],
      "payable": false,
      "stateMutability": "view",
      "type": "function"
    },
    {
      "constant": true,
      "inputs": [
        {
          "name": "",
          "type": "address"
        }
      ],
      "name": "charityTime",
      "outputs": [
        {
          "name": "",
          "type": "uint256"
        }
      ],
      "payable": false,
      "stateMutability": "view",
      "type": "function"
    },
    {
      "constant": true,
      "inputs": [],
      "name": "controller",
      "outputs": [
        {
          "name": "",
          "type": "address"
        }
      ],
      "payable": false,
      "stateMutability": "view",
      "type": "function"
    },
    {
      "inputs": [],
      "payable": false,
      "stateMutability": "nonpayable",
      "type": "constructor"
    }
  ],
  "bytecode": "0x6060604052341561000f57600080fd5b336000806101000a81548173ffffffffffffffffffffffffffffffffffffffff021916908373ffffffffffffffffffffffffffffffffffffffff160217905550610e1d8061005e6000396000f3006060604052600436106100fc576000357c0100000000000000000000000000000000000000000000000000000000900463ffffffff1680630900f0101461010157806327e235e31461013a57806328e69b1614610187578063329388aa146101c957806333dd1b8a1461020d5780634fd7cdfd1461026e57806354134cd2146102a75780635c658165146102e95780637a30ab2f146103555780638f8e83c414610397578063a356d21e146103e8578063b062307414610421578063b65dc4131461046e578063beabacc8146104b0578063c77fd87714610511578063d8b964e61461055e578063ee12e6a3146105af578063f77c4791146105fc575b600080fd5b341561010c57600080fd5b610138600480803573ffffffffffffffffffffffffffffffffffffffff16906020019091905050610651565b005b341561014557600080fd5b610171600480803573ffffffffffffffffffffffffffffffffffffffff16906020019091905050610694565b6040518082815260200191505060405180910390f35b341561019257600080fd5b6101c7600480803573ffffffffffffffffffffffffffffffffffffffff169060200190919080359060200190919050506106ac565b005b34156101d457600080fd5b61020b600480803573ffffffffffffffffffffffffffffffffffffffff16906020019091908035151590602001909190505061074c565b005b341561021857600080fd5b61026c600480803573ffffffffffffffffffffffffffffffffffffffff1690602001909190803573ffffffffffffffffffffffffffffffffffffffff169060200190919080359060200190919050506107ff565b005b341561027957600080fd5b6102a5600480803573ffffffffffffffffffffffffffffffffffffffff169060200190919050506108dd565b005b34156102b257600080fd5b6102e7600480803573ffffffffffffffffffffffffffffffffffffffff16906020019091908035906020019091905050610992565b005b34156102f457600080fd5b61033f600480803573ffffffffffffffffffffffffffffffffffffffff1690602001909190803573ffffffffffffffffffffffffffffffffffffffff16906020019091905050610a32565b6040518082815260200191505060405180910390f35b341561036057600080fd5b610395600480803573ffffffffffffffffffffffffffffffffffffffff16906020019091908035906020019091905050610a57565b005b34156103a257600080fd5b6103ce600480803573ffffffffffffffffffffffffffffffffffffffff16906020019091905050610af7565b604051808215151515815260200191505060405180910390f35b34156103f357600080fd5b61041f600480803573ffffffffffffffffffffffffffffffffffffffff16906020019091905050610b17565b005b341561042c57600080fd5b610458600480803573ffffffffffffffffffffffffffffffffffffffff16906020019091905050610bcd565b6040518082815260200191505060405180910390f35b341561047957600080fd5b6104ae600480803573ffffffffffffffffffffffffffffffffffffffff16906020019091908035906020019091905050610be5565b005b34156104bb57600080fd5b61050f600480803573ffffffffffffffffffffffffffffffffffffffff1690602001909190803573ffffffffffffffffffffffffffffffffffffffff16906020019091908035906020019091905050610c85565b005b341561051c57600080fd5b610548600480803573ffffffffffffffffffffffffffffffffffffffff16906020019091905050610d7c565b6040518082815260200191505060405180910390f35b341561056957600080fd5b610595600480803573ffffffffffffffffffffffffffffffffffffffff16906020019091905050610d94565b604051808215151515815260200191505060405180910390f35b34156105ba57600080fd5b6105e6600480803573ffffffffffffffffffffffffffffffffffffffff16906020019091905050610db4565b6040518082815260200191505060405180910390f35b341561060757600080fd5b61060f610dcc565b604051808273ffffffffffffffffffffffffffffffffffffffff1673ffffffffffffffffffffffffffffffffffffffff16815260200191505060405180910390f35b806000806101000a81548173ffffffffffffffffffffffffffffffffffffffff021916908373ffffffffffffffffffffffffffffffffffffffff16021790555050565b60026020528060005260406000206000915090505481565b600160003373ffffffffffffffffffffffffffffffffffffffff1673ffffffffffffffffffffffffffffffffffffffff16815260200190815260200160002060009054906101000a900460ff16151561070457600080fd5b80600260008473ffffffffffffffffffffffffffffffffffffffff1673ffffffffffffffffffffffffffffffffffffffff168152602001908152602001600020819055505050565b600160003373ffffffffffffffffffffffffffffffffffffffff1673ffffffffffffffffffffffffffffffffffffffff16815260200190815260200160002060009054906101000a900460ff1615156107a457600080fd5b80600460008473ffffffffffffffffffffffffffffffffffffffff1673ffffffffffffffffffffffffffffffffffffffff16815260200190815260200160002060006101000a81548160ff0219169083151502179055505050565b600160003373ffffffffffffffffffffffffffffffffffffffff1673ffffffffffffffffffffffffffffffffffffffff16815260200190815260200160002060009054906101000a900460ff16151561085757600080fd5b80600360008573ffffffffffffffffffffffffffffffffffffffff1673ffffffffffffffffffffffffffffffffffffffff16815260200190815260200160002060008473ffffffffffffffffffffffffffffffffffffffff1673ffffffffffffffffffffffffffffffffffffffff16815260200190815260200160002081905550505050565b6000809054906101000a900473ffffffffffffffffffffffffffffffffffffffff1673ffffffffffffffffffffffffffffffffffffffff163373ffffffffffffffffffffffffffffffffffffffff1614151561093857600080fd5b60018060008373ffffffffffffffffffffffffffffffffffffffff1673ffffffffffffffffffffffffffffffffffffffff16815260200190815260200160002060006101000a81548160ff02191690831515021790555050565b600160003373ffffffffffffffffffffffffffffffffffffffff1673ffffffffffffffffffffffffffffffffffffffff16815260200190815260200160002060009054906101000a900460ff1615156109ea57600080fd5b80600660008473ffffffffffffffffffffffffffffffffffffffff1673ffffffffffffffffffffffffffffffffffffffff168152602001908152602001600020819055505050565b6003602052816000526040600020602052806000526040600020600091509150505481565b600160003373ffffffffffffffffffffffffffffffffffffffff1673ffffffffffffffffffffffffffffffffffffffff16815260200190815260200160002060009054906101000a900460ff161515610aaf57600080fd5b80600560008473ffffffffffffffffffffffffffffffffffffffff1673ffffffffffffffffffffffffffffffffffffffff168152602001908152602001600020819055505050565b60046020528060005260406000206000915054906101000a900460ff1681565b6000809054906101000a900473ffffffffffffffffffffffffffffffffffffffff1673ffffffffffffffffffffffffffffffffffffffff163373ffffffffffffffffffffffffffffffffffffffff16141515610b7257600080fd5b6000600160008373ffffffffffffffffffffffffffffffffffffffff1673ffffffffffffffffffffffffffffffffffffffff16815260200190815260200160002060006101000a81548160ff02191690831515021790555050565b60076020528060005260406000206000915090505481565b600160003373ffffffffffffffffffffffffffffffffffffffff1673ffffffffffffffffffffffffffffffffffffffff16815260200190815260200160002060009054906101000a900460ff161515610c3d57600080fd5b80600760008473ffffffffffffffffffffffffffffffffffffffff1673ffffffffffffffffffffffffffffffffffffffff168152602001908152602001600020819055505050565b600160003373ffffffffffffffffffffffffffffffffffffffff1673ffffffffffffffffffffffffffffffffffffffff16815260200190815260200160002060009054906101000a900460ff161515610cdd57600080fd5b80600260008573ffffffffffffffffffffffffffffffffffffffff1673ffffffffffffffffffffffffffffffffffffffff1681526020019081526020016000206000828254039250508190555080600260008473ffffffffffffffffffffffffffffffffffffffff1673ffffffffffffffffffffffffffffffffffffffff16815260200190815260200160002060008282540192505081905550505050565b60066020528060005260406000206000915090505481565b60016020528060005260406000206000915054906101000a900460ff1681565b60056020528060005260406000206000915090505481565b6000809054906101000a900473ffffffffffffffffffffffffffffffffffffffff16815600a165627a7a72305820c8c2cb875b6b74281bb31500699b095f91bdd9ee1200809b96f777d729cac37d0029",
  "source": "/**\n * Track the core values of the charity currency state. This contract will be\n * valid for the rest of time. At any given point, there will be one master\n * controller contract for the currency. This controller will in turn delegate\n * the ability to modify core state. In the event of an upgrade to the\n * controller, approved contracts should be removed and a new address\n * supplied to the Core contract.\n *\n * The Core contract tracks precisely the following state:\n *     - ERC20 balances\n *     - ERC20 allowed spenders\n *     - Flags declaring designated charity addresses\n *     - Block number in which a charity was flagged\n *     - Temporarily frozen user funds\n *     - Block number in which funds were frozen\n */\n\npragma solidity ^0.4.13;\n\ncontract Core {\n\n    address public controller;\n    mapping(address => bool) public approved;\n\n    mapping(address => uint) public balances;\n    mapping(address => mapping (address => uint)) public allowed;\n    mapping(address => bool) public charityStatus;\n    mapping(address => uint) public charityTime;\n    mapping(address => uint) public frozenValue;\n    mapping(address => uint) public frozenTime;\n\n    modifier isController() {\n\trequire(msg.sender == controller);\n\t_;\n    }\n\n    modifier isApproved() {\n\trequire(approved[msg.sender]);\n\t_;\n    }\n\n    function Core() public {\n\tcontroller = msg.sender;\n    }\n\n    function upgrade(address _addr) public {\n\tcontroller = _addr;\n    }\n\n    function addApproved(address _addr) public isController {\n\tapproved[_addr] = true;\n    }\n\n    function removeApproved(address _addr) public isController {\n\tapproved[_addr] = false;\n    }\n\n    function setBalances(address _addr, uint _value) public isApproved {\n\tbalances[_addr] = _value;\n    }\n\n    function setCharityStatus(address _addr, bool _status) public isApproved {\n\tcharityStatus[_addr] = _status;\n    }\n\n    function setCharityTime(address _addr, uint _time) public isApproved {\n\tcharityTime[_addr] = _time;\n    }\n\n    function setAllowed(address _addr, address _allowed, uint _value) public isApproved {\n\tallowed[_addr][_allowed] = _value;\n    }\n\n    function setFrozenValue(address _addr, uint _value) public isApproved {\n\tfrozenValue[_addr] = _value;\n    }\n\n    function setFrozenTime(address _addr, uint _time) public isApproved {\n\tfrozenTime[_addr] = _time;\n    }\n\n    function transfer(address _to, address _from,  uint _value) public isApproved {\n\tbalances[_to] -= _value;\n\tbalances[_from] += _value;\n    }\n}\n",
  "sourcePath": "/home/thien-nam/Code/Ibis/src/contracts/Core.sol",
  "compiler": {
    "name": "solc",
    "version": "0.4.18+commit.9cf6e910.Emscripten.clang"
  },
  "schemaVersion": "1.0.1",
  "updatedAt": "2018-01-03T07:43:28.705Z"
}