{
  "contractName": "Democratic",
  "abi": [
    {
      "constant": true,
      "inputs": [],
      "name": "activeSuspensions",
      "outputs": [
        {
          "name": "",
          "type": "uint256"
        }
      ],
      "payable": false,
      "stateMutability": "view",
      "type": "function"
    },
    {
      "constant": false,
      "inputs": [],
      "name": "register",
      "outputs": [],
      "payable": false,
      "stateMutability": "nonpayable",
      "type": "function"
    },
    {
      "constant": false,
      "inputs": [
        {
          "name": "_addr",
          "type": "address"
        }
      ],
      "name": "unregister",
      "outputs": [],
      "payable": false,
      "stateMutability": "nonpayable",
      "type": "function"
    },
    {
      "constant": true,
      "inputs": [
        {
          "name": "",
          "type": "address"
        }
      ],
      "name": "numParticipating",
      "outputs": [
        {
          "name": "",
          "type": "uint256"
        }
      ],
      "payable": false,
      "stateMutability": "view",
      "type": "function"
    },
    {
      "constant": true,
      "inputs": [],
      "name": "usedSuspensions",
      "outputs": [
        {
          "name": "",
          "type": "uint256"
        }
      ],
      "payable": false,
      "stateMutability": "view",
      "type": "function"
    },
    {
      "constant": true,
      "inputs": [],
      "name": "voteDuration",
      "outputs": [
        {
          "name": "",
          "type": "uint256"
        }
      ],
      "payable": false,
      "stateMutability": "view",
      "type": "function"
    },
    {
      "constant": true,
      "inputs": [
        {
          "name": "",
          "type": "address"
        }
      ],
      "name": "votingBalance",
      "outputs": [
        {
          "name": "",
          "type": "uint256"
        }
      ],
      "payable": false,
      "stateMutability": "view",
      "type": "function"
    },
    {
      "constant": true,
      "inputs": [],
      "name": "maxSuspensions",
      "outputs": [
        {
          "name": "",
          "type": "uint256"
        }
      ],
      "payable": false,
      "stateMutability": "view",
      "type": "function"
    },
    {
      "constant": false,
      "inputs": [
        {
          "name": "_operation",
          "type": "bytes32"
        },
        {
          "name": "_supporting",
          "type": "bool"
        }
      ],
      "name": "vote",
      "outputs": [],
      "payable": false,
      "stateMutability": "nonpayable",
      "type": "function"
    },
    {
      "constant": true,
      "inputs": [
        {
          "name": "",
          "type": "bytes32"
        }
      ],
      "name": "issues",
      "outputs": [
        {
          "name": "initTime",
          "type": "uint256"
        },
        {
          "name": "threshold",
          "type": "uint256"
        },
        {
          "name": "supportingTotal",
          "type": "uint256"
        },
        {
          "name": "dissentingTotal",
          "type": "uint256"
        }
      ],
      "payable": false,
      "stateMutability": "view",
      "type": "function"
    },
    {
      "constant": false,
      "inputs": [
        {
          "name": "_operation",
          "type": "bytes32"
        }
      ],
      "name": "unvote",
      "outputs": [],
      "payable": false,
      "stateMutability": "nonpayable",
      "type": "function"
    },
    {
      "constant": false,
      "inputs": [
        {
          "name": "_operation",
          "type": "bytes32"
        },
        {
          "name": "_addr",
          "type": "address"
        }
      ],
      "name": "clearVote",
      "outputs": [],
      "payable": false,
      "stateMutability": "nonpayable",
      "type": "function"
    },
    {
      "inputs": [
        {
          "name": "_voteDuration",
          "type": "uint256"
        },
        {
          "name": "_maxSuspensions",
          "type": "uint256"
        }
      ],
      "payable": false,
      "stateMutability": "nonpayable",
      "type": "constructor"
    }
  ],
  "bytecode": "0x6060604052341561000f57600080fd5b604051604080610e308339810160405280805190602001909190805190602001909190505081600181905550806000819055505050610ddd806100536000396000f3006060604052600436106100ba576000357c0100000000000000000000000000000000000000000000000000000000900463ffffffff168063039f6908146100bf5780631aa3a008146100e85780632ec2c246146100fd578063422e1245146101365780634f3c9e301461018357806356364499146101ac5780635e035355146101d55780638deae71c146102225780639f2ce6781461024b578063ad52652a1461027d578063b1f6a4bf146102cd578063d0908842146102f4575b600080fd5b34156100ca57600080fd5b6100d261033a565b6040518082815260200191505060405180910390f35b34156100f357600080fd5b6100fb610340565b005b341561010857600080fd5b610134600480803573ffffffffffffffffffffffffffffffffffffffff169060200190919050506103d7565b005b341561014157600080fd5b61016d600480803573ffffffffffffffffffffffffffffffffffffffff169060200190919050506104fe565b6040518082815260200191505060405180910390f35b341561018e57600080fd5b610196610516565b6040518082815260200191505060405180910390f35b34156101b757600080fd5b6101bf61051c565b6040518082815260200191505060405180910390f35b34156101e057600080fd5b61020c600480803573ffffffffffffffffffffffffffffffffffffffff16906020019091905050610522565b6040518082815260200191505060405180910390f35b341561022d57600080fd5b61023561053a565b6040518082815260200191505060405180910390f35b341561025657600080fd5b61027b6004808035600019169060200190919080351515906020019091905050610540565b005b341561028857600080fd5b6102a260048080356000191690602001909190505061088d565b6040518085815260200184815260200183815260200182815260200194505050505060405180910390f35b34156102d857600080fd5b6102f26004808035600019169060200190919050506108bd565b005b34156102ff57600080fd5b61033860048080356000191690602001909190803573ffffffffffffffffffffffffffffffffffffffff16906020019091905050610ba7565b005b60035481565b6000600660003373ffffffffffffffffffffffffffffffffffffffff1673ffffffffffffffffffffffffffffffffffffffff1681526020019081526020016000205414156103d55761039133610da7565b600760003373ffffffffffffffffffffffffffffffffffffffff1673ffffffffffffffffffffffffffffffffffffffff168152602001908152602001600020819055505b565b3373ffffffffffffffffffffffffffffffffffffffff168173ffffffffffffffffffffffffffffffffffffffff1614801561045157506000600660003373ffffffffffffffffffffffffffffffffffffffff1673ffffffffffffffffffffffffffffffffffffffff16815260200190815260200160002054145b156104a35761045f81610dae565b600760008273ffffffffffffffffffffffffffffffffffffffff1673ffffffffffffffffffffffffffffffffffffffff168152602001908152602001600020600090555b600060045414156104fb576104b781610dae565b600760008273ffffffffffffffffffffffffffffffffffffffff1673ffffffffffffffffffffffffffffffffffffffff168152602001908152602001600020600090555b50565b60066020528060005260406000206000915090505481565b60025481565b60015481565b60076020528060005260406000206000915090505481565b60005481565b600060056000846000191660001916815260200190815260200160002060030160003373ffffffffffffffffffffffffffffffffffffffff1673ffffffffffffffffffffffffffffffffffffffff1681526020019081526020016000205460056000856000191660001916815260200190815260200160002060020160003373ffffffffffffffffffffffffffffffffffffffff1673ffffffffffffffffffffffffffffffffffffffff168152602001908152602001600020540114151561060757610889565b801561072557600760003373ffffffffffffffffffffffffffffffffffffffff1673ffffffffffffffffffffffffffffffffffffffff1681526020019081526020016000205460056000846000191660001916815260200190815260200160002060020160003373ffffffffffffffffffffffffffffffffffffffff1673ffffffffffffffffffffffffffffffffffffffff16815260200190815260200160002060008282540192505081905550600760003373ffffffffffffffffffffffffffffffffffffffff1673ffffffffffffffffffffffffffffffffffffffff1681526020019081526020016000205460056000846000191660001916815260200190815260200160002060040160008282540192505081905550610839565b600760003373ffffffffffffffffffffffffffffffffffffffff1673ffffffffffffffffffffffffffffffffffffffff1681526020019081526020016000205460056000846000191660001916815260200190815260200160002060030160003373ffffffffffffffffffffffffffffffffffffffff1673ffffffffffffffffffffffffffffffffffffffff16815260200190815260200160002060008282540192505081905550600760003373ffffffffffffffffffffffffffffffffffffffff1673ffffffffffffffffffffffffffffffffffffffff16815260200190815260200160002054600560008460001916600019168152602001908152602001600020600501600082825401925050819055505b600660003373ffffffffffffffffffffffffffffffffffffffff1673ffffffffffffffffffffffffffffffffffffffff168152602001908152602001600020600081548092919060010191905055505b5050565b60056020528060005260406000206000915090508060000154908060010154908060040154908060050154905084565b600060056000836000191660001916815260200190815260200160002060030160003373ffffffffffffffffffffffffffffffffffffffff1673ffffffffffffffffffffffffffffffffffffffff1681526020019081526020016000205460056000846000191660001916815260200190815260200160002060020160003373ffffffffffffffffffffffffffffffffffffffff1673ffffffffffffffffffffffffffffffffffffffff1681526020019081526020016000205401141561098357610ba4565b60056000826000191660001916815260200190815260200160002060020160003373ffffffffffffffffffffffffffffffffffffffff1673ffffffffffffffffffffffffffffffffffffffff1681526020019081526020016000205460056000836000191660001916815260200190815260200160002060040160008282540392505081905550600060056000836000191660001916815260200190815260200160002060020160003373ffffffffffffffffffffffffffffffffffffffff1673ffffffffffffffffffffffffffffffffffffffff1681526020019081526020016000208190555060056000826000191660001916815260200190815260200160002060030160003373ffffffffffffffffffffffffffffffffffffffff1673ffffffffffffffffffffffffffffffffffffffff1681526020019081526020016000205460056000836000191660001916815260200190815260200160002060050160008282540392505081905550600060056000836000191660001916815260200190815260200160002060030160003373ffffffffffffffffffffffffffffffffffffffff1673ffffffffffffffffffffffffffffffffffffffff16815260200190815260200160002081905550600660003373ffffffffffffffffffffffffffffffffffffffff1673ffffffffffffffffffffffffffffffffffffffff16815260200190815260200160002060008154809291906001900391905055505b50565b6001546005600084600019166000191681526020019081526020016000206000015401421015610da357600060056000846000191660001916815260200190815260200160002060030160008373ffffffffffffffffffffffffffffffffffffffff1673ffffffffffffffffffffffffffffffffffffffff1681526020019081526020016000205460056000856000191660001916815260200190815260200160002060020160008473ffffffffffffffffffffffffffffffffffffffff1673ffffffffffffffffffffffffffffffffffffffff1681526020019081526020016000205401141515610ce457600660003373ffffffffffffffffffffffffffffffffffffffff1673ffffffffffffffffffffffffffffffffffffffff16815260200190815260200160002060008154809291906001900391905055505b60056000836000191660001916815260200190815260200160002060020160008273ffffffffffffffffffffffffffffffffffffffff1673ffffffffffffffffffffffffffffffffffffffff1681526020019081526020016000206000905560056000836000191660001916815260200190815260200160002060030160008273ffffffffffffffffffffffffffffffffffffffff1673ffffffffffffffffffffffffffffffffffffffff168152602001908152602001600020600090555b5050565b6000919050565b505600a165627a7a72305820fc385e9563d1d68613b85ef0205f9e9f6010235369b7adc9f943976c0a7bdb5d0029",
  "source": "pragma solidity ^0.4.13;\n\ncontract Democratic {\n\n    struct Issue {\n\tuint initTime;\n\tuint threshold;\n\n\tmapping(address => uint) supporting;\n\tmapping(address => uint) dissenting;\n\n\tuint supportingTotal;\n\tuint dissentingTotal;\n    }\n\n    // constructor-defined constants\n    uint public maxSuspensions;\n    uint public voteDuration;\n\n    // variables to track suspensions\n    uint public usedSuspensions;\n    uint public activeSuspensions;\n\n    // variables to track voting issues\n    uint activeIssues;\n    mapping(bytes32 => Issue) public issues;          // map of active issues to be voted by the public\n    mapping(address => uint) public numParticipating;\n    mapping(address => uint) public votingBalance;    // balance that a user has spent on voting power\n\n    /// Function call must be approved by a majority of token stakeholders\n    modifier votable(bytes32 _operation, uint percent, bool suspend) {\n\tif(!checkVotes(_operation, percent, suspend)) {\n\t    assembly{stop}\n\t}\n\t_;\n\tdelete issues[_operation];\n    }\n\n    modifier suspendable() {\n\tif(activeSuspensions == 0) {\n\t    _;\n\t}\n    }\n\n    function Democratic(uint _voteDuration, uint _maxSuspensions) public {\n\tvoteDuration = _voteDuration;\n\tmaxSuspensions = _maxSuspensions;\n    }\n\n    function register() public {\n\t// cannot register if already registered\n\tif(numParticipating[msg.sender] == 0) {\n\t    votingBalance[msg.sender] = purchaseVotes(msg.sender);\n\t}\n    }\n\n    function unregister(address _addr) public {\n\n\t// allow user to clear their own vote if they are not participating in any issues\n\tif(_addr == msg.sender && numParticipating[msg.sender] == 0) {\n\t    returnVotes(_addr);\n\t    delete votingBalance[_addr];\n\t}\n\n\t// allow anyone to clear votes if there are no issues to vote on\n\tif(activeIssues == 0) {\n\t    returnVotes(_addr);\n\t    delete votingBalance[_addr];\n\t}\n    }\n\n    function vote(bytes32 _operation, bool _supporting) public {\n\n\t// already voted on this issue\n\tif(issues[_operation].supporting[msg.sender] + issues[_operation].dissenting[msg.sender] != 0) {\n\t    return;\n\t}\n\n\t// reference the issue created in \"publicVote\"\n\tif(_supporting) {\n\t    issues[_operation].supporting[msg.sender] += votingBalance[msg.sender];\n\t    issues[_operation].supportingTotal += votingBalance[msg.sender];\n\t}\n\telse {\n\t    issues[_operation].dissenting[msg.sender] += votingBalance[msg.sender];\n\t    issues[_operation].dissentingTotal += votingBalance[msg.sender];\n\t}\n\n\tnumParticipating[msg.sender]++;\n    }\n\n    function unvote(bytes32 _operation) public {\n\n\t// user hasn't voted on this issue\n\tif(issues[_operation].supporting[msg.sender] + issues[_operation].dissenting[msg.sender] == 0) {\n\t    return;\n\t}\n\n\tissues[_operation].supportingTotal -= issues[_operation].supporting[msg.sender];\n        issues[_operation].supporting[msg.sender] = 0;\n\n\tissues[_operation].dissentingTotal -= issues[_operation].dissenting[msg.sender];\n\tissues[_operation].dissenting[msg.sender] = 0;\n\n\tnumParticipating[msg.sender]--;\n    }\n\n    // Allow anybody to clear the space taken by a prior issue vote\n    function clearVote(bytes32 _operation, address _addr) public {\n\tif(block.timestamp < issues[_operation].initTime + voteDuration) {\n\t    if(issues[_operation].supporting[_addr] + issues[_operation].dissenting[_addr] != 0) {\n\t\tnumParticipating[msg.sender]--;\n\t    }\n\n\t    delete issues[_operation].supporting[_addr];\n\t    delete issues[_operation].dissenting[_addr];\n\t}\n    }\n\n    /// Public signalling of support/dissent for an open vote; return true if the voting duration\n    /// is over AND a sufficient majority has been reached\n    function checkVotes(bytes32 _operation, uint _percent, bool _suspend)\n\tprivate returns (bool) {\n\n\t// if this is the first call then create a new issue and set the initial block time\n\tif(issues[_operation].initTime == 0) {\n\t    if(_suspend && usedSuspensions >= maxSuspensions) {\n\t\treturn false;\n\t    }\n\n\t    if(_suspend) {\n\t\tusedSuspensions ++;\n\t\tactiveSuspensions++;\n\t    }\n\n\t    issues[_operation].initTime = block.timestamp;\n\t    issues[_operation].threshold = _percent;\n\n\t    return false;\n\t}\n\n\t// if the voting period has ended then tally the votes and return the result\n\tif (block.timestamp > issues[_operation].initTime + voteDuration) {\n\t    if(_suspend) activeSuspensions--;\n\n \t    uint total = issues[_operation].supportingTotal + issues[_operation].dissentingTotal;\n\t    return issues[_operation].supportingTotal > total * issues[_operation].threshold;\n\t}\n    }\n\n    ///---------------------------------- Abstract Methods ----------------------------------///\n\n    function purchaseVotes(address) internal returns (uint) {\n\t// implement in child to freeze funds, etc\n    }\n\n    function returnVotes(address) internal {\n\t// implement in child to unfreeze funds, etc\n    }\n}\n",
  "sourcePath": "/home/thien-nam/Code/Ibis/src/contracts/Democratic.sol",
  "compiler": {
    "name": "solc",
    "version": "0.4.18+commit.9cf6e910.Emscripten.clang"
  },
  "schemaVersion": "1.0.1",
  "updatedAt": "2018-01-03T07:37:24.451Z"
}