{
  "contractName": "Democratic",
  "abi": [
    {
      "constant": false,
      "inputs": [],
      "name": "register",
      "outputs": [],
      "payable": false,
      "stateMutability": "nonpayable",
      "type": "function"
    },
    {
      "constant": false,
      "inputs": [
        {
          "name": "_addr",
          "type": "address"
        }
      ],
      "name": "unregister",
      "outputs": [],
      "payable": false,
      "stateMutability": "nonpayable",
      "type": "function"
    },
    {
      "constant": false,
      "inputs": [
        {
          "name": "_operation",
          "type": "bytes32"
        },
        {
          "name": "_supporting",
          "type": "bool"
        }
      ],
      "name": "vote",
      "outputs": [],
      "payable": false,
      "stateMutability": "nonpayable",
      "type": "function"
    },
    {
      "constant": false,
      "inputs": [
        {
          "name": "_operation",
          "type": "bytes32"
        }
      ],
      "name": "unvote",
      "outputs": [],
      "payable": false,
      "stateMutability": "nonpayable",
      "type": "function"
    },
    {
      "constant": false,
      "inputs": [
        {
          "name": "_operation",
          "type": "bytes32"
        },
        {
          "name": "_addr",
          "type": "address"
        }
      ],
      "name": "clearVote",
      "outputs": [],
      "payable": false,
      "stateMutability": "nonpayable",
      "type": "function"
    },
    {
      "inputs": [
        {
          "name": "_voteDuration",
          "type": "uint256"
        },
        {
          "name": "_maxSuspensions",
          "type": "uint256"
        }
      ],
      "payable": false,
      "stateMutability": "nonpayable",
      "type": "constructor"
    }
  ],
  "bytecode": "0x6060604052341561000f57600080fd5b604051604080610ba88339810160405280805190602001909190805190602001909190505081600181905550806000819055505050610b55806100536000396000f30060606040526004361061006d576000357c0100000000000000000000000000000000000000000000000000000000900463ffffffff1680631aa3a008146100725780632ec2c246146100875780639f2ce678146100c0578063b1f6a4bf146100f2578063d090884214610119575b600080fd5b341561007d57600080fd5b61008561015f565b005b341561009257600080fd5b6100be600480803573ffffffffffffffffffffffffffffffffffffffff169060200190919050506101ad565b005b34156100cb57600080fd5b6100f060048080356000191690602001909190803515159060200190919050506102e4565b005b34156100fd57600080fd5b610117600480803560001916906020019091905050610631565b005b341561012457600080fd5b61015d60048080356000191690602001909190803573ffffffffffffffffffffffffffffffffffffffff1690602001909190505061091b565b005b61016833610b1b565b600760003373ffffffffffffffffffffffffffffffffffffffff1673ffffffffffffffffffffffffffffffffffffffff16815260200190815260200160002081905550565b3373ffffffffffffffffffffffffffffffffffffffff168173ffffffffffffffffffffffffffffffffffffffff1614801561022757506000600660003373ffffffffffffffffffffffffffffffffffffffff1673ffffffffffffffffffffffffffffffffffffffff16815260200190815260200160002054145b8015610238575061023781610b22565b5b1561028157600760008273ffffffffffffffffffffffffffffffffffffffff1673ffffffffffffffffffffffffffffffffffffffff168152602001908152602001600020600090555b6000600454148015610298575061029781610b22565b5b156102e157600760008273ffffffffffffffffffffffffffffffffffffffff1673ffffffffffffffffffffffffffffffffffffffff168152602001908152602001600020600090555b50565b600060056000846000191660001916815260200190815260200160002060030160003373ffffffffffffffffffffffffffffffffffffffff1673ffffffffffffffffffffffffffffffffffffffff1681526020019081526020016000205460056000856000191660001916815260200190815260200160002060020160003373ffffffffffffffffffffffffffffffffffffffff1673ffffffffffffffffffffffffffffffffffffffff16815260200190815260200160002054011415156103ab5761062d565b80156104c957600760003373ffffffffffffffffffffffffffffffffffffffff1673ffffffffffffffffffffffffffffffffffffffff1681526020019081526020016000205460056000846000191660001916815260200190815260200160002060020160003373ffffffffffffffffffffffffffffffffffffffff1673ffffffffffffffffffffffffffffffffffffffff16815260200190815260200160002060008282540192505081905550600760003373ffffffffffffffffffffffffffffffffffffffff1673ffffffffffffffffffffffffffffffffffffffff16815260200190815260200160002054600560008460001916600019168152602001908152602001600020600401600082825401925050819055506105dd565b600760003373ffffffffffffffffffffffffffffffffffffffff1673ffffffffffffffffffffffffffffffffffffffff1681526020019081526020016000205460056000846000191660001916815260200190815260200160002060030160003373ffffffffffffffffffffffffffffffffffffffff1673ffffffffffffffffffffffffffffffffffffffff16815260200190815260200160002060008282540192505081905550600760003373ffffffffffffffffffffffffffffffffffffffff1673ffffffffffffffffffffffffffffffffffffffff16815260200190815260200160002054600560008460001916600019168152602001908152602001600020600501600082825401925050819055505b600660003373ffffffffffffffffffffffffffffffffffffffff1673ffffffffffffffffffffffffffffffffffffffff168152602001908152602001600020600081548092919060010191905055505b5050565b600060056000836000191660001916815260200190815260200160002060030160003373ffffffffffffffffffffffffffffffffffffffff1673ffffffffffffffffffffffffffffffffffffffff1681526020019081526020016000205460056000846000191660001916815260200190815260200160002060020160003373ffffffffffffffffffffffffffffffffffffffff1673ffffffffffffffffffffffffffffffffffffffff168152602001908152602001600020540114156106f757610918565b60056000826000191660001916815260200190815260200160002060020160003373ffffffffffffffffffffffffffffffffffffffff1673ffffffffffffffffffffffffffffffffffffffff1681526020019081526020016000205460056000836000191660001916815260200190815260200160002060040160008282540392505081905550600060056000836000191660001916815260200190815260200160002060020160003373ffffffffffffffffffffffffffffffffffffffff1673ffffffffffffffffffffffffffffffffffffffff1681526020019081526020016000208190555060056000826000191660001916815260200190815260200160002060030160003373ffffffffffffffffffffffffffffffffffffffff1673ffffffffffffffffffffffffffffffffffffffff1681526020019081526020016000205460056000836000191660001916815260200190815260200160002060050160008282540392505081905550600060056000836000191660001916815260200190815260200160002060030160003373ffffffffffffffffffffffffffffffffffffffff1673ffffffffffffffffffffffffffffffffffffffff16815260200190815260200160002081905550600660003373ffffffffffffffffffffffffffffffffffffffff1673ffffffffffffffffffffffffffffffffffffffff16815260200190815260200160002060008154809291906001900391905055505b50565b6001546005600084600019166000191681526020019081526020016000206000015401431015610b1757600060056000846000191660001916815260200190815260200160002060030160008373ffffffffffffffffffffffffffffffffffffffff1673ffffffffffffffffffffffffffffffffffffffff1681526020019081526020016000205460056000856000191660001916815260200190815260200160002060020160008473ffffffffffffffffffffffffffffffffffffffff1673ffffffffffffffffffffffffffffffffffffffff1681526020019081526020016000205401141515610a5857600660003373ffffffffffffffffffffffffffffffffffffffff1673ffffffffffffffffffffffffffffffffffffffff16815260200190815260200160002060008154809291906001900391905055505b60056000836000191660001916815260200190815260200160002060020160008273ffffffffffffffffffffffffffffffffffffffff1673ffffffffffffffffffffffffffffffffffffffff1681526020019081526020016000206000905560056000836000191660001916815260200190815260200160002060030160008273ffffffffffffffffffffffffffffffffffffffff1673ffffffffffffffffffffffffffffffffffffffff168152602001908152602001600020600090555b5050565b6000919050565b60009190505600a165627a7a72305820019f0256f67ac65c3d97d78b416cce609b3a7f6731f5ae5fdd5395e141d77c650029",
  "source": "pragma solidity ^0.4.13;\n\ncontract Democratic {\n\n    struct Issue {\n\tuint initBlock;\n\tuint threshold;\n\n\tmapping(address => uint) supporting;\n\tmapping(address => uint) dissenting;\n\n\tuint supportingTotal;\n\tuint dissentingTotal;\n    }\n\n    // constructor-defined constants\n    uint maxSuspensions;\n    uint voteDuration;\n\n    // variables to track suspensions\n    uint usedSuspensions;\n    uint activeSuspensions;\n\n    // variables to track voting issues\n    uint activeIssues;\n    mapping(bytes32 => Issue) issues;           // map of active issues to be voted by the public\n    mapping(address => uint) numParticipating;\n    mapping(address => uint) votingBalance;  // balance that a user has spent on voting power\n\n    /// Function call must be approved by a majority of token stakeholders\n    modifier votable(bytes32 _operation, uint percent, bool suspend) {\n\tif(checkVotes(_operation, percent, suspend)) {\n\t    _;\n\t    delete issues[_operation];\n\t}\n    }\n\n    modifier suspendable() {\n\tif(activeSuspensions == 0) {\n\t    _;\n\t}\n    }\n\n    function Democratic(uint _voteDuration, uint _maxSuspensions) public {\n\tvoteDuration = _voteDuration;\n\tmaxSuspensions = _maxSuspensions;\n    }\n\n    function register() public {\n\tvotingBalance[msg.sender] = purchaseVotes(msg.sender);\n    }\n\n    function unregister(address _addr) public {\n\n\t// allow user to clear their own vote if they are not participating in any issues\n\tif(_addr == msg.sender && numParticipating[msg.sender] == 0 && returnVotes(_addr)) {\n\t    delete votingBalance[_addr];\n\t}\n\n\t// allow anyone to clear votes if there are no issues to vote on\n\tif(activeIssues == 0 && returnVotes(_addr)) {\n\t    delete votingBalance[_addr];\n\t}\n    }\n\n    function vote(bytes32 _operation, bool _supporting) public {\n\n\t// already voted on this issue\n\tif(issues[_operation].supporting[msg.sender] + issues[_operation].dissenting[msg.sender] != 0) {\n\t    return;\n\t}\n\n\t// reference the issue created in \"publicVote\"\n\tif(_supporting) {\n\t    issues[_operation].supporting[msg.sender] += votingBalance[msg.sender];\n\t    issues[_operation].supportingTotal += votingBalance[msg.sender];\n\t}\n\telse {\n\t    issues[_operation].dissenting[msg.sender] += votingBalance[msg.sender];\n\t    issues[_operation].dissentingTotal += votingBalance[msg.sender];\n\t}\n\n\tnumParticipating[msg.sender]++;\n    }\n\n    function unvote(bytes32 _operation) public {\n\n\t// user hasn't voted on this issue\n\tif(issues[_operation].supporting[msg.sender] + issues[_operation].dissenting[msg.sender] == 0) {\n\t    return;\n\t}\n\n\tissues[_operation].supportingTotal -= issues[_operation].supporting[msg.sender];\n        issues[_operation].supporting[msg.sender] = 0;\n\n\tissues[_operation].dissentingTotal -= issues[_operation].dissenting[msg.sender];\n\tissues[_operation].dissenting[msg.sender] = 0;\n\n\tnumParticipating[msg.sender]--;\n    }\n\n    // Allow anybody to clear the space taken by a prior issue vote\n    function clearVote(bytes32 _operation, address _addr) public {\n\tif(block.number < issues[_operation].initBlock + voteDuration) {\n\t    if(issues[_operation].supporting[_addr] + issues[_operation].dissenting[_addr] != 0) {\n\t\tnumParticipating[msg.sender]--;\n\t    }\n\n\t    delete issues[_operation].supporting[_addr];\n\t    delete issues[_operation].dissenting[_addr];\n\t}\n    }\n\n    /// Public signalling of support/dissent for an open vote; return true if the voting duration\n    /// is over AND a sufficient majority has been reached\n    function checkVotes(bytes32 _operation, uint _percent, bool _suspend)\n\tprivate returns (bool) {\n\n\t// if this is the first call then create a new issue and set the initial block number\n\tif(issues[_operation].initBlock != 0) {\n\t    if(_suspend && usedSuspensions >= maxSuspensions) {\n\t\treturn false;\n\t    }\n\n\t    if(_suspend) {\n\t\tusedSuspensions ++;\n\t\tactiveSuspensions++;\n\t    }\n\n\t    issues[_operation].initBlock = block.number;\n\t    issues[_operation].threshold = _percent;\n\n\t    return false;\n\t}\n\n\t// if the voting period has ended then tally the votes and return the result\n\tif (block.number > issues[_operation].initBlock + voteDuration) {\n\t    if(_suspend) activeSuspensions--;\n\n \t    uint total = issues[_operation].supportingTotal + issues[_operation].dissentingTotal;\n\t    return issues[_operation].supportingTotal > total * issues[_operation].threshold;\n\t}\n    }\n\n    ///---------------------------------- Abstract Methods ----------------------------------///\n\n    function purchaseVotes(address) internal pure returns (uint) {\n\t// implement in child to freeze funds, etc\n    }\n\n    function returnVotes(address) internal pure returns (bool) {\n\t// implement in child to unfreeze funds, etc\n    }\n}\n",
  "sourcePath": "/home/thien-nam/Code/Ibis/src/contracts/Democratic.sol",
  "compiler": {
    "name": "solc",
    "version": "0.4.18+commit.9cf6e910.Emscripten.clang"
  },
  "schemaVersion": "1.0.1",
  "updatedAt": "2018-01-02T08:08:25.072Z"
}