{
  "contractName": "Democratic",
  "abi": [
    {
      "constant": true,
      "inputs": [],
      "name": "activeSuspensions",
      "outputs": [
        {
          "name": "",
          "type": "uint256"
        }
      ],
      "payable": false,
      "stateMutability": "view",
      "type": "function"
    },
    {
      "constant": true,
      "inputs": [
        {
          "name": "",
          "type": "address"
        }
      ],
      "name": "numParticipating",
      "outputs": [
        {
          "name": "",
          "type": "uint256"
        }
      ],
      "payable": false,
      "stateMutability": "view",
      "type": "function"
    },
    {
      "constant": false,
      "inputs": [
        {
          "name": "_addr",
          "type": "address"
        }
      ],
      "name": "unregisterFor",
      "outputs": [],
      "payable": false,
      "stateMutability": "nonpayable",
      "type": "function"
    },
    {
      "constant": true,
      "inputs": [],
      "name": "usedSuspensions",
      "outputs": [
        {
          "name": "",
          "type": "uint256"
        }
      ],
      "payable": false,
      "stateMutability": "view",
      "type": "function"
    },
    {
      "constant": true,
      "inputs": [],
      "name": "voteDuration",
      "outputs": [
        {
          "name": "",
          "type": "uint256"
        }
      ],
      "payable": false,
      "stateMutability": "view",
      "type": "function"
    },
    {
      "constant": true,
      "inputs": [],
      "name": "maxSuspensions",
      "outputs": [
        {
          "name": "",
          "type": "uint256"
        }
      ],
      "payable": false,
      "stateMutability": "view",
      "type": "function"
    },
    {
      "constant": false,
      "inputs": [
        {
          "name": "_operation",
          "type": "bytes32"
        },
        {
          "name": "_supporting",
          "type": "bool"
        }
      ],
      "name": "vote",
      "outputs": [],
      "payable": false,
      "stateMutability": "nonpayable",
      "type": "function"
    },
    {
      "constant": true,
      "inputs": [
        {
          "name": "",
          "type": "address"
        }
      ],
      "name": "votingStake",
      "outputs": [
        {
          "name": "",
          "type": "uint256"
        }
      ],
      "payable": false,
      "stateMutability": "view",
      "type": "function"
    },
    {
      "constant": true,
      "inputs": [
        {
          "name": "",
          "type": "bytes32"
        }
      ],
      "name": "issues",
      "outputs": [
        {
          "name": "initTime",
          "type": "uint256"
        },
        {
          "name": "threshold",
          "type": "uint256"
        },
        {
          "name": "supportingTotal",
          "type": "uint256"
        },
        {
          "name": "dissentingTotal",
          "type": "uint256"
        }
      ],
      "payable": false,
      "stateMutability": "view",
      "type": "function"
    },
    {
      "constant": false,
      "inputs": [
        {
          "name": "_operation",
          "type": "bytes32"
        }
      ],
      "name": "unvote",
      "outputs": [],
      "payable": false,
      "stateMutability": "nonpayable",
      "type": "function"
    },
    {
      "constant": false,
      "inputs": [
        {
          "name": "_operation",
          "type": "bytes32"
        },
        {
          "name": "_addr",
          "type": "address"
        }
      ],
      "name": "clearVote",
      "outputs": [],
      "payable": false,
      "stateMutability": "nonpayable",
      "type": "function"
    },
    {
      "constant": false,
      "inputs": [],
      "name": "unregister",
      "outputs": [],
      "payable": false,
      "stateMutability": "nonpayable",
      "type": "function"
    },
    {
      "constant": false,
      "inputs": [
        {
          "name": "_votes",
          "type": "uint256"
        }
      ],
      "name": "register",
      "outputs": [],
      "payable": false,
      "stateMutability": "nonpayable",
      "type": "function"
    },
    {
      "inputs": [
        {
          "name": "_voteDuration",
          "type": "uint256"
        },
        {
          "name": "_maxSuspensions",
          "type": "uint256"
        }
      ],
      "payable": false,
      "stateMutability": "nonpayable",
      "type": "constructor"
    }
  ],
  "bytecode": "0x6060604052341561000f57600080fd5b604051604080610e048339810160405280805190602001909190805190602001909190505081600181905550806000819055505050610db1806100536000396000f3006060604052600436106100c5576000357c0100000000000000000000000000000000000000000000000000000000900463ffffffff168063039f6908146100ca578063422e1245146100f35780634d2e54a8146101405780634f3c9e301461017957806356364499146101a25780638deae71c146101cb5780639f2ce678146101f45780639f45b13314610226578063ad52652a14610273578063b1f6a4bf146102c3578063d0908842146102ea578063e79a198f14610330578063f207564e14610345575b600080fd5b34156100d557600080fd5b6100dd610368565b6040518082815260200191505060405180910390f35b34156100fe57600080fd5b61012a600480803573ffffffffffffffffffffffffffffffffffffffff1690602001909190505061036e565b6040518082815260200191505060405180910390f35b341561014b57600080fd5b610177600480803573ffffffffffffffffffffffffffffffffffffffff16906020019091905050610386565b005b341561018457600080fd5b61018c61042d565b6040518082815260200191505060405180910390f35b34156101ad57600080fd5b6101b5610433565b6040518082815260200191505060405180910390f35b34156101d657600080fd5b6101de610439565b6040518082815260200191505060405180910390f35b34156101ff57600080fd5b610224600480803560001916906020019091908035151590602001909190505061043f565b005b341561023157600080fd5b61025d600480803573ffffffffffffffffffffffffffffffffffffffff169060200190919050506106fc565b6040518082815260200191505060405180910390f35b341561027e57600080fd5b610298600480803560001916906020019091905050610714565b6040518085815260200184815260200183815260200182815260200194505050505060405180910390f35b34156102ce57600080fd5b6102e8600480803560001916906020019091905050610744565b005b34156102f557600080fd5b61032e60048080356000191690602001909190803573ffffffffffffffffffffffffffffffffffffffff16906020019091905050610a8b565b005b341561033b57600080fd5b610343610bfe565b005b341561035057600080fd5b6103666004808035906020019091905050610ce1565b005b60035481565b60066020528060005260406000206000915090505481565b6000600760008373ffffffffffffffffffffffffffffffffffffffff1673ffffffffffffffffffffffffffffffffffffffff16815260200190815260200160002054141580156103d857506000600454145b1561042a57600760008273ffffffffffffffffffffffffffffffffffffffff1673ffffffffffffffffffffffffffffffffffffffff1681526020019081526020016000206000905561042981610d7a565b5b50565b60025481565b60015481565b60005481565b6000600281111561044c57fe5b60056000846000191660001916815260200190815260200160002060040160003373ffffffffffffffffffffffffffffffffffffffff1673ffffffffffffffffffffffffffffffffffffffff16815260200190815260200160002060009054906101000a900460ff1660028111156104c057fe5b1415156104cc576106f8565b80156105bf57600160056000846000191660001916815260200190815260200160002060040160003373ffffffffffffffffffffffffffffffffffffffff1673ffffffffffffffffffffffffffffffffffffffff16815260200190815260200160002060006101000a81548160ff0219169083600281111561054a57fe5b0217905550600760003373ffffffffffffffffffffffffffffffffffffffff1673ffffffffffffffffffffffffffffffffffffffff16815260200190815260200160002054600560008460001916600019168152602001908152602001600020600201600082825401925050819055506106a8565b600260056000846000191660001916815260200190815260200160002060040160003373ffffffffffffffffffffffffffffffffffffffff1673ffffffffffffffffffffffffffffffffffffffff16815260200190815260200160002060006101000a81548160ff0219169083600281111561063757fe5b0217905550600760003373ffffffffffffffffffffffffffffffffffffffff1673ffffffffffffffffffffffffffffffffffffffff16815260200190815260200160002054600560008460001916600019168152602001908152602001600020600301600082825401925050819055505b600660003373ffffffffffffffffffffffffffffffffffffffff1673ffffffffffffffffffffffffffffffffffffffff168152602001908152602001600020600081548092919060010191905055505b5050565b60076020528060005260406000206000915090505481565b60056020528060005260406000206000915090508060000154908060010154908060020154908060030154905084565b6000600281111561075157fe5b60056000836000191660001916815260200190815260200160002060040160003373ffffffffffffffffffffffffffffffffffffffff1673ffffffffffffffffffffffffffffffffffffffff16815260200190815260200160002060009054906101000a900460ff1660028111156107c557fe5b14156107d057610a88565b600160028111156107dd57fe5b60056000836000191660001916815260200190815260200160002060040160003373ffffffffffffffffffffffffffffffffffffffff1673ffffffffffffffffffffffffffffffffffffffff16815260200190815260200160002060009054906101000a900460ff16600281111561085157fe5b14156108c757600760003373ffffffffffffffffffffffffffffffffffffffff1673ffffffffffffffffffffffffffffffffffffffff16815260200190815260200160002054600560008360001916600019168152602001908152602001600020600201600082825403925050819055506109ba565b6002808111156108d357fe5b60056000836000191660001916815260200190815260200160002060040160003373ffffffffffffffffffffffffffffffffffffffff1673ffffffffffffffffffffffffffffffffffffffff16815260200190815260200160002060009054906101000a900460ff16600281111561094757fe5b14156109b957600760003373ffffffffffffffffffffffffffffffffffffffff1673ffffffffffffffffffffffffffffffffffffffff16815260200190815260200160002054600560008360001916600019168152602001908152602001600020600301600082825403925050819055505b5b600660003373ffffffffffffffffffffffffffffffffffffffff1673ffffffffffffffffffffffffffffffffffffffff1681526020019081526020016000206000815480929190600190039190505550600060056000836000191660001916815260200190815260200160002060040160003373ffffffffffffffffffffffffffffffffffffffff1673ffffffffffffffffffffffffffffffffffffffff16815260200190815260200160002060006101000a81548160ff02191690836002811115610a8257fe5b02179055505b50565b6001546005600084600019166000191681526020019081526020016000206000015401421015610bfa5760006002811115610ac257fe5b60056000846000191660001916815260200190815260200160002060040160008373ffffffffffffffffffffffffffffffffffffffff1673ffffffffffffffffffffffffffffffffffffffff16815260200190815260200160002060009054906101000a900460ff166002811115610b3657fe5b141515610b8e57600660008273ffffffffffffffffffffffffffffffffffffffff1673ffffffffffffffffffffffffffffffffffffffff16815260200190815260200160002060008154809291906001900391905055505b60056000836000191660001916815260200190815260200160002060040160008273ffffffffffffffffffffffffffffffffffffffff1673ffffffffffffffffffffffffffffffffffffffff16815260200190815260200160002060006101000a81549060ff02191690555b5050565b6000600760003373ffffffffffffffffffffffffffffffffffffffff1673ffffffffffffffffffffffffffffffffffffffff1681526020019081526020016000205414158015610c8d57506000600660003373ffffffffffffffffffffffffffffffffffffffff1673ffffffffffffffffffffffffffffffffffffffff16815260200190815260200160002054145b15610cdf57600760003373ffffffffffffffffffffffffffffffffffffffff1673ffffffffffffffffffffffffffffffffffffffff16815260200190815260200160002060009055610cde33610d7a565b5b565b6000600760003373ffffffffffffffffffffffffffffffffffffffff1673ffffffffffffffffffffffffffffffffffffffff168152602001908152602001600020541415610d7757610d333382610d7d565b600760003373ffffffffffffffffffffffffffffffffffffffff1673ffffffffffffffffffffffffffffffffffffffff168152602001908152602001600020819055505b50565b50565b6000929150505600a165627a7a7230582044c7d24b618e520d199e1e394b808c2adf1cb010914c9b61d9789c074f3fa4860029",
  "source": "pragma solidity ^0.4.13;\n\ncontract Democratic {\n\n    enum Ballot {EMPTY, SUPPORTING, DISSENTING}\n\n    struct Issue {\n\tuint initTime;\n\tuint threshold;\n\n\tuint supportingTotal;\n\tuint dissentingTotal;\n\n\tmapping(address => Ballot) ballots;\n    }\n\n    // constructor-defined constants\n    uint public maxSuspensions;\n    uint public voteDuration;\n\n    // variables to track suspensions\n    uint public usedSuspensions;\n    uint public activeSuspensions;\n\n    // variables to track voting issues\n    uint activeIssues;\n    mapping(bytes32 => Issue) public issues;          // map of active issues to be voted by the public\n    mapping(address => uint) public numParticipating;\n    mapping(address => uint) public votingStake;    // balance that a user has spent on voting power\n\n    /// Function call must be approved by a majority of token stakeholders\n    modifier votable(bytes32 _operation, uint percent, bool suspend) {\n\tif(!checkVotes(_operation, percent, suspend)) {\n\t    assembly{stop}\n\t}\n\t_;\n\tdelete issues[_operation];\n    }\n\n    modifier suspendable() {\n\tif(activeSuspensions == 0) {\n\t    _;\n\t}\n    }\n\n    function Democratic(uint _voteDuration, uint _maxSuspensions) public {\n\tvoteDuration = _voteDuration;\n\tmaxSuspensions = _maxSuspensions;\n    }\n\n    function register(uint _votes) public {\n\t// cannot register if already registered\n\tif(votingStake[msg.sender] == 0) {\n\t    votingStake[msg.sender] = purchaseVotes(msg.sender, _votes);\n\t}\n    }\n\n    /// Allow users to unregister themselves if they are not actively participating\n    function unregister() public {\n\tif(votingStake[msg.sender] != 0 && numParticipating[msg.sender] == 0) {\n\t    delete votingStake[msg.sender];\n\t    returnVotes(msg.sender);\n\t}\n    }\n\n    /// Allow anybody to unregister a voter if there are no active issues\n    function unregisterFor(address _addr) public {\n\tif(votingStake[_addr] != 0 && activeIssues == 0) {\n\t    delete votingStake[_addr];\n\t    returnVotes(_addr);\n\t}\n    }\n\n    function vote(bytes32 _operation, bool _supporting) public {\n\n\t// already voted on this issue\n\tif(issues[_operation].ballots[msg.sender] != Ballot.EMPTY) {\n\t    return;\n\t}\n\n\t// reference the issue created in \"publicVote\"\n\tif(_supporting) {\n\t    issues[_operation].ballots[msg.sender] = Ballot.SUPPORTING;\n\t    issues[_operation].supportingTotal += votingStake[msg.sender];\n\t}\n\telse {\n\t    issues[_operation].ballots[msg.sender] = Ballot.DISSENTING;\n\t    issues[_operation].dissentingTotal += votingStake[msg.sender];\n\t}\n\n\tnumParticipating[msg.sender]++;\n    }\n\n    function unvote(bytes32 _operation) public {\n\n\t// user hasn't voted on this issue\n\tif(issues[_operation].ballots[msg.sender] == Ballot.EMPTY) {\n\t    return;\n\t}\n\n\tif(issues[_operation].ballots[msg.sender] == Ballot.SUPPORTING) {\n\t    issues[_operation].supportingTotal -= votingStake[msg.sender];\n\t}\n\telse if(issues[_operation].ballots[msg.sender] == Ballot.DISSENTING) {\n\t    issues[_operation].dissentingTotal -= votingStake[msg.sender];\n\t}\n\n\tnumParticipating[msg.sender]--;\n\tissues[_operation].ballots[msg.sender] = Ballot.EMPTY;\n    }\n\n    // Allow anybody to clear the space taken by a prior issue vote\n    function clearVote(bytes32 _operation, address _addr) public {\n\tif(block.timestamp < issues[_operation].initTime + voteDuration) {\n\t    if(issues[_operation].ballots[_addr] != Ballot.EMPTY) {\n\t\tnumParticipating[_addr]--;\n\t    }\n\n\t    delete issues[_operation].ballots[_addr];\n\t}\n    }\n\n    /// Public signalling of support/dissent for an open vote; return true if the voting duration\n    /// is over AND a sufficient majority has been reached\n    function checkVotes(bytes32 _operation, uint _percent, bool _suspend)\n\tprivate returns (bool) {\n\n\t// if this is the first call then create a new issue and set the initial block time\n\tif(issues[_operation].initTime == 0) {\n\t    if(_suspend && usedSuspensions >= maxSuspensions) {\n\t\treturn false;\n\t    }\n\n\t    if(_suspend) {\n\t\tusedSuspensions ++;\n\t\tactiveSuspensions++;\n\t    }\n\n\t    issues[_operation].initTime = block.timestamp;\n\t    issues[_operation].threshold = _percent;\n\t    activeIssues++;\n\n\t    return false;\n\t}\n\n\t// if the voting period has ended then tally the votes and return the result\n\tif (block.timestamp >= issues[_operation].initTime + voteDuration) {\n\t    if(_suspend) activeSuspensions--;\n\t    activeIssues--;\n\t    issues[_operation].threshold = 5;\n \t    uint total = issues[_operation].supportingTotal + issues[_operation].dissentingTotal;\n\t    return issues[_operation].supportingTotal * 100 > total * issues[_operation].threshold;\n\t}\n    }\n\n    ///---------------------------------- Abstract Methods ----------------------------------///\n\n    function purchaseVotes(address, uint) internal returns (uint) {\n\t// implement in child to freeze funds, etc\n    }\n\n    function returnVotes(address) internal {\n\t// implement in child to unfreeze funds, etc\n    }\n}\n",
  "sourcePath": "/home/thien-nam/Code/Ibis/src/contracts/Democratic.sol",
  "compiler": {
    "name": "solc",
    "version": "0.4.18+commit.9cf6e910.Emscripten.clang"
  },
  "schemaVersion": "1.0.1",
  "updatedAt": "2018-01-03T21:01:02.459Z"
}