{
  "contractName": "Ibis",
  "abi": [
    {
      "constant": true,
      "inputs": [
        {
          "name": "",
          "type": "address"
        }
      ],
      "name": "owners",
      "outputs": [
        {
          "name": "",
          "type": "bool"
        }
      ],
      "payable": false,
      "stateMutability": "view",
      "type": "function"
    },
    {
      "constant": true,
      "inputs": [],
      "name": "activeSuspensions",
      "outputs": [
        {
          "name": "",
          "type": "uint256"
        }
      ],
      "payable": false,
      "stateMutability": "view",
      "type": "function"
    },
    {
      "constant": true,
      "inputs": [],
      "name": "name",
      "outputs": [
        {
          "name": "",
          "type": "string"
        }
      ],
      "payable": false,
      "stateMutability": "view",
      "type": "function"
    },
    {
      "constant": false,
      "inputs": [
        {
          "name": "_spender",
          "type": "address"
        },
        {
          "name": "_value",
          "type": "uint256"
        }
      ],
      "name": "approve",
      "outputs": [
        {
          "name": "",
          "type": "bool"
        }
      ],
      "payable": false,
      "stateMutability": "nonpayable",
      "type": "function"
    },
    {
      "constant": false,
      "inputs": [
        {
          "name": "_from",
          "type": "address"
        },
        {
          "name": "_value",
          "type": "uint256"
        }
      ],
      "name": "withdrawHelper",
      "outputs": [
        {
          "name": "",
          "type": "bool"
        }
      ],
      "payable": false,
      "stateMutability": "nonpayable",
      "type": "function"
    },
    {
      "constant": true,
      "inputs": [],
      "name": "frozenMinTime",
      "outputs": [
        {
          "name": "",
          "type": "uint256"
        }
      ],
      "payable": false,
      "stateMutability": "view",
      "type": "function"
    },
    {
      "constant": false,
      "inputs": [
        {
          "name": "_accounts",
          "type": "address[]"
        }
      ],
      "name": "unfreezeAccounts",
      "outputs": [],
      "payable": false,
      "stateMutability": "nonpayable",
      "type": "function"
    },
    {
      "constant": false,
      "inputs": [
        {
          "name": "_owner",
          "type": "address"
        }
      ],
      "name": "removeOwner",
      "outputs": [],
      "payable": false,
      "stateMutability": "nonpayable",
      "type": "function"
    },
    {
      "constant": true,
      "inputs": [],
      "name": "totalSupply",
      "outputs": [
        {
          "name": "",
          "type": "uint256"
        }
      ],
      "payable": false,
      "stateMutability": "view",
      "type": "function"
    },
    {
      "constant": false,
      "inputs": [],
      "name": "register",
      "outputs": [],
      "payable": false,
      "stateMutability": "nonpayable",
      "type": "function"
    },
    {
      "constant": true,
      "inputs": [],
      "name": "awardMax",
      "outputs": [
        {
          "name": "",
          "type": "uint256"
        }
      ],
      "payable": false,
      "stateMutability": "view",
      "type": "function"
    },
    {
      "constant": false,
      "inputs": [
        {
          "name": "_from",
          "type": "address"
        },
        {
          "name": "_to",
          "type": "address"
        },
        {
          "name": "_value",
          "type": "uint256"
        }
      ],
      "name": "transferFrom",
      "outputs": [
        {
          "name": "",
          "type": "bool"
        }
      ],
      "payable": false,
      "stateMutability": "nonpayable",
      "type": "function"
    },
    {
      "constant": false,
      "inputs": [
        {
          "name": "_time",
          "type": "uint256"
        },
        {
          "name": "_charity",
          "type": "address"
        }
      ],
      "name": "cashAward",
      "outputs": [
        {
          "name": "",
          "type": "bool"
        }
      ],
      "payable": false,
      "stateMutability": "nonpayable",
      "type": "function"
    },
    {
      "constant": false,
      "inputs": [
        {
          "name": "_addr",
          "type": "address"
        }
      ],
      "name": "upgradeInitial",
      "outputs": [],
      "payable": false,
      "stateMutability": "nonpayable",
      "type": "function"
    },
    {
      "constant": false,
      "inputs": [
        {
          "name": "_value",
          "type": "uint256"
        }
      ],
      "name": "withdraw",
      "outputs": [
        {
          "name": "",
          "type": "bool"
        }
      ],
      "payable": false,
      "stateMutability": "nonpayable",
      "type": "function"
    },
    {
      "constant": false,
      "inputs": [
        {
          "name": "_addr",
          "type": "address"
        }
      ],
      "name": "unregister",
      "outputs": [],
      "payable": false,
      "stateMutability": "nonpayable",
      "type": "function"
    },
    {
      "constant": true,
      "inputs": [],
      "name": "decimals",
      "outputs": [
        {
          "name": "",
          "type": "uint8"
        }
      ],
      "payable": false,
      "stateMutability": "view",
      "type": "function"
    },
    {
      "constant": false,
      "inputs": [
        {
          "name": "_accounts",
          "type": "address[]"
        }
      ],
      "name": "awardExcess",
      "outputs": [],
      "payable": false,
      "stateMutability": "nonpayable",
      "type": "function"
    },
    {
      "constant": true,
      "inputs": [
        {
          "name": "",
          "type": "address"
        }
      ],
      "name": "numParticipating",
      "outputs": [
        {
          "name": "",
          "type": "uint256"
        }
      ],
      "payable": false,
      "stateMutability": "view",
      "type": "function"
    },
    {
      "constant": true,
      "inputs": [],
      "name": "usedSuspensions",
      "outputs": [
        {
          "name": "",
          "type": "uint256"
        }
      ],
      "payable": false,
      "stateMutability": "view",
      "type": "function"
    },
    {
      "constant": false,
      "inputs": [
        {
          "name": "_delayDuration",
          "type": "uint256"
        }
      ],
      "name": "changeDelay",
      "outputs": [],
      "payable": false,
      "stateMutability": "nonpayable",
      "type": "function"
    },
    {
      "constant": true,
      "inputs": [],
      "name": "version",
      "outputs": [
        {
          "name": "",
          "type": "string"
        }
      ],
      "payable": false,
      "stateMutability": "view",
      "type": "function"
    },
    {
      "constant": true,
      "inputs": [],
      "name": "voteDuration",
      "outputs": [
        {
          "name": "",
          "type": "uint256"
        }
      ],
      "payable": false,
      "stateMutability": "view",
      "type": "function"
    },
    {
      "constant": true,
      "inputs": [
        {
          "name": "",
          "type": "address"
        }
      ],
      "name": "votingBalance",
      "outputs": [
        {
          "name": "",
          "type": "uint256"
        }
      ],
      "payable": false,
      "stateMutability": "view",
      "type": "function"
    },
    {
      "constant": false,
      "inputs": [],
      "name": "removeSelf",
      "outputs": [],
      "payable": false,
      "stateMutability": "nonpayable",
      "type": "function"
    },
    {
      "constant": false,
      "inputs": [
        {
          "name": "_operation",
          "type": "bytes32"
        }
      ],
      "name": "ownerRevoke",
      "outputs": [],
      "payable": false,
      "stateMutability": "nonpayable",
      "type": "function"
    },
    {
      "constant": true,
      "inputs": [],
      "name": "awardMinTime",
      "outputs": [
        {
          "name": "",
          "type": "uint256"
        }
      ],
      "payable": false,
      "stateMutability": "view",
      "type": "function"
    },
    {
      "constant": false,
      "inputs": [
        {
          "name": "_threshold",
          "type": "uint256"
        }
      ],
      "name": "changeThreshold",
      "outputs": [],
      "payable": false,
      "stateMutability": "nonpayable",
      "type": "function"
    },
    {
      "constant": false,
      "inputs": [
        {
          "name": "_owner",
          "type": "address"
        }
      ],
      "name": "addOwner",
      "outputs": [],
      "payable": false,
      "stateMutability": "nonpayable",
      "type": "function"
    },
    {
      "constant": true,
      "inputs": [
        {
          "name": "_owner",
          "type": "address"
        }
      ],
      "name": "balanceOf",
      "outputs": [
        {
          "name": "",
          "type": "uint256"
        }
      ],
      "payable": false,
      "stateMutability": "view",
      "type": "function"
    },
    {
      "constant": false,
      "inputs": [
        {
          "name": "_charity",
          "type": "address"
        }
      ],
      "name": "addCharity",
      "outputs": [
        {
          "name": "",
          "type": "bool"
        }
      ],
      "payable": false,
      "stateMutability": "nonpayable",
      "type": "function"
    },
    {
      "constant": true,
      "inputs": [],
      "name": "numOwners",
      "outputs": [
        {
          "name": "",
          "type": "uint256"
        }
      ],
      "payable": false,
      "stateMutability": "view",
      "type": "function"
    },
    {
      "constant": true,
      "inputs": [],
      "name": "maxSuspensions",
      "outputs": [
        {
          "name": "",
          "type": "uint256"
        }
      ],
      "payable": false,
      "stateMutability": "view",
      "type": "function"
    },
    {
      "constant": false,
      "inputs": [
        {
          "name": "_from",
          "type": "address"
        },
        {
          "name": "_value",
          "type": "uint256"
        }
      ],
      "name": "withdrawFrom",
      "outputs": [
        {
          "name": "",
          "type": "bool"
        }
      ],
      "payable": false,
      "stateMutability": "nonpayable",
      "type": "function"
    },
    {
      "constant": true,
      "inputs": [],
      "name": "symbol",
      "outputs": [
        {
          "name": "",
          "type": "string"
        }
      ],
      "payable": false,
      "stateMutability": "view",
      "type": "function"
    },
    {
      "constant": false,
      "inputs": [
        {
          "name": "_operation",
          "type": "bytes32"
        }
      ],
      "name": "killDelayed",
      "outputs": [],
      "payable": false,
      "stateMutability": "nonpayable",
      "type": "function"
    },
    {
      "constant": false,
      "inputs": [
        {
          "name": "_addr",
          "type": "address"
        }
      ],
      "name": "upgradeStandard",
      "outputs": [],
      "payable": false,
      "stateMutability": "nonpayable",
      "type": "function"
    },
    {
      "constant": false,
      "inputs": [
        {
          "name": "_operation",
          "type": "bytes32"
        },
        {
          "name": "_supporting",
          "type": "bool"
        }
      ],
      "name": "vote",
      "outputs": [],
      "payable": false,
      "stateMutability": "nonpayable",
      "type": "function"
    },
    {
      "constant": false,
      "inputs": [
        {
          "name": "_from",
          "type": "address"
        },
        {
          "name": "_value",
          "type": "uint256"
        }
      ],
      "name": "withdrawOwner",
      "outputs": [
        {
          "name": "",
          "type": "bool"
        }
      ],
      "payable": false,
      "stateMutability": "nonpayable",
      "type": "function"
    },
    {
      "constant": false,
      "inputs": [
        {
          "name": "_to",
          "type": "address"
        },
        {
          "name": "_value",
          "type": "uint256"
        }
      ],
      "name": "transfer",
      "outputs": [
        {
          "name": "",
          "type": "bool"
        }
      ],
      "payable": false,
      "stateMutability": "nonpayable",
      "type": "function"
    },
    {
      "constant": false,
      "inputs": [
        {
          "name": "_accounts",
          "type": "address[]"
        }
      ],
      "name": "freezeAccounts",
      "outputs": [],
      "payable": false,
      "stateMutability": "nonpayable",
      "type": "function"
    },
    {
      "constant": false,
      "inputs": [
        {
          "name": "_charity",
          "type": "address"
        }
      ],
      "name": "removeCharity",
      "outputs": [
        {
          "name": "",
          "type": "bool"
        }
      ],
      "payable": false,
      "stateMutability": "nonpayable",
      "type": "function"
    },
    {
      "constant": true,
      "inputs": [
        {
          "name": "",
          "type": "bytes32"
        }
      ],
      "name": "issues",
      "outputs": [
        {
          "name": "initTime",
          "type": "uint256"
        },
        {
          "name": "threshold",
          "type": "uint256"
        },
        {
          "name": "supportingTotal",
          "type": "uint256"
        },
        {
          "name": "dissentingTotal",
          "type": "uint256"
        }
      ],
      "payable": false,
      "stateMutability": "view",
      "type": "function"
    },
    {
      "constant": false,
      "inputs": [
        {
          "name": "_operation",
          "type": "bytes32"
        }
      ],
      "name": "unvote",
      "outputs": [],
      "payable": false,
      "stateMutability": "nonpayable",
      "type": "function"
    },
    {
      "constant": false,
      "inputs": [
        {
          "name": "_awardMax",
          "type": "uint256"
        }
      ],
      "name": "setAwardMax",
      "outputs": [],
      "payable": false,
      "stateMutability": "nonpayable",
      "type": "function"
    },
    {
      "constant": true,
      "inputs": [],
      "name": "delayDuration",
      "outputs": [
        {
          "name": "",
          "type": "uint256"
        }
      ],
      "payable": false,
      "stateMutability": "view",
      "type": "function"
    },
    {
      "constant": false,
      "inputs": [
        {
          "name": "_addr",
          "type": "address"
        }
      ],
      "name": "upgradeEmergency",
      "outputs": [],
      "payable": false,
      "stateMutability": "nonpayable",
      "type": "function"
    },
    {
      "constant": false,
      "inputs": [
        {
          "name": "_to",
          "type": "address"
        }
      ],
      "name": "depositTo",
      "outputs": [],
      "payable": true,
      "stateMutability": "payable",
      "type": "function"
    },
    {
      "constant": false,
      "inputs": [],
      "name": "nuke",
      "outputs": [],
      "payable": false,
      "stateMutability": "nonpayable",
      "type": "function"
    },
    {
      "constant": false,
      "inputs": [
        {
          "name": "_to",
          "type": "address"
        },
        {
          "name": "_value",
          "type": "uint256"
        },
        {
          "name": "_data",
          "type": "bytes"
        }
      ],
      "name": "transfer",
      "outputs": [],
      "payable": false,
      "stateMutability": "nonpayable",
      "type": "function"
    },
    {
      "constant": false,
      "inputs": [
        {
          "name": "_time",
          "type": "uint256"
        },
        {
          "name": "_charity",
          "type": "address"
        }
      ],
      "name": "claimAward",
      "outputs": [
        {
          "name": "",
          "type": "bool"
        }
      ],
      "payable": false,
      "stateMutability": "nonpayable",
      "type": "function"
    },
    {
      "constant": false,
      "inputs": [
        {
          "name": "_spender",
          "type": "address"
        },
        {
          "name": "_value",
          "type": "uint256"
        },
        {
          "name": "_extraCore",
          "type": "bytes"
        }
      ],
      "name": "approveAndCall",
      "outputs": [
        {
          "name": "",
          "type": "bool"
        }
      ],
      "payable": false,
      "stateMutability": "nonpayable",
      "type": "function"
    },
    {
      "constant": false,
      "inputs": [
        {
          "name": "_operation",
          "type": "bytes32"
        },
        {
          "name": "_addr",
          "type": "address"
        }
      ],
      "name": "clearVote",
      "outputs": [],
      "payable": false,
      "stateMutability": "nonpayable",
      "type": "function"
    },
    {
      "constant": false,
      "inputs": [],
      "name": "deposit",
      "outputs": [],
      "payable": true,
      "stateMutability": "payable",
      "type": "function"
    },
    {
      "constant": false,
      "inputs": [
        {
          "name": "_old",
          "type": "address"
        },
        {
          "name": "_new",
          "type": "address"
        }
      ],
      "name": "switchOwner",
      "outputs": [],
      "payable": false,
      "stateMutability": "nonpayable",
      "type": "function"
    },
    {
      "constant": true,
      "inputs": [
        {
          "name": "_owner",
          "type": "address"
        },
        {
          "name": "_spender",
          "type": "address"
        }
      ],
      "name": "allowance",
      "outputs": [
        {
          "name": "",
          "type": "uint256"
        }
      ],
      "payable": false,
      "stateMutability": "view",
      "type": "function"
    },
    {
      "constant": false,
      "inputs": [
        {
          "name": "_awardMinTime",
          "type": "uint256"
        }
      ],
      "name": "setAwardMinTime",
      "outputs": [],
      "payable": false,
      "stateMutability": "nonpayable",
      "type": "function"
    },
    {
      "constant": true,
      "inputs": [],
      "name": "core",
      "outputs": [
        {
          "name": "",
          "type": "address"
        }
      ],
      "payable": false,
      "stateMutability": "view",
      "type": "function"
    },
    {
      "constant": false,
      "inputs": [
        {
          "name": "_frozenMinTime",
          "type": "uint256"
        }
      ],
      "name": "setFrozenMinTime",
      "outputs": [],
      "payable": false,
      "stateMutability": "nonpayable",
      "type": "function"
    },
    {
      "inputs": [
        {
          "name": "_core",
          "type": "address"
        },
        {
          "name": "_owners",
          "type": "address[]"
        },
        {
          "name": "_ownerThreshold",
          "type": "uint256"
        },
        {
          "name": "nukeMaster",
          "type": "address"
        }
      ],
      "payable": false,
      "stateMutability": "nonpayable",
      "type": "constructor"
    },
    {
      "anonymous": false,
      "inputs": [
        {
          "indexed": true,
          "name": "_from",
          "type": "address"
        },
        {
          "indexed": false,
          "name": "_value",
          "type": "uint256"
        }
      ],
      "name": "LogDeposit",
      "type": "event"
    },
    {
      "anonymous": false,
      "inputs": [
        {
          "indexed": true,
          "name": "_to",
          "type": "address"
        },
        {
          "indexed": false,
          "name": "_value",
          "type": "uint256"
        }
      ],
      "name": "LogWithdraw",
      "type": "event"
    },
    {
      "anonymous": false,
      "inputs": [
        {
          "indexed": true,
          "name": "_charity",
          "type": "address"
        },
        {
          "indexed": false,
          "name": "_isCharity",
          "type": "bool"
        }
      ],
      "name": "LogChangeCharities",
      "type": "event"
    },
    {
      "anonymous": false,
      "inputs": [
        {
          "indexed": true,
          "name": "_account",
          "type": "address"
        },
        {
          "indexed": false,
          "name": "frozen",
          "type": "bool"
        }
      ],
      "name": "LogFreeze",
      "type": "event"
    },
    {
      "anonymous": false,
      "inputs": [
        {
          "indexed": true,
          "name": "_time",
          "type": "uint256"
        },
        {
          "indexed": false,
          "name": "_addr",
          "type": "address"
        },
        {
          "indexed": false,
          "name": "_state",
          "type": "string"
        }
      ],
      "name": "LogAward",
      "type": "event"
    },
    {
      "anonymous": false,
      "inputs": [
        {
          "indexed": false,
          "name": "_addr",
          "type": "address"
        }
      ],
      "name": "LogUpgrade",
      "type": "event"
    },
    {
      "anonymous": false,
      "inputs": [
        {
          "indexed": true,
          "name": "_addr",
          "type": "address"
        },
        {
          "indexed": false,
          "name": "isOwner",
          "type": "bool"
        }
      ],
      "name": "LogOwnerChange",
      "type": "event"
    },
    {
      "anonymous": false,
      "inputs": [
        {
          "indexed": false,
          "name": "thresh",
          "type": "uint256"
        }
      ],
      "name": "LogChangeThreshold",
      "type": "event"
    },
    {
      "anonymous": false,
      "inputs": [
        {
          "indexed": false,
          "name": "thresh",
          "type": "uint256"
        }
      ],
      "name": "LogChangeDelay",
      "type": "event"
    },
    {
      "anonymous": false,
      "inputs": [],
      "name": "LogNuke",
      "type": "event"
    },
    {
      "anonymous": false,
      "inputs": [
        {
          "indexed": true,
          "name": "from",
          "type": "address"
        },
        {
          "indexed": true,
          "name": "to",
          "type": "address"
        },
        {
          "indexed": false,
          "name": "value",
          "type": "uint256"
        },
        {
          "indexed": false,
          "name": "data",
          "type": "bytes"
        }
      ],
      "name": "Transfer",
      "type": "event"
    },
    {
      "anonymous": false,
      "inputs": [
        {
          "indexed": true,
          "name": "_from",
          "type": "address"
        },
        {
          "indexed": true,
          "name": "_to",
          "type": "address"
        },
        {
          "indexed": false,
          "name": "_value",
          "type": "uint256"
        }
      ],
      "name": "Transfer",
      "type": "event"
    },
    {
      "anonymous": false,
      "inputs": [
        {
          "indexed": true,
          "name": "_owner",
          "type": "address"
        },
        {
          "indexed": true,
          "name": "_spender",
          "type": "address"
        },
        {
          "indexed": false,
          "name": "_value",
          "type": "uint256"
        }
      ],
      "name": "Approval",
      "type": "event"
    }
  ],
  "bytecode": "0x60606040527fffffffffffffffffffffffffffffffffffffffffffffffffffffffffffffffff6002556103e8600a557fffffffffffffffffffffffffffffffffffffffffffffffffffffffffffffffff6013556040805190810160405280600481526020017f4962697300000000000000000000000000000000000000000000000000000000815250601490805190602001906200009f929190620003a1565b506040805190810160405280600381526020017f494249000000000000000000000000000000000000000000000000000000000081525060159080519060200190620000ed929190620003a1565b506040805190810160405280600381526020017f312e310000000000000000000000000000000000000000000000000000000000815250601690805190602001906200013b929190620003a1565b506012601760006101000a81548160ff021916908360ff160217905550614ec060205534156200016a57600080fd5b604051620075a4380380620075a4833981016040528080519060200190919080518201919060200180519060200190919080519060200190919050506103e860038484846000826003819055507f3dafdf04a2a91e1f13fb84664194bba4aef5c95d086769d9e38c574e33c8fedf6003546040518082815260200191505060405180910390a181600560006101000a81548173ffffffffffffffffffffffffffffffffffffffff021916908373ffffffffffffffffffffffffffffffffffffffff160217905550600090505b83518110156200033b5760016004600086848151811015156200025557fe5b9060200190602002015173ffffffffffffffffffffffffffffffffffffffff1673ffffffffffffffffffffffffffffffffffffffff16815260200190815260200160002060006101000a81548160ff0219169083151502179055506009600081548092919060010191905055508381815181101515620002d157fe5b9060200190602002015173ffffffffffffffffffffffffffffffffffffffff167f3281051f50c80211481c7d83588f2aa4266a9ce1468c910f64c983093176b0d66001604051808215151515815260200191505060405180910390a2808060010191505062000236565b5050505081600c8190555080600b81905550505042601f8190555083601760016101000a81548173ffffffffffffffffffffffffffffffffffffffff021916908373ffffffffffffffffffffffffffffffffffffffff1602179055505050505062000450565b828054600181600116156101000203166002900490600052602060002090601f016020900481019282601f10620003e457805160ff191683800117855562000415565b8280016001018555821562000415579182015b8281111562000414578251825591602001919060010190620003f7565b5b50905062000424919062000428565b5090565b6200044d91905b80821115620004495760008160009055506001016200042f565b5090565b90565b61714480620004606000396000f3006060604052600436106102bf576000357c0100000000000000000000000000000000000000000000000000000000900463ffffffff168063022914a7146102c4578063039f69081461031557806306fdde031461033e578063095ea7b3146103cc5780630e9540991461042657806311de367514610480578063170e2070146104a9578063173825d91461050357806318160ddd1461053c5780631aa3a008146105655780631b0f5d001461057a57806323b872dd146105a35780632927cda31461061c5780632c2f54fd146106765780632e1a7d4d146106af5780632ec2c246146106ea578063313ce5671461072357806335d9ffef14610752578063422e1245146107ac5780634f3c9e30146107f95780635037ec621461082257806354fd4d501461084557806356364499146108d35780635e035355146108fc5780635e898dac146109495780635f6171e61461095e578063655c82a514610985578063694e80c3146109ae5780637065cb48146109d157806370a0823114610a0a57806378b14f0a14610a5757806387ab18e114610aa85780638deae71c14610ad15780639470b0bd14610afa57806395d89b4114610b5457806399629da514610be25780639a46455014610c095780639f2ce67814610c42578063a388541314610c74578063a9059cbb14610cce578063aad1202914610d28578063abefe59114610d82578063ad52652a14610dd3578063b1f6a4bf14610e23578063b53eda3214610e4a578063b5984a3614610e6d578063b607d32214610e96578063b760faf914610ecf578063bc8fbbf814610efd578063be45fd6214610f12578063c26f96cf14610f97578063cae9ca5114610ff1578063d09088421461108e578063d0e30db0146110d4578063dd1ae3b0146110de578063dd62ed3e14611136578063e7fa61b7146111a2578063f2f4eb26146111c5578063feb992c51461121a575b600080fd5b34156102cf57600080fd5b6102fb600480803573ffffffffffffffffffffffffffffffffffffffff1690602001909190505061123d565b604051808215151515815260200191505060405180910390f35b341561032057600080fd5b61032861125d565b6040518082815260200191505060405180910390f35b341561034957600080fd5b610351611263565b6040518080602001828103825283818151815260200191508051906020019080838360005b83811015610391578082015181840152602081019050610376565b50505050905090810190601f1680156103be5780820380516001836020036101000a031916815260200191505b509250505060405180910390f35b34156103d757600080fd5b61040c600480803573ffffffffffffffffffffffffffffffffffffffff16906020019091908035906020019091905050611301565b604051808215151515815260200191505060405180910390f35b341561043157600080fd5b610466600480803573ffffffffffffffffffffffffffffffffffffffff1690602001909190803590602001909190505061147e565b604051808215151515815260200191505060405180910390f35b341561048b57600080fd5b6104936118ce565b6040518082815260200191505060405180910390f35b34156104b457600080fd5b6105016004808035906020019082018035906020019080806020026020016040519081016040528093929190818152602001838360200280828437820191505050505050919050506118d4565b005b341561050e57600080fd5b61053a600480803573ffffffffffffffffffffffffffffffffffffffff16906020019091905050611de3565b005b341561054757600080fd5b61054f611ef3565b6040518082815260200191505060405180910390f35b341561057057600080fd5b610578611ef9565b005b341561058557600080fd5b61058d611f90565b6040518082815260200191505060405180910390f35b34156105ae57600080fd5b610602600480803573ffffffffffffffffffffffffffffffffffffffff1690602001909190803573ffffffffffffffffffffffffffffffffffffffff16906020019091908035906020019091905050611f96565b604051808215151515815260200191505060405180910390f35b341561062757600080fd5b61065c600480803590602001909190803573ffffffffffffffffffffffffffffffffffffffff16906020019091905050612542565b604051808215151515815260200191505060405180910390f35b341561068157600080fd5b6106ad600480803573ffffffffffffffffffffffffffffffffffffffff16906020019091905050612897565b005b34156106ba57600080fd5b6106d06004808035906020019091905050612911565b604051808215151515815260200191505060405180910390f35b34156106f557600080fd5b610721600480803573ffffffffffffffffffffffffffffffffffffffff1690602001909190505061292f565b005b341561072e57600080fd5b610736612a56565b604051808260ff1660ff16815260200191505060405180910390f35b341561075d57600080fd5b6107aa600480803590602001908201803590602001908080602002602001604051908101604052809392919081815260200183836020028082843782019150505050505091905050612a69565b005b34156107b757600080fd5b6107e3600480803573ffffffffffffffffffffffffffffffffffffffff169060200190919050506130c8565b6040518082815260200191505060405180910390f35b341561080457600080fd5b61080c6130e0565b6040518082815260200191505060405180910390f35b341561082d57600080fd5b61084360048080359060200190919050506130e6565b005b341561085057600080fd5b6108586131c7565b6040518080602001828103825283818151815260200191508051906020019080838360005b8381101561089857808201518184015260208101905061087d565b50505050905090810190601f1680156108c55780820380516001836020036101000a031916815260200191505b509250505060405180910390f35b34156108de57600080fd5b6108e6613265565b6040518082815260200191505060405180910390f35b341561090757600080fd5b610933600480803573ffffffffffffffffffffffffffffffffffffffff1690602001909190505061326b565b6040518082815260200191505060405180910390f35b341561095457600080fd5b61095c613283565b005b341561096957600080fd5b61098360048080356000191690602001909190505061338f565b005b341561099057600080fd5b6109986134a6565b6040518082815260200191505060405180910390f35b34156109b957600080fd5b6109cf60048080359060200190919050506134ac565b005b34156109dc57600080fd5b610a08600480803573ffffffffffffffffffffffffffffffffffffffff1690602001909190505061358d565b005b3415610a1557600080fd5b610a41600480803573ffffffffffffffffffffffffffffffffffffffff16906020019091905050613745565b6040518082815260200191505060405180910390f35b3415610a6257600080fd5b610a8e600480803573ffffffffffffffffffffffffffffffffffffffff1690602001909190505061382e565b604051808215151515815260200191505060405180910390f35b3415610ab357600080fd5b610abb613bdb565b6040518082815260200191505060405180910390f35b3415610adc57600080fd5b610ae4613be1565b6040518082815260200191505060405180910390f35b3415610b0557600080fd5b610b3a600480803573ffffffffffffffffffffffffffffffffffffffff16906020019091908035906020019091905050613be7565b604051808215151515815260200191505060405180910390f35b3415610b5f57600080fd5b610b67613d28565b6040518080602001828103825283818151815260200191508051906020019080838360005b83811015610ba7578082015181840152602081019050610b8c565b50505050905090810190601f168015610bd45780820380516001836020036101000a031916815260200191505b509250505060405180910390f35b3415610bed57600080fd5b610c07600480803560001916906020019091905050613dc6565b005b3415610c1457600080fd5b610c40600480803573ffffffffffffffffffffffffffffffffffffffff16906020019091905050613e37565b005b3415610c4d57600080fd5b610c726004808035600019169060200190919080351515906020019091905050613f14565b005b3415610c7f57600080fd5b610cb4600480803573ffffffffffffffffffffffffffffffffffffffff16906020019091908035906020019091905050614261565b604051808215151515815260200191505060405180910390f35b3415610cd957600080fd5b610d0e600480803573ffffffffffffffffffffffffffffffffffffffff169060200190919080359060200190919050506142e0565b604051808215151515815260200191505060405180910390f35b3415610d3357600080fd5b610d80600480803590602001908201803590602001908080602002602001604051908101604052809392919081815260200183836020028082843782019150505050505091905050614626565b005b3415610d8d57600080fd5b610db9600480803573ffffffffffffffffffffffffffffffffffffffff16906020019091905050614aeb565b604051808215151515815260200191505060405180910390f35b3415610dde57600080fd5b610df8600480803560001916906020019091905050614e98565b6040518085815260200184815260200183815260200182815260200194505050505060405180910390f35b3415610e2e57600080fd5b610e48600480803560001916906020019091905050614ec8565b005b3415610e5557600080fd5b610e6b60048080359060200190919050506151b2565b005b3415610e7857600080fd5b610e8061525a565b6040518082815260200191505060405180910390f35b3415610ea157600080fd5b610ecd600480803573ffffffffffffffffffffffffffffffffffffffff16906020019091905050615260565b005b610efb600480803573ffffffffffffffffffffffffffffffffffffffff1690602001909190505061534d565b005b3415610f0857600080fd5b610f10615567565b005b3415610f1d57600080fd5b610f95600480803573ffffffffffffffffffffffffffffffffffffffff1690602001909190803590602001909190803590602001908201803590602001908080601f01602080910402602001604051908101604052809392919081815260200183838082843782019150505050505091905050615659565b005b3415610fa257600080fd5b610fd7600480803590602001909190803573ffffffffffffffffffffffffffffffffffffffff16906020019091905050615a5e565b604051808215151515815260200191505060405180910390f35b3415610ffc57600080fd5b611074600480803573ffffffffffffffffffffffffffffffffffffffff1690602001909190803590602001909190803590602001908201803590602001908080601f01602080910402602001604051908101604052809392919081815260200183838082843782019150505050505091905050615be5565b604051808215151515815260200191505060405180910390f35b341561109957600080fd5b6110d260048080356000191690602001909190803573ffffffffffffffffffffffffffffffffffffffff16906020019091905050615f11565b005b6110dc616111565b005b34156110e957600080fd5b611134600480803573ffffffffffffffffffffffffffffffffffffffff1690602001909190803573ffffffffffffffffffffffffffffffffffffffff1690602001909190505061611c565b005b341561114157600080fd5b61118c600480803573ffffffffffffffffffffffffffffffffffffffff1690602001909190803573ffffffffffffffffffffffffffffffffffffffff16906020019091905050616314565b6040518082815260200191505060405180910390f35b34156111ad57600080fd5b6111c36004808035906020019091905050616432565b005b34156111d057600080fd5b6111d86164da565b604051808273ffffffffffffffffffffffffffffffffffffffff1673ffffffffffffffffffffffffffffffffffffffff16815260200191505060405180910390f35b341561122557600080fd5b61123b6004808035906020019091905050616500565b005b60046020528060005260406000206000915054906101000a900460ff1681565b600e5481565b60148054600181600116156101000203166002900480601f0160208091040260200160405190810160405280929190818152602001828054600181600116156101000203166002900480156112f95780601f106112ce576101008083540402835291602001916112f9565b820191906000526020600020905b8154815290600101906020018083116112dc57829003601f168201915b505050505081565b6000601760019054906101000a900473ffffffffffffffffffffffffffffffffffffffff1673ffffffffffffffffffffffffffffffffffffffff166333dd1b8a3385856040518463ffffffff167c0100000000000000000000000000000000000000000000000000000000028152600401808473ffffffffffffffffffffffffffffffffffffffff1673ffffffffffffffffffffffffffffffffffffffff1681526020018373ffffffffffffffffffffffffffffffffffffffff1673ffffffffffffffffffffffffffffffffffffffff1681526020018281526020019350505050600060405180830381600087803b15156113fb57600080fd5b6102c65a03f1151561140c57600080fd5b5050508273ffffffffffffffffffffffffffffffffffffffff163373ffffffffffffffffffffffffffffffffffffffff167f8c5be1e5ebec7d5bd14f71427d1e84f3dd0314c0f7b2291e5b200ac8c7c3b925846040518082815260200191505060405180910390a36001905092915050565b6000601760019054906101000a900473ffffffffffffffffffffffffffffffffffffffff1673ffffffffffffffffffffffffffffffffffffffff16638f8e83c4846000604051602001526040518263ffffffff167c0100000000000000000000000000000000000000000000000000000000028152600401808273ffffffffffffffffffffffffffffffffffffffff1673ffffffffffffffffffffffffffffffffffffffff168152602001915050602060405180830381600087803b151561154557600080fd5b6102c65a03f1151561155657600080fd5b50505060405180519050806115775750602160009054906101000a900460ff165b80156116625750601760019054906101000a900473ffffffffffffffffffffffffffffffffffffffff1673ffffffffffffffffffffffffffffffffffffffff166327e235e3846000604051602001526040518263ffffffff167c0100000000000000000000000000000000000000000000000000000000028152600401808273ffffffffffffffffffffffffffffffffffffffff1673ffffffffffffffffffffffffffffffffffffffff168152602001915050602060405180830381600087803b151561164357600080fd5b6102c65a03f1151561165457600080fd5b505050604051805190508211155b156118c757601760019054906101000a900473ffffffffffffffffffffffffffffffffffffffff1673ffffffffffffffffffffffffffffffffffffffff166328e69b168484601760019054906101000a900473ffffffffffffffffffffffffffffffffffffffff1673ffffffffffffffffffffffffffffffffffffffff166327e235e3886000604051602001526040518263ffffffff167c0100000000000000000000000000000000000000000000000000000000028152600401808273ffffffffffffffffffffffffffffffffffffffff1673ffffffffffffffffffffffffffffffffffffffff168152602001915050602060405180830381600087803b151561176c57600080fd5b6102c65a03f1151561177d57600080fd5b50505060405180519050036040518363ffffffff167c0100000000000000000000000000000000000000000000000000000000028152600401808373ffffffffffffffffffffffffffffffffffffffff1673ffffffffffffffffffffffffffffffffffffffff16815260200182815260200192505050600060405180830381600087803b151561180c57600080fd5b6102c65a03f1151561181d57600080fd5b505050816001600082825403925050819055508273ffffffffffffffffffffffffffffffffffffffff166108fc839081150290604051600060405180830381858888f19350505050151561187057600080fd5b8273ffffffffffffffffffffffffffffffffffffffff167f4ce7033d118120e254016dccf195288400b28fc8936425acd5f17ce2df3ab708836040518082815260200191505060405180910390a2600190506118c8565b5b92915050565b60195481565b60008060011515600460003373ffffffffffffffffffffffffffffffffffffffff1673ffffffffffffffffffffffffffffffffffffffff16815260200190815260200160002060009054906101000a900460ff16151514151561193657600080fd5b60003660405180838380828437820191505092505050604051809103902061195d816165a8565b151561196557005b6000600e541415611dbe57600092505b8351831015611dbd57601760019054906101000a900473ffffffffffffffffffffffffffffffffffffffff1673ffffffffffffffffffffffffffffffffffffffff1663c77fd87785858151811015156119ca57fe5b906020019060200201516000604051602001526040518263ffffffff167c0100000000000000000000000000000000000000000000000000000000028152600401808273ffffffffffffffffffffffffffffffffffffffff1673ffffffffffffffffffffffffffffffffffffffff168152602001915050602060405180830381600087803b1515611a5a57600080fd5b6102c65a03f11515611a6b57600080fd5b505050604051805190509150601760019054906101000a900473ffffffffffffffffffffffffffffffffffffffff1673ffffffffffffffffffffffffffffffffffffffff166354134cd28585815181101515611ac357fe5b9060200190602002015160006040518363ffffffff167c0100000000000000000000000000000000000000000000000000000000028152600401808373ffffffffffffffffffffffffffffffffffffffff1673ffffffffffffffffffffffffffffffffffffffff16815260200182815260200192505050600060405180830381600087803b1515611b5357600080fd5b6102c65a03f11515611b6457600080fd5b505050601760019054906101000a900473ffffffffffffffffffffffffffffffffffffffff1673ffffffffffffffffffffffffffffffffffffffff1663b65dc4138585815181101515611bb357fe5b9060200190602002015160006040518363ffffffff167c0100000000000000000000000000000000000000000000000000000000028152600401808373ffffffffffffffffffffffffffffffffffffffff1673ffffffffffffffffffffffffffffffffffffffff16815260200182815260200192505050600060405180830381600087803b1515611c4357600080fd5b6102c65a03f11515611c5457600080fd5b505050601760019054906101000a900473ffffffffffffffffffffffffffffffffffffffff1673ffffffffffffffffffffffffffffffffffffffff166328e69b168585815181101515611ca357fe5b90602001906020020151846040518363ffffffff167c0100000000000000000000000000000000000000000000000000000000028152600401808373ffffffffffffffffffffffffffffffffffffffff1673ffffffffffffffffffffffffffffffffffffffff16815260200182815260200192505050600060405180830381600087803b1515611d3257600080fd5b6102c65a03f11515611d4357600080fd5b5050508383815181101515611d5457fe5b9060200190602002015173ffffffffffffffffffffffffffffffffffffffff167f85a80b3c69e65851b9558eb027b8e071efc4f8d6c7fb04a15ca15246ac2eb4b96000604051808215151515815260200191505060405180910390a28280600101935050611975565b5b6008600082600019166000191681526020019081526020016000206000905550505050565b600036604051808383808284378201915050925050506040518091039020611e0a81616625565b1515611e1257005b6000600460008473ffffffffffffffffffffffffffffffffffffffff1673ffffffffffffffffffffffffffffffffffffffff16815260200190815260200160002060006101000a81548160ff021916908315150217905550600960008154809291906001900391905055508173ffffffffffffffffffffffffffffffffffffffff167f3281051f50c80211481c7d83588f2aa4266a9ce1468c910f64c983093176b0d66000604051808215151515815260200191505060405180910390a2600860008260001916600019168152602001908152602001600020600090555050565b60015481565b6000601160003373ffffffffffffffffffffffffffffffffffffffff1673ffffffffffffffffffffffffffffffffffffffff168152602001908152602001600020541415611f8e57611f4a33616814565b601260003373ffffffffffffffffffffffffffffffffffffffff1673ffffffffffffffffffffffffffffffffffffffff168152602001908152602001600020819055505b565b60185481565b600081601760019054906101000a900473ffffffffffffffffffffffffffffffffffffffff1673ffffffffffffffffffffffffffffffffffffffff166327e235e3866000604051602001526040518263ffffffff167c0100000000000000000000000000000000000000000000000000000000028152600401808273ffffffffffffffffffffffffffffffffffffffff1673ffffffffffffffffffffffffffffffffffffffff168152602001915050602060405180830381600087803b151561205e57600080fd5b6102c65a03f1151561206f57600080fd5b505050604051805190501015801561219a575081601760019054906101000a900473ffffffffffffffffffffffffffffffffffffffff1673ffffffffffffffffffffffffffffffffffffffff16635c65816586336000604051602001526040518363ffffffff167c0100000000000000000000000000000000000000000000000000000000028152600401808373ffffffffffffffffffffffffffffffffffffffff1673ffffffffffffffffffffffffffffffffffffffff1681526020018273ffffffffffffffffffffffffffffffffffffffff1673ffffffffffffffffffffffffffffffffffffffff16815260200192505050602060405180830381600087803b151561217c57600080fd5b6102c65a03f1151561218d57600080fd5b5050506040518051905010155b1561253a57601760019054906101000a900473ffffffffffffffffffffffffffffffffffffffff1673ffffffffffffffffffffffffffffffffffffffff1663beabacc88585856040518463ffffffff167c0100000000000000000000000000000000000000000000000000000000028152600401808473ffffffffffffffffffffffffffffffffffffffff1673ffffffffffffffffffffffffffffffffffffffff1681526020018373ffffffffffffffffffffffffffffffffffffffff1673ffffffffffffffffffffffffffffffffffffffff1681526020018281526020019350505050600060405180830381600087803b151561229757600080fd5b6102c65a03f115156122a857600080fd5b505050601760019054906101000a900473ffffffffffffffffffffffffffffffffffffffff1673ffffffffffffffffffffffffffffffffffffffff166333dd1b8a853385601760019054906101000a900473ffffffffffffffffffffffffffffffffffffffff1673ffffffffffffffffffffffffffffffffffffffff16635c6581658a336000604051602001526040518363ffffffff167c0100000000000000000000000000000000000000000000000000000000028152600401808373ffffffffffffffffffffffffffffffffffffffff1673ffffffffffffffffffffffffffffffffffffffff1681526020018273ffffffffffffffffffffffffffffffffffffffff1673ffffffffffffffffffffffffffffffffffffffff16815260200192505050602060405180830381600087803b15156123e557600080fd5b6102c65a03f115156123f657600080fd5b50505060405180519050036040518463ffffffff167c0100000000000000000000000000000000000000000000000000000000028152600401808473ffffffffffffffffffffffffffffffffffffffff1673ffffffffffffffffffffffffffffffffffffffff1681526020018373ffffffffffffffffffffffffffffffffffffffff1673ffffffffffffffffffffffffffffffffffffffff1681526020018281526020019350505050600060405180830381600087803b15156124b857600080fd5b6102c65a03f115156124c957600080fd5b5050508273ffffffffffffffffffffffffffffffffffffffff168473ffffffffffffffffffffffffffffffffffffffff167fddf252ad1be2c89b69c2b068fc378daa952ba7f163c4a11628f55a4df523b3ef846040518082815260200191505060405180910390a36001905061253b565b5b9392505050565b600080600080600e54141561288f5783604051808273ffffffffffffffffffffffffffffffffffffffff1673ffffffffffffffffffffffffffffffffffffffff166c010000000000000000000000000281526014019150506040518091039020600190049150601a54420385111580156125ce575081601d600087815260200190815260200160002054145b1561288d57601b6000868152602001908152602001600020549050601b600086815260200190815260200160002060009055601c600086815260200190815260200160002060009055601d600086815260200190815260200160002060009055601760019054906101000a900473ffffffffffffffffffffffffffffffffffffffff1673ffffffffffffffffffffffffffffffffffffffff166328e69b168583601760019054906101000a900473ffffffffffffffffffffffffffffffffffffffff1673ffffffffffffffffffffffffffffffffffffffff166327e235e3896000604051602001526040518263ffffffff167c0100000000000000000000000000000000000000000000000000000000028152600401808273ffffffffffffffffffffffffffffffffffffffff1673ffffffffffffffffffffffffffffffffffffffff168152602001915050602060405180830381600087803b151561273357600080fd5b6102c65a03f1151561274457600080fd5b50505060405180519050016040518363ffffffff167c0100000000000000000000000000000000000000000000000000000000028152600401808373ffffffffffffffffffffffffffffffffffffffff1673ffffffffffffffffffffffffffffffffffffffff16815260200182815260200192505050600060405180830381600087803b15156127d357600080fd5b6102c65a03f115156127e457600080fd5b505050847f046be9693b9b4ed56df331431ff8cc6874ab57df1e1332c0984ba4278edef38f85604051808273ffffffffffffffffffffffffffffffffffffffff1673ffffffffffffffffffffffffffffffffffffffff16815260200180602001828103825260078152602001807f61776172646564000000000000000000000000000000000000000000000000008152506020019250505060405180910390a26001925061288e565b5b5b505092915050565b60011515600460003373ffffffffffffffffffffffffffffffffffffffff1673ffffffffffffffffffffffffffffffffffffffff16815260200190815260200160002060009054906101000a900460ff1615151415156128f657600080fd5b42602054601f5401101561290e5761290d81616b3a565b5b50565b600080600e54141561292a57612927338361147e565b90505b919050565b3373ffffffffffffffffffffffffffffffffffffffff168173ffffffffffffffffffffffffffffffffffffffff161480156129a957506000601160003373ffffffffffffffffffffffffffffffffffffffff1673ffffffffffffffffffffffffffffffffffffffff16815260200190815260200160002054145b156129fb576129b781616d22565b601260008273ffffffffffffffffffffffffffffffffffffffff1673ffffffffffffffffffffffffffffffffffffffff168152602001908152602001600020600090555b6000600f541415612a5357612a0f81616d22565b601260008273ffffffffffffffffffffffffffffffffffffffff1673ffffffffffffffffffffffffffffffffffffffff168152602001908152602001600020600090555b50565b601760009054906101000a900460ff1681565b600080600060011515600460003373ffffffffffffffffffffffffffffffffffffffff1673ffffffffffffffffffffffffffffffffffffffff16815260200190815260200160002060009054906101000a900460ff161515141515612acd57600080fd5b600036604051808383808284378201915050925050506040518091039020612af4816165a8565b1515612afc57005b60003660405180838380828437820191505092505050604051809103902060326000612b29838383616f60565b1515612b3157005b600095505b8751861015612f535742601954601760019054906101000a900473ffffffffffffffffffffffffffffffffffffffff1673ffffffffffffffffffffffffffffffffffffffff1663b06230748b8a815181101515612b8f57fe5b906020019060200201516000604051602001526040518263ffffffff167c0100000000000000000000000000000000000000000000000000000000028152600401808273ffffffffffffffffffffffffffffffffffffffff1673ffffffffffffffffffffffffffffffffffffffff168152602001915050602060405180830381600087803b1515612c1f57600080fd5b6102c65a03f11515612c3057600080fd5b50505060405180519050011015612c4657612f46565b601760019054906101000a900473ffffffffffffffffffffffffffffffffffffffff1673ffffffffffffffffffffffffffffffffffffffff1663c77fd8778988815181101515612c9257fe5b906020019060200201516000604051602001526040518263ffffffff167c0100000000000000000000000000000000000000000000000000000000028152600401808273ffffffffffffffffffffffffffffffffffffffff1673ffffffffffffffffffffffffffffffffffffffff168152602001915050602060405180830381600087803b1515612d2257600080fd5b6102c65a03f11515612d3357600080fd5b505050604051805190509450601854858801111515612e4657601760019054906101000a900473ffffffffffffffffffffffffffffffffffffffff1673ffffffffffffffffffffffffffffffffffffffff166354134cd28988815181101515612d9857fe5b9060200190602002015160006040518363ffffffff167c0100000000000000000000000000000000000000000000000000000000028152600401808373ffffffffffffffffffffffffffffffffffffffff1673ffffffffffffffffffffffffffffffffffffffff16815260200182815260200192505050600060405180830381600087803b1515612e2857600080fd5b6102c65a03f11515612e3957600080fd5b5050508487019650612f45565b601760019054906101000a900473ffffffffffffffffffffffffffffffffffffffff1673ffffffffffffffffffffffffffffffffffffffff166354134cd28988815181101515612e9257fe5b90602001906020020151896018540388036040518363ffffffff167c0100000000000000000000000000000000000000000000000000000000028152600401808373ffffffffffffffffffffffffffffffffffffffff1673ffffffffffffffffffffffffffffffffffffffff16815260200182815260200192505050600060405180830381600087803b1515612f2757600080fd5b6102c65a03f11515612f3857600080fd5b5050506018549650612f53565b5b8580600101965050612b36565b86601b600042815260200190815260200160002081905550434060019004601c6000428152602001908152602001600020819055506002601354811515612f9657fe5b04601c60004281526020019081526020016000205401601d600042815260200190815260200160002081905550427f046be9693b9b4ed56df331431ff8cc6874ab57df1e1332c0984ba4278edef38f6000604051808273ffffffffffffffffffffffffffffffffffffffff1673ffffffffffffffffffffffffffffffffffffffff168152602001806020018281038252600b8152602001807f696e697469616c697a65640000000000000000000000000000000000000000008152506020019250505060405180910390a26010600084600019166000191681526020019081526020016000206000808201600090556001820160009055600482016000905560058201600090555050505050600860008260001916600019168152602001908152602001600020600090555050505050565b60116020528060005260406000206000915090505481565b600d5481565b60003660405180838380828437820191505092505050604051809103902061310d81616625565b151561311557005b60003660405180838380828437820191505092505050604051809103902061313c816165a8565b151561314457005b82600a819055507f9d46c50cb19a491fb2eaba8b18e5328816184146ae5f4d9ab621d76d2ed1a9a2600a546040518082815260200191505060405180910390a16008600082600019166000191681526020019081526020016000206000905550600860008260001916600019168152602001908152602001600020600090555050565b60168054600181600116156101000203166002900480601f01602080910402602001604051908101604052809291908181526020018280546001816001161561010002031660029004801561325d5780601f106132325761010080835404028352916020019161325d565b820191906000526020600020905b81548152906001019060200180831161324057829003601f168201915b505050505081565b600c5481565b60126020528060005260406000206000915090505481565b60011515600460003373ffffffffffffffffffffffffffffffffffffffff1673ffffffffffffffffffffffffffffffffffffffff16815260200190815260200160002060009054906101000a900460ff1615151415156132e257600080fd5b6000600460003373ffffffffffffffffffffffffffffffffffffffff1673ffffffffffffffffffffffffffffffffffffffff16815260200190815260200160002060006101000a81548160ff0219169083151502179055503373ffffffffffffffffffffffffffffffffffffffff167f3281051f50c80211481c7d83588f2aa4266a9ce1468c910f64c983093176b0d66000604051808215151515815260200191505060405180910390a2565b60011515600460003373ffffffffffffffffffffffffffffffffffffffff1673ffffffffffffffffffffffffffffffffffffffff16815260200190815260200160002060009054906101000a900460ff1615151415156133ee57600080fd5b600060066000836000191660001916815260200190815260200160002060003373ffffffffffffffffffffffffffffffffffffffff1673ffffffffffffffffffffffffffffffffffffffff16815260200190815260200160002060006101000a81548160ff02191690831515021790555060006007600083600019166000191681526020019081526020016000205414156134a357600860008260001916600019168152602001908152602001600020600090555b50565b601a5481565b6000366040518083838082843782019150509250505060405180910390206134d381616625565b15156134db57005b600036604051808383808284378201915050925050506040518091039020613502816165a8565b151561350a57005b826003819055507f3dafdf04a2a91e1f13fb84664194bba4aef5c95d086769d9e38c574e33c8fedf6003546040518082815260200191505060405180910390a16008600082600019166000191681526020019081526020016000206000905550600860008260001916600019168152602001908152602001600020600090555050565b6000366040518083838082843782019150509250505060405180910390206135b481616625565b15156135bc57005b6000366040518083838082843782019150509250505060405180910390206135e3816165a8565b15156135eb57005b60001515600460008573ffffffffffffffffffffffffffffffffffffffff1673ffffffffffffffffffffffffffffffffffffffff16815260200190815260200160002060009054906101000a900460ff1615151415613702576001600460008573ffffffffffffffffffffffffffffffffffffffff1673ffffffffffffffffffffffffffffffffffffffff16815260200190815260200160002060006101000a81548160ff0219169083151502179055506009600081548092919060010191905055508273ffffffffffffffffffffffffffffffffffffffff167f3281051f50c80211481c7d83588f2aa4266a9ce1468c910f64c983093176b0d66001604051808215151515815260200191505060405180910390a25b6008600082600019166000191681526020019081526020016000206000905550600860008260001916600019168152602001908152602001600020600090555050565b6000601760019054906101000a900473ffffffffffffffffffffffffffffffffffffffff1673ffffffffffffffffffffffffffffffffffffffff166327e235e3836000604051602001526040518263ffffffff167c0100000000000000000000000000000000000000000000000000000000028152600401808273ffffffffffffffffffffffffffffffffffffffff1673ffffffffffffffffffffffffffffffffffffffff168152602001915050602060405180830381600087803b151561380c57600080fd5b6102c65a03f1151561381d57600080fd5b505050604051805190509050919050565b600060011515600460003373ffffffffffffffffffffffffffffffffffffffff1673ffffffffffffffffffffffffffffffffffffffff16815260200190815260200160002060009054906101000a900460ff16151514151561388f57600080fd5b6000366040518083838082843782019150509250505060405180910390206138b6816165a8565b15156138be57005b601760019054906101000a900473ffffffffffffffffffffffffffffffffffffffff1673ffffffffffffffffffffffffffffffffffffffff16638f8e83c4846000604051602001526040518263ffffffff167c0100000000000000000000000000000000000000000000000000000000028152600401808273ffffffffffffffffffffffffffffffffffffffff1673ffffffffffffffffffffffffffffffffffffffff168152602001915050602060405180830381600087803b151561398357600080fd5b6102c65a03f1151561399457600080fd5b505050604051805190501515613bb557601760019054906101000a900473ffffffffffffffffffffffffffffffffffffffff1673ffffffffffffffffffffffffffffffffffffffff1663329388aa8460016040518363ffffffff167c0100000000000000000000000000000000000000000000000000000000028152600401808373ffffffffffffffffffffffffffffffffffffffff1673ffffffffffffffffffffffffffffffffffffffff1681526020018215151515815260200192505050600060405180830381600087803b1515613a6d57600080fd5b6102c65a03f11515613a7e57600080fd5b505050601760019054906101000a900473ffffffffffffffffffffffffffffffffffffffff1673ffffffffffffffffffffffffffffffffffffffff16637a30ab2f84426040518363ffffffff167c0100000000000000000000000000000000000000000000000000000000028152600401808373ffffffffffffffffffffffffffffffffffffffff1673ffffffffffffffffffffffffffffffffffffffff16815260200182815260200192505050600060405180830381600087803b1515613b4557600080fd5b6102c65a03f11515613b5657600080fd5b5050508273ffffffffffffffffffffffffffffffffffffffff167f889cb149d426eca2f86c88cc89ad9051b8c6b15ddd9bf509a9307bff27816a726001604051808215151515815260200191505060405180910390a260019150613bb6565b5b6008600082600019166000191681526020019081526020016000206000905550919050565b60095481565b600b5481565b600080600e541415613d225781601760019054906101000a900473ffffffffffffffffffffffffffffffffffffffff1673ffffffffffffffffffffffffffffffffffffffff16635c65816585336000604051602001526040518363ffffffff167c0100000000000000000000000000000000000000000000000000000000028152600401808373ffffffffffffffffffffffffffffffffffffffff1673ffffffffffffffffffffffffffffffffffffffff1681526020018273ffffffffffffffffffffffffffffffffffffffff1673ffffffffffffffffffffffffffffffffffffffff16815260200192505050602060405180830381600087803b1515613ced57600080fd5b6102c65a03f11515613cfe57600080fd5b50505060405180519050101515613d2057613d19838361147e565b9050613d21565b5b5b92915050565b60158054600181600116156101000203166002900480601f016020809104026020016040519081016040528092919081815260200182805460018160011615610100020316600290048015613dbe5780601f10613d9357610100808354040283529160200191613dbe565b820191906000526020600020905b815481529060010190602001808311613da157829003601f168201915b505050505081565b600036604051808383808284378201915050925050506040518091039020613ded81616625565b1515613df557005b60086000836000191660001916815260200190815260200160002060009055600860008260001916600019168152602001908152602001600020600090555050565b600036604051808383808284378201915050925050506040518091039020613e5e81616625565b1515613e6657005b6000600e541415613ef15760003660405180838380828437820191505092505050604051809103902060326000613e9e838383616f60565b1515613ea657005b613eaf85616b3a565b60106000846000191660001916815260200190815260200160002060008082016000905560018201600090556004820160009055600582016000905550505050505b600860008260001916600019168152602001908152602001600020600090555050565b600060106000846000191660001916815260200190815260200160002060030160003373ffffffffffffffffffffffffffffffffffffffff1673ffffffffffffffffffffffffffffffffffffffff1681526020019081526020016000205460106000856000191660001916815260200190815260200160002060020160003373ffffffffffffffffffffffffffffffffffffffff1673ffffffffffffffffffffffffffffffffffffffff1681526020019081526020016000205401141515613fdb5761425d565b80156140f957601260003373ffffffffffffffffffffffffffffffffffffffff1673ffffffffffffffffffffffffffffffffffffffff1681526020019081526020016000205460106000846000191660001916815260200190815260200160002060020160003373ffffffffffffffffffffffffffffffffffffffff1673ffffffffffffffffffffffffffffffffffffffff16815260200190815260200160002060008282540192505081905550601260003373ffffffffffffffffffffffffffffffffffffffff1673ffffffffffffffffffffffffffffffffffffffff168152602001908152602001600020546010600084600019166000191681526020019081526020016000206004016000828254019250508190555061420d565b601260003373ffffffffffffffffffffffffffffffffffffffff1673ffffffffffffffffffffffffffffffffffffffff1681526020019081526020016000205460106000846000191660001916815260200190815260200160002060030160003373ffffffffffffffffffffffffffffffffffffffff1673ffffffffffffffffffffffffffffffffffffffff16815260200190815260200160002060008282540192505081905550601260003373ffffffffffffffffffffffffffffffffffffffff1673ffffffffffffffffffffffffffffffffffffffff16815260200190815260200160002054601060008460001916600019168152602001908152602001600020600501600082825401925050819055505b601160003373ffffffffffffffffffffffffffffffffffffffff1673ffffffffffffffffffffffffffffffffffffffff168152602001908152602001600020600081548092919060010191905055505b5050565b600060011515600460003373ffffffffffffffffffffffffffffffffffffffff1673ffffffffffffffffffffffffffffffffffffffff16815260200190815260200160002060009054906101000a900460ff1615151415156142c257600080fd5b6000600e5414156142da576142d7838361147e565b90505b92915050565b60006142ea617104565b82601760019054906101000a900473ffffffffffffffffffffffffffffffffffffffff1673ffffffffffffffffffffffffffffffffffffffff166327e235e3336000604051602001526040518263ffffffff167c0100000000000000000000000000000000000000000000000000000000028152600401808273ffffffffffffffffffffffffffffffffffffffff1673ffffffffffffffffffffffffffffffffffffffff168152602001915050602060405180830381600087803b15156143b057600080fd5b6102c65a03f115156143c157600080fd5b5050506040518051905010151561461e57601760019054906101000a900473ffffffffffffffffffffffffffffffffffffffff1673ffffffffffffffffffffffffffffffffffffffff1663beabacc83386866040518463ffffffff167c0100000000000000000000000000000000000000000000000000000000028152600401808473ffffffffffffffffffffffffffffffffffffffff1673ffffffffffffffffffffffffffffffffffffffff1681526020018373ffffffffffffffffffffffffffffffffffffffff1673ffffffffffffffffffffffffffffffffffffffff1681526020018281526020019350505050600060405180830381600087803b15156144ca57600080fd5b6102c65a03f115156144db57600080fd5b5050508373ffffffffffffffffffffffffffffffffffffffff163373ffffffffffffffffffffffffffffffffffffffff167fddf252ad1be2c89b69c2b068fc378daa952ba7f163c4a11628f55a4df523b3ef856040518082815260200191505060405180910390a38373ffffffffffffffffffffffffffffffffffffffff163373ffffffffffffffffffffffffffffffffffffffff167fe19260aff97b920c7df27010903aeb9c8d2be5d310a2c67824cf3f15396e4c1685846040518083815260200180602001828103825283818151815260200191508051906020019080838360005b838110156145da5780820151818401526020810190506145bf565b50505050905090810190601f1680156146075780820380516001836020036101000a031916815260200191505b50935050505060405180910390a36001915061461f565b5b5092915050565b600080600060011515600460003373ffffffffffffffffffffffffffffffffffffffff1673ffffffffffffffffffffffffffffffffffffffff16815260200190815260200160002060009054906101000a900460ff16151514151561468a57600080fd5b6000600e541415614ae557429250600091505b8351821015614ae457601760019054906101000a900473ffffffffffffffffffffffffffffffffffffffff1673ffffffffffffffffffffffffffffffffffffffff166327e235e385848151811015156146f257fe5b906020019060200201516000604051602001526040518263ffffffff167c0100000000000000000000000000000000000000000000000000000000028152600401808273ffffffffffffffffffffffffffffffffffffffff1673ffffffffffffffffffffffffffffffffffffffff168152602001915050602060405180830381600087803b151561478257600080fd5b6102c65a03f1151561479357600080fd5b505050604051805190509050601760019054906101000a900473ffffffffffffffffffffffffffffffffffffffff1673ffffffffffffffffffffffffffffffffffffffff166328e69b1685848151811015156147eb57fe5b9060200190602002015160006040518363ffffffff167c0100000000000000000000000000000000000000000000000000000000028152600401808373ffffffffffffffffffffffffffffffffffffffff1673ffffffffffffffffffffffffffffffffffffffff16815260200182815260200192505050600060405180830381600087803b151561487b57600080fd5b6102c65a03f1151561488c57600080fd5b505050601760019054906101000a900473ffffffffffffffffffffffffffffffffffffffff1673ffffffffffffffffffffffffffffffffffffffff166354134cd285848151811015156148db57fe5b90602001906020020151836040518363ffffffff167c0100000000000000000000000000000000000000000000000000000000028152600401808373ffffffffffffffffffffffffffffffffffffffff1673ffffffffffffffffffffffffffffffffffffffff16815260200182815260200192505050600060405180830381600087803b151561496a57600080fd5b6102c65a03f1151561497b57600080fd5b505050601760019054906101000a900473ffffffffffffffffffffffffffffffffffffffff1673ffffffffffffffffffffffffffffffffffffffff1663b65dc41385848151811015156149ca57fe5b90602001906020020151856040518363ffffffff167c0100000000000000000000000000000000000000000000000000000000028152600401808373ffffffffffffffffffffffffffffffffffffffff1673ffffffffffffffffffffffffffffffffffffffff16815260200182815260200192505050600060405180830381600087803b1515614a5957600080fd5b6102c65a03f11515614a6a57600080fd5b5050508382815181101515614a7b57fe5b9060200190602002015173ffffffffffffffffffffffffffffffffffffffff167f85a80b3c69e65851b9558eb027b8e071efc4f8d6c7fb04a15ca15246ac2eb4b96001604051808215151515815260200191505060405180910390a2818060010192505061469d565b5b50505050565b600060011515600460003373ffffffffffffffffffffffffffffffffffffffff1673ffffffffffffffffffffffffffffffffffffffff16815260200190815260200160002060009054906101000a900460ff161515141515614b4c57600080fd5b600036604051808383808284378201915050925050506040518091039020614b73816165a8565b1515614b7b57005b601760019054906101000a900473ffffffffffffffffffffffffffffffffffffffff1673ffffffffffffffffffffffffffffffffffffffff16638f8e83c4846000604051602001526040518263ffffffff167c0100000000000000000000000000000000000000000000000000000000028152600401808273ffffffffffffffffffffffffffffffffffffffff1673ffffffffffffffffffffffffffffffffffffffff168152602001915050602060405180830381600087803b1515614c4057600080fd5b6102c65a03f11515614c5157600080fd5b5050506040518051905015614e7257601760019054906101000a900473ffffffffffffffffffffffffffffffffffffffff1673ffffffffffffffffffffffffffffffffffffffff1663329388aa8460006040518363ffffffff167c0100000000000000000000000000000000000000000000000000000000028152600401808373ffffffffffffffffffffffffffffffffffffffff1673ffffffffffffffffffffffffffffffffffffffff1681526020018215151515815260200192505050600060405180830381600087803b1515614d2957600080fd5b6102c65a03f11515614d3a57600080fd5b505050601760019054906101000a900473ffffffffffffffffffffffffffffffffffffffff1673ffffffffffffffffffffffffffffffffffffffff16637a30ab2f8460006040518363ffffffff167c0100000000000000000000000000000000000000000000000000000000028152600401808373ffffffffffffffffffffffffffffffffffffffff1673ffffffffffffffffffffffffffffffffffffffff16815260200182815260200192505050600060405180830381600087803b1515614e0257600080fd5b6102c65a03f11515614e1357600080fd5b5050508273ffffffffffffffffffffffffffffffffffffffff167f889cb149d426eca2f86c88cc89ad9051b8c6b15ddd9bf509a9307bff27816a726000604051808215151515815260200191505060405180910390a260019150614e73565b5b6008600082600019166000191681526020019081526020016000206000905550919050565b60106020528060005260406000206000915090508060000154908060010154908060040154908060050154905084565b600060106000836000191660001916815260200190815260200160002060030160003373ffffffffffffffffffffffffffffffffffffffff1673ffffffffffffffffffffffffffffffffffffffff1681526020019081526020016000205460106000846000191660001916815260200190815260200160002060020160003373ffffffffffffffffffffffffffffffffffffffff1673ffffffffffffffffffffffffffffffffffffffff16815260200190815260200160002054011415614f8e576151af565b60106000826000191660001916815260200190815260200160002060020160003373ffffffffffffffffffffffffffffffffffffffff1673ffffffffffffffffffffffffffffffffffffffff1681526020019081526020016000205460106000836000191660001916815260200190815260200160002060040160008282540392505081905550600060106000836000191660001916815260200190815260200160002060020160003373ffffffffffffffffffffffffffffffffffffffff1673ffffffffffffffffffffffffffffffffffffffff1681526020019081526020016000208190555060106000826000191660001916815260200190815260200160002060030160003373ffffffffffffffffffffffffffffffffffffffff1673ffffffffffffffffffffffffffffffffffffffff1681526020019081526020016000205460106000836000191660001916815260200190815260200160002060050160008282540392505081905550600060106000836000191660001916815260200190815260200160002060030160003373ffffffffffffffffffffffffffffffffffffffff1673ffffffffffffffffffffffffffffffffffffffff16815260200190815260200160002081905550601160003373ffffffffffffffffffffffffffffffffffffffff1673ffffffffffffffffffffffffffffffffffffffff16815260200190815260200160002060008154809291906001900391905055505b50565b6000366040518083838082843782019150509250505060405180910390206151d981616625565b15156151e157005b600036604051808383808284378201915050925050506040518091039020615208816165a8565b151561521057005b826018819055506008600082600019166000191681526020019081526020016000206000905550600860008260001916600019168152602001908152602001600020600090555050565b600a5481565b60011515600460003373ffffffffffffffffffffffffffffffffffffffff1673ffffffffffffffffffffffffffffffffffffffff16815260200190815260200160002060009054906101000a900460ff1615151415156152bf57600080fd5b6000600e54141561534a57600036604051808383808284378201915050925050506040518091039020604360016152f7838383616f60565b15156152ff57005b61530884616b3a565b60106000846000191660001916815260200190815260200160002060008082016000905560018201600090556004820160009055600582016000905550505050505b50565b601760019054906101000a900473ffffffffffffffffffffffffffffffffffffffff1673ffffffffffffffffffffffffffffffffffffffff166328e69b168234601760019054906101000a900473ffffffffffffffffffffffffffffffffffffffff1673ffffffffffffffffffffffffffffffffffffffff166327e235e3866000604051602001526040518263ffffffff167c0100000000000000000000000000000000000000000000000000000000028152600401808273ffffffffffffffffffffffffffffffffffffffff1673ffffffffffffffffffffffffffffffffffffffff168152602001915050602060405180830381600087803b151561545257600080fd5b6102c65a03f1151561546357600080fd5b50505060405180519050016040518363ffffffff167c0100000000000000000000000000000000000000000000000000000000028152600401808373ffffffffffffffffffffffffffffffffffffffff1673ffffffffffffffffffffffffffffffffffffffff16815260200182815260200192505050600060405180830381600087803b15156154f257600080fd5b6102c65a03f1151561550357600080fd5b505050346001600082825401925050819055508073ffffffffffffffffffffffffffffffffffffffff167f1b851e1031ef35a238e6c67d0c7991162390df915f70eaf9098dbf0b175a6198346040518082815260200191505060405180910390a250565b600560009054906101000a900473ffffffffffffffffffffffffffffffffffffffff1673ffffffffffffffffffffffffffffffffffffffff163373ffffffffffffffffffffffffffffffffffffffff16141561565757600036604051808383808284378201915050925050506040518091039020604360016155ea838383616f60565b15156155f257005b6155fa6170f9565b6001602160006101000a81548160ff02191690831515021790555060106000846000191660001916815260200190815260200160002060008082016000905560018201600090556004820160009055600582016000905550505050505b565b60008083601760019054906101000a900473ffffffffffffffffffffffffffffffffffffffff1673ffffffffffffffffffffffffffffffffffffffff166327e235e3336000604051602001526040518263ffffffff167c0100000000000000000000000000000000000000000000000000000000028152600401808273ffffffffffffffffffffffffffffffffffffffff1673ffffffffffffffffffffffffffffffffffffffff168152602001915050602060405180830381600087803b151561572257600080fd5b6102c65a03f1151561573357600080fd5b50505060405180519050101515615a5757843b9150601760019054906101000a900473ffffffffffffffffffffffffffffffffffffffff1673ffffffffffffffffffffffffffffffffffffffff1663beabacc83387876040518463ffffffff167c0100000000000000000000000000000000000000000000000000000000028152600401808473ffffffffffffffffffffffffffffffffffffffff1673ffffffffffffffffffffffffffffffffffffffff1681526020018373ffffffffffffffffffffffffffffffffffffffff1673ffffffffffffffffffffffffffffffffffffffff1681526020018281526020019350505050600060405180830381600087803b151561584057600080fd5b6102c65a03f1151561585157600080fd5b5050506000821115615984578490508073ffffffffffffffffffffffffffffffffffffffff1663c0ee0b8a3386866040518463ffffffff167c0100000000000000000000000000000000000000000000000000000000028152600401808473ffffffffffffffffffffffffffffffffffffffff1673ffffffffffffffffffffffffffffffffffffffff16815260200183815260200180602001828103825283818151815260200191508051906020019080838360005b83811015615922578082015181840152602081019050615907565b50505050905090810190601f16801561594f5780820380516001836020036101000a031916815260200191505b50945050505050600060405180830381600087803b151561596f57600080fd5b6102c65a03f1151561598057600080fd5b5050505b8473ffffffffffffffffffffffffffffffffffffffff163373ffffffffffffffffffffffffffffffffffffffff167fe19260aff97b920c7df27010903aeb9c8d2be5d310a2c67824cf3f15396e4c1686866040518083815260200180602001828103825283818151815260200191508051906020019080838360005b83811015615a1b578082015181840152602081019050615a00565b50505050905090810190601f168015615a485780820380516001836020036101000a031916815260200191505b50935050505060405180910390a35b5050505050565b6000806000600e541415615bde5782604051808273ffffffffffffffffffffffffffffffffffffffff1673ffffffffffffffffffffffffffffffffffffffff166c010000000000000000000000000281526014019150506040518091039020600190049050601d600085815260200190815260200160002054601c600086815260200190815260200160002054038373ffffffffffffffffffffffffffffffffffffffff16601c600087815260200190815260200160002054031015615bdc5780601d600086815260200190815260200160002081905550837f046be9693b9b4ed56df331431ff8cc6874ab57df1e1332c0984ba4278edef38f84604051808273ffffffffffffffffffffffffffffffffffffffff1673ffffffffffffffffffffffffffffffffffffffff16815260200180602001828103825260078152602001807f636c61696d6564000000000000000000000000000000000000000000000000008152506020019250505060405180910390a260019150615bdd565b5b5b5092915050565b6000601760019054906101000a900473ffffffffffffffffffffffffffffffffffffffff1673ffffffffffffffffffffffffffffffffffffffff166333dd1b8a3386866040518463ffffffff167c0100000000000000000000000000000000000000000000000000000000028152600401808473ffffffffffffffffffffffffffffffffffffffff1673ffffffffffffffffffffffffffffffffffffffff1681526020018373ffffffffffffffffffffffffffffffffffffffff1673ffffffffffffffffffffffffffffffffffffffff1681526020018281526020019350505050600060405180830381600087803b1515615cdf57600080fd5b6102c65a03f11515615cf057600080fd5b5050508373ffffffffffffffffffffffffffffffffffffffff163373ffffffffffffffffffffffffffffffffffffffff167f8c5be1e5ebec7d5bd14f71427d1e84f3dd0314c0f7b2291e5b200ac8c7c3b925856040518082815260200191505060405180910390a38373ffffffffffffffffffffffffffffffffffffffff1660405180807f72656365697665417070726f76616c28616464726573732c75696e742c61646481526020017f726573732c627974657329000000000000000000000000000000000000000000815250602b01905060405180910390207c01000000000000000000000000000000000000000000000000000000009004338530866040518563ffffffff167c0100000000000000000000000000000000000000000000000000000000028152600401808573ffffffffffffffffffffffffffffffffffffffff1673ffffffffffffffffffffffffffffffffffffffff1681526020018481526020018373ffffffffffffffffffffffffffffffffffffffff1673ffffffffffffffffffffffffffffffffffffffff168152602001828051906020019080838360005b83811015615eb1578082015181840152602081019050615e96565b50505050905090810190601f168015615ede5780820380516001836020036101000a031916815260200191505b5094505050505060006040518083038160008761646e5a03f1925050501515615f0657600080fd5b600190509392505050565b600c54601060008460001916600019168152602001908152602001600020600001540142101561610d57600060106000846000191660001916815260200190815260200160002060030160008373ffffffffffffffffffffffffffffffffffffffff1673ffffffffffffffffffffffffffffffffffffffff1681526020019081526020016000205460106000856000191660001916815260200190815260200160002060020160008473ffffffffffffffffffffffffffffffffffffffff1673ffffffffffffffffffffffffffffffffffffffff168152602001908152602001600020540114151561604e57601160003373ffffffffffffffffffffffffffffffffffffffff1673ffffffffffffffffffffffffffffffffffffffff16815260200190815260200160002060008154809291906001900391905055505b60106000836000191660001916815260200190815260200160002060020160008273ffffffffffffffffffffffffffffffffffffffff1673ffffffffffffffffffffffffffffffffffffffff1681526020019081526020016000206000905560106000836000191660001916815260200190815260200160002060030160008273ffffffffffffffffffffffffffffffffffffffff1673ffffffffffffffffffffffffffffffffffffffff168152602001908152602001600020600090555b5050565b61611a3361534d565b565b60003660405180838380828437820191505092505050604051809103902061614381616625565b151561614b57005b600036604051808383808284378201915050925050506040518091039020616172816165a8565b151561617a57005b6000600460008673ffffffffffffffffffffffffffffffffffffffff1673ffffffffffffffffffffffffffffffffffffffff16815260200190815260200160002060006101000a81548160ff0219169083151502179055506001600460008573ffffffffffffffffffffffffffffffffffffffff1673ffffffffffffffffffffffffffffffffffffffff16815260200190815260200160002060006101000a81548160ff0219169083151502179055508373ffffffffffffffffffffffffffffffffffffffff167f3281051f50c80211481c7d83588f2aa4266a9ce1468c910f64c983093176b0d66000604051808215151515815260200191505060405180910390a28273ffffffffffffffffffffffffffffffffffffffff167f3281051f50c80211481c7d83588f2aa4266a9ce1468c910f64c983093176b0d66001604051808215151515815260200191505060405180910390a2600860008260001916600019168152602001908152602001600020600090555060086000826000191660001916815260200190815260200160002060009055505050565b6000601760019054906101000a900473ffffffffffffffffffffffffffffffffffffffff1673ffffffffffffffffffffffffffffffffffffffff16635c65816584846000604051602001526040518363ffffffff167c0100000000000000000000000000000000000000000000000000000000028152600401808373ffffffffffffffffffffffffffffffffffffffff1673ffffffffffffffffffffffffffffffffffffffff1681526020018273ffffffffffffffffffffffffffffffffffffffff1673ffffffffffffffffffffffffffffffffffffffff16815260200192505050602060405180830381600087803b151561640f57600080fd5b6102c65a03f1151561642057600080fd5b50505060405180519050905092915050565b60003660405180838380828437820191505092505050604051809103902061645981616625565b151561646157005b600036604051808383808284378201915050925050506040518091039020616488816165a8565b151561649057005b82601a819055506008600082600019166000191681526020019081526020016000206000905550600860008260001916600019168152602001908152602001600020600090555050565b601760019054906101000a900473ffffffffffffffffffffffffffffffffffffffff1681565b60003660405180838380828437820191505092505050604051809103902061652781616625565b151561652f57005b600036604051808383808284378201915050925050506040518091039020616556816165a8565b151561655e57005b826019819055506008600082600019166000191681526020019081526020016000206000905550600860008260001916600019168152602001908152602001600020600090555050565b6000806008600084600019166000191681526020019081526020016000205414156165ee5742600860008460001916600019168152602001908152602001600020819055505b600a5460086000846000191660001916815260200190815260200160002054014210151561661f5760019050616620565b5b919050565b60008060086000846000191660001916815260200190815260200160002054141515616654576001905061680f565b60011515600460003373ffffffffffffffffffffffffffffffffffffffff1673ffffffffffffffffffffffffffffffffffffffff16815260200190815260200160002060009054906101000a900460ff16151514801561671d57506000151560066000846000191660001916815260200190815260200160002060003373ffffffffffffffffffffffffffffffffffffffff1673ffffffffffffffffffffffffffffffffffffffff16815260200190815260200160002060009054906101000a900460ff161515145b1561680e57600160066000846000191660001916815260200190815260200160002060003373ffffffffffffffffffffffffffffffffffffffff1673ffffffffffffffffffffffffffffffffffffffff16815260200190815260200160002060006101000a81548160ff021916908315150217905550600760008360001916600019168152602001908152602001600020600081548092919060010191905055506003546007600084600019166000191681526020019081526020016000205410151561680d5742600860008460001916600019168152602001908152602001600020819055506001905061680f565b5b5b919050565b6000601760019054906101000a900473ffffffffffffffffffffffffffffffffffffffff1673ffffffffffffffffffffffffffffffffffffffff166327e235e3836000604051602001526040518263ffffffff167c0100000000000000000000000000000000000000000000000000000000028152600401808273ffffffffffffffffffffffffffffffffffffffff1673ffffffffffffffffffffffffffffffffffffffff168152602001915050602060405180830381600087803b15156168db57600080fd5b6102c65a03f115156168ec57600080fd5b50505060405180519050602260008473ffffffffffffffffffffffffffffffffffffffff1673ffffffffffffffffffffffffffffffffffffffff16815260200190815260200160002081905550601760019054906101000a900473ffffffffffffffffffffffffffffffffffffffff1673ffffffffffffffffffffffffffffffffffffffff166328e69b168360006040518363ffffffff167c0100000000000000000000000000000000000000000000000000000000028152600401808373ffffffffffffffffffffffffffffffffffffffff1673ffffffffffffffffffffffffffffffffffffffff16815260200182815260200192505050600060405180830381600087803b15156169fe57600080fd5b6102c65a03f11515616a0f57600080fd5b505050601760019054906101000a900473ffffffffffffffffffffffffffffffffffffffff1673ffffffffffffffffffffffffffffffffffffffff1663c77fd877836000604051602001526040518263ffffffff167c0100000000000000000000000000000000000000000000000000000000028152600401808273ffffffffffffffffffffffffffffffffffffffff1673ffffffffffffffffffffffffffffffffffffffff168152602001915050602060405180830381600087803b1515616ad757600080fd5b6102c65a03f11515616ae857600080fd5b50505060405180519050602260008473ffffffffffffffffffffffffffffffffffffffff1673ffffffffffffffffffffffffffffffffffffffff16815260200190815260200160002054019050919050565b8073ffffffffffffffffffffffffffffffffffffffff1663b7b0422d6001546000604051602001526040518263ffffffff167c010000000000000000000000000000000000000000000000000000000002815260040180828152602001915050602060405180830381600087803b1515616bb357600080fd5b6102c65a03f11515616bc457600080fd5b5050506040518051905015616d1f57601760019054906101000a900473ffffffffffffffffffffffffffffffffffffffff1673ffffffffffffffffffffffffffffffffffffffff16630900f010826040518263ffffffff167c0100000000000000000000000000000000000000000000000000000000028152600401808273ffffffffffffffffffffffffffffffffffffffff1673ffffffffffffffffffffffffffffffffffffffff168152602001915050600060405180830381600087803b1515616c8f57600080fd5b6102c65a03f11515616ca057600080fd5b5050507f0657c43252e21d6584c7ee97ba6b914710dc0b29771330a92acb3d09d57c5cf381604051808273ffffffffffffffffffffffffffffffffffffffff1673ffffffffffffffffffffffffffffffffffffffff16815260200191505060405180910390a18073ffffffffffffffffffffffffffffffffffffffff16ff5b50565b601760019054906101000a900473ffffffffffffffffffffffffffffffffffffffff1673ffffffffffffffffffffffffffffffffffffffff166328e69b1682602260008573ffffffffffffffffffffffffffffffffffffffff1673ffffffffffffffffffffffffffffffffffffffff16815260200190815260200160002054601760019054906101000a900473ffffffffffffffffffffffffffffffffffffffff1673ffffffffffffffffffffffffffffffffffffffff166327e235e3866000604051602001526040518263ffffffff167c0100000000000000000000000000000000000000000000000000000000028152600401808273ffffffffffffffffffffffffffffffffffffffff1673ffffffffffffffffffffffffffffffffffffffff168152602001915050602060405180830381600087803b1515616e6657600080fd5b6102c65a03f11515616e7757600080fd5b50505060405180519050016040518363ffffffff167c0100000000000000000000000000000000000000000000000000000000028152600401808373ffffffffffffffffffffffffffffffffffffffff1673ffffffffffffffffffffffffffffffffffffffff16815260200182815260200192505050600060405180830381600087803b1515616f0657600080fd5b6102c65a03f11515616f1757600080fd5b505050602260008273ffffffffffffffffffffffffffffffffffffffff1673ffffffffffffffffffffffffffffffffffffffff1681526020019081526020016000206000905550565b600080600060106000876000191660001916815260200190815260200160002060000154141561702357828015616f9b5750600b54600d5410155b15616fa957600091506170f1565b8215616fd457600d60008154809291906001019190505550600e600081548092919060010191905055505b42601060008760001916600019168152602001908152602001600020600001819055508360106000876000191660001916815260200190815260200160002060010181905550600091506170f1565b600c5460106000876000191660001916815260200190815260200160002060000154014211156170f057821561706757600e60008154809291906001900391905055505b6010600086600019166000191681526020019081526020016000206005015460106000876000191660001916815260200190815260200160002060040154019050601060008660001916600019168152602001908152602001600020600101548102601060008760001916600019168152602001908152602001600020600401541191506170f1565b5b509392505050565b600254600381905550565b6020604051908101604052806000815250905600a165627a7a7230582036388d6a57c33e6d8abef570cd18b1873db0c7e68f4b53efa0583254ae8bc1ac0029",
  "source": "/**\n * Define primary business logic for the Ibis token. The module includes code\n * for handling standard user accounting (deposit/withdraw/transfer), mechanisms\n * for freezing and liquidiating rogue or lost accounts, and contract\n * upgrades. This contract inherits restricted access control and democratic\n * voting from parent contracts.\n */\n\npragma solidity ^0.4.13;\n\nimport \"./ERC20.sol\";\nimport \"./ERC223.sol\";\nimport \"./Restricted.sol\";\nimport \"./Democratic.sol\";\nimport \"./Core.sol\";\n\n/// Implements the Ibis charity currency as an ERC20 token.\ncontract Ibis is ERC20, ERC223, Restricted, Democratic {\n\n    // constant values\n    uint MAX_UINT256 = 2**256-1;                 // maximum unsigned integer value\n    uint constant MAJORITY = 50;                 // majority percentage (voting)\n    uint constant SUPERMAJORITY = 67;            // supermajority percentage (voting)\n    uint constant VOTE_DURATION = 1000;          // # of blocks per voting period\n    uint constant MAX_NUKES = 3;                 // # of nukes available to nuke master\n\n    // human standard token fields\n    string public name = \"Ibis\";\n    string public symbol = \"IBI\";\n    string public version = '1.1';\n    uint8 public decimals = 18;\n\n    // address of core contract core\n    Core public core;\n\n    // address freezing/redistribution\n    uint public awardMax;                      // maximum award that can be claimed in one block\n    uint public frozenMinTime;                 // min time between freezing and redistribution\n    uint public awardMinTime;                  // min time to wait for charities to claim reward\n    mapping(uint => uint) awardValue;          // value of award at a given block\n    mapping(uint => uint) awardTarget;      // target address that would be closest\n    mapping(uint => uint) awardClosest;     // current winning bid for block award\n    mapping(address => bool) frozenVoted;      // votes cast by previously frozen accounts\n\n    // initial grace period emergency update\n    uint graceInit;\n    uint graceDuration = 960 * 21;\n\n    // if true then system has been nuked\n    bool nuked;\n\n    // business logic events\n    event LogDeposit(address indexed _from, uint _value);\n    event LogWithdraw(address indexed _to, uint _value);\n    event LogChangeCharities(address indexed _charity, bool _isCharity);\n    event LogFreeze(address indexed _account, bool frozen);\n    event LogAward(uint indexed _time, address _addr, string _state);\n    event LogUpgrade(address _addr);\n\n    /// Define restricted ownership, voting parameters, and the Core contract\n    function Ibis(address _core, address [] _owners, uint _ownerThreshold, address nukeMaster) public\n        Restricted(_owners, _ownerThreshold, nukeMaster)\n\tDemocratic(VOTE_DURATION, MAX_NUKES)\n    {\n\tgraceInit = block.timestamp;\n\tcore = Core(_core);\n    }\n\n    ///-------------------------------- User Account Methods --------------------------------///\n\n    // Return the balance of an address\n    function balanceOf(address _owner) public constant returns (uint) {\n\treturn core.balances(_owner);\n    }\n\n    /// Transfer value from the sending address to a given recipient\n    function transfer(address _to, uint _value) public returns (bool) {\n\tif(core.balances(msg.sender) >= _value) {\n\t    core.transfer(msg.sender, _to, _value);\n\n\t    bytes memory empty;\n\t    Transfer(msg.sender, _to, _value);\n\t    Transfer(msg.sender, _to, _value, empty);\n\t    return true;\n\t}\n    }\n\n    function transfer(address _to, uint _value, bytes _data) public {\n\tif(core.balances(msg.sender) >= _value) {\n\t    // Retrieve the size of the code on target address\n\t    uint codeLength;\n\t    assembly {\n\t    codeLength := extcodesize(_to)\n\t\t    }\n\n\t    core.transfer(msg.sender, _to, _value);\n\t    if(codeLength>0) {\n\t\tERC223ReceivingContract receiver = ERC223ReceivingContract(_to);\n\t\treceiver.tokenFallback(msg.sender, _value, _data);\n\t    }\n\t    Transfer(msg.sender, _to, _value, _data);\n\t}\n    }\n\n    /// Transfer value on behalf of another account if approved by the owner\n    function transferFrom(address _from, address _to, uint _value) public returns (bool) {\n        if(core.balances(_from) >= _value && core.allowed(_from, msg.sender) >= _value) {\n\t    core.transfer(_from, _to, _value);\n\t    core.setAllowed(_from, msg.sender, core.allowed(_from, msg.sender) - _value);\n\t    Transfer(_from, _to, _value);\n\t    return true;\n\t}\n    }\n\n    /// Convert Ether to Ibis coins for the message sender\n    function deposit() public payable {\n\tdepositTo(msg.sender);\n    }\n\n    /// Convert Ether to Ibis coins for an address other than the message sender\n    function depositTo(address _to) public payable {\n        core.setBalances(_to, core.balances(_to) + msg.value);\n\ttotalSupply += msg.value;\n\tLogDeposit(_to, msg.value);\n    }\n\n    /// Convert Ibis coins to Ether for message sender\n    function withdraw(uint _value) public suspendable returns (bool) {\n\treturn withdrawHelper(msg.sender, _value);\n    }\n\n    /// Convert Ibis coins to Ether for someone other than message sender (requires pre-approval)\n    function withdrawFrom(address _from, uint _value) public suspendable returns (bool) {\n\tif(core.allowed(_from, msg.sender) >= _value) {\n\t    return withdrawHelper(_from, _value);\n\t}\n    }\n\n    /// Convert Ibis coins to Ether on behalf of a charity by an Ibis owner address\n    function withdrawOwner(address _from, uint _value) public isOwner suspendable returns (bool) {\n\treturn withdrawHelper(_from, _value);\n    }\n\n    /// Internal logic for public withdraw interfaces\n    function withdrawHelper(address _from, uint _value) public returns (bool) {\n\tif ((core.charityStatus(_from) || nuked) && _value <= core.balances(_from)) {\n\t    core.setBalances(_from, core.balances(_from) - _value);\n\t    totalSupply -= _value;\n\t    _from.transfer(_value);\n\t    LogWithdraw(_from, _value);\n\t    return true;\n\t}\n    }\n\n    /// Approve a third party address to manage funds on behalf of the owner\n    function approve(address _spender, uint _value) public returns (bool) {\n\tcore.setAllowed(msg.sender, _spender, _value);\n\tApproval(msg.sender, _spender, _value);\n\treturn true;\n    }\n\n    /// Return the amount by which a third party is approved to transfer an owner's funds\n    function allowance(address _owner, address _spender) public constant returns (uint) {\n\treturn core.allowed(_owner, _spender);\n    }\n\n    /// Approve a third party to manange funds and callback a predesignated function signature\n    function approveAndCall(address _spender, uint _value, bytes _extraCore) public returns (bool) {\n        core.setAllowed(msg.sender, _spender, _value);\n        Approval(msg.sender, _spender, _value);\n\n        if(!_spender.call(bytes4(keccak256(\"receiveApproval(address,uint,address,bytes)\")),\n\t\t\t  msg.sender, _value, this, _extraCore)) {\n\t    revert();\n\t}\n        return true;\n    }\n\n    /// Approve a new charity\n    function addCharity(address _charity) public isOwner delayed(keccak256(msg.data)) returns (bool) {\n\tif(!core.charityStatus(_charity)) {\n\t    core.setCharityStatus(_charity, true);\n\t    core.setCharityTime(_charity, block.timestamp);\n\t    LogChangeCharities(_charity, true);\n\t    return true;\n\t}\n    }\n\n    /// Remove an existing charity\n    function removeCharity(address _charity) public isOwner delayed(keccak256(msg.data)) returns (bool) {\n\tif(core.charityStatus(_charity)) {\n\t    core.setCharityStatus(_charity, false);\n\t    core.setCharityTime(_charity, 0);\n\t    LogChangeCharities(_charity, false);\n\t    return true;\n\t}\n    }\n\n    ///---------------------------------- Freeze Methods ------------------------------------///\n\n    /// Suspend accounts by moving the existing balance into a frozen funds table\n    function freezeAccounts(address[] _accounts) public isOwner suspendable {\n\tuint time = block.timestamp;\n\tfor(uint i = 0; i < _accounts.length; i++) {\n\t    uint balance = core.balances(_accounts[i]);\n\t    core.setBalances(_accounts[i], 0);\n\t    core.setFrozenValue(_accounts[i], balance);\n\t    core.setFrozenTime(_accounts[i], time);\n\t    LogFreeze(_accounts[i], true);\n\t}\n    }\n\n    /// Reinstantiate frozen accounts\n    function unfreezeAccounts(address[] _accounts) public isOwner delayed(keccak256(msg.data))\n\tsuspendable {\n\tfor(uint i = 0; i < _accounts.length; i++) {\n\t    uint frozen = core.frozenValue(_accounts[i]);\n\t    core.setFrozenValue(_accounts[i], 0);\n\t    core.setFrozenTime(_accounts[i], 0);\n\t    core.setBalances(_accounts[i], frozen);\n\t    LogFreeze(_accounts[i], false);\n\t}\n    }\n\n    /// Liquidate frozen accounts and offer funds as reward for a randomly selected charity\n    function awardExcess(address[] _accounts) public isOwner delayed(keccak256(msg.data))\n\tvotable(keccak256(msg.data), MAJORITY, false) {\n\n\tuint frozenAward;\n\n\tfor(uint i = 0; i < _accounts.length; i++) {\n\t    if(core.frozenTime(_accounts[i]) + frozenMinTime < block.timestamp) {\n\t\tcontinue;\n\t    }\n\t    uint frozen = core.frozenValue(_accounts[i]);\n\t    if(frozenAward + frozen <= awardMax) {\n\t\tcore.setFrozenValue(_accounts[i], 0);\n\t\tfrozenAward += frozen;\n\t    }\n\t    else {\n\t\tcore.setFrozenValue(_accounts[i], frozen - (awardMax - frozenAward));\n\t\tfrozenAward = awardMax;\n\t\tbreak;\n\t    }\n\t}\n\n\t// prepare reward slot\n\tawardValue[block.timestamp] = frozenAward;\n\tawardTarget[block.timestamp] = uint(block.blockhash(block.number));\n\tawardClosest[block.timestamp] = awardTarget[block.timestamp] + (MAX_UINT256 / 2);\n\tLogAward(block.timestamp, address(0), \"initialized\");\n    }\n\n    /// Claim that a charity is the closest to the random target for a given award\n    function claimAward(uint _time, address _charity) public suspendable returns (bool) {\n\n\tuint challenge = uint(keccak256(_charity));\n\n\tif(awardTarget[_time] - uint(_charity) < awardTarget[_time] - awardClosest[_time]) {\n\t    awardClosest[_time] = challenge;\n\t    LogAward(_time, _charity, \"claimed\");\n\t    return true;\n\t}\n    }\n\n    /// Move funds into the balance of a winning charity after enough time has passed\n    function cashAward(uint _time, address _charity) public suspendable returns (bool) {\n\n\tuint claim = uint(keccak256(_charity));\n\n\tif(_time <= block.timestamp - awardMinTime && awardClosest[_time] == claim) {\n\t    uint award = awardValue[_time];\n\t    delete awardValue[_time];\n\t    delete awardTarget[_time];\n\t    delete awardClosest[_time];\n\t    core.setBalances(_charity, core.balances(_charity) + award);\n\t    LogAward(_time, _charity, \"awarded\");\n\t    return true;\n\t}\n    }\n\n    /// Set the minimum time for an account to be frozen before distribution (block height)\n    function setFrozenMinTime(uint _frozenMinTime) public multiowner(keccak256(msg.data))\n\tdelayed(keccak256(msg.data)) {\n\tfrozenMinTime = _frozenMinTime;\n    }\n\n    /// Set the window of time that charities can claim to be the closest to an award\n    function setAwardMinTime(uint _awardMinTime) public multiowner(keccak256(msg.data))\n\tdelayed(keccak256(msg.data)) {\n\tawardMinTime = _awardMinTime;\n    }\n\n    /// Set the maximum amount of funds that can be placed on a single block\n    function setAwardMax(uint _awardMax) public multiowner(keccak256(msg.data))\n\tdelayed(keccak256(msg.data)) {\n\tawardMax = _awardMax;\n    }\n\n    ///---------------------------------- Upgrade Methods -----------------------------------///\n\n    /// Standard path to propose a new controlling contract\n    function upgradeStandard(address _addr) public multiowner(keccak256(msg.data)) suspendable\n\tvotable(keccak256(msg.data), MAJORITY, false) {\n\tupgrade(_addr);\n    }\n\n    /// Emergency path to upgrade contracts if majority owner keys have been compromised\n    function upgradeEmergency(address _addr) public isOwner suspendable\n\tvotable(keccak256(msg.data), SUPERMAJORITY, true) {\n\tupgrade(_addr);\n    }\n\n    /// Emergency path to upgrade if something has gone wrong within the grace period\n    function upgradeInitial(address _addr) public isOwner() {\n\tif(graceInit + graceDuration < block.timestamp) {\n\t    upgrade(_addr);\n\t}\n    }\n\n    /// Perform actual upgrade\n    function upgrade(address _addr) internal {\n\tif(IbisNew(_addr).init(totalSupply)) {\n\t    core.upgrade(_addr);\n\t    LogUpgrade(_addr);\n\t    selfdestruct(_addr);\n\t}\n    }\n\n    ///---------------------------------- Nuke Methods -----------------------------------///\n\n    /// Supermajority vote to nuke the contract logic and allow free ether withdrawal\n    function nuke() isMaster votable(keccak256(msg.data), SUPERMAJORITY, true) public {\n\tRestrictedDestruct();\n\tnuked = true;\n    }\n\n    ///------------------------------ Democratic Interface ------------------------------///\n\n    mapping(address => uint) votes;\n\n    function purchaseVotes(address _addr) internal returns (uint) {\n\tvotes[_addr] = core.balances(_addr);\n\tcore.setBalances(_addr, 0);\n\treturn votes[_addr] + core.frozenValue(_addr);\n    }\n\n    function returnVotes(address _addr) internal {\n\tcore.setBalances(_addr, core.balances(_addr) + votes[_addr]);\n\tdelete votes[_addr];\n    }\n}\n\n/// Abstract contract placeholder to facilitate a future transition to the next version of Ibis\ncontract IbisNew {\n    /// This method will be implemented in the future contract version to process legacy data\n    function init(uint totalSupply) public returns (bool);\n}\n\ncontract ERC223ReceivingContract {\n    function tokenFallback(address _from, uint _value, bytes _data) public;\n}\n",
  "sourcePath": "/home/thien-nam/Code/Ibis/src/contracts/Ibis.sol",
  "compiler": {
    "name": "solc",
    "version": "0.4.18+commit.9cf6e910.Emscripten.clang"
  },
  "schemaVersion": "1.0.1",
  "updatedAt": "2018-01-03T07:43:28.716Z"
}