{
  "contractName": "Ibis",
  "abi": [
    {
      "constant": true,
      "inputs": [
        {
          "name": "",
          "type": "address"
        }
      ],
      "name": "owners",
      "outputs": [
        {
          "name": "",
          "type": "bool"
        }
      ],
      "payable": false,
      "stateMutability": "view",
      "type": "function"
    },
    {
      "constant": true,
      "inputs": [],
      "name": "name",
      "outputs": [
        {
          "name": "",
          "type": "string"
        }
      ],
      "payable": false,
      "stateMutability": "view",
      "type": "function"
    },
    {
      "constant": false,
      "inputs": [
        {
          "name": "_spender",
          "type": "address"
        },
        {
          "name": "_value",
          "type": "uint256"
        }
      ],
      "name": "approve",
      "outputs": [
        {
          "name": "",
          "type": "bool"
        }
      ],
      "payable": false,
      "stateMutability": "nonpayable",
      "type": "function"
    },
    {
      "constant": false,
      "inputs": [
        {
          "name": "_from",
          "type": "address"
        },
        {
          "name": "_value",
          "type": "uint256"
        }
      ],
      "name": "withdrawHelper",
      "outputs": [
        {
          "name": "",
          "type": "bool"
        }
      ],
      "payable": false,
      "stateMutability": "nonpayable",
      "type": "function"
    },
    {
      "constant": true,
      "inputs": [],
      "name": "frozenMinTime",
      "outputs": [
        {
          "name": "",
          "type": "uint256"
        }
      ],
      "payable": false,
      "stateMutability": "view",
      "type": "function"
    },
    {
      "constant": false,
      "inputs": [
        {
          "name": "_accounts",
          "type": "address[]"
        }
      ],
      "name": "unfreezeAccounts",
      "outputs": [],
      "payable": false,
      "stateMutability": "nonpayable",
      "type": "function"
    },
    {
      "constant": false,
      "inputs": [
        {
          "name": "_owner",
          "type": "address"
        }
      ],
      "name": "removeOwner",
      "outputs": [],
      "payable": false,
      "stateMutability": "nonpayable",
      "type": "function"
    },
    {
      "constant": true,
      "inputs": [],
      "name": "totalSupply",
      "outputs": [
        {
          "name": "",
          "type": "uint256"
        }
      ],
      "payable": false,
      "stateMutability": "view",
      "type": "function"
    },
    {
      "constant": false,
      "inputs": [],
      "name": "register",
      "outputs": [],
      "payable": false,
      "stateMutability": "nonpayable",
      "type": "function"
    },
    {
      "constant": true,
      "inputs": [],
      "name": "awardMax",
      "outputs": [
        {
          "name": "",
          "type": "uint256"
        }
      ],
      "payable": false,
      "stateMutability": "view",
      "type": "function"
    },
    {
      "constant": false,
      "inputs": [
        {
          "name": "_from",
          "type": "address"
        },
        {
          "name": "_to",
          "type": "address"
        },
        {
          "name": "_value",
          "type": "uint256"
        }
      ],
      "name": "transferFrom",
      "outputs": [
        {
          "name": "",
          "type": "bool"
        }
      ],
      "payable": false,
      "stateMutability": "nonpayable",
      "type": "function"
    },
    {
      "constant": false,
      "inputs": [
        {
          "name": "_time",
          "type": "uint256"
        },
        {
          "name": "_charity",
          "type": "address"
        }
      ],
      "name": "cashAward",
      "outputs": [
        {
          "name": "",
          "type": "bool"
        }
      ],
      "payable": false,
      "stateMutability": "nonpayable",
      "type": "function"
    },
    {
      "constant": false,
      "inputs": [
        {
          "name": "_addr",
          "type": "address"
        }
      ],
      "name": "upgradeInitial",
      "outputs": [],
      "payable": false,
      "stateMutability": "nonpayable",
      "type": "function"
    },
    {
      "constant": false,
      "inputs": [
        {
          "name": "_value",
          "type": "uint256"
        }
      ],
      "name": "withdraw",
      "outputs": [
        {
          "name": "",
          "type": "bool"
        }
      ],
      "payable": false,
      "stateMutability": "nonpayable",
      "type": "function"
    },
    {
      "constant": false,
      "inputs": [
        {
          "name": "_addr",
          "type": "address"
        }
      ],
      "name": "unregister",
      "outputs": [],
      "payable": false,
      "stateMutability": "nonpayable",
      "type": "function"
    },
    {
      "constant": true,
      "inputs": [],
      "name": "decimals",
      "outputs": [
        {
          "name": "",
          "type": "uint8"
        }
      ],
      "payable": false,
      "stateMutability": "view",
      "type": "function"
    },
    {
      "constant": false,
      "inputs": [
        {
          "name": "_accounts",
          "type": "address[]"
        }
      ],
      "name": "awardExcess",
      "outputs": [],
      "payable": false,
      "stateMutability": "nonpayable",
      "type": "function"
    },
    {
      "constant": false,
      "inputs": [
        {
          "name": "_delayDuration",
          "type": "uint256"
        }
      ],
      "name": "changeDelay",
      "outputs": [],
      "payable": false,
      "stateMutability": "nonpayable",
      "type": "function"
    },
    {
      "constant": true,
      "inputs": [],
      "name": "version",
      "outputs": [
        {
          "name": "",
          "type": "string"
        }
      ],
      "payable": false,
      "stateMutability": "view",
      "type": "function"
    },
    {
      "constant": false,
      "inputs": [],
      "name": "removeSelf",
      "outputs": [],
      "payable": false,
      "stateMutability": "nonpayable",
      "type": "function"
    },
    {
      "constant": false,
      "inputs": [
        {
          "name": "_operation",
          "type": "bytes32"
        }
      ],
      "name": "ownerRevoke",
      "outputs": [],
      "payable": false,
      "stateMutability": "nonpayable",
      "type": "function"
    },
    {
      "constant": true,
      "inputs": [],
      "name": "awardMinTime",
      "outputs": [
        {
          "name": "",
          "type": "uint256"
        }
      ],
      "payable": false,
      "stateMutability": "view",
      "type": "function"
    },
    {
      "constant": false,
      "inputs": [
        {
          "name": "_threshold",
          "type": "uint256"
        }
      ],
      "name": "changeThreshold",
      "outputs": [],
      "payable": false,
      "stateMutability": "nonpayable",
      "type": "function"
    },
    {
      "constant": false,
      "inputs": [
        {
          "name": "_owner",
          "type": "address"
        }
      ],
      "name": "addOwner",
      "outputs": [],
      "payable": false,
      "stateMutability": "nonpayable",
      "type": "function"
    },
    {
      "constant": true,
      "inputs": [
        {
          "name": "_owner",
          "type": "address"
        }
      ],
      "name": "balanceOf",
      "outputs": [
        {
          "name": "",
          "type": "uint256"
        }
      ],
      "payable": false,
      "stateMutability": "view",
      "type": "function"
    },
    {
      "constant": false,
      "inputs": [
        {
          "name": "_charity",
          "type": "address"
        }
      ],
      "name": "addCharity",
      "outputs": [
        {
          "name": "",
          "type": "bool"
        }
      ],
      "payable": false,
      "stateMutability": "nonpayable",
      "type": "function"
    },
    {
      "constant": true,
      "inputs": [],
      "name": "numOwners",
      "outputs": [
        {
          "name": "",
          "type": "uint256"
        }
      ],
      "payable": false,
      "stateMutability": "view",
      "type": "function"
    },
    {
      "constant": false,
      "inputs": [
        {
          "name": "_from",
          "type": "address"
        },
        {
          "name": "_value",
          "type": "uint256"
        }
      ],
      "name": "withdrawFrom",
      "outputs": [
        {
          "name": "",
          "type": "bool"
        }
      ],
      "payable": false,
      "stateMutability": "nonpayable",
      "type": "function"
    },
    {
      "constant": true,
      "inputs": [],
      "name": "symbol",
      "outputs": [
        {
          "name": "",
          "type": "string"
        }
      ],
      "payable": false,
      "stateMutability": "view",
      "type": "function"
    },
    {
      "constant": false,
      "inputs": [
        {
          "name": "_operation",
          "type": "bytes32"
        }
      ],
      "name": "killDelayed",
      "outputs": [],
      "payable": false,
      "stateMutability": "nonpayable",
      "type": "function"
    },
    {
      "constant": false,
      "inputs": [
        {
          "name": "_addr",
          "type": "address"
        }
      ],
      "name": "upgradeStandard",
      "outputs": [],
      "payable": false,
      "stateMutability": "nonpayable",
      "type": "function"
    },
    {
      "constant": false,
      "inputs": [
        {
          "name": "_operation",
          "type": "bytes32"
        },
        {
          "name": "_supporting",
          "type": "bool"
        }
      ],
      "name": "vote",
      "outputs": [],
      "payable": false,
      "stateMutability": "nonpayable",
      "type": "function"
    },
    {
      "constant": false,
      "inputs": [
        {
          "name": "_from",
          "type": "address"
        },
        {
          "name": "_value",
          "type": "uint256"
        }
      ],
      "name": "withdrawOwner",
      "outputs": [
        {
          "name": "",
          "type": "bool"
        }
      ],
      "payable": false,
      "stateMutability": "nonpayable",
      "type": "function"
    },
    {
      "constant": false,
      "inputs": [
        {
          "name": "_to",
          "type": "address"
        },
        {
          "name": "_value",
          "type": "uint256"
        }
      ],
      "name": "transfer",
      "outputs": [
        {
          "name": "",
          "type": "bool"
        }
      ],
      "payable": false,
      "stateMutability": "nonpayable",
      "type": "function"
    },
    {
      "constant": false,
      "inputs": [
        {
          "name": "_accounts",
          "type": "address[]"
        }
      ],
      "name": "freezeAccounts",
      "outputs": [],
      "payable": false,
      "stateMutability": "nonpayable",
      "type": "function"
    },
    {
      "constant": false,
      "inputs": [
        {
          "name": "_charity",
          "type": "address"
        }
      ],
      "name": "removeCharity",
      "outputs": [
        {
          "name": "",
          "type": "bool"
        }
      ],
      "payable": false,
      "stateMutability": "nonpayable",
      "type": "function"
    },
    {
      "constant": false,
      "inputs": [
        {
          "name": "_operation",
          "type": "bytes32"
        }
      ],
      "name": "unvote",
      "outputs": [],
      "payable": false,
      "stateMutability": "nonpayable",
      "type": "function"
    },
    {
      "constant": false,
      "inputs": [
        {
          "name": "_awardMax",
          "type": "uint256"
        }
      ],
      "name": "setAwardMax",
      "outputs": [],
      "payable": false,
      "stateMutability": "nonpayable",
      "type": "function"
    },
    {
      "constant": true,
      "inputs": [],
      "name": "delayDuration",
      "outputs": [
        {
          "name": "",
          "type": "uint256"
        }
      ],
      "payable": false,
      "stateMutability": "view",
      "type": "function"
    },
    {
      "constant": false,
      "inputs": [
        {
          "name": "_to",
          "type": "address"
        }
      ],
      "name": "depositTo",
      "outputs": [],
      "payable": true,
      "stateMutability": "payable",
      "type": "function"
    },
    {
      "constant": false,
      "inputs": [
        {
          "name": "_addr",
          "type": "address"
        }
      ],
      "name": "upgradeInitEmergency",
      "outputs": [],
      "payable": false,
      "stateMutability": "nonpayable",
      "type": "function"
    },
    {
      "constant": false,
      "inputs": [],
      "name": "nuke",
      "outputs": [],
      "payable": false,
      "stateMutability": "nonpayable",
      "type": "function"
    },
    {
      "constant": false,
      "inputs": [
        {
          "name": "_to",
          "type": "address"
        },
        {
          "name": "_value",
          "type": "uint256"
        },
        {
          "name": "_data",
          "type": "bytes"
        }
      ],
      "name": "transfer",
      "outputs": [],
      "payable": false,
      "stateMutability": "nonpayable",
      "type": "function"
    },
    {
      "constant": false,
      "inputs": [
        {
          "name": "_time",
          "type": "uint256"
        },
        {
          "name": "_charity",
          "type": "address"
        }
      ],
      "name": "claimAward",
      "outputs": [
        {
          "name": "",
          "type": "bool"
        }
      ],
      "payable": false,
      "stateMutability": "nonpayable",
      "type": "function"
    },
    {
      "constant": false,
      "inputs": [
        {
          "name": "_spender",
          "type": "address"
        },
        {
          "name": "_value",
          "type": "uint256"
        },
        {
          "name": "_extraCore",
          "type": "bytes"
        }
      ],
      "name": "approveAndCall",
      "outputs": [
        {
          "name": "",
          "type": "bool"
        }
      ],
      "payable": false,
      "stateMutability": "nonpayable",
      "type": "function"
    },
    {
      "constant": false,
      "inputs": [
        {
          "name": "_operation",
          "type": "bytes32"
        },
        {
          "name": "_addr",
          "type": "address"
        }
      ],
      "name": "clearVote",
      "outputs": [],
      "payable": false,
      "stateMutability": "nonpayable",
      "type": "function"
    },
    {
      "constant": false,
      "inputs": [],
      "name": "deposit",
      "outputs": [],
      "payable": true,
      "stateMutability": "payable",
      "type": "function"
    },
    {
      "constant": false,
      "inputs": [
        {
          "name": "_old",
          "type": "address"
        },
        {
          "name": "_new",
          "type": "address"
        }
      ],
      "name": "switchOwner",
      "outputs": [],
      "payable": false,
      "stateMutability": "nonpayable",
      "type": "function"
    },
    {
      "constant": true,
      "inputs": [
        {
          "name": "_owner",
          "type": "address"
        },
        {
          "name": "_spender",
          "type": "address"
        }
      ],
      "name": "allowance",
      "outputs": [
        {
          "name": "",
          "type": "uint256"
        }
      ],
      "payable": false,
      "stateMutability": "view",
      "type": "function"
    },
    {
      "constant": false,
      "inputs": [
        {
          "name": "_awardMinTime",
          "type": "uint256"
        }
      ],
      "name": "setAwardMinTime",
      "outputs": [],
      "payable": false,
      "stateMutability": "nonpayable",
      "type": "function"
    },
    {
      "constant": true,
      "inputs": [],
      "name": "core",
      "outputs": [
        {
          "name": "",
          "type": "address"
        }
      ],
      "payable": false,
      "stateMutability": "view",
      "type": "function"
    },
    {
      "constant": false,
      "inputs": [
        {
          "name": "_frozenMinTime",
          "type": "uint256"
        }
      ],
      "name": "setFrozenMinTime",
      "outputs": [],
      "payable": false,
      "stateMutability": "nonpayable",
      "type": "function"
    },
    {
      "inputs": [
        {
          "name": "_core",
          "type": "address"
        },
        {
          "name": "_owners",
          "type": "address[]"
        },
        {
          "name": "_ownerThreshold",
          "type": "uint256"
        },
        {
          "name": "nukeMaster",
          "type": "address"
        }
      ],
      "payable": false,
      "stateMutability": "nonpayable",
      "type": "constructor"
    },
    {
      "anonymous": false,
      "inputs": [
        {
          "indexed": true,
          "name": "_from",
          "type": "address"
        },
        {
          "indexed": false,
          "name": "_value",
          "type": "uint256"
        }
      ],
      "name": "LogDeposit",
      "type": "event"
    },
    {
      "anonymous": false,
      "inputs": [
        {
          "indexed": true,
          "name": "_to",
          "type": "address"
        },
        {
          "indexed": false,
          "name": "_value",
          "type": "uint256"
        }
      ],
      "name": "LogWithdraw",
      "type": "event"
    },
    {
      "anonymous": false,
      "inputs": [
        {
          "indexed": true,
          "name": "_charity",
          "type": "address"
        },
        {
          "indexed": false,
          "name": "_isCharity",
          "type": "bool"
        }
      ],
      "name": "LogChangeCharities",
      "type": "event"
    },
    {
      "anonymous": false,
      "inputs": [
        {
          "indexed": true,
          "name": "_account",
          "type": "address"
        },
        {
          "indexed": false,
          "name": "frozen",
          "type": "bool"
        }
      ],
      "name": "LogFreeze",
      "type": "event"
    },
    {
      "anonymous": false,
      "inputs": [
        {
          "indexed": true,
          "name": "_time",
          "type": "uint256"
        },
        {
          "indexed": false,
          "name": "_addr",
          "type": "address"
        },
        {
          "indexed": false,
          "name": "_state",
          "type": "string"
        }
      ],
      "name": "LogAward",
      "type": "event"
    },
    {
      "anonymous": false,
      "inputs": [
        {
          "indexed": false,
          "name": "_addr",
          "type": "address"
        }
      ],
      "name": "LogUpgrade",
      "type": "event"
    },
    {
      "anonymous": false,
      "inputs": [
        {
          "indexed": true,
          "name": "_addr",
          "type": "address"
        },
        {
          "indexed": false,
          "name": "isOwner",
          "type": "bool"
        }
      ],
      "name": "LogOwnerChange",
      "type": "event"
    },
    {
      "anonymous": false,
      "inputs": [
        {
          "indexed": false,
          "name": "thresh",
          "type": "uint256"
        }
      ],
      "name": "LogChangeThreshold",
      "type": "event"
    },
    {
      "anonymous": false,
      "inputs": [
        {
          "indexed": false,
          "name": "thresh",
          "type": "uint256"
        }
      ],
      "name": "LogChangeDelay",
      "type": "event"
    },
    {
      "anonymous": false,
      "inputs": [],
      "name": "LogNuke",
      "type": "event"
    },
    {
      "anonymous": false,
      "inputs": [
        {
          "indexed": true,
          "name": "from",
          "type": "address"
        },
        {
          "indexed": true,
          "name": "to",
          "type": "address"
        },
        {
          "indexed": false,
          "name": "value",
          "type": "uint256"
        },
        {
          "indexed": false,
          "name": "data",
          "type": "bytes"
        }
      ],
      "name": "Transfer",
      "type": "event"
    },
    {
      "anonymous": false,
      "inputs": [
        {
          "indexed": true,
          "name": "_from",
          "type": "address"
        },
        {
          "indexed": true,
          "name": "_to",
          "type": "address"
        },
        {
          "indexed": false,
          "name": "_value",
          "type": "uint256"
        }
      ],
      "name": "Transfer",
      "type": "event"
    },
    {
      "anonymous": false,
      "inputs": [
        {
          "indexed": true,
          "name": "_owner",
          "type": "address"
        },
        {
          "indexed": true,
          "name": "_spender",
          "type": "address"
        },
        {
          "indexed": false,
          "name": "_value",
          "type": "uint256"
        }
      ],
      "name": "Approval",
      "type": "event"
    }
  ],
  "bytecode": "0x60606040527fffffffffffffffffffffffffffffffffffffffffffffffffffffffffffffffff6002556103e8600a557fffffffffffffffffffffffffffffffffffffffffffffffffffffffffffffffff6013556040805190810160405280600481526020017f4962697300000000000000000000000000000000000000000000000000000000815250601490805190602001906200009f929190620003a1565b506040805190810160405280600381526020017f494249000000000000000000000000000000000000000000000000000000000081525060159080519060200190620000ed929190620003a1565b506040805190810160405280600381526020017f312e310000000000000000000000000000000000000000000000000000000000815250601690805190602001906200013b929190620003a1565b506012601760006101000a81548160ff021916908360ff160217905550614ec060205534156200016a57600080fd5b60405162006dc338038062006dc3833981016040528080519060200190919080518201919060200180519060200190919080519060200190919050506103e860038484846000826003819055507f3dafdf04a2a91e1f13fb84664194bba4aef5c95d086769d9e38c574e33c8fedf6003546040518082815260200191505060405180910390a181600560006101000a81548173ffffffffffffffffffffffffffffffffffffffff021916908373ffffffffffffffffffffffffffffffffffffffff160217905550600090505b83518110156200033b5760016004600086848151811015156200025557fe5b9060200190602002015173ffffffffffffffffffffffffffffffffffffffff1673ffffffffffffffffffffffffffffffffffffffff16815260200190815260200160002060006101000a81548160ff0219169083151502179055506009600081548092919060010191905055508381815181101515620002d157fe5b9060200190602002015173ffffffffffffffffffffffffffffffffffffffff167f3281051f50c80211481c7d83588f2aa4266a9ce1468c910f64c983093176b0d66001604051808215151515815260200191505060405180910390a2808060010191505062000236565b5050505081600c8190555080600b81905550505042601f8190555083601760016101000a81548173ffffffffffffffffffffffffffffffffffffffff021916908373ffffffffffffffffffffffffffffffffffffffff1602179055505050505062000450565b828054600181600116156101000203166002900490600052602060002090601f016020900481019282601f10620003e457805160ff191683800117855562000415565b8280016001018555821562000415579182015b8281111562000414578251825591602001919060010190620003f7565b5b50905062000424919062000428565b5090565b6200044d91905b80821115620004495760008160009055506001016200042f565b5090565b90565b61696380620004606000396000f300606060405260043610610272576000357c0100000000000000000000000000000000000000000000000000000000900463ffffffff168063022914a71461027757806306fdde03146102c8578063095ea7b3146103565780630e954099146103b057806311de36751461040a578063170e207014610433578063173825d91461048d57806318160ddd146104c65780631aa3a008146104ef5780631b0f5d001461050457806323b872dd1461052d5780632927cda3146105a65780632c2f54fd146106005780632e1a7d4d146106395780632ec2c24614610674578063313ce567146106ad57806335d9ffef146106dc5780635037ec621461073657806354fd4d50146107595780635e898dac146107e75780635f6171e6146107fc578063655c82a514610823578063694e80c31461084c5780637065cb481461086f57806370a08231146108a857806378b14f0a146108f557806387ab18e1146109465780639470b0bd1461096f57806395d89b41146109c957806399629da514610a575780639a46455014610a7e5780639f2ce67814610ab7578063a388541314610ae9578063a9059cbb14610b43578063aad1202914610b9d578063abefe59114610bf7578063b1f6a4bf14610c48578063b53eda3214610c6f578063b5984a3614610c92578063b760faf914610cbb578063bc0f1e1014610ce9578063bc8fbbf814610d22578063be45fd6214610d37578063c26f96cf14610dbc578063cae9ca5114610e16578063d090884214610eb3578063d0e30db014610ef9578063dd1ae3b014610f03578063dd62ed3e14610f5b578063e7fa61b714610fc7578063f2f4eb2614610fea578063feb992c51461103f575b600080fd5b341561028257600080fd5b6102ae600480803573ffffffffffffffffffffffffffffffffffffffff16906020019091905050611062565b604051808215151515815260200191505060405180910390f35b34156102d357600080fd5b6102db611082565b6040518080602001828103825283818151815260200191508051906020019080838360005b8381101561031b578082015181840152602081019050610300565b50505050905090810190601f1680156103485780820380516001836020036101000a031916815260200191505b509250505060405180910390f35b341561036157600080fd5b610396600480803573ffffffffffffffffffffffffffffffffffffffff16906020019091908035906020019091905050611120565b604051808215151515815260200191505060405180910390f35b34156103bb57600080fd5b6103f0600480803573ffffffffffffffffffffffffffffffffffffffff1690602001909190803590602001909190505061129d565b604051808215151515815260200191505060405180910390f35b341561041557600080fd5b61041d6116ed565b6040518082815260200191505060405180910390f35b341561043e57600080fd5b61048b6004808035906020019082018035906020019080806020026020016040519081016040528093929190818152602001838360200280828437820191505050505050919050506116f3565b005b341561049857600080fd5b6104c4600480803573ffffffffffffffffffffffffffffffffffffffff16906020019091905050611c02565b005b34156104d157600080fd5b6104d9611d12565b6040518082815260200191505060405180910390f35b34156104fa57600080fd5b610502611d18565b005b341561050f57600080fd5b610517611d66565b6040518082815260200191505060405180910390f35b341561053857600080fd5b61058c600480803573ffffffffffffffffffffffffffffffffffffffff1690602001909190803573ffffffffffffffffffffffffffffffffffffffff16906020019091908035906020019091905050611d6c565b604051808215151515815260200191505060405180910390f35b34156105b157600080fd5b6105e6600480803590602001909190803573ffffffffffffffffffffffffffffffffffffffff16906020019091905050612318565b604051808215151515815260200191505060405180910390f35b341561060b57600080fd5b610637600480803573ffffffffffffffffffffffffffffffffffffffff1690602001909190505061266d565b005b341561064457600080fd5b61065a60048080359060200190919050506126e7565b604051808215151515815260200191505060405180910390f35b341561067f57600080fd5b6106ab600480803573ffffffffffffffffffffffffffffffffffffffff16906020019091905050612705565b005b34156106b857600080fd5b6106c061283c565b604051808260ff1660ff16815260200191505060405180910390f35b34156106e757600080fd5b61073460048080359060200190820180359060200190808060200260200160405190810160405280939291908181526020018383602002808284378201915050505050509190505061284f565b005b341561074157600080fd5b6107576004808035906020019091905050612eae565b005b341561076457600080fd5b61076c612f8f565b6040518080602001828103825283818151815260200191508051906020019080838360005b838110156107ac578082015181840152602081019050610791565b50505050905090810190601f1680156107d95780820380516001836020036101000a031916815260200191505b509250505060405180910390f35b34156107f257600080fd5b6107fa61302d565b005b341561080757600080fd5b610821600480803560001916906020019091905050613139565b005b341561082e57600080fd5b610836613250565b6040518082815260200191505060405180910390f35b341561085757600080fd5b61086d6004808035906020019091905050613256565b005b341561087a57600080fd5b6108a6600480803573ffffffffffffffffffffffffffffffffffffffff16906020019091905050613337565b005b34156108b357600080fd5b6108df600480803573ffffffffffffffffffffffffffffffffffffffff169060200190919050506134ef565b6040518082815260200191505060405180910390f35b341561090057600080fd5b61092c600480803573ffffffffffffffffffffffffffffffffffffffff169060200190919050506135d8565b604051808215151515815260200191505060405180910390f35b341561095157600080fd5b610959613985565b6040518082815260200191505060405180910390f35b341561097a57600080fd5b6109af600480803573ffffffffffffffffffffffffffffffffffffffff1690602001909190803590602001909190505061398b565b604051808215151515815260200191505060405180910390f35b34156109d457600080fd5b6109dc613acc565b6040518080602001828103825283818151815260200191508051906020019080838360005b83811015610a1c578082015181840152602081019050610a01565b50505050905090810190601f168015610a495780820380516001836020036101000a031916815260200191505b509250505060405180910390f35b3415610a6257600080fd5b610a7c600480803560001916906020019091905050613b6a565b005b3415610a8957600080fd5b610ab5600480803573ffffffffffffffffffffffffffffffffffffffff16906020019091905050613bdb565b005b3415610ac257600080fd5b610ae76004808035600019169060200190919080351515906020019091905050613cb8565b005b3415610af457600080fd5b610b29600480803573ffffffffffffffffffffffffffffffffffffffff16906020019091908035906020019091905050614005565b604051808215151515815260200191505060405180910390f35b3415610b4e57600080fd5b610b83600480803573ffffffffffffffffffffffffffffffffffffffff16906020019091908035906020019091905050614084565b604051808215151515815260200191505060405180910390f35b3415610ba857600080fd5b610bf56004808035906020019082018035906020019080806020026020016040519081016040528093929190818152602001838360200280828437820191505050505050919050506143ca565b005b3415610c0257600080fd5b610c2e600480803573ffffffffffffffffffffffffffffffffffffffff1690602001909190505061488f565b604051808215151515815260200191505060405180910390f35b3415610c5357600080fd5b610c6d600480803560001916906020019091905050614c3c565b005b3415610c7a57600080fd5b610c906004808035906020019091905050614f26565b005b3415610c9d57600080fd5b610ca5614fce565b6040518082815260200191505060405180910390f35b610ce7600480803573ffffffffffffffffffffffffffffffffffffffff16906020019091905050614fd4565b005b3415610cf457600080fd5b610d20600480803573ffffffffffffffffffffffffffffffffffffffff169060200190919050506151ee565b005b3415610d2d57600080fd5b610d356152db565b005b3415610d4257600080fd5b610dba600480803573ffffffffffffffffffffffffffffffffffffffff1690602001909190803590602001909190803590602001908201803590602001908080601f016020809104026020016040519081016040528093929190818152602001838380828437820191505050505050919050506153cd565b005b3415610dc757600080fd5b610dfc600480803590602001909190803573ffffffffffffffffffffffffffffffffffffffff169060200190919050506157d2565b604051808215151515815260200191505060405180910390f35b3415610e2157600080fd5b610e99600480803573ffffffffffffffffffffffffffffffffffffffff1690602001909190803590602001909190803590602001908201803590602001908080601f01602080910402602001604051908101604052809392919081815260200183838082843782019150505050505091905050615959565b604051808215151515815260200191505060405180910390f35b3415610ebe57600080fd5b610ef760048080356000191690602001909190803573ffffffffffffffffffffffffffffffffffffffff16906020019091905050615c85565b005b610f01615e85565b005b3415610f0e57600080fd5b610f59600480803573ffffffffffffffffffffffffffffffffffffffff1690602001909190803573ffffffffffffffffffffffffffffffffffffffff16906020019091905050615e90565b005b3415610f6657600080fd5b610fb1600480803573ffffffffffffffffffffffffffffffffffffffff1690602001909190803573ffffffffffffffffffffffffffffffffffffffff16906020019091905050616088565b6040518082815260200191505060405180910390f35b3415610fd257600080fd5b610fe860048080359060200190919050506161a6565b005b3415610ff557600080fd5b610ffd61624e565b604051808273ffffffffffffffffffffffffffffffffffffffff1673ffffffffffffffffffffffffffffffffffffffff16815260200191505060405180910390f35b341561104a57600080fd5b6110606004808035906020019091905050616274565b005b60046020528060005260406000206000915054906101000a900460ff1681565b60148054600181600116156101000203166002900480601f0160208091040260200160405190810160405280929190818152602001828054600181600116156101000203166002900480156111185780601f106110ed57610100808354040283529160200191611118565b820191906000526020600020905b8154815290600101906020018083116110fb57829003601f168201915b505050505081565b6000601760019054906101000a900473ffffffffffffffffffffffffffffffffffffffff1673ffffffffffffffffffffffffffffffffffffffff166333dd1b8a3385856040518463ffffffff167c0100000000000000000000000000000000000000000000000000000000028152600401808473ffffffffffffffffffffffffffffffffffffffff1673ffffffffffffffffffffffffffffffffffffffff1681526020018373ffffffffffffffffffffffffffffffffffffffff1673ffffffffffffffffffffffffffffffffffffffff1681526020018281526020019350505050600060405180830381600087803b151561121a57600080fd5b6102c65a03f1151561122b57600080fd5b5050508273ffffffffffffffffffffffffffffffffffffffff163373ffffffffffffffffffffffffffffffffffffffff167f8c5be1e5ebec7d5bd14f71427d1e84f3dd0314c0f7b2291e5b200ac8c7c3b925846040518082815260200191505060405180910390a36001905092915050565b6000601760019054906101000a900473ffffffffffffffffffffffffffffffffffffffff1673ffffffffffffffffffffffffffffffffffffffff16638f8e83c4846000604051602001526040518263ffffffff167c0100000000000000000000000000000000000000000000000000000000028152600401808273ffffffffffffffffffffffffffffffffffffffff1673ffffffffffffffffffffffffffffffffffffffff168152602001915050602060405180830381600087803b151561136457600080fd5b6102c65a03f1151561137557600080fd5b50505060405180519050806113965750602160009054906101000a900460ff165b80156114815750601760019054906101000a900473ffffffffffffffffffffffffffffffffffffffff1673ffffffffffffffffffffffffffffffffffffffff166327e235e3846000604051602001526040518263ffffffff167c0100000000000000000000000000000000000000000000000000000000028152600401808273ffffffffffffffffffffffffffffffffffffffff1673ffffffffffffffffffffffffffffffffffffffff168152602001915050602060405180830381600087803b151561146257600080fd5b6102c65a03f1151561147357600080fd5b505050604051805190508211155b156116e657601760019054906101000a900473ffffffffffffffffffffffffffffffffffffffff1673ffffffffffffffffffffffffffffffffffffffff166328e69b168484601760019054906101000a900473ffffffffffffffffffffffffffffffffffffffff1673ffffffffffffffffffffffffffffffffffffffff166327e235e3886000604051602001526040518263ffffffff167c0100000000000000000000000000000000000000000000000000000000028152600401808273ffffffffffffffffffffffffffffffffffffffff1673ffffffffffffffffffffffffffffffffffffffff168152602001915050602060405180830381600087803b151561158b57600080fd5b6102c65a03f1151561159c57600080fd5b50505060405180519050036040518363ffffffff167c0100000000000000000000000000000000000000000000000000000000028152600401808373ffffffffffffffffffffffffffffffffffffffff1673ffffffffffffffffffffffffffffffffffffffff16815260200182815260200192505050600060405180830381600087803b151561162b57600080fd5b6102c65a03f1151561163c57600080fd5b505050816001600082825403925050819055508273ffffffffffffffffffffffffffffffffffffffff166108fc839081150290604051600060405180830381858888f19350505050151561168f57600080fd5b8273ffffffffffffffffffffffffffffffffffffffff167f4ce7033d118120e254016dccf195288400b28fc8936425acd5f17ce2df3ab708836040518082815260200191505060405180910390a2600190506116e7565b5b92915050565b60195481565b60008060011515600460003373ffffffffffffffffffffffffffffffffffffffff1673ffffffffffffffffffffffffffffffffffffffff16815260200190815260200160002060009054906101000a900460ff16151514151561175557600080fd5b60003660405180838380828437820191505092505050604051809103902061177c8161631c565b151561178457005b6000600e541415611bdd57600092505b8351831015611bdc57601760019054906101000a900473ffffffffffffffffffffffffffffffffffffffff1673ffffffffffffffffffffffffffffffffffffffff1663c77fd87785858151811015156117e957fe5b906020019060200201516000604051602001526040518263ffffffff167c0100000000000000000000000000000000000000000000000000000000028152600401808273ffffffffffffffffffffffffffffffffffffffff1673ffffffffffffffffffffffffffffffffffffffff168152602001915050602060405180830381600087803b151561187957600080fd5b6102c65a03f1151561188a57600080fd5b505050604051805190509150601760019054906101000a900473ffffffffffffffffffffffffffffffffffffffff1673ffffffffffffffffffffffffffffffffffffffff166354134cd285858151811015156118e257fe5b9060200190602002015160006040518363ffffffff167c0100000000000000000000000000000000000000000000000000000000028152600401808373ffffffffffffffffffffffffffffffffffffffff1673ffffffffffffffffffffffffffffffffffffffff16815260200182815260200192505050600060405180830381600087803b151561197257600080fd5b6102c65a03f1151561198357600080fd5b505050601760019054906101000a900473ffffffffffffffffffffffffffffffffffffffff1673ffffffffffffffffffffffffffffffffffffffff1663b65dc41385858151811015156119d257fe5b9060200190602002015160006040518363ffffffff167c0100000000000000000000000000000000000000000000000000000000028152600401808373ffffffffffffffffffffffffffffffffffffffff1673ffffffffffffffffffffffffffffffffffffffff16815260200182815260200192505050600060405180830381600087803b1515611a6257600080fd5b6102c65a03f11515611a7357600080fd5b505050601760019054906101000a900473ffffffffffffffffffffffffffffffffffffffff1673ffffffffffffffffffffffffffffffffffffffff166328e69b168585815181101515611ac257fe5b90602001906020020151846040518363ffffffff167c0100000000000000000000000000000000000000000000000000000000028152600401808373ffffffffffffffffffffffffffffffffffffffff1673ffffffffffffffffffffffffffffffffffffffff16815260200182815260200192505050600060405180830381600087803b1515611b5157600080fd5b6102c65a03f11515611b6257600080fd5b5050508383815181101515611b7357fe5b9060200190602002015173ffffffffffffffffffffffffffffffffffffffff167f85a80b3c69e65851b9558eb027b8e071efc4f8d6c7fb04a15ca15246ac2eb4b96000604051808215151515815260200191505060405180910390a28280600101935050611794565b5b6008600082600019166000191681526020019081526020016000206000905550505050565b600036604051808383808284378201915050925050506040518091039020611c2981616399565b1515611c3157005b6000600460008473ffffffffffffffffffffffffffffffffffffffff1673ffffffffffffffffffffffffffffffffffffffff16815260200190815260200160002060006101000a81548160ff021916908315150217905550600960008154809291906001900391905055508173ffffffffffffffffffffffffffffffffffffffff167f3281051f50c80211481c7d83588f2aa4266a9ce1468c910f64c983093176b0d66000604051808215151515815260200191505060405180910390a2600860008260001916600019168152602001908152602001600020600090555050565b60015481565b611d2133616588565b601260003373ffffffffffffffffffffffffffffffffffffffff1673ffffffffffffffffffffffffffffffffffffffff16815260200190815260200160002081905550565b60185481565b600081601760019054906101000a900473ffffffffffffffffffffffffffffffffffffffff1673ffffffffffffffffffffffffffffffffffffffff166327e235e3866000604051602001526040518263ffffffff167c0100000000000000000000000000000000000000000000000000000000028152600401808273ffffffffffffffffffffffffffffffffffffffff1673ffffffffffffffffffffffffffffffffffffffff168152602001915050602060405180830381600087803b1515611e3457600080fd5b6102c65a03f11515611e4557600080fd5b5050506040518051905010158015611f70575081601760019054906101000a900473ffffffffffffffffffffffffffffffffffffffff1673ffffffffffffffffffffffffffffffffffffffff16635c65816586336000604051602001526040518363ffffffff167c0100000000000000000000000000000000000000000000000000000000028152600401808373ffffffffffffffffffffffffffffffffffffffff1673ffffffffffffffffffffffffffffffffffffffff1681526020018273ffffffffffffffffffffffffffffffffffffffff1673ffffffffffffffffffffffffffffffffffffffff16815260200192505050602060405180830381600087803b1515611f5257600080fd5b6102c65a03f11515611f6357600080fd5b5050506040518051905010155b1561231057601760019054906101000a900473ffffffffffffffffffffffffffffffffffffffff1673ffffffffffffffffffffffffffffffffffffffff1663beabacc88585856040518463ffffffff167c0100000000000000000000000000000000000000000000000000000000028152600401808473ffffffffffffffffffffffffffffffffffffffff1673ffffffffffffffffffffffffffffffffffffffff1681526020018373ffffffffffffffffffffffffffffffffffffffff1673ffffffffffffffffffffffffffffffffffffffff1681526020018281526020019350505050600060405180830381600087803b151561206d57600080fd5b6102c65a03f1151561207e57600080fd5b505050601760019054906101000a900473ffffffffffffffffffffffffffffffffffffffff1673ffffffffffffffffffffffffffffffffffffffff166333dd1b8a853385601760019054906101000a900473ffffffffffffffffffffffffffffffffffffffff1673ffffffffffffffffffffffffffffffffffffffff16635c6581658a336000604051602001526040518363ffffffff167c0100000000000000000000000000000000000000000000000000000000028152600401808373ffffffffffffffffffffffffffffffffffffffff1673ffffffffffffffffffffffffffffffffffffffff1681526020018273ffffffffffffffffffffffffffffffffffffffff1673ffffffffffffffffffffffffffffffffffffffff16815260200192505050602060405180830381600087803b15156121bb57600080fd5b6102c65a03f115156121cc57600080fd5b50505060405180519050036040518463ffffffff167c0100000000000000000000000000000000000000000000000000000000028152600401808473ffffffffffffffffffffffffffffffffffffffff1673ffffffffffffffffffffffffffffffffffffffff1681526020018373ffffffffffffffffffffffffffffffffffffffff1673ffffffffffffffffffffffffffffffffffffffff1681526020018281526020019350505050600060405180830381600087803b151561228e57600080fd5b6102c65a03f1151561229f57600080fd5b5050508273ffffffffffffffffffffffffffffffffffffffff168473ffffffffffffffffffffffffffffffffffffffff167fddf252ad1be2c89b69c2b068fc378daa952ba7f163c4a11628f55a4df523b3ef846040518082815260200191505060405180910390a360019050612311565b5b9392505050565b600080600080600e5414156126655783604051808273ffffffffffffffffffffffffffffffffffffffff1673ffffffffffffffffffffffffffffffffffffffff166c010000000000000000000000000281526014019150506040518091039020600190049150601a54420385111580156123a4575081601d600087815260200190815260200160002054145b1561266357601b6000868152602001908152602001600020549050601b600086815260200190815260200160002060009055601c600086815260200190815260200160002060009055601d600086815260200190815260200160002060009055601760019054906101000a900473ffffffffffffffffffffffffffffffffffffffff1673ffffffffffffffffffffffffffffffffffffffff166328e69b168583601760019054906101000a900473ffffffffffffffffffffffffffffffffffffffff1673ffffffffffffffffffffffffffffffffffffffff166327e235e3896000604051602001526040518263ffffffff167c0100000000000000000000000000000000000000000000000000000000028152600401808273ffffffffffffffffffffffffffffffffffffffff1673ffffffffffffffffffffffffffffffffffffffff168152602001915050602060405180830381600087803b151561250957600080fd5b6102c65a03f1151561251a57600080fd5b50505060405180519050016040518363ffffffff167c0100000000000000000000000000000000000000000000000000000000028152600401808373ffffffffffffffffffffffffffffffffffffffff1673ffffffffffffffffffffffffffffffffffffffff16815260200182815260200192505050600060405180830381600087803b15156125a957600080fd5b6102c65a03f115156125ba57600080fd5b505050847f046be9693b9b4ed56df331431ff8cc6874ab57df1e1332c0984ba4278edef38f85604051808273ffffffffffffffffffffffffffffffffffffffff1673ffffffffffffffffffffffffffffffffffffffff16815260200180602001828103825260078152602001807f61776172646564000000000000000000000000000000000000000000000000008152506020019250505060405180910390a260019250612664565b5b5b505092915050565b60011515600460003373ffffffffffffffffffffffffffffffffffffffff1673ffffffffffffffffffffffffffffffffffffffff16815260200190815260200160002060009054906101000a900460ff1615151415156126cc57600080fd5b42602054601f540110156126e4576126e38161658f565b5b50565b600080600e541415612700576126fd338361129d565b90505b919050565b3373ffffffffffffffffffffffffffffffffffffffff168173ffffffffffffffffffffffffffffffffffffffff1614801561277f57506000601160003373ffffffffffffffffffffffffffffffffffffffff1673ffffffffffffffffffffffffffffffffffffffff16815260200190815260200160002054145b8015612790575061278f81616777565b5b156127d957601260008273ffffffffffffffffffffffffffffffffffffffff1673ffffffffffffffffffffffffffffffffffffffff168152602001908152602001600020600090555b6000600f541480156127f057506127ef81616777565b5b1561283957601260008273ffffffffffffffffffffffffffffffffffffffff1673ffffffffffffffffffffffffffffffffffffffff168152602001908152602001600020600090555b50565b601760009054906101000a900460ff1681565b600080600060011515600460003373ffffffffffffffffffffffffffffffffffffffff1673ffffffffffffffffffffffffffffffffffffffff16815260200190815260200160002060009054906101000a900460ff1615151415156128b357600080fd5b6000366040518083838082843782019150509250505060405180910390206128da8161631c565b15156128e257005b6000366040518083838082843782019150509250505060405180910390206032600061290f83838361677e565b151561291757005b600095505b8751861015612d395742601954601760019054906101000a900473ffffffffffffffffffffffffffffffffffffffff1673ffffffffffffffffffffffffffffffffffffffff1663b06230748b8a81518110151561297557fe5b906020019060200201516000604051602001526040518263ffffffff167c0100000000000000000000000000000000000000000000000000000000028152600401808273ffffffffffffffffffffffffffffffffffffffff1673ffffffffffffffffffffffffffffffffffffffff168152602001915050602060405180830381600087803b1515612a0557600080fd5b6102c65a03f11515612a1657600080fd5b50505060405180519050011015612a2c57612d2c565b601760019054906101000a900473ffffffffffffffffffffffffffffffffffffffff1673ffffffffffffffffffffffffffffffffffffffff1663c77fd8778988815181101515612a7857fe5b906020019060200201516000604051602001526040518263ffffffff167c0100000000000000000000000000000000000000000000000000000000028152600401808273ffffffffffffffffffffffffffffffffffffffff1673ffffffffffffffffffffffffffffffffffffffff168152602001915050602060405180830381600087803b1515612b0857600080fd5b6102c65a03f11515612b1957600080fd5b505050604051805190509450601854858801111515612c2c57601760019054906101000a900473ffffffffffffffffffffffffffffffffffffffff1673ffffffffffffffffffffffffffffffffffffffff166354134cd28988815181101515612b7e57fe5b9060200190602002015160006040518363ffffffff167c0100000000000000000000000000000000000000000000000000000000028152600401808373ffffffffffffffffffffffffffffffffffffffff1673ffffffffffffffffffffffffffffffffffffffff16815260200182815260200192505050600060405180830381600087803b1515612c0e57600080fd5b6102c65a03f11515612c1f57600080fd5b5050508487019650612d2b565b601760019054906101000a900473ffffffffffffffffffffffffffffffffffffffff1673ffffffffffffffffffffffffffffffffffffffff166354134cd28988815181101515612c7857fe5b90602001906020020151896018540388036040518363ffffffff167c0100000000000000000000000000000000000000000000000000000000028152600401808373ffffffffffffffffffffffffffffffffffffffff1673ffffffffffffffffffffffffffffffffffffffff16815260200182815260200192505050600060405180830381600087803b1515612d0d57600080fd5b6102c65a03f11515612d1e57600080fd5b5050506018549650612d39565b5b858060010196505061291c565b86601b600042815260200190815260200160002081905550434060019004601c6000428152602001908152602001600020819055506002601354811515612d7c57fe5b04601c60004281526020019081526020016000205401601d600042815260200190815260200160002081905550427f046be9693b9b4ed56df331431ff8cc6874ab57df1e1332c0984ba4278edef38f6000604051808273ffffffffffffffffffffffffffffffffffffffff1673ffffffffffffffffffffffffffffffffffffffff168152602001806020018281038252600b8152602001807f696e697469616c697a65640000000000000000000000000000000000000000008152506020019250505060405180910390a26010600084600019166000191681526020019081526020016000206000808201600090556001820160009055600482016000905560058201600090555050505050600860008260001916600019168152602001908152602001600020600090555050505050565b600036604051808383808284378201915050925050506040518091039020612ed581616399565b1515612edd57005b600036604051808383808284378201915050925050506040518091039020612f048161631c565b1515612f0c57005b82600a819055507f9d46c50cb19a491fb2eaba8b18e5328816184146ae5f4d9ab621d76d2ed1a9a2600a546040518082815260200191505060405180910390a16008600082600019166000191681526020019081526020016000206000905550600860008260001916600019168152602001908152602001600020600090555050565b60168054600181600116156101000203166002900480601f0160208091040260200160405190810160405280929190818152602001828054600181600116156101000203166002900480156130255780601f10612ffa57610100808354040283529160200191613025565b820191906000526020600020905b81548152906001019060200180831161300857829003601f168201915b505050505081565b60011515600460003373ffffffffffffffffffffffffffffffffffffffff1673ffffffffffffffffffffffffffffffffffffffff16815260200190815260200160002060009054906101000a900460ff16151514151561308c57600080fd5b6000600460003373ffffffffffffffffffffffffffffffffffffffff1673ffffffffffffffffffffffffffffffffffffffff16815260200190815260200160002060006101000a81548160ff0219169083151502179055503373ffffffffffffffffffffffffffffffffffffffff167f3281051f50c80211481c7d83588f2aa4266a9ce1468c910f64c983093176b0d66000604051808215151515815260200191505060405180910390a2565b60011515600460003373ffffffffffffffffffffffffffffffffffffffff1673ffffffffffffffffffffffffffffffffffffffff16815260200190815260200160002060009054906101000a900460ff16151514151561319857600080fd5b600060066000836000191660001916815260200190815260200160002060003373ffffffffffffffffffffffffffffffffffffffff1673ffffffffffffffffffffffffffffffffffffffff16815260200190815260200160002060006101000a81548160ff021916908315150217905550600060076000836000191660001916815260200190815260200160002054141561324d57600860008260001916600019168152602001908152602001600020600090555b50565b601a5481565b60003660405180838380828437820191505092505050604051809103902061327d81616399565b151561328557005b6000366040518083838082843782019150509250505060405180910390206132ac8161631c565b15156132b457005b826003819055507f3dafdf04a2a91e1f13fb84664194bba4aef5c95d086769d9e38c574e33c8fedf6003546040518082815260200191505060405180910390a16008600082600019166000191681526020019081526020016000206000905550600860008260001916600019168152602001908152602001600020600090555050565b60003660405180838380828437820191505092505050604051809103902061335e81616399565b151561336657005b60003660405180838380828437820191505092505050604051809103902061338d8161631c565b151561339557005b60001515600460008573ffffffffffffffffffffffffffffffffffffffff1673ffffffffffffffffffffffffffffffffffffffff16815260200190815260200160002060009054906101000a900460ff16151514156134ac576001600460008573ffffffffffffffffffffffffffffffffffffffff1673ffffffffffffffffffffffffffffffffffffffff16815260200190815260200160002060006101000a81548160ff0219169083151502179055506009600081548092919060010191905055508273ffffffffffffffffffffffffffffffffffffffff167f3281051f50c80211481c7d83588f2aa4266a9ce1468c910f64c983093176b0d66001604051808215151515815260200191505060405180910390a25b6008600082600019166000191681526020019081526020016000206000905550600860008260001916600019168152602001908152602001600020600090555050565b6000601760019054906101000a900473ffffffffffffffffffffffffffffffffffffffff1673ffffffffffffffffffffffffffffffffffffffff166327e235e3836000604051602001526040518263ffffffff167c0100000000000000000000000000000000000000000000000000000000028152600401808273ffffffffffffffffffffffffffffffffffffffff1673ffffffffffffffffffffffffffffffffffffffff168152602001915050602060405180830381600087803b15156135b657600080fd5b6102c65a03f115156135c757600080fd5b505050604051805190509050919050565b600060011515600460003373ffffffffffffffffffffffffffffffffffffffff1673ffffffffffffffffffffffffffffffffffffffff16815260200190815260200160002060009054906101000a900460ff16151514151561363957600080fd5b6000366040518083838082843782019150509250505060405180910390206136608161631c565b151561366857005b601760019054906101000a900473ffffffffffffffffffffffffffffffffffffffff1673ffffffffffffffffffffffffffffffffffffffff16638f8e83c4846000604051602001526040518263ffffffff167c0100000000000000000000000000000000000000000000000000000000028152600401808273ffffffffffffffffffffffffffffffffffffffff1673ffffffffffffffffffffffffffffffffffffffff168152602001915050602060405180830381600087803b151561372d57600080fd5b6102c65a03f1151561373e57600080fd5b50505060405180519050151561395f57601760019054906101000a900473ffffffffffffffffffffffffffffffffffffffff1673ffffffffffffffffffffffffffffffffffffffff1663329388aa8460016040518363ffffffff167c0100000000000000000000000000000000000000000000000000000000028152600401808373ffffffffffffffffffffffffffffffffffffffff1673ffffffffffffffffffffffffffffffffffffffff1681526020018215151515815260200192505050600060405180830381600087803b151561381757600080fd5b6102c65a03f1151561382857600080fd5b505050601760019054906101000a900473ffffffffffffffffffffffffffffffffffffffff1673ffffffffffffffffffffffffffffffffffffffff16637a30ab2f84426040518363ffffffff167c0100000000000000000000000000000000000000000000000000000000028152600401808373ffffffffffffffffffffffffffffffffffffffff1673ffffffffffffffffffffffffffffffffffffffff16815260200182815260200192505050600060405180830381600087803b15156138ef57600080fd5b6102c65a03f1151561390057600080fd5b5050508273ffffffffffffffffffffffffffffffffffffffff167f889cb149d426eca2f86c88cc89ad9051b8c6b15ddd9bf509a9307bff27816a726001604051808215151515815260200191505060405180910390a260019150613960565b5b6008600082600019166000191681526020019081526020016000206000905550919050565b60095481565b600080600e541415613ac65781601760019054906101000a900473ffffffffffffffffffffffffffffffffffffffff1673ffffffffffffffffffffffffffffffffffffffff16635c65816585336000604051602001526040518363ffffffff167c0100000000000000000000000000000000000000000000000000000000028152600401808373ffffffffffffffffffffffffffffffffffffffff1673ffffffffffffffffffffffffffffffffffffffff1681526020018273ffffffffffffffffffffffffffffffffffffffff1673ffffffffffffffffffffffffffffffffffffffff16815260200192505050602060405180830381600087803b1515613a9157600080fd5b6102c65a03f11515613aa257600080fd5b50505060405180519050101515613ac457613abd838361129d565b9050613ac5565b5b5b92915050565b60158054600181600116156101000203166002900480601f016020809104026020016040519081016040528092919081815260200182805460018160011615610100020316600290048015613b625780601f10613b3757610100808354040283529160200191613b62565b820191906000526020600020905b815481529060010190602001808311613b4557829003601f168201915b505050505081565b600036604051808383808284378201915050925050506040518091039020613b9181616399565b1515613b9957005b60086000836000191660001916815260200190815260200160002060009055600860008260001916600019168152602001908152602001600020600090555050565b600036604051808383808284378201915050925050506040518091039020613c0281616399565b1515613c0a57005b6000600e541415613c955760003660405180838380828437820191505092505050604051809103902060326000613c4283838361677e565b1515613c4a57005b613c538561658f565b60106000846000191660001916815260200190815260200160002060008082016000905560018201600090556004820160009055600582016000905550505050505b600860008260001916600019168152602001908152602001600020600090555050565b600060106000846000191660001916815260200190815260200160002060030160003373ffffffffffffffffffffffffffffffffffffffff1673ffffffffffffffffffffffffffffffffffffffff1681526020019081526020016000205460106000856000191660001916815260200190815260200160002060020160003373ffffffffffffffffffffffffffffffffffffffff1673ffffffffffffffffffffffffffffffffffffffff1681526020019081526020016000205401141515613d7f57614001565b8015613e9d57601260003373ffffffffffffffffffffffffffffffffffffffff1673ffffffffffffffffffffffffffffffffffffffff1681526020019081526020016000205460106000846000191660001916815260200190815260200160002060020160003373ffffffffffffffffffffffffffffffffffffffff1673ffffffffffffffffffffffffffffffffffffffff16815260200190815260200160002060008282540192505081905550601260003373ffffffffffffffffffffffffffffffffffffffff1673ffffffffffffffffffffffffffffffffffffffff1681526020019081526020016000205460106000846000191660001916815260200190815260200160002060040160008282540192505081905550613fb1565b601260003373ffffffffffffffffffffffffffffffffffffffff1673ffffffffffffffffffffffffffffffffffffffff1681526020019081526020016000205460106000846000191660001916815260200190815260200160002060030160003373ffffffffffffffffffffffffffffffffffffffff1673ffffffffffffffffffffffffffffffffffffffff16815260200190815260200160002060008282540192505081905550601260003373ffffffffffffffffffffffffffffffffffffffff1673ffffffffffffffffffffffffffffffffffffffff16815260200190815260200160002054601060008460001916600019168152602001908152602001600020600501600082825401925050819055505b601160003373ffffffffffffffffffffffffffffffffffffffff1673ffffffffffffffffffffffffffffffffffffffff168152602001908152602001600020600081548092919060010191905055505b5050565b600060011515600460003373ffffffffffffffffffffffffffffffffffffffff1673ffffffffffffffffffffffffffffffffffffffff16815260200190815260200160002060009054906101000a900460ff16151514151561406657600080fd5b6000600e54141561407e5761407b838361129d565b90505b92915050565b600061408e616923565b82601760019054906101000a900473ffffffffffffffffffffffffffffffffffffffff1673ffffffffffffffffffffffffffffffffffffffff166327e235e3336000604051602001526040518263ffffffff167c0100000000000000000000000000000000000000000000000000000000028152600401808273ffffffffffffffffffffffffffffffffffffffff1673ffffffffffffffffffffffffffffffffffffffff168152602001915050602060405180830381600087803b151561415457600080fd5b6102c65a03f1151561416557600080fd5b505050604051805190501015156143c257601760019054906101000a900473ffffffffffffffffffffffffffffffffffffffff1673ffffffffffffffffffffffffffffffffffffffff1663beabacc83386866040518463ffffffff167c0100000000000000000000000000000000000000000000000000000000028152600401808473ffffffffffffffffffffffffffffffffffffffff1673ffffffffffffffffffffffffffffffffffffffff1681526020018373ffffffffffffffffffffffffffffffffffffffff1673ffffffffffffffffffffffffffffffffffffffff1681526020018281526020019350505050600060405180830381600087803b151561426e57600080fd5b6102c65a03f1151561427f57600080fd5b5050508373ffffffffffffffffffffffffffffffffffffffff163373ffffffffffffffffffffffffffffffffffffffff167fddf252ad1be2c89b69c2b068fc378daa952ba7f163c4a11628f55a4df523b3ef856040518082815260200191505060405180910390a38373ffffffffffffffffffffffffffffffffffffffff163373ffffffffffffffffffffffffffffffffffffffff167fe19260aff97b920c7df27010903aeb9c8d2be5d310a2c67824cf3f15396e4c1685846040518083815260200180602001828103825283818151815260200191508051906020019080838360005b8381101561437e578082015181840152602081019050614363565b50505050905090810190601f1680156143ab5780820380516001836020036101000a031916815260200191505b50935050505060405180910390a3600191506143c3565b5b5092915050565b600080600060011515600460003373ffffffffffffffffffffffffffffffffffffffff1673ffffffffffffffffffffffffffffffffffffffff16815260200190815260200160002060009054906101000a900460ff16151514151561442e57600080fd5b6000600e54141561488957429250600091505b835182101561488857601760019054906101000a900473ffffffffffffffffffffffffffffffffffffffff1673ffffffffffffffffffffffffffffffffffffffff166327e235e3858481518110151561449657fe5b906020019060200201516000604051602001526040518263ffffffff167c0100000000000000000000000000000000000000000000000000000000028152600401808273ffffffffffffffffffffffffffffffffffffffff1673ffffffffffffffffffffffffffffffffffffffff168152602001915050602060405180830381600087803b151561452657600080fd5b6102c65a03f1151561453757600080fd5b505050604051805190509050601760019054906101000a900473ffffffffffffffffffffffffffffffffffffffff1673ffffffffffffffffffffffffffffffffffffffff166328e69b16858481518110151561458f57fe5b9060200190602002015160006040518363ffffffff167c0100000000000000000000000000000000000000000000000000000000028152600401808373ffffffffffffffffffffffffffffffffffffffff1673ffffffffffffffffffffffffffffffffffffffff16815260200182815260200192505050600060405180830381600087803b151561461f57600080fd5b6102c65a03f1151561463057600080fd5b505050601760019054906101000a900473ffffffffffffffffffffffffffffffffffffffff1673ffffffffffffffffffffffffffffffffffffffff166354134cd2858481518110151561467f57fe5b90602001906020020151836040518363ffffffff167c0100000000000000000000000000000000000000000000000000000000028152600401808373ffffffffffffffffffffffffffffffffffffffff1673ffffffffffffffffffffffffffffffffffffffff16815260200182815260200192505050600060405180830381600087803b151561470e57600080fd5b6102c65a03f1151561471f57600080fd5b505050601760019054906101000a900473ffffffffffffffffffffffffffffffffffffffff1673ffffffffffffffffffffffffffffffffffffffff1663b65dc413858481518110151561476e57fe5b90602001906020020151856040518363ffffffff167c0100000000000000000000000000000000000000000000000000000000028152600401808373ffffffffffffffffffffffffffffffffffffffff1673ffffffffffffffffffffffffffffffffffffffff16815260200182815260200192505050600060405180830381600087803b15156147fd57600080fd5b6102c65a03f1151561480e57600080fd5b505050838281518110151561481f57fe5b9060200190602002015173ffffffffffffffffffffffffffffffffffffffff167f85a80b3c69e65851b9558eb027b8e071efc4f8d6c7fb04a15ca15246ac2eb4b96001604051808215151515815260200191505060405180910390a28180600101925050614441565b5b50505050565b600060011515600460003373ffffffffffffffffffffffffffffffffffffffff1673ffffffffffffffffffffffffffffffffffffffff16815260200190815260200160002060009054906101000a900460ff1615151415156148f057600080fd5b6000366040518083838082843782019150509250505060405180910390206149178161631c565b151561491f57005b601760019054906101000a900473ffffffffffffffffffffffffffffffffffffffff1673ffffffffffffffffffffffffffffffffffffffff16638f8e83c4846000604051602001526040518263ffffffff167c0100000000000000000000000000000000000000000000000000000000028152600401808273ffffffffffffffffffffffffffffffffffffffff1673ffffffffffffffffffffffffffffffffffffffff168152602001915050602060405180830381600087803b15156149e457600080fd5b6102c65a03f115156149f557600080fd5b5050506040518051905015614c1657601760019054906101000a900473ffffffffffffffffffffffffffffffffffffffff1673ffffffffffffffffffffffffffffffffffffffff1663329388aa8460006040518363ffffffff167c0100000000000000000000000000000000000000000000000000000000028152600401808373ffffffffffffffffffffffffffffffffffffffff1673ffffffffffffffffffffffffffffffffffffffff1681526020018215151515815260200192505050600060405180830381600087803b1515614acd57600080fd5b6102c65a03f11515614ade57600080fd5b505050601760019054906101000a900473ffffffffffffffffffffffffffffffffffffffff1673ffffffffffffffffffffffffffffffffffffffff16637a30ab2f8460006040518363ffffffff167c0100000000000000000000000000000000000000000000000000000000028152600401808373ffffffffffffffffffffffffffffffffffffffff1673ffffffffffffffffffffffffffffffffffffffff16815260200182815260200192505050600060405180830381600087803b1515614ba657600080fd5b6102c65a03f11515614bb757600080fd5b5050508273ffffffffffffffffffffffffffffffffffffffff167f889cb149d426eca2f86c88cc89ad9051b8c6b15ddd9bf509a9307bff27816a726000604051808215151515815260200191505060405180910390a260019150614c17565b5b6008600082600019166000191681526020019081526020016000206000905550919050565b600060106000836000191660001916815260200190815260200160002060030160003373ffffffffffffffffffffffffffffffffffffffff1673ffffffffffffffffffffffffffffffffffffffff1681526020019081526020016000205460106000846000191660001916815260200190815260200160002060020160003373ffffffffffffffffffffffffffffffffffffffff1673ffffffffffffffffffffffffffffffffffffffff16815260200190815260200160002054011415614d0257614f23565b60106000826000191660001916815260200190815260200160002060020160003373ffffffffffffffffffffffffffffffffffffffff1673ffffffffffffffffffffffffffffffffffffffff1681526020019081526020016000205460106000836000191660001916815260200190815260200160002060040160008282540392505081905550600060106000836000191660001916815260200190815260200160002060020160003373ffffffffffffffffffffffffffffffffffffffff1673ffffffffffffffffffffffffffffffffffffffff1681526020019081526020016000208190555060106000826000191660001916815260200190815260200160002060030160003373ffffffffffffffffffffffffffffffffffffffff1673ffffffffffffffffffffffffffffffffffffffff1681526020019081526020016000205460106000836000191660001916815260200190815260200160002060050160008282540392505081905550600060106000836000191660001916815260200190815260200160002060030160003373ffffffffffffffffffffffffffffffffffffffff1673ffffffffffffffffffffffffffffffffffffffff16815260200190815260200160002081905550601160003373ffffffffffffffffffffffffffffffffffffffff1673ffffffffffffffffffffffffffffffffffffffff16815260200190815260200160002060008154809291906001900391905055505b50565b600036604051808383808284378201915050925050506040518091039020614f4d81616399565b1515614f5557005b600036604051808383808284378201915050925050506040518091039020614f7c8161631c565b1515614f8457005b826018819055506008600082600019166000191681526020019081526020016000206000905550600860008260001916600019168152602001908152602001600020600090555050565b600a5481565b601760019054906101000a900473ffffffffffffffffffffffffffffffffffffffff1673ffffffffffffffffffffffffffffffffffffffff166328e69b168234601760019054906101000a900473ffffffffffffffffffffffffffffffffffffffff1673ffffffffffffffffffffffffffffffffffffffff166327e235e3866000604051602001526040518263ffffffff167c0100000000000000000000000000000000000000000000000000000000028152600401808273ffffffffffffffffffffffffffffffffffffffff1673ffffffffffffffffffffffffffffffffffffffff168152602001915050602060405180830381600087803b15156150d957600080fd5b6102c65a03f115156150ea57600080fd5b50505060405180519050016040518363ffffffff167c0100000000000000000000000000000000000000000000000000000000028152600401808373ffffffffffffffffffffffffffffffffffffffff1673ffffffffffffffffffffffffffffffffffffffff16815260200182815260200192505050600060405180830381600087803b151561517957600080fd5b6102c65a03f1151561518a57600080fd5b505050346001600082825401925050819055508073ffffffffffffffffffffffffffffffffffffffff167f1b851e1031ef35a238e6c67d0c7991162390df915f70eaf9098dbf0b175a6198346040518082815260200191505060405180910390a250565b60011515600460003373ffffffffffffffffffffffffffffffffffffffff1673ffffffffffffffffffffffffffffffffffffffff16815260200190815260200160002060009054906101000a900460ff16151514151561524d57600080fd5b6000600e5414156152d8576000366040518083838082843782019150509250505060405180910390206043600061528583838361677e565b151561528d57005b6152968461658f565b60106000846000191660001916815260200190815260200160002060008082016000905560018201600090556004820160009055600582016000905550505050505b50565b600560009054906101000a900473ffffffffffffffffffffffffffffffffffffffff1673ffffffffffffffffffffffffffffffffffffffff163373ffffffffffffffffffffffffffffffffffffffff1614156153cb576000366040518083838082843782019150509250505060405180910390206043600161535e83838361677e565b151561536657005b61536e616918565b6001602160006101000a81548160ff02191690831515021790555060106000846000191660001916815260200190815260200160002060008082016000905560018201600090556004820160009055600582016000905550505050505b565b60008083601760019054906101000a900473ffffffffffffffffffffffffffffffffffffffff1673ffffffffffffffffffffffffffffffffffffffff166327e235e3336000604051602001526040518263ffffffff167c0100000000000000000000000000000000000000000000000000000000028152600401808273ffffffffffffffffffffffffffffffffffffffff1673ffffffffffffffffffffffffffffffffffffffff168152602001915050602060405180830381600087803b151561549657600080fd5b6102c65a03f115156154a757600080fd5b505050604051805190501015156157cb57843b9150601760019054906101000a900473ffffffffffffffffffffffffffffffffffffffff1673ffffffffffffffffffffffffffffffffffffffff1663beabacc83387876040518463ffffffff167c0100000000000000000000000000000000000000000000000000000000028152600401808473ffffffffffffffffffffffffffffffffffffffff1673ffffffffffffffffffffffffffffffffffffffff1681526020018373ffffffffffffffffffffffffffffffffffffffff1673ffffffffffffffffffffffffffffffffffffffff1681526020018281526020019350505050600060405180830381600087803b15156155b457600080fd5b6102c65a03f115156155c557600080fd5b50505060008211156156f8578490508073ffffffffffffffffffffffffffffffffffffffff1663c0ee0b8a3386866040518463ffffffff167c0100000000000000000000000000000000000000000000000000000000028152600401808473ffffffffffffffffffffffffffffffffffffffff1673ffffffffffffffffffffffffffffffffffffffff16815260200183815260200180602001828103825283818151815260200191508051906020019080838360005b8381101561569657808201518184015260208101905061567b565b50505050905090810190601f1680156156c35780820380516001836020036101000a031916815260200191505b50945050505050600060405180830381600087803b15156156e357600080fd5b6102c65a03f115156156f457600080fd5b5050505b8473ffffffffffffffffffffffffffffffffffffffff163373ffffffffffffffffffffffffffffffffffffffff167fe19260aff97b920c7df27010903aeb9c8d2be5d310a2c67824cf3f15396e4c1686866040518083815260200180602001828103825283818151815260200191508051906020019080838360005b8381101561578f578082015181840152602081019050615774565b50505050905090810190601f1680156157bc5780820380516001836020036101000a031916815260200191505b50935050505060405180910390a35b5050505050565b6000806000600e5414156159525782604051808273ffffffffffffffffffffffffffffffffffffffff1673ffffffffffffffffffffffffffffffffffffffff166c010000000000000000000000000281526014019150506040518091039020600190049050601d600085815260200190815260200160002054601c600086815260200190815260200160002054038373ffffffffffffffffffffffffffffffffffffffff16601c6000878152602001908152602001600020540310156159505780601d600086815260200190815260200160002081905550837f046be9693b9b4ed56df331431ff8cc6874ab57df1e1332c0984ba4278edef38f84604051808273ffffffffffffffffffffffffffffffffffffffff1673ffffffffffffffffffffffffffffffffffffffff16815260200180602001828103825260078152602001807f636c61696d6564000000000000000000000000000000000000000000000000008152506020019250505060405180910390a260019150615951565b5b5b5092915050565b6000601760019054906101000a900473ffffffffffffffffffffffffffffffffffffffff1673ffffffffffffffffffffffffffffffffffffffff166333dd1b8a3386866040518463ffffffff167c0100000000000000000000000000000000000000000000000000000000028152600401808473ffffffffffffffffffffffffffffffffffffffff1673ffffffffffffffffffffffffffffffffffffffff1681526020018373ffffffffffffffffffffffffffffffffffffffff1673ffffffffffffffffffffffffffffffffffffffff1681526020018281526020019350505050600060405180830381600087803b1515615a5357600080fd5b6102c65a03f11515615a6457600080fd5b5050508373ffffffffffffffffffffffffffffffffffffffff163373ffffffffffffffffffffffffffffffffffffffff167f8c5be1e5ebec7d5bd14f71427d1e84f3dd0314c0f7b2291e5b200ac8c7c3b925856040518082815260200191505060405180910390a38373ffffffffffffffffffffffffffffffffffffffff1660405180807f72656365697665417070726f76616c28616464726573732c75696e742c61646481526020017f726573732c627974657329000000000000000000000000000000000000000000815250602b01905060405180910390207c01000000000000000000000000000000000000000000000000000000009004338530866040518563ffffffff167c0100000000000000000000000000000000000000000000000000000000028152600401808573ffffffffffffffffffffffffffffffffffffffff1673ffffffffffffffffffffffffffffffffffffffff1681526020018481526020018373ffffffffffffffffffffffffffffffffffffffff1673ffffffffffffffffffffffffffffffffffffffff168152602001828051906020019080838360005b83811015615c25578082015181840152602081019050615c0a565b50505050905090810190601f168015615c525780820380516001836020036101000a031916815260200191505b5094505050505060006040518083038160008761646e5a03f1925050501515615c7a57600080fd5b600190509392505050565b600c546010600084600019166000191681526020019081526020016000206000015401421015615e8157600060106000846000191660001916815260200190815260200160002060030160008373ffffffffffffffffffffffffffffffffffffffff1673ffffffffffffffffffffffffffffffffffffffff1681526020019081526020016000205460106000856000191660001916815260200190815260200160002060020160008473ffffffffffffffffffffffffffffffffffffffff1673ffffffffffffffffffffffffffffffffffffffff1681526020019081526020016000205401141515615dc257601160003373ffffffffffffffffffffffffffffffffffffffff1673ffffffffffffffffffffffffffffffffffffffff16815260200190815260200160002060008154809291906001900391905055505b60106000836000191660001916815260200190815260200160002060020160008273ffffffffffffffffffffffffffffffffffffffff1673ffffffffffffffffffffffffffffffffffffffff1681526020019081526020016000206000905560106000836000191660001916815260200190815260200160002060030160008273ffffffffffffffffffffffffffffffffffffffff1673ffffffffffffffffffffffffffffffffffffffff168152602001908152602001600020600090555b5050565b615e8e33614fd4565b565b600036604051808383808284378201915050925050506040518091039020615eb781616399565b1515615ebf57005b600036604051808383808284378201915050925050506040518091039020615ee68161631c565b1515615eee57005b6000600460008673ffffffffffffffffffffffffffffffffffffffff1673ffffffffffffffffffffffffffffffffffffffff16815260200190815260200160002060006101000a81548160ff0219169083151502179055506001600460008573ffffffffffffffffffffffffffffffffffffffff1673ffffffffffffffffffffffffffffffffffffffff16815260200190815260200160002060006101000a81548160ff0219169083151502179055508373ffffffffffffffffffffffffffffffffffffffff167f3281051f50c80211481c7d83588f2aa4266a9ce1468c910f64c983093176b0d66000604051808215151515815260200191505060405180910390a28273ffffffffffffffffffffffffffffffffffffffff167f3281051f50c80211481c7d83588f2aa4266a9ce1468c910f64c983093176b0d66001604051808215151515815260200191505060405180910390a2600860008260001916600019168152602001908152602001600020600090555060086000826000191660001916815260200190815260200160002060009055505050565b6000601760019054906101000a900473ffffffffffffffffffffffffffffffffffffffff1673ffffffffffffffffffffffffffffffffffffffff16635c65816584846000604051602001526040518363ffffffff167c0100000000000000000000000000000000000000000000000000000000028152600401808373ffffffffffffffffffffffffffffffffffffffff1673ffffffffffffffffffffffffffffffffffffffff1681526020018273ffffffffffffffffffffffffffffffffffffffff1673ffffffffffffffffffffffffffffffffffffffff16815260200192505050602060405180830381600087803b151561618357600080fd5b6102c65a03f1151561619457600080fd5b50505060405180519050905092915050565b6000366040518083838082843782019150509250505060405180910390206161cd81616399565b15156161d557005b6000366040518083838082843782019150509250505060405180910390206161fc8161631c565b151561620457005b82601a819055506008600082600019166000191681526020019081526020016000206000905550600860008260001916600019168152602001908152602001600020600090555050565b601760019054906101000a900473ffffffffffffffffffffffffffffffffffffffff1681565b60003660405180838380828437820191505092505050604051809103902061629b81616399565b15156162a357005b6000366040518083838082843782019150509250505060405180910390206162ca8161631c565b15156162d257005b826019819055506008600082600019166000191681526020019081526020016000206000905550600860008260001916600019168152602001908152602001600020600090555050565b6000806008600084600019166000191681526020019081526020016000205414156163625742600860008460001916600019168152602001908152602001600020819055505b600a546008600084600019166000191681526020019081526020016000205401421015156163935760019050616394565b5b919050565b600080600860008460001916600019168152602001908152602001600020541415156163c85760019050616583565b60011515600460003373ffffffffffffffffffffffffffffffffffffffff1673ffffffffffffffffffffffffffffffffffffffff16815260200190815260200160002060009054906101000a900460ff16151514801561649157506000151560066000846000191660001916815260200190815260200160002060003373ffffffffffffffffffffffffffffffffffffffff1673ffffffffffffffffffffffffffffffffffffffff16815260200190815260200160002060009054906101000a900460ff161515145b1561658257600160066000846000191660001916815260200190815260200160002060003373ffffffffffffffffffffffffffffffffffffffff1673ffffffffffffffffffffffffffffffffffffffff16815260200190815260200160002060006101000a81548160ff021916908315150217905550600760008360001916600019168152602001908152602001600020600081548092919060010191905055506003546007600084600019166000191681526020019081526020016000205410151561658157426008600084600019166000191681526020019081526020016000208190555060019050616583565b5b5b919050565b6000919050565b8073ffffffffffffffffffffffffffffffffffffffff1663b7b0422d6001546000604051602001526040518263ffffffff167c010000000000000000000000000000000000000000000000000000000002815260040180828152602001915050602060405180830381600087803b151561660857600080fd5b6102c65a03f1151561661957600080fd5b505050604051805190501561677457601760019054906101000a900473ffffffffffffffffffffffffffffffffffffffff1673ffffffffffffffffffffffffffffffffffffffff16630900f010826040518263ffffffff167c0100000000000000000000000000000000000000000000000000000000028152600401808273ffffffffffffffffffffffffffffffffffffffff1673ffffffffffffffffffffffffffffffffffffffff168152602001915050600060405180830381600087803b15156166e457600080fd5b6102c65a03f115156166f557600080fd5b5050507f0657c43252e21d6584c7ee97ba6b914710dc0b29771330a92acb3d09d57c5cf381604051808273ffffffffffffffffffffffffffffffffffffffff1673ffffffffffffffffffffffffffffffffffffffff16815260200191505060405180910390a18073ffffffffffffffffffffffffffffffffffffffff16ff5b50565b6000919050565b600080600060106000876000191660001916815260200190815260200160002060000154141515616842578280156167ba5750600b54600d5410155b156167c85760009150616910565b82156167f357600d60008154809291906001019190505550600e600081548092919060010191905055505b4260106000876000191660001916815260200190815260200160002060000181905550836010600087600019166000191681526020019081526020016000206001018190555060009150616910565b600c54601060008760001916600019168152602001908152602001600020600001540142111561690f57821561688657600e60008154809291906001900391905055505b601060008660001916600019168152602001908152602001600020600501546010600087600019166000191681526020019081526020016000206004015401905060106000866000191660001916815260200190815260200160002060010154810260106000876000191660001916815260200190815260200160002060040154119150616910565b5b509392505050565b600254600381905550565b6020604051908101604052806000815250905600a165627a7a7230582059d69c6ef749fcc78996ee4f2422b8bcd507347a551e8fe5296079824742b5800029",
  "source": "/**\n * Define primary business logic for the Ibis token. The module includes code\n * for handling standard user accounting (deposit/withdraw/transfer), mechanisms\n * for freezing and liquidiating rogue or lost accounts, and contract\n * upgrades. This contract inherits restricted access control and democratic\n * voting from parent contracts.\n */\n\npragma solidity ^0.4.13;\n\nimport \"./ERC20.sol\";\nimport \"./ERC223.sol\";\nimport \"./Restricted.sol\";\nimport \"./Democratic.sol\";\nimport \"./Core.sol\";\n\n/// Implements the Ibis charity currency as an ERC20 token.\ncontract Ibis is ERC20, ERC223, Restricted, Democratic {\n\n    // constant values\n    uint MAX_UINT256 = 2**256-1;                 // maximum unsigned integer value\n    uint constant MAJORITY = 50;                 // majority percentage (voting)\n    uint constant SUPERMAJORITY = 67;            // supermajority percentage (voting)\n    uint constant VOTE_DURATION = 1000;          // # of blocks per voting period\n    uint constant MAX_NUKES = 3;                 // # of nukes available to nuke master\n\n    // human standard token fields\n    string public name = \"Ibis\";\n    string public symbol = \"IBI\";\n    string public version = '1.1';\n    uint8 public decimals = 18;\n\n    // address of core contract core\n    Core public core;\n\n    // address freezing/redistribution\n    uint public awardMax;                      // maximum award that can be claimed in one block\n    uint public frozenMinTime;                 // min time between freezing and redistribution\n    uint public awardMinTime;                  // min time to wait for charities to claim reward\n    mapping(uint => uint) awardValue;          // value of award at a given block\n    mapping(uint => uint) awardTarget;      // target address that would be closest\n    mapping(uint => uint) awardClosest;     // current winning bid for block award\n    mapping(address => bool) frozenVoted;      // votes cast by previously frozen accounts\n\n    // initial grace period emergency update\n    uint graceInit;\n    uint graceDuration = 960 * 21;\n\n    // if true then system has been nuked\n    bool nuked;\n\n    // business logic events\n    event LogDeposit(address indexed _from, uint _value);\n    event LogWithdraw(address indexed _to, uint _value);\n    event LogChangeCharities(address indexed _charity, bool _isCharity);\n    event LogFreeze(address indexed _account, bool frozen);\n    event LogAward(uint indexed _time, address _addr, string _state);\n    event LogUpgrade(address _addr);\n\n    /// Define restricted ownership, voting parameters, and the Core contract\n    function Ibis(address _core, address [] _owners, uint _ownerThreshold, address nukeMaster) public\n        Restricted(_owners, _ownerThreshold, nukeMaster)\n\tDemocratic(VOTE_DURATION, MAX_NUKES)\n    {\n\tgraceInit = block.timestamp;\n\tcore = Core(_core);\n    }\n\n    ///-------------------------------- User Account Methods --------------------------------///\n\n    // Return the balance of an address\n    function balanceOf(address _owner) public constant returns (uint) {\n\treturn core.balances(_owner);\n    }\n\n    /// Transfer value from the sending address to a given recipient\n    function transfer(address _to, uint _value) public returns (bool) {\n\tif(core.balances(msg.sender) >= _value) {\n\t    core.transfer(msg.sender, _to, _value);\n\n\t    bytes memory empty;\n\t    Transfer(msg.sender, _to, _value);\n\t    Transfer(msg.sender, _to, _value, empty);\n\t    return true;\n\t}\n    }\n\n    function transfer(address _to, uint _value, bytes _data) public {\n\tif(core.balances(msg.sender) >= _value) {\n\t    // Retrieve the size of the code on target address\n\t    uint codeLength;\n\t    assembly {\n\t    codeLength := extcodesize(_to)\n\t\t    }\n\n\t    core.transfer(msg.sender, _to, _value);\n\t    if(codeLength>0) {\n\t\tERC223ReceivingContract receiver = ERC223ReceivingContract(_to);\n\t\treceiver.tokenFallback(msg.sender, _value, _data);\n\t    }\n\t    Transfer(msg.sender, _to, _value, _data);\n\t}\n    }\n\n    /// Transfer value on behalf of another account if approved by the owner\n    function transferFrom(address _from, address _to, uint _value) public returns (bool) {\n        if(core.balances(_from) >= _value && core.allowed(_from, msg.sender) >= _value) {\n\t    core.transfer(_from, _to, _value);\n\t    core.setAllowed(_from, msg.sender, core.allowed(_from, msg.sender) - _value);\n\t    Transfer(_from, _to, _value);\n\t    return true;\n\t}\n    }\n\n    /// Convert Ether to Ibis coins for the message sender\n    function deposit() public payable {\n\tdepositTo(msg.sender);\n    }\n\n    /// Convert Ether to Ibis coins for an address other than the message sender\n    function depositTo(address _to) public payable {\n        core.setBalances(_to, core.balances(_to) + msg.value);\n\ttotalSupply += msg.value;\n\tLogDeposit(_to, msg.value);\n    }\n\n    /// Convert Ibis coins to Ether for message sender\n    function withdraw(uint _value) public suspendable returns (bool) {\n\treturn withdrawHelper(msg.sender, _value);\n    }\n\n    /// Convert Ibis coins to Ether for someone other than message sender (requires pre-approval)\n    function withdrawFrom(address _from, uint _value) public suspendable returns (bool) {\n\tif(core.allowed(_from, msg.sender) >= _value) {\n\t    return withdrawHelper(_from, _value);\n\t}\n    }\n\n    /// Convert Ibis coins to Ether on behalf of a charity by an Ibis owner address\n    function withdrawOwner(address _from, uint _value) public isOwner suspendable returns (bool) {\n\treturn withdrawHelper(_from, _value);\n    }\n\n    /// Internal logic for public withdraw interfaces\n    function withdrawHelper(address _from, uint _value) public returns (bool) {\n\tif ((core.charityStatus(_from) || nuked) && _value <= core.balances(_from)) {\n\t    core.setBalances(_from, core.balances(_from) - _value);\n\t    totalSupply -= _value;\n\t    _from.transfer(_value);\n\t    LogWithdraw(_from, _value);\n\t    return true;\n\t}\n    }\n\n    /// Approve a third party address to manage funds on behalf of the owner\n    function approve(address _spender, uint _value) public returns (bool) {\n\tcore.setAllowed(msg.sender, _spender, _value);\n\tApproval(msg.sender, _spender, _value);\n\treturn true;\n    }\n\n    /// Return the amount by which a third party is approved to transfer an owner's funds\n    function allowance(address _owner, address _spender) public constant returns (uint) {\n\treturn core.allowed(_owner, _spender);\n    }\n\n    /// Approve a third party to manange funds and callback a predesignated function signature\n    function approveAndCall(address _spender, uint _value, bytes _extraCore) public returns (bool) {\n        core.setAllowed(msg.sender, _spender, _value);\n        Approval(msg.sender, _spender, _value);\n\n        if(!_spender.call(bytes4(keccak256(\"receiveApproval(address,uint,address,bytes)\")),\n\t\t\t  msg.sender, _value, this, _extraCore)) {\n\t    revert();\n\t}\n        return true;\n    }\n\n    /// Approve a new charity\n    function addCharity(address _charity) public isOwner delayed(keccak256(msg.data)) returns (bool) {\n\tif(!core.charityStatus(_charity)) {\n\t    core.setCharityStatus(_charity, true);\n\t    core.setCharityTime(_charity, block.timestamp);\n\t    LogChangeCharities(_charity, true);\n\t    return true;\n\t}\n    }\n\n    /// Remove an existing charity\n    function removeCharity(address _charity) public isOwner delayed(keccak256(msg.data)) returns (bool) {\n\tif(core.charityStatus(_charity)) {\n\t    core.setCharityStatus(_charity, false);\n\t    core.setCharityTime(_charity, 0);\n\t    LogChangeCharities(_charity, false);\n\t    return true;\n\t}\n    }\n\n    ///---------------------------------- Freeze Methods ------------------------------------///\n\n    /// Suspend accounts by moving the existing balance into a frozen funds table\n    function freezeAccounts(address[] _accounts) public isOwner suspendable {\n\tuint time = block.timestamp;\n\tfor(uint i = 0; i < _accounts.length; i++) {\n\t    uint balance = core.balances(_accounts[i]);\n\t    core.setBalances(_accounts[i], 0);\n\t    core.setFrozenValue(_accounts[i], balance);\n\t    core.setFrozenTime(_accounts[i], time);\n\t    LogFreeze(_accounts[i], true);\n\t}\n    }\n\n    /// Reinstantiate frozen accounts\n    function unfreezeAccounts(address[] _accounts) public isOwner delayed(keccak256(msg.data))\n\tsuspendable {\n\tfor(uint i = 0; i < _accounts.length; i++) {\n\t    uint frozen = core.frozenValue(_accounts[i]);\n\t    core.setFrozenValue(_accounts[i], 0);\n\t    core.setFrozenTime(_accounts[i], 0);\n\t    core.setBalances(_accounts[i], frozen);\n\t    LogFreeze(_accounts[i], false);\n\t}\n    }\n\n    /// Liquidate frozen accounts and offer funds as reward for a randomly selected charity\n    function awardExcess(address[] _accounts) public isOwner delayed(keccak256(msg.data))\n\tvotable(keccak256(msg.data), MAJORITY, false) {\n\n\tuint frozenAward;\n\n\tfor(uint i = 0; i < _accounts.length; i++) {\n\t    if(core.frozenTime(_accounts[i]) + frozenMinTime < block.timestamp) {\n\t\tcontinue;\n\t    }\n\t    uint frozen = core.frozenValue(_accounts[i]);\n\t    if(frozenAward + frozen <= awardMax) {\n\t\tcore.setFrozenValue(_accounts[i], 0);\n\t\tfrozenAward += frozen;\n\t    }\n\t    else {\n\t\tcore.setFrozenValue(_accounts[i], frozen - (awardMax - frozenAward));\n\t\tfrozenAward = awardMax;\n\t\tbreak;\n\t    }\n\t}\n\n\t// prepare reward slot\n\tawardValue[block.timestamp] = frozenAward;\n\tawardTarget[block.timestamp] = uint(block.blockhash(block.number));\n\tawardClosest[block.timestamp] = awardTarget[block.timestamp] + (MAX_UINT256 / 2);\n\tLogAward(block.timestamp, address(0), \"initialized\");\n    }\n\n    /// Claim that a charity is the closest to the random target for a given award\n    function claimAward(uint _time, address _charity) public suspendable returns (bool) {\n\n\tuint challenge = uint(keccak256(_charity));\n\n\tif(awardTarget[_time] - uint(_charity) < awardTarget[_time] - awardClosest[_time]) {\n\t    awardClosest[_time] = challenge;\n\t    LogAward(_time, _charity, \"claimed\");\n\t    return true;\n\t}\n    }\n\n    /// Move funds into the balance of a winning charity after enough time has passed\n    function cashAward(uint _time, address _charity) public suspendable returns (bool) {\n\n\tuint claim = uint(keccak256(_charity));\n\n\tif(_time <= block.timestamp - awardMinTime && awardClosest[_time] == claim) {\n\t    uint award = awardValue[_time];\n\t    delete awardValue[_time];\n\t    delete awardTarget[_time];\n\t    delete awardClosest[_time];\n\t    core.setBalances(_charity, core.balances(_charity) + award);\n\t    LogAward(_time, _charity, \"awarded\");\n\t    return true;\n\t}\n    }\n\n    /// Set the minimum time for an account to be frozen before distribution (block height)\n    function setFrozenMinTime(uint _frozenMinTime) public multiowner(keccak256(msg.data))\n\tdelayed(keccak256(msg.data)) {\n\tfrozenMinTime = _frozenMinTime;\n    }\n\n    /// Set the window of time that charities can claim to be the closest to an award\n    function setAwardMinTime(uint _awardMinTime) public multiowner(keccak256(msg.data))\n\tdelayed(keccak256(msg.data)) {\n\tawardMinTime = _awardMinTime;\n    }\n\n    /// Set the maximum amount of funds that can be placed on a single block\n    function setAwardMax(uint _awardMax) public multiowner(keccak256(msg.data))\n\tdelayed(keccak256(msg.data)) {\n\tawardMax = _awardMax;\n    }\n\n    ///---------------------------------- Upgrade Methods -----------------------------------///\n\n    /// Standard path to propose a new controlling contract\n    function upgradeStandard(address _addr) public multiowner(keccak256(msg.data)) suspendable\n\tvotable(keccak256(msg.data), MAJORITY, false) {\n\tupgrade(_addr);\n    }\n\n    /// Emergency path to upgrade contracts if majority owner keys have been compromised\n    function upgradeInitEmergency(address _addr) public isOwner suspendable\n\tvotable(keccak256(msg.data), SUPERMAJORITY, false) {\n\n\tupgrade(_addr);\n    }\n\n    /// Emergency path to upgrade if something has gone wrong within the grace period\n    function upgradeInitial(address _addr) public isOwner() {\n\tif(graceInit + graceDuration < block.timestamp) {\n\t    upgrade(_addr);\n\t}\n    }\n\n    /// Perform actual upgrade\n    function upgrade(address _addr) internal {\n\tif(IbisNew(_addr).init(totalSupply)) {\n\t    core.upgrade(_addr);\n\t    LogUpgrade(_addr);\n\t    selfdestruct(_addr);\n\t}\n    }\n\n    ///---------------------------------- Nuke Methods -----------------------------------///\n\n    /// Supermajority vote to nuke the contract logic and allow free ether withdrawal\n    function nuke() isMaster votable(keccak256(msg.data), SUPERMAJORITY, true) public {\n\tRestrictedDestruct();\n\tnuked = true;\n    }\n}\n\n/// Abstract contract placeholder to facilitate a future transition to the next version of Ibis\ncontract IbisNew {\n    /// This method will be implemented in the future contract version to process legacy data\n    function init(uint totalSupply) public returns (bool);\n}\n\ncontract ERC223ReceivingContract {\n    function tokenFallback(address _from, uint _value, bytes _data) public;\n}\n",
  "sourcePath": "/home/thien-nam/Code/Ibis/src/contracts/Ibis.sol",
  "compiler": {
    "name": "solc",
    "version": "0.4.18+commit.9cf6e910.Emscripten.clang"
  },
  "schemaVersion": "1.0.1",
  "updatedAt": "2018-01-03T04:38:35.149Z"
}