{
  "contractName": "IbisNewConcrete",
  "abi": [
    {
      "constant": false,
      "inputs": [
        {
          "name": "",
          "type": "uint256"
        }
      ],
      "name": "init",
      "outputs": [
        {
          "name": "",
          "type": "bool"
        }
      ],
      "payable": false,
      "stateMutability": "nonpayable",
      "type": "function"
    },
    {
      "inputs": [],
      "payable": false,
      "stateMutability": "nonpayable",
      "type": "constructor"
    }
  ],
  "bytecode": "0x6060604052341561000f57600080fd5b60b38061001d6000396000f300606060405260043610603f576000357c0100000000000000000000000000000000000000000000000000000000900463ffffffff168063b7b0422d146044575b600080fd5b3415604e57600080fd5b60626004808035906020019091905050607c565b604051808215151515815260200191505060405180910390f35b6000600190509190505600a165627a7a7230582051baae9a095d3045dda16425746b4e44c86ac62a44e008a65bf3e2fdffed07710029",
  "source": "/**\n * Define primary business logic for the Ibis token. The module includes code\n * for handling standard user accounting (deposit/withdraw/transfer), mechanisms\n * for freezing and liquidiating rogue or lost accounts, and contract\n * upgrades. This contract inherits restricted access control and democratic\n * voting from parent contracts.\n */\n\npragma solidity ^0.4.13;\n\nimport \"./ERC20.sol\";\nimport \"./ERC223.sol\";\nimport \"./Restricted.sol\";\nimport \"./Democratic.sol\";\nimport \"./Core.sol\";\n\n/// Implements the Ibis charity currency as an ERC20 token.\ncontract Ibis is ERC20, ERC223, Restricted, Democratic {\n\n    // constant values\n    uint MAX_UINT256 = 2**256-1;                 // maximum unsigned integer value\n    uint constant MAJORITY = 50;                 // majority percentage (voting)\n    uint constant SUPERMAJORITY = 67;            // supermajority percentage (voting)\n    uint constant VOTE_DURATION = 1000;          // # of blocks per voting period\n    uint constant MAX_NUKES = 3;                 // # of nukes available to nuke master\n\n    // human standard token fields\n    string public name = \"Ibis\";\n    string public symbol = \"IBI\";\n    string public version = '1.1';\n    uint8 public decimals = 18;\n\n    // address of core contract core\n    Core public core;\n\n    // address freezing/redistribution\n    uint public awardMax;                      // maximum award that can be claimed in one block\n    uint public frozenMinTime;                 // min time between freezing and redistribution\n    uint public awardMinTime;                  // min time to wait for charities to claim reward\n    mapping(uint => uint) awardValue;          // value of award at a given block\n    mapping(uint => uint) awardTarget;      // target address that would be closest\n    mapping(uint => uint) awardClosest;     // current winning bid for block award\n    mapping(address => bool) frozenVoted;      // votes cast by previously frozen accounts\n\n    // initial grace period emergency update\n    uint graceInit;\n    uint graceDuration = 960 * 21;\n\n    // if true then system has been nuked\n    bool nuked;\n\n    // business logic events\n    event LogDeposit(address indexed _from, uint _value);\n    event LogWithdraw(address indexed _to, uint _value);\n    event LogChangeCharities(address indexed _charity, bool _isCharity);\n    event LogFreeze(address indexed _account, bool frozen);\n    event LogAward(uint indexed _time, address _addr, string _state);\n    event LogUpgrade(address _addr);\n\n    /// Define restricted ownership, voting parameters, and the Core contract\n    function Ibis(address _core, address [] _owners, uint _ownerThreshold, address nukeMaster) public\n        Restricted(_owners, _ownerThreshold, nukeMaster)\n\tDemocratic(VOTE_DURATION, MAX_NUKES)\n    {\n\tgraceInit = block.timestamp;\n\tcore = Core(_core);\n    }\n\n    ///-------------------------------- User Account Methods --------------------------------///\n\n    // Return the balance of an address\n    function balanceOf(address _owner) public constant returns (uint) {\n\treturn core.balances(_owner);\n    }\n\n    /// Transfer value from the sending address to a given recipient\n    function transfer(address _to, uint _value) public returns (bool) {\n\tif(core.balances(msg.sender) >= _value) {\n\t    core.transfer(msg.sender, _to, _value);\n\n\t    bytes memory empty;\n\t    Transfer(msg.sender, _to, _value);\n\t    Transfer(msg.sender, _to, _value, empty);\n\t    return true;\n\t}\n    }\n\n    function transfer(address _to, uint _value, bytes _data) public {\n\tif(core.balances(msg.sender) >= _value) {\n\t    // Retrieve the size of the code on target address\n\t    uint codeLength;\n\t    assembly {\n\t    codeLength := extcodesize(_to)\n\t\t    }\n\n\t    core.transfer(msg.sender, _to, _value);\n\t    if(codeLength>0) {\n\t\tERC223ReceivingContract receiver = ERC223ReceivingContract(_to);\n\t\treceiver.tokenFallback(msg.sender, _value, _data);\n\t    }\n\t    Transfer(msg.sender, _to, _value, _data);\n\t}\n    }\n\n    /// Transfer value on behalf of another account if approved by the owner\n    function transferFrom(address _from, address _to, uint _value) public returns (bool) {\n        if(core.balances(_from) >= _value && core.allowed(_from, msg.sender) >= _value) {\n\t    core.transfer(_from, _to, _value);\n\t    core.setAllowed(_from, msg.sender, core.allowed(_from, msg.sender) - _value);\n\t    Transfer(_from, _to, _value);\n\t    return true;\n\t}\n    }\n\n    /// Convert Ether to Ibis coins for the message sender\n    function deposit() public payable {\n\tdepositTo(msg.sender);\n    }\n\n    /// Convert Ether to Ibis coins for an address other than the message sender\n    function depositTo(address _to) public payable {\n        core.setBalances(_to, core.balances(_to) + msg.value);\n\ttotalSupply += msg.value;\n\tLogDeposit(_to, msg.value);\n    }\n\n    /// Convert Ibis coins to Ether for message sender\n    function withdraw(uint _value) public suspendable returns (bool) {\n\treturn withdrawHelper(msg.sender, _value);\n    }\n\n    /// Convert Ibis coins to Ether for someone other than message sender (requires pre-approval)\n    function withdrawFrom(address _from, uint _value) public suspendable returns (bool) {\n\tif(core.allowed(_from, msg.sender) >= _value) {\n\t    return withdrawHelper(_from, _value);\n\t}\n    }\n\n    /// Convert Ibis coins to Ether on behalf of a charity by an Ibis owner address\n    function withdrawOwner(address _from, uint _value) public isOwner suspendable returns (bool) {\n\treturn withdrawHelper(_from, _value);\n    }\n\n    /// Internal logic for public withdraw interfaces\n    function withdrawHelper(address _from, uint _value) public returns (bool) {\n\tif ((core.charityStatus(_from) || nuked) && _value <= core.balances(_from)) {\n\t    core.setBalances(_from, core.balances(_from) - _value);\n\t    totalSupply -= _value;\n\t    _from.transfer(_value);\n\t    LogWithdraw(_from, _value);\n\t    return true;\n\t}\n    }\n\n    /// Approve a third party address to manage funds on behalf of the owner\n    function approve(address _spender, uint _value) public returns (bool) {\n\tcore.setAllowed(msg.sender, _spender, _value);\n\tApproval(msg.sender, _spender, _value);\n\treturn true;\n    }\n\n    /// Return the amount by which a third party is approved to transfer an owner's funds\n    function allowance(address _owner, address _spender) public constant returns (uint) {\n\treturn core.allowed(_owner, _spender);\n    }\n\n    /// Approve a third party to manange funds and callback a predesignated function signature\n    function approveAndCall(address _spender, uint _value, bytes _extraCore) public returns (bool) {\n        core.setAllowed(msg.sender, _spender, _value);\n        Approval(msg.sender, _spender, _value);\n\n        if(!_spender.call(bytes4(keccak256(\"receiveApproval(address,uint,address,bytes)\")),\n\t\t\t  msg.sender, _value, this, _extraCore)) {\n\t    revert();\n\t}\n        return true;\n    }\n\n    /// Approve a new charity\n    function addCharity(address _charity) public isOwner delayed(keccak256(msg.data)) returns (bool) {\n\tif(!core.charityStatus(_charity)) {\n\t    core.setCharityStatus(_charity, true);\n\t    core.setCharityTime(_charity, block.timestamp);\n\t    LogChangeCharities(_charity, true);\n\t    return true;\n\t}\n    }\n\n    /// Remove an existing charity\n    function removeCharity(address _charity) public isOwner delayed(keccak256(msg.data)) returns (bool) {\n\tif(core.charityStatus(_charity)) {\n\t    core.setCharityStatus(_charity, false);\n\t    core.setCharityTime(_charity, 0);\n\t    LogChangeCharities(_charity, false);\n\t    return true;\n\t}\n    }\n\n    ///---------------------------------- Freeze Methods ------------------------------------///\n\n    /// Suspend accounts by moving the existing balance into a frozen funds table\n    function freezeAccounts(address[] _accounts) public isOwner suspendable {\n\tuint time = block.timestamp;\n\tfor(uint i = 0; i < _accounts.length; i++) {\n\t    uint balance = core.balances(_accounts[i]);\n\t    core.setBalances(_accounts[i], 0);\n\t    core.setFrozenValue(_accounts[i], balance);\n\t    core.setFrozenTime(_accounts[i], time);\n\t    LogFreeze(_accounts[i], true);\n\t}\n    }\n\n    /// Reinstantiate frozen accounts\n    function unfreezeAccounts(address[] _accounts) public isOwner delayed(keccak256(msg.data))\n\tsuspendable {\n\tfor(uint i = 0; i < _accounts.length; i++) {\n\t    uint frozen = core.frozenValue(_accounts[i]);\n\t    core.setFrozenValue(_accounts[i], 0);\n\t    core.setFrozenTime(_accounts[i], 0);\n\t    core.setBalances(_accounts[i], frozen);\n\t    LogFreeze(_accounts[i], false);\n\t}\n    }\n\n    /// Liquidate frozen accounts and offer funds as reward for a randomly selected charity\n    function awardExcess(address[] _accounts) public isOwner delayed(keccak256(msg.data))\n\tvotable(keccak256(msg.data), MAJORITY, false) {\n\n\tuint frozenAward;\n\n\tfor(uint i = 0; i < _accounts.length; i++) {\n\t    if(core.frozenTime(_accounts[i]) + frozenMinTime < block.timestamp) {\n\t\tcontinue;\n\t    }\n\t    uint frozen = core.frozenValue(_accounts[i]);\n\t    if(frozenAward + frozen <= awardMax) {\n\t\tcore.setFrozenValue(_accounts[i], 0);\n\t\tfrozenAward += frozen;\n\t    }\n\t    else {\n\t\tcore.setFrozenValue(_accounts[i], frozen - (awardMax - frozenAward));\n\t\tfrozenAward = awardMax;\n\t\tbreak;\n\t    }\n\t}\n\n\t// prepare reward slot\n\tawardValue[block.timestamp] = frozenAward;\n\tawardTarget[block.timestamp] = uint(block.blockhash(block.number));\n\tawardClosest[block.timestamp] = awardTarget[block.timestamp] + (MAX_UINT256 / 2);\n\tLogAward(block.timestamp, address(0), \"initialized\");\n    }\n\n    /// Claim that a charity is the closest to the random target for a given award\n    function claimAward(uint _time, address _charity) public suspendable returns (bool) {\n\n\tuint challenge = uint(keccak256(_charity));\n\n\tif(awardTarget[_time] - uint(_charity) < awardTarget[_time] - awardClosest[_time]) {\n\t    awardClosest[_time] = challenge;\n\t    LogAward(_time, _charity, \"claimed\");\n\t    return true;\n\t}\n    }\n\n    /// Move funds into the balance of a winning charity after enough time has passed\n    function cashAward(uint _time, address _charity) public suspendable returns (bool) {\n\n\tuint claim = uint(keccak256(_charity));\n\n\tif(_time <= block.timestamp - awardMinTime && awardClosest[_time] == claim) {\n\t    uint award = awardValue[_time];\n\t    delete awardValue[_time];\n\t    delete awardTarget[_time];\n\t    delete awardClosest[_time];\n\t    core.setBalances(_charity, core.balances(_charity) + award);\n\t    LogAward(_time, _charity, \"awarded\");\n\t    return true;\n\t}\n    }\n\n    /// Set the minimum time for an account to be frozen before distribution (block height)\n    function setFrozenMinTime(uint _frozenMinTime) public multiowner(keccak256(msg.data))\n\tdelayed(keccak256(msg.data)) {\n\tfrozenMinTime = _frozenMinTime;\n    }\n\n    /// Set the window of time that charities can claim to be the closest to an award\n    function setAwardMinTime(uint _awardMinTime) public multiowner(keccak256(msg.data))\n\tdelayed(keccak256(msg.data)) {\n\tawardMinTime = _awardMinTime;\n    }\n\n    /// Set the maximum amount of funds that can be placed on a single block\n    function setAwardMax(uint _awardMax) public multiowner(keccak256(msg.data))\n\tdelayed(keccak256(msg.data)) {\n\tawardMax = _awardMax;\n    }\n\n    ///---------------------------------- Upgrade Methods -----------------------------------///\n\n    /// Standard path to propose a new controlling contract\n    function upgradeStandard(address _addr) public multiowner(keccak256(msg.data)) suspendable\n\tvotable(keccak256(msg.data), MAJORITY, false) {\n\tupgrade(_addr);\n    }\n\n    /// Emergency path to upgrade contracts if majority owner keys have been compromised\n    function upgradeEmergency(address _addr) public isOwner\n\tvotable(keccak256(msg.data), SUPERMAJORITY, true) {\n\tupgrade(_addr);\n    }\n\n    /// Emergency path to upgrade if something has gone wrong within the grace period\n    function upgradeInitial(address _addr) public isOwner() {\n\tif(graceInit + graceDuration < block.timestamp) {\n\t    upgrade(_addr);\n\t}\n    }\n\n    /// Perform actual upgrade\n    function upgrade(address _addr) internal {\n\tif(IbisNew(_addr).init(totalSupply)) {\n\t    core.upgrade(_addr);\n\t    LogUpgrade(_addr);\n\t    selfdestruct(_addr);\n\t}\n    }\n\n    ///---------------------------------- Nuke Methods -----------------------------------///\n\n    /// Supermajority vote to nuke the contract logic and allow free ether withdrawal\n    function nuke() isMaster votable(keccak256(msg.data), SUPERMAJORITY, true) public {\n\tRestrictedDestruct();\n\tnuked = true;\n    }\n\n    ///------------------------------ Democratic Interface ------------------------------///\n\n    mapping(address => uint) voteBalances;\n\n    function purchaseVotes(address _addr, uint _votes) internal returns (uint) {\n\tif(_votes <= core.balances(_addr)){\n\t    voteBalances[_addr] += _votes;\n\t    core.setBalances(_addr, core.balances(_addr) - _votes);\n\t    return voteBalances[_addr] + core.frozenValue(_addr);\n\t}\n    }\n\n    function returnVotes(address _addr) internal {\n\tcore.setBalances(_addr, core.balances(_addr) + voteBalances[_addr]);\n\tdelete voteBalances[_addr];\n    }\n}\n\n/// Abstract contract placeholder to facilitate a future transition to the next version of Ibis\ncontract IbisNew {\n    /// This method will be implemented in the future contract version to process legacy data\n    function init(uint totalSupply) public returns (bool);\n}\n\ncontract ERC223ReceivingContract {\n    function tokenFallback(address _from, uint _value, bytes _data) public;\n}\n\n/// for testing\ncontract IbisNewConcrete is IbisNew {\n    function IbisNewConcrete(){}\n    function init(uint /*totalSupply*/) public returns (bool){return true;}\n}\n",
  "sourcePath": "/home/thien-nam/Code/Ibis/src/contracts/Ibis.sol",
  "compiler": {
    "name": "solc",
    "version": "0.4.18+commit.9cf6e910.Emscripten.clang"
  },
  "schemaVersion": "1.0.1",
  "updatedAt": "2018-01-03T21:01:02.960Z"
}