{
  "contractName": "Ibis",
  "abi": [
    {
      "constant": true,
      "inputs": [
        {
          "name": "",
          "type": "address"
        }
      ],
      "name": "owners",
      "outputs": [
        {
          "name": "",
          "type": "bool"
        }
      ],
      "payable": false,
      "stateMutability": "view",
      "type": "function"
    },
    {
      "constant": true,
      "inputs": [],
      "name": "name",
      "outputs": [
        {
          "name": "",
          "type": "string"
        }
      ],
      "payable": false,
      "stateMutability": "view",
      "type": "function"
    },
    {
      "constant": false,
      "inputs": [
        {
          "name": "_spender",
          "type": "address"
        },
        {
          "name": "_value",
          "type": "uint256"
        }
      ],
      "name": "approve",
      "outputs": [
        {
          "name": "",
          "type": "bool"
        }
      ],
      "payable": false,
      "stateMutability": "nonpayable",
      "type": "function"
    },
    {
      "constant": false,
      "inputs": [
        {
          "name": "_from",
          "type": "address"
        },
        {
          "name": "_value",
          "type": "uint256"
        }
      ],
      "name": "withdrawHelper",
      "outputs": [
        {
          "name": "",
          "type": "bool"
        }
      ],
      "payable": false,
      "stateMutability": "nonpayable",
      "type": "function"
    },
    {
      "constant": true,
      "inputs": [],
      "name": "frozenMinTime",
      "outputs": [
        {
          "name": "",
          "type": "uint256"
        }
      ],
      "payable": false,
      "stateMutability": "view",
      "type": "function"
    },
    {
      "constant": false,
      "inputs": [
        {
          "name": "_accounts",
          "type": "address[]"
        }
      ],
      "name": "unfreezeAccounts",
      "outputs": [],
      "payable": false,
      "stateMutability": "nonpayable",
      "type": "function"
    },
    {
      "constant": false,
      "inputs": [
        {
          "name": "_owner",
          "type": "address"
        }
      ],
      "name": "removeOwner",
      "outputs": [],
      "payable": false,
      "stateMutability": "nonpayable",
      "type": "function"
    },
    {
      "constant": true,
      "inputs": [],
      "name": "totalSupply",
      "outputs": [
        {
          "name": "",
          "type": "uint256"
        }
      ],
      "payable": false,
      "stateMutability": "view",
      "type": "function"
    },
    {
      "constant": false,
      "inputs": [],
      "name": "register",
      "outputs": [],
      "payable": false,
      "stateMutability": "nonpayable",
      "type": "function"
    },
    {
      "constant": true,
      "inputs": [],
      "name": "awardMax",
      "outputs": [
        {
          "name": "",
          "type": "uint256"
        }
      ],
      "payable": false,
      "stateMutability": "view",
      "type": "function"
    },
    {
      "constant": false,
      "inputs": [
        {
          "name": "_from",
          "type": "address"
        },
        {
          "name": "_to",
          "type": "address"
        },
        {
          "name": "_value",
          "type": "uint256"
        }
      ],
      "name": "transferFrom",
      "outputs": [
        {
          "name": "",
          "type": "bool"
        }
      ],
      "payable": false,
      "stateMutability": "nonpayable",
      "type": "function"
    },
    {
      "constant": false,
      "inputs": [
        {
          "name": "_blocknum",
          "type": "uint256"
        },
        {
          "name": "_charity",
          "type": "address"
        }
      ],
      "name": "cashAward",
      "outputs": [
        {
          "name": "",
          "type": "bool"
        }
      ],
      "payable": false,
      "stateMutability": "nonpayable",
      "type": "function"
    },
    {
      "constant": false,
      "inputs": [
        {
          "name": "_addr",
          "type": "address"
        }
      ],
      "name": "upgradeInitial",
      "outputs": [],
      "payable": false,
      "stateMutability": "nonpayable",
      "type": "function"
    },
    {
      "constant": false,
      "inputs": [
        {
          "name": "_value",
          "type": "uint256"
        }
      ],
      "name": "withdraw",
      "outputs": [
        {
          "name": "",
          "type": "bool"
        }
      ],
      "payable": false,
      "stateMutability": "nonpayable",
      "type": "function"
    },
    {
      "constant": false,
      "inputs": [
        {
          "name": "_addr",
          "type": "address"
        }
      ],
      "name": "unregister",
      "outputs": [],
      "payable": false,
      "stateMutability": "nonpayable",
      "type": "function"
    },
    {
      "constant": true,
      "inputs": [],
      "name": "decimals",
      "outputs": [
        {
          "name": "",
          "type": "uint8"
        }
      ],
      "payable": false,
      "stateMutability": "view",
      "type": "function"
    },
    {
      "constant": false,
      "inputs": [
        {
          "name": "_accounts",
          "type": "address[]"
        }
      ],
      "name": "awardExcess",
      "outputs": [],
      "payable": false,
      "stateMutability": "nonpayable",
      "type": "function"
    },
    {
      "constant": false,
      "inputs": [
        {
          "name": "_delayDuration",
          "type": "uint256"
        }
      ],
      "name": "changeDelay",
      "outputs": [],
      "payable": false,
      "stateMutability": "nonpayable",
      "type": "function"
    },
    {
      "constant": true,
      "inputs": [],
      "name": "version",
      "outputs": [
        {
          "name": "",
          "type": "string"
        }
      ],
      "payable": false,
      "stateMutability": "view",
      "type": "function"
    },
    {
      "constant": false,
      "inputs": [],
      "name": "removeSelf",
      "outputs": [],
      "payable": false,
      "stateMutability": "nonpayable",
      "type": "function"
    },
    {
      "constant": false,
      "inputs": [
        {
          "name": "_operation",
          "type": "bytes32"
        }
      ],
      "name": "ownerRevoke",
      "outputs": [],
      "payable": false,
      "stateMutability": "nonpayable",
      "type": "function"
    },
    {
      "constant": true,
      "inputs": [],
      "name": "awardMinTime",
      "outputs": [
        {
          "name": "",
          "type": "uint256"
        }
      ],
      "payable": false,
      "stateMutability": "view",
      "type": "function"
    },
    {
      "constant": false,
      "inputs": [
        {
          "name": "_threshold",
          "type": "uint256"
        }
      ],
      "name": "changeThreshold",
      "outputs": [],
      "payable": false,
      "stateMutability": "nonpayable",
      "type": "function"
    },
    {
      "constant": false,
      "inputs": [
        {
          "name": "_owner",
          "type": "address"
        }
      ],
      "name": "addOwner",
      "outputs": [],
      "payable": false,
      "stateMutability": "nonpayable",
      "type": "function"
    },
    {
      "constant": true,
      "inputs": [
        {
          "name": "_owner",
          "type": "address"
        }
      ],
      "name": "balanceOf",
      "outputs": [
        {
          "name": "",
          "type": "uint256"
        }
      ],
      "payable": false,
      "stateMutability": "view",
      "type": "function"
    },
    {
      "constant": false,
      "inputs": [
        {
          "name": "_charity",
          "type": "address"
        }
      ],
      "name": "addCharity",
      "outputs": [
        {
          "name": "",
          "type": "bool"
        }
      ],
      "payable": false,
      "stateMutability": "nonpayable",
      "type": "function"
    },
    {
      "constant": false,
      "inputs": [
        {
          "name": "_from",
          "type": "address"
        },
        {
          "name": "_value",
          "type": "uint256"
        }
      ],
      "name": "withdrawFrom",
      "outputs": [
        {
          "name": "",
          "type": "bool"
        }
      ],
      "payable": false,
      "stateMutability": "nonpayable",
      "type": "function"
    },
    {
      "constant": true,
      "inputs": [],
      "name": "symbol",
      "outputs": [
        {
          "name": "",
          "type": "string"
        }
      ],
      "payable": false,
      "stateMutability": "view",
      "type": "function"
    },
    {
      "constant": false,
      "inputs": [
        {
          "name": "_operation",
          "type": "bytes32"
        }
      ],
      "name": "killDelayed",
      "outputs": [],
      "payable": false,
      "stateMutability": "nonpayable",
      "type": "function"
    },
    {
      "constant": false,
      "inputs": [
        {
          "name": "_addr",
          "type": "address"
        }
      ],
      "name": "upgradeStandard",
      "outputs": [],
      "payable": false,
      "stateMutability": "nonpayable",
      "type": "function"
    },
    {
      "constant": false,
      "inputs": [
        {
          "name": "_operation",
          "type": "bytes32"
        },
        {
          "name": "_supporting",
          "type": "bool"
        }
      ],
      "name": "vote",
      "outputs": [],
      "payable": false,
      "stateMutability": "nonpayable",
      "type": "function"
    },
    {
      "constant": false,
      "inputs": [
        {
          "name": "_from",
          "type": "address"
        },
        {
          "name": "_value",
          "type": "uint256"
        }
      ],
      "name": "withdrawOwner",
      "outputs": [
        {
          "name": "",
          "type": "bool"
        }
      ],
      "payable": false,
      "stateMutability": "nonpayable",
      "type": "function"
    },
    {
      "constant": false,
      "inputs": [
        {
          "name": "_to",
          "type": "address"
        },
        {
          "name": "_value",
          "type": "uint256"
        }
      ],
      "name": "transfer",
      "outputs": [
        {
          "name": "",
          "type": "bool"
        }
      ],
      "payable": false,
      "stateMutability": "nonpayable",
      "type": "function"
    },
    {
      "constant": false,
      "inputs": [
        {
          "name": "_accounts",
          "type": "address[]"
        }
      ],
      "name": "freezeAccounts",
      "outputs": [],
      "payable": false,
      "stateMutability": "nonpayable",
      "type": "function"
    },
    {
      "constant": false,
      "inputs": [
        {
          "name": "_charity",
          "type": "address"
        }
      ],
      "name": "removeCharity",
      "outputs": [
        {
          "name": "",
          "type": "bool"
        }
      ],
      "payable": false,
      "stateMutability": "nonpayable",
      "type": "function"
    },
    {
      "constant": false,
      "inputs": [
        {
          "name": "_operation",
          "type": "bytes32"
        }
      ],
      "name": "unvote",
      "outputs": [],
      "payable": false,
      "stateMutability": "nonpayable",
      "type": "function"
    },
    {
      "constant": false,
      "inputs": [
        {
          "name": "_awardMax",
          "type": "uint256"
        }
      ],
      "name": "setAwardMax",
      "outputs": [],
      "payable": false,
      "stateMutability": "nonpayable",
      "type": "function"
    },
    {
      "constant": false,
      "inputs": [
        {
          "name": "_to",
          "type": "address"
        }
      ],
      "name": "depositTo",
      "outputs": [],
      "payable": true,
      "stateMutability": "payable",
      "type": "function"
    },
    {
      "constant": false,
      "inputs": [
        {
          "name": "_addr",
          "type": "address"
        }
      ],
      "name": "upgradeInitEmergency",
      "outputs": [],
      "payable": false,
      "stateMutability": "nonpayable",
      "type": "function"
    },
    {
      "constant": false,
      "inputs": [],
      "name": "nuke",
      "outputs": [],
      "payable": false,
      "stateMutability": "nonpayable",
      "type": "function"
    },
    {
      "constant": false,
      "inputs": [
        {
          "name": "_to",
          "type": "address"
        },
        {
          "name": "_value",
          "type": "uint256"
        },
        {
          "name": "_data",
          "type": "bytes"
        }
      ],
      "name": "transfer",
      "outputs": [],
      "payable": false,
      "stateMutability": "nonpayable",
      "type": "function"
    },
    {
      "constant": false,
      "inputs": [
        {
          "name": "_blocknum",
          "type": "uint256"
        },
        {
          "name": "_charity",
          "type": "address"
        }
      ],
      "name": "claimAward",
      "outputs": [
        {
          "name": "",
          "type": "bool"
        }
      ],
      "payable": false,
      "stateMutability": "nonpayable",
      "type": "function"
    },
    {
      "constant": false,
      "inputs": [
        {
          "name": "_spender",
          "type": "address"
        },
        {
          "name": "_value",
          "type": "uint256"
        },
        {
          "name": "_extraCore",
          "type": "bytes"
        }
      ],
      "name": "approveAndCall",
      "outputs": [
        {
          "name": "",
          "type": "bool"
        }
      ],
      "payable": false,
      "stateMutability": "nonpayable",
      "type": "function"
    },
    {
      "constant": false,
      "inputs": [
        {
          "name": "_operation",
          "type": "bytes32"
        },
        {
          "name": "_addr",
          "type": "address"
        }
      ],
      "name": "clearVote",
      "outputs": [],
      "payable": false,
      "stateMutability": "nonpayable",
      "type": "function"
    },
    {
      "constant": false,
      "inputs": [],
      "name": "deposit",
      "outputs": [],
      "payable": true,
      "stateMutability": "payable",
      "type": "function"
    },
    {
      "constant": false,
      "inputs": [
        {
          "name": "_old",
          "type": "address"
        },
        {
          "name": "_new",
          "type": "address"
        }
      ],
      "name": "switchOwner",
      "outputs": [],
      "payable": false,
      "stateMutability": "nonpayable",
      "type": "function"
    },
    {
      "constant": true,
      "inputs": [
        {
          "name": "_owner",
          "type": "address"
        },
        {
          "name": "_spender",
          "type": "address"
        }
      ],
      "name": "allowance",
      "outputs": [
        {
          "name": "",
          "type": "uint256"
        }
      ],
      "payable": false,
      "stateMutability": "view",
      "type": "function"
    },
    {
      "constant": false,
      "inputs": [
        {
          "name": "_awardMinTime",
          "type": "uint256"
        }
      ],
      "name": "setAwardMinTime",
      "outputs": [],
      "payable": false,
      "stateMutability": "nonpayable",
      "type": "function"
    },
    {
      "constant": true,
      "inputs": [],
      "name": "core",
      "outputs": [
        {
          "name": "",
          "type": "address"
        }
      ],
      "payable": false,
      "stateMutability": "view",
      "type": "function"
    },
    {
      "constant": false,
      "inputs": [
        {
          "name": "_frozenMinTime",
          "type": "uint256"
        }
      ],
      "name": "setFrozenMinTime",
      "outputs": [],
      "payable": false,
      "stateMutability": "nonpayable",
      "type": "function"
    },
    {
      "inputs": [
        {
          "name": "_core",
          "type": "address"
        },
        {
          "name": "_owners",
          "type": "address[]"
        },
        {
          "name": "_ownerThreshold",
          "type": "uint256"
        },
        {
          "name": "nukeMaster",
          "type": "address"
        }
      ],
      "payable": false,
      "stateMutability": "nonpayable",
      "type": "constructor"
    },
    {
      "anonymous": false,
      "inputs": [
        {
          "indexed": true,
          "name": "_from",
          "type": "address"
        },
        {
          "indexed": false,
          "name": "_value",
          "type": "uint256"
        }
      ],
      "name": "LogDeposit",
      "type": "event"
    },
    {
      "anonymous": false,
      "inputs": [
        {
          "indexed": true,
          "name": "_to",
          "type": "address"
        },
        {
          "indexed": false,
          "name": "_value",
          "type": "uint256"
        }
      ],
      "name": "LogWithdraw",
      "type": "event"
    },
    {
      "anonymous": false,
      "inputs": [
        {
          "indexed": true,
          "name": "_charity",
          "type": "address"
        },
        {
          "indexed": false,
          "name": "_isCharity",
          "type": "bool"
        }
      ],
      "name": "LogChangeCharities",
      "type": "event"
    },
    {
      "anonymous": false,
      "inputs": [
        {
          "indexed": true,
          "name": "_account",
          "type": "address"
        },
        {
          "indexed": false,
          "name": "frozen",
          "type": "bool"
        }
      ],
      "name": "LogFreeze",
      "type": "event"
    },
    {
      "anonymous": false,
      "inputs": [
        {
          "indexed": true,
          "name": "_blocknum",
          "type": "uint256"
        },
        {
          "indexed": false,
          "name": "_addr",
          "type": "address"
        },
        {
          "indexed": false,
          "name": "_state",
          "type": "string"
        }
      ],
      "name": "LogAward",
      "type": "event"
    },
    {
      "anonymous": false,
      "inputs": [
        {
          "indexed": false,
          "name": "_addr",
          "type": "address"
        }
      ],
      "name": "LogUpgrade",
      "type": "event"
    },
    {
      "anonymous": false,
      "inputs": [
        {
          "indexed": true,
          "name": "_addr",
          "type": "address"
        },
        {
          "indexed": false,
          "name": "isOwner",
          "type": "bool"
        }
      ],
      "name": "LogOwnerChange",
      "type": "event"
    },
    {
      "anonymous": false,
      "inputs": [
        {
          "indexed": false,
          "name": "thresh",
          "type": "uint256"
        }
      ],
      "name": "LogChangeThreshold",
      "type": "event"
    },
    {
      "anonymous": false,
      "inputs": [
        {
          "indexed": false,
          "name": "thresh",
          "type": "uint256"
        }
      ],
      "name": "LogChangeDelay",
      "type": "event"
    },
    {
      "anonymous": false,
      "inputs": [],
      "name": "LogNuke",
      "type": "event"
    },
    {
      "anonymous": false,
      "inputs": [
        {
          "indexed": true,
          "name": "from",
          "type": "address"
        },
        {
          "indexed": true,
          "name": "to",
          "type": "address"
        },
        {
          "indexed": false,
          "name": "value",
          "type": "uint256"
        },
        {
          "indexed": false,
          "name": "data",
          "type": "bytes"
        }
      ],
      "name": "Transfer",
      "type": "event"
    },
    {
      "anonymous": false,
      "inputs": [
        {
          "indexed": true,
          "name": "_from",
          "type": "address"
        },
        {
          "indexed": true,
          "name": "_to",
          "type": "address"
        },
        {
          "indexed": false,
          "name": "_value",
          "type": "uint256"
        }
      ],
      "name": "Transfer",
      "type": "event"
    },
    {
      "anonymous": false,
      "inputs": [
        {
          "indexed": true,
          "name": "_owner",
          "type": "address"
        },
        {
          "indexed": true,
          "name": "_spender",
          "type": "address"
        },
        {
          "indexed": false,
          "name": "_value",
          "type": "uint256"
        }
      ],
      "name": "Approval",
      "type": "event"
    }
  ],
  "bytecode": "0x60606040527fffffffffffffffffffffffffffffffffffffffffffffffffffffffffffffffff6002556103c0600a557fffffffffffffffffffffffffffffffffffffffffffffffffffffffffffffffff6013556040805190810160405280600481526020017f4962697300000000000000000000000000000000000000000000000000000000815250601490805190602001906200009f929190620003a1565b506040805190810160405280600381526020017f494249000000000000000000000000000000000000000000000000000000000081525060159080519060200190620000ed929190620003a1565b506040805190810160405280600381526020017f312e310000000000000000000000000000000000000000000000000000000000815250601690805190602001906200013b929190620003a1565b506012601760006101000a81548160ff021916908360ff160217905550614ec0601f5534156200016a57600080fd5b60405162006c9338038062006c9383398101604052808051906020019091908051820191906020018051906020019091908051906020019091905050611a4060038484846000826004819055507f3dafdf04a2a91e1f13fb84664194bba4aef5c95d086769d9e38c574e33c8fedf6004546040518082815260200191505060405180910390a181600660006101000a81548173ffffffffffffffffffffffffffffffffffffffff021916908373ffffffffffffffffffffffffffffffffffffffff160217905550600090505b83518110156200033b5760016005600086848151811015156200025557fe5b9060200190602002015173ffffffffffffffffffffffffffffffffffffffff1673ffffffffffffffffffffffffffffffffffffffff16815260200190815260200160002060006101000a81548160ff0219169083151502179055506003600081548092919060010191905055508381815181101515620002d157fe5b9060200190602002015173ffffffffffffffffffffffffffffffffffffffff167f3281051f50c80211481c7d83588f2aa4266a9ce1468c910f64c983093176b0d66001604051808215151515815260200191505060405180910390a2808060010191505062000236565b5050505081600c8190555080600b81905550505043601e8190555083601760016101000a81548173ffffffffffffffffffffffffffffffffffffffff021916908373ffffffffffffffffffffffffffffffffffffffff1602179055505050505062000450565b828054600181600116156101000203166002900490600052602060002090601f016020900481019282601f10620003e457805160ff191683800117855562000415565b8280016001018555821562000415579182015b8281111562000414578251825591602001919060010190620003f7565b5b50905062000424919062000428565b5090565b6200044d91905b80821115620004495760008160009055506001016200042f565b5090565b90565b61683380620004606000396000f30060606040526004361061025c576000357c0100000000000000000000000000000000000000000000000000000000900463ffffffff168063022914a71461026157806306fdde03146102b2578063095ea7b3146103405780630e9540991461039a57806311de3675146103f4578063170e20701461041d578063173825d91461047757806318160ddd146104b05780631aa3a008146104d95780631b0f5d00146104ee57806323b872dd146105175780632927cda3146105905780632c2f54fd146105ea5780632e1a7d4d146106235780632ec2c2461461065e578063313ce5671461069757806335d9ffef146106c65780635037ec621461072057806354fd4d50146107435780635e898dac146107d15780635f6171e6146107e6578063655c82a51461080d578063694e80c3146108365780637065cb481461085957806370a082311461089257806378b14f0a146108df5780639470b0bd1461093057806395d89b411461098a57806399629da514610a185780639a46455014610a3f5780639f2ce67814610a78578063a388541314610aaa578063a9059cbb14610b04578063aad1202914610b5e578063abefe59114610bb8578063b1f6a4bf14610c09578063b53eda3214610c30578063b760faf914610c53578063bc0f1e1014610c81578063bc8fbbf814610cba578063be45fd6214610ccf578063c26f96cf14610d54578063cae9ca5114610dae578063d090884214610e4b578063d0e30db014610e91578063dd1ae3b014610e9b578063dd62ed3e14610ef3578063e7fa61b714610f5f578063f2f4eb2614610f82578063feb992c514610fd7575b600080fd5b341561026c57600080fd5b610298600480803573ffffffffffffffffffffffffffffffffffffffff16906020019091905050610ffa565b604051808215151515815260200191505060405180910390f35b34156102bd57600080fd5b6102c561101a565b6040518080602001828103825283818151815260200191508051906020019080838360005b838110156103055780820151818401526020810190506102ea565b50505050905090810190601f1680156103325780820380516001836020036101000a031916815260200191505b509250505060405180910390f35b341561034b57600080fd5b610380600480803573ffffffffffffffffffffffffffffffffffffffff169060200190919080359060200190919050506110b8565b604051808215151515815260200191505060405180910390f35b34156103a557600080fd5b6103da600480803573ffffffffffffffffffffffffffffffffffffffff16906020019091908035906020019091905050611235565b604051808215151515815260200191505060405180910390f35b34156103ff57600080fd5b610407611685565b6040518082815260200191505060405180910390f35b341561042857600080fd5b61047560048080359060200190820180359060200190808060200260200160405190810160405280939291908181526020018383602002808284378201915050505050509190505061168b565b005b341561048257600080fd5b6104ae600480803573ffffffffffffffffffffffffffffffffffffffff16906020019091905050611b98565b005b34156104bb57600080fd5b6104c3611ca6565b6040518082815260200191505060405180910390f35b34156104e457600080fd5b6104ec611cac565b005b34156104f957600080fd5b610501611cfa565b6040518082815260200191505060405180910390f35b341561052257600080fd5b610576600480803573ffffffffffffffffffffffffffffffffffffffff1690602001909190803573ffffffffffffffffffffffffffffffffffffffff16906020019091908035906020019091905050611d00565b604051808215151515815260200191505060405180910390f35b341561059b57600080fd5b6105d0600480803590602001909190803573ffffffffffffffffffffffffffffffffffffffff169060200190919050506122ac565b604051808215151515815260200191505060405180910390f35b34156105f557600080fd5b610621600480803573ffffffffffffffffffffffffffffffffffffffff169060200190919050506125fc565b005b341561062e57600080fd5b6106446004808035906020019091905050612676565b604051808215151515815260200191505060405180910390f35b341561066957600080fd5b610695600480803573ffffffffffffffffffffffffffffffffffffffff16906020019091905050612694565b005b34156106a257600080fd5b6106aa6127cb565b604051808260ff1660ff16815260200191505060405180910390f35b34156106d157600080fd5b61071e6004808035906020019082018035906020019080806020026020016040519081016040528093929190818152602001838360200280828437820191505050505050919050506127de565b005b341561072b57600080fd5b6107416004808035906020019091905050612e23565b005b341561074e57600080fd5b610756612f00565b6040518080602001828103825283818151815260200191508051906020019080838360005b8381101561079657808201518184015260208101905061077b565b50505050905090810190601f1680156107c35780820380516001836020036101000a031916815260200191505b509250505060405180910390f35b34156107dc57600080fd5b6107e4612f9e565b005b34156107f157600080fd5b61080b6004808035600019169060200190919050506130aa565b005b341561081857600080fd5b6108206131c1565b6040518082815260200191505060405180910390f35b341561084157600080fd5b61085760048080359060200190919050506131c7565b005b341561086457600080fd5b610890600480803573ffffffffffffffffffffffffffffffffffffffff169060200190919050506132a4565b005b341561089d57600080fd5b6108c9600480803573ffffffffffffffffffffffffffffffffffffffff169060200190919050506133fe565b6040518082815260200191505060405180910390f35b34156108ea57600080fd5b610916600480803573ffffffffffffffffffffffffffffffffffffffff169060200190919050506134e7565b604051808215151515815260200191505060405180910390f35b341561093b57600080fd5b610970600480803573ffffffffffffffffffffffffffffffffffffffff16906020019091908035906020019091905050613892565b604051808215151515815260200191505060405180910390f35b341561099557600080fd5b61099d6139d3565b6040518080602001828103825283818151815260200191508051906020019080838360005b838110156109dd5780820151818401526020810190506109c2565b50505050905090810190601f168015610a0a5780820380516001836020036101000a031916815260200191505b509250505060405180910390f35b3415610a2357600080fd5b610a3d600480803560001916906020019091905050613a71565b005b3415610a4a57600080fd5b610a76600480803573ffffffffffffffffffffffffffffffffffffffff16906020019091905050613ae0565b005b3415610a8357600080fd5b610aa86004808035600019169060200190919080351515906020019091905050613bb9565b005b3415610ab557600080fd5b610aea600480803573ffffffffffffffffffffffffffffffffffffffff16906020019091908035906020019091905050613f06565b604051808215151515815260200191505060405180910390f35b3415610b0f57600080fd5b610b44600480803573ffffffffffffffffffffffffffffffffffffffff16906020019091908035906020019091905050613f85565b604051808215151515815260200191505060405180910390f35b3415610b6957600080fd5b610bb66004808035906020019082018035906020019080806020026020016040519081016040528093929190818152602001838360200280828437820191505050505050919050506142cb565b005b3415610bc357600080fd5b610bef600480803573ffffffffffffffffffffffffffffffffffffffff16906020019091905050614790565b604051808215151515815260200191505060405180910390f35b3415610c1457600080fd5b610c2e600480803560001916906020019091905050614b3b565b005b3415610c3b57600080fd5b610c516004808035906020019091905050614e25565b005b610c7f600480803573ffffffffffffffffffffffffffffffffffffffff16906020019091905050614ec9565b005b3415610c8c57600080fd5b610cb8600480803573ffffffffffffffffffffffffffffffffffffffff169060200190919050506150e3565b005b3415610cc557600080fd5b610ccd6151ce565b005b3415610cda57600080fd5b610d52600480803573ffffffffffffffffffffffffffffffffffffffff1690602001909190803590602001909190803590602001908201803590602001908080601f016020809104026020016040519081016040528093929190818152602001838380828437820191505050505050919050506152be565b005b3415610d5f57600080fd5b610d94600480803590602001909190803573ffffffffffffffffffffffffffffffffffffffff169060200190919050506156c3565b604051808215151515815260200191505060405180910390f35b3415610db957600080fd5b610e31600480803573ffffffffffffffffffffffffffffffffffffffff1690602001909190803590602001909190803590602001908201803590602001908080601f01602080910402602001604051908101604052809392919081815260200183838082843782019150505050505091905050615866565b604051808215151515815260200191505060405180910390f35b3415610e5657600080fd5b610e8f60048080356000191690602001909190803573ffffffffffffffffffffffffffffffffffffffff16906020019091905050615b92565b005b610e99615d92565b005b3415610ea657600080fd5b610ef1600480803573ffffffffffffffffffffffffffffffffffffffff1690602001909190803573ffffffffffffffffffffffffffffffffffffffff16906020019091905050615d9d565b005b3415610efe57600080fd5b610f49600480803573ffffffffffffffffffffffffffffffffffffffff1690602001909190803573ffffffffffffffffffffffffffffffffffffffff16906020019091905050615f91565b6040518082815260200191505060405180910390f35b3415610f6a57600080fd5b610f8060048080359060200190919050506160af565b005b3415610f8d57600080fd5b610f95616153565b604051808273ffffffffffffffffffffffffffffffffffffffff1673ffffffffffffffffffffffffffffffffffffffff16815260200191505060405180910390f35b3415610fe257600080fd5b610ff86004808035906020019091905050616179565b005b60056020528060005260406000206000915054906101000a900460ff1681565b60148054600181600116156101000203166002900480601f0160208091040260200160405190810160405280929190818152602001828054600181600116156101000203166002900480156110b05780601f10611085576101008083540402835291602001916110b0565b820191906000526020600020905b81548152906001019060200180831161109357829003601f168201915b505050505081565b6000601760019054906101000a900473ffffffffffffffffffffffffffffffffffffffff1673ffffffffffffffffffffffffffffffffffffffff166333dd1b8a3385856040518463ffffffff167c0100000000000000000000000000000000000000000000000000000000028152600401808473ffffffffffffffffffffffffffffffffffffffff1673ffffffffffffffffffffffffffffffffffffffff1681526020018373ffffffffffffffffffffffffffffffffffffffff1673ffffffffffffffffffffffffffffffffffffffff1681526020018281526020019350505050600060405180830381600087803b15156111b257600080fd5b6102c65a03f115156111c357600080fd5b5050508273ffffffffffffffffffffffffffffffffffffffff163373ffffffffffffffffffffffffffffffffffffffff167f8c5be1e5ebec7d5bd14f71427d1e84f3dd0314c0f7b2291e5b200ac8c7c3b925846040518082815260200191505060405180910390a36001905092915050565b6000601760019054906101000a900473ffffffffffffffffffffffffffffffffffffffff1673ffffffffffffffffffffffffffffffffffffffff16638f8e83c4846000604051602001526040518263ffffffff167c0100000000000000000000000000000000000000000000000000000000028152600401808273ffffffffffffffffffffffffffffffffffffffff1673ffffffffffffffffffffffffffffffffffffffff168152602001915050602060405180830381600087803b15156112fc57600080fd5b6102c65a03f1151561130d57600080fd5b505050604051805190508061132e5750602060009054906101000a900460ff165b80156114195750601760019054906101000a900473ffffffffffffffffffffffffffffffffffffffff1673ffffffffffffffffffffffffffffffffffffffff166327e235e3846000604051602001526040518263ffffffff167c0100000000000000000000000000000000000000000000000000000000028152600401808273ffffffffffffffffffffffffffffffffffffffff1673ffffffffffffffffffffffffffffffffffffffff168152602001915050602060405180830381600087803b15156113fa57600080fd5b6102c65a03f1151561140b57600080fd5b505050604051805190508211155b1561167e57601760019054906101000a900473ffffffffffffffffffffffffffffffffffffffff1673ffffffffffffffffffffffffffffffffffffffff166328e69b168484601760019054906101000a900473ffffffffffffffffffffffffffffffffffffffff1673ffffffffffffffffffffffffffffffffffffffff166327e235e3886000604051602001526040518263ffffffff167c0100000000000000000000000000000000000000000000000000000000028152600401808273ffffffffffffffffffffffffffffffffffffffff1673ffffffffffffffffffffffffffffffffffffffff168152602001915050602060405180830381600087803b151561152357600080fd5b6102c65a03f1151561153457600080fd5b50505060405180519050036040518363ffffffff167c0100000000000000000000000000000000000000000000000000000000028152600401808373ffffffffffffffffffffffffffffffffffffffff1673ffffffffffffffffffffffffffffffffffffffff16815260200182815260200192505050600060405180830381600087803b15156115c357600080fd5b6102c65a03f115156115d457600080fd5b505050816001600082825403925050819055508273ffffffffffffffffffffffffffffffffffffffff166108fc839081150290604051600060405180830381858888f19350505050151561162757600080fd5b8273ffffffffffffffffffffffffffffffffffffffff167f4ce7033d118120e254016dccf195288400b28fc8936425acd5f17ce2df3ab708836040518082815260200191505060405180910390a26001905061167f565b5b92915050565b60195481565b60008060011515600560003373ffffffffffffffffffffffffffffffffffffffff1673ffffffffffffffffffffffffffffffffffffffff16815260200190815260200160002060009054906101000a900460ff1615151415156116ed57600080fd5b6000366040518083838082843782019150509250505060405180910390206117148161621d565b15611b92576000600e541415611b7257600092505b8351831015611b7157601760019054906101000a900473ffffffffffffffffffffffffffffffffffffffff1673ffffffffffffffffffffffffffffffffffffffff1663c77fd877858581518110151561177e57fe5b906020019060200201516000604051602001526040518263ffffffff167c0100000000000000000000000000000000000000000000000000000000028152600401808273ffffffffffffffffffffffffffffffffffffffff1673ffffffffffffffffffffffffffffffffffffffff168152602001915050602060405180830381600087803b151561180e57600080fd5b6102c65a03f1151561181f57600080fd5b505050604051805190509150601760019054906101000a900473ffffffffffffffffffffffffffffffffffffffff1673ffffffffffffffffffffffffffffffffffffffff166354134cd2858581518110151561187757fe5b9060200190602002015160006040518363ffffffff167c0100000000000000000000000000000000000000000000000000000000028152600401808373ffffffffffffffffffffffffffffffffffffffff1673ffffffffffffffffffffffffffffffffffffffff16815260200182815260200192505050600060405180830381600087803b151561190757600080fd5b6102c65a03f1151561191857600080fd5b505050601760019054906101000a900473ffffffffffffffffffffffffffffffffffffffff1673ffffffffffffffffffffffffffffffffffffffff1663ffac8182858581518110151561196757fe5b9060200190602002015160006040518363ffffffff167c0100000000000000000000000000000000000000000000000000000000028152600401808373ffffffffffffffffffffffffffffffffffffffff1673ffffffffffffffffffffffffffffffffffffffff16815260200182815260200192505050600060405180830381600087803b15156119f757600080fd5b6102c65a03f11515611a0857600080fd5b505050601760019054906101000a900473ffffffffffffffffffffffffffffffffffffffff1673ffffffffffffffffffffffffffffffffffffffff166328e69b168585815181101515611a5757fe5b90602001906020020151846040518363ffffffff167c0100000000000000000000000000000000000000000000000000000000028152600401808373ffffffffffffffffffffffffffffffffffffffff1673ffffffffffffffffffffffffffffffffffffffff16815260200182815260200192505050600060405180830381600087803b1515611ae657600080fd5b6102c65a03f11515611af757600080fd5b5050508383815181101515611b0857fe5b9060200190602002015173ffffffffffffffffffffffffffffffffffffffff167f85a80b3c69e65851b9558eb027b8e071efc4f8d6c7fb04a15ca15246ac2eb4b96000604051808215151515815260200191505060405180910390a28280600101935050611729565b5b600960008260001916600019168152602001908152602001600020600090555b50505050565b600036604051808383808284378201915050925050506040518091039020611bbf8161629a565b15611ca2576000600560008473ffffffffffffffffffffffffffffffffffffffff1673ffffffffffffffffffffffffffffffffffffffff16815260200190815260200160002060006101000a81548160ff021916908315150217905550600360008154809291906001900391905055508173ffffffffffffffffffffffffffffffffffffffff167f3281051f50c80211481c7d83588f2aa4266a9ce1468c910f64c983093176b0d66000604051808215151515815260200191505060405180910390a2600960008260001916600019168152602001908152602001600020600090555b5050565b60015481565b611cb533616458565b601260003373ffffffffffffffffffffffffffffffffffffffff1673ffffffffffffffffffffffffffffffffffffffff16815260200190815260200160002081905550565b60185481565b600081601760019054906101000a900473ffffffffffffffffffffffffffffffffffffffff1673ffffffffffffffffffffffffffffffffffffffff166327e235e3866000604051602001526040518263ffffffff167c0100000000000000000000000000000000000000000000000000000000028152600401808273ffffffffffffffffffffffffffffffffffffffff1673ffffffffffffffffffffffffffffffffffffffff168152602001915050602060405180830381600087803b1515611dc857600080fd5b6102c65a03f11515611dd957600080fd5b5050506040518051905010158015611f04575081601760019054906101000a900473ffffffffffffffffffffffffffffffffffffffff1673ffffffffffffffffffffffffffffffffffffffff16635c65816586336000604051602001526040518363ffffffff167c0100000000000000000000000000000000000000000000000000000000028152600401808373ffffffffffffffffffffffffffffffffffffffff1673ffffffffffffffffffffffffffffffffffffffff1681526020018273ffffffffffffffffffffffffffffffffffffffff1673ffffffffffffffffffffffffffffffffffffffff16815260200192505050602060405180830381600087803b1515611ee657600080fd5b6102c65a03f11515611ef757600080fd5b5050506040518051905010155b156122a457601760019054906101000a900473ffffffffffffffffffffffffffffffffffffffff1673ffffffffffffffffffffffffffffffffffffffff1663beabacc88585856040518463ffffffff167c0100000000000000000000000000000000000000000000000000000000028152600401808473ffffffffffffffffffffffffffffffffffffffff1673ffffffffffffffffffffffffffffffffffffffff1681526020018373ffffffffffffffffffffffffffffffffffffffff1673ffffffffffffffffffffffffffffffffffffffff1681526020018281526020019350505050600060405180830381600087803b151561200157600080fd5b6102c65a03f1151561201257600080fd5b505050601760019054906101000a900473ffffffffffffffffffffffffffffffffffffffff1673ffffffffffffffffffffffffffffffffffffffff166333dd1b8a853385601760019054906101000a900473ffffffffffffffffffffffffffffffffffffffff1673ffffffffffffffffffffffffffffffffffffffff16635c6581658a336000604051602001526040518363ffffffff167c0100000000000000000000000000000000000000000000000000000000028152600401808373ffffffffffffffffffffffffffffffffffffffff1673ffffffffffffffffffffffffffffffffffffffff1681526020018273ffffffffffffffffffffffffffffffffffffffff1673ffffffffffffffffffffffffffffffffffffffff16815260200192505050602060405180830381600087803b151561214f57600080fd5b6102c65a03f1151561216057600080fd5b50505060405180519050036040518463ffffffff167c0100000000000000000000000000000000000000000000000000000000028152600401808473ffffffffffffffffffffffffffffffffffffffff1673ffffffffffffffffffffffffffffffffffffffff1681526020018373ffffffffffffffffffffffffffffffffffffffff1673ffffffffffffffffffffffffffffffffffffffff1681526020018281526020019350505050600060405180830381600087803b151561222257600080fd5b6102c65a03f1151561223357600080fd5b5050508273ffffffffffffffffffffffffffffffffffffffff168473ffffffffffffffffffffffffffffffffffffffff167fddf252ad1be2c89b69c2b068fc378daa952ba7f163c4a11628f55a4df523b3ef846040518082815260200191505060405180910390a3600190506122a5565b5b9392505050565b6000806000600e5414156125f557601a544303841115801561232c57508273ffffffffffffffffffffffffffffffffffffffff16601c600086815260200190815260200160002060009054906101000a900473ffffffffffffffffffffffffffffffffffffffff1673ffffffffffffffffffffffffffffffffffffffff16145b156125f357601b6000858152602001908152602001600020549050601b600085815260200190815260200160002060009055601c600085815260200190815260200160002060006101000a81549073ffffffffffffffffffffffffffffffffffffffff0219169055601760019054906101000a900473ffffffffffffffffffffffffffffffffffffffff1673ffffffffffffffffffffffffffffffffffffffff166328e69b168483601760019054906101000a900473ffffffffffffffffffffffffffffffffffffffff1673ffffffffffffffffffffffffffffffffffffffff166327e235e3886000604051602001526040518263ffffffff167c0100000000000000000000000000000000000000000000000000000000028152600401808273ffffffffffffffffffffffffffffffffffffffff1673ffffffffffffffffffffffffffffffffffffffff168152602001915050602060405180830381600087803b151561249957600080fd5b6102c65a03f115156124aa57600080fd5b50505060405180519050016040518363ffffffff167c0100000000000000000000000000000000000000000000000000000000028152600401808373ffffffffffffffffffffffffffffffffffffffff1673ffffffffffffffffffffffffffffffffffffffff16815260200182815260200192505050600060405180830381600087803b151561253957600080fd5b6102c65a03f1151561254a57600080fd5b505050837f046be9693b9b4ed56df331431ff8cc6874ab57df1e1332c0984ba4278edef38f84604051808273ffffffffffffffffffffffffffffffffffffffff1673ffffffffffffffffffffffffffffffffffffffff16815260200180602001828103825260078152602001807f61776172646564000000000000000000000000000000000000000000000000008152506020019250505060405180910390a2600191506125f4565b5b5b5092915050565b60011515600560003373ffffffffffffffffffffffffffffffffffffffff1673ffffffffffffffffffffffffffffffffffffffff16815260200190815260200160002060009054906101000a900460ff16151514151561265b57600080fd5b43601f54601e54011015612673576126728161645f565b5b50565b600080600e54141561268f5761268c3383611235565b90505b919050565b3373ffffffffffffffffffffffffffffffffffffffff168173ffffffffffffffffffffffffffffffffffffffff1614801561270e57506000601160003373ffffffffffffffffffffffffffffffffffffffff1673ffffffffffffffffffffffffffffffffffffffff16815260200190815260200160002054145b801561271f575061271e81616647565b5b1561276857601260008273ffffffffffffffffffffffffffffffffffffffff1673ffffffffffffffffffffffffffffffffffffffff168152602001908152602001600020600090555b6000600f5414801561277f575061277e81616647565b5b156127c857601260008273ffffffffffffffffffffffffffffffffffffffff1673ffffffffffffffffffffffffffffffffffffffff168152602001908152602001600020600090555b50565b601760009054906101000a900460ff1681565b600080600080366040518083838082843782019150509250505060405180910390206128098161629a565b15612e1c576000366040518083838082843782019150509250505060405180910390206128358161621d565b15612dfb576000366040518083838082843782019150509250505060405180910390206032600061286783838361664e565b15612dd857600096505b8851871015612c8e5743601954601760019054906101000a900473ffffffffffffffffffffffffffffffffffffffff1673ffffffffffffffffffffffffffffffffffffffff1663795e41a68c8b8151811015156128ca57fe5b906020019060200201516000604051602001526040518263ffffffff167c0100000000000000000000000000000000000000000000000000000000028152600401808273ffffffffffffffffffffffffffffffffffffffff1673ffffffffffffffffffffffffffffffffffffffff168152602001915050602060405180830381600087803b151561295a57600080fd5b6102c65a03f1151561296b57600080fd5b5050506040518051905001101561298157612c81565b601760019054906101000a900473ffffffffffffffffffffffffffffffffffffffff1673ffffffffffffffffffffffffffffffffffffffff1663c77fd8778a898151811015156129cd57fe5b906020019060200201516000604051602001526040518263ffffffff167c0100000000000000000000000000000000000000000000000000000000028152600401808273ffffffffffffffffffffffffffffffffffffffff1673ffffffffffffffffffffffffffffffffffffffff168152602001915050602060405180830381600087803b1515612a5d57600080fd5b6102c65a03f11515612a6e57600080fd5b505050604051805190509550601854868901111515612b8157601760019054906101000a900473ffffffffffffffffffffffffffffffffffffffff1673ffffffffffffffffffffffffffffffffffffffff166354134cd28a89815181101515612ad357fe5b9060200190602002015160006040518363ffffffff167c0100000000000000000000000000000000000000000000000000000000028152600401808373ffffffffffffffffffffffffffffffffffffffff1673ffffffffffffffffffffffffffffffffffffffff16815260200182815260200192505050600060405180830381600087803b1515612b6357600080fd5b6102c65a03f11515612b7457600080fd5b5050508588019750612c80565b601760019054906101000a900473ffffffffffffffffffffffffffffffffffffffff1673ffffffffffffffffffffffffffffffffffffffff166354134cd28a89815181101515612bcd57fe5b906020019060200201518a6018540389036040518363ffffffff167c0100000000000000000000000000000000000000000000000000000000028152600401808373ffffffffffffffffffffffffffffffffffffffff1673ffffffffffffffffffffffffffffffffffffffff16815260200182815260200192505050600060405180830381600087803b1515612c6257600080fd5b6102c65a03f11515612c7357600080fd5b5050506018549750612c8e565b5b8680600101975050612871565b87601b600043815260200190815260200160002081905550601354601c600043815260200190815260200160002060006101000a81548173ffffffffffffffffffffffffffffffffffffffff021916908373ffffffffffffffffffffffffffffffffffffffff160217905550437f046be9693b9b4ed56df331431ff8cc6874ab57df1e1332c0984ba4278edef38f601354604051808273ffffffffffffffffffffffffffffffffffffffff1673ffffffffffffffffffffffffffffffffffffffff168152602001806020018281038252600b8152602001807f696e697469616c697a65640000000000000000000000000000000000000000008152506020019250505060405180910390a260106000846000191660001916815260200190815260200160002060008082016000905560018201600090556004820160009055600582016000905550505b505050600960008260001916600019168152602001908152602001600020600090555b50600960008260001916600019168152602001908152602001600020600090555b5050505050565b600036604051808383808284378201915050925050506040518091039020612e4a8161629a565b15612efc57600036604051808383808284378201915050925050506040518091039020612e768161621d565b15612edb5782600a819055507f9d46c50cb19a491fb2eaba8b18e5328816184146ae5f4d9ab621d76d2ed1a9a2600a546040518082815260200191505060405180910390a1600960008260001916600019168152602001908152602001600020600090555b50600960008260001916600019168152602001908152602001600020600090555b5050565b60168054600181600116156101000203166002900480601f016020809104026020016040519081016040528092919081815260200182805460018160011615610100020316600290048015612f965780601f10612f6b57610100808354040283529160200191612f96565b820191906000526020600020905b815481529060010190602001808311612f7957829003601f168201915b505050505081565b60011515600560003373ffffffffffffffffffffffffffffffffffffffff1673ffffffffffffffffffffffffffffffffffffffff16815260200190815260200160002060009054906101000a900460ff161515141515612ffd57600080fd5b6000600560003373ffffffffffffffffffffffffffffffffffffffff1673ffffffffffffffffffffffffffffffffffffffff16815260200190815260200160002060006101000a81548160ff0219169083151502179055503373ffffffffffffffffffffffffffffffffffffffff167f3281051f50c80211481c7d83588f2aa4266a9ce1468c910f64c983093176b0d66000604051808215151515815260200191505060405180910390a2565b60011515600560003373ffffffffffffffffffffffffffffffffffffffff1673ffffffffffffffffffffffffffffffffffffffff16815260200190815260200160002060009054906101000a900460ff16151514151561310957600080fd5b600060076000836000191660001916815260200190815260200160002060003373ffffffffffffffffffffffffffffffffffffffff1673ffffffffffffffffffffffffffffffffffffffff16815260200190815260200160002060006101000a81548160ff02191690831515021790555060006008600083600019166000191681526020019081526020016000205414156131be57600960008260001916600019168152602001908152602001600020600090555b50565b601a5481565b6000366040518083838082843782019150509250505060405180910390206131ee8161629a565b156132a05760003660405180838380828437820191505092505050604051809103902061321a8161621d565b1561327f57826004819055507f3dafdf04a2a91e1f13fb84664194bba4aef5c95d086769d9e38c574e33c8fedf6004546040518082815260200191505060405180910390a1600960008260001916600019168152602001908152602001600020600090555b50600960008260001916600019168152602001908152602001600020600090555b5050565b6000366040518083838082843782019150509250505060405180910390206132cb8161629a565b156133fa576000366040518083838082843782019150509250505060405180910390206132f78161621d565b156133d9576001600560008573ffffffffffffffffffffffffffffffffffffffff1673ffffffffffffffffffffffffffffffffffffffff16815260200190815260200160002060006101000a81548160ff0219169083151502179055506003600081548092919060010191905055508273ffffffffffffffffffffffffffffffffffffffff167f3281051f50c80211481c7d83588f2aa4266a9ce1468c910f64c983093176b0d66001604051808215151515815260200191505060405180910390a2600960008260001916600019168152602001908152602001600020600090555b50600960008260001916600019168152602001908152602001600020600090555b5050565b6000601760019054906101000a900473ffffffffffffffffffffffffffffffffffffffff1673ffffffffffffffffffffffffffffffffffffffff166327e235e3836000604051602001526040518263ffffffff167c0100000000000000000000000000000000000000000000000000000000028152600401808273ffffffffffffffffffffffffffffffffffffffff1673ffffffffffffffffffffffffffffffffffffffff168152602001915050602060405180830381600087803b15156134c557600080fd5b6102c65a03f115156134d657600080fd5b505050604051805190509050919050565b600060011515600560003373ffffffffffffffffffffffffffffffffffffffff1673ffffffffffffffffffffffffffffffffffffffff16815260200190815260200160002060009054906101000a900460ff16151514151561354857600080fd5b60003660405180838380828437820191505092505050604051809103902061356f8161621d565b1561388c57601760019054906101000a900473ffffffffffffffffffffffffffffffffffffffff1673ffffffffffffffffffffffffffffffffffffffff16638f8e83c4846000604051602001526040518263ffffffff167c0100000000000000000000000000000000000000000000000000000000028152600401808273ffffffffffffffffffffffffffffffffffffffff1673ffffffffffffffffffffffffffffffffffffffff168152602001915050602060405180830381600087803b151561363957600080fd5b6102c65a03f1151561364a57600080fd5b50505060405180519050151561386b57601760019054906101000a900473ffffffffffffffffffffffffffffffffffffffff1673ffffffffffffffffffffffffffffffffffffffff1663329388aa8460016040518363ffffffff167c0100000000000000000000000000000000000000000000000000000000028152600401808373ffffffffffffffffffffffffffffffffffffffff1673ffffffffffffffffffffffffffffffffffffffff1681526020018215151515815260200192505050600060405180830381600087803b151561372357600080fd5b6102c65a03f1151561373457600080fd5b505050601760019054906101000a900473ffffffffffffffffffffffffffffffffffffffff1673ffffffffffffffffffffffffffffffffffffffff1663c244c11384436040518363ffffffff167c0100000000000000000000000000000000000000000000000000000000028152600401808373ffffffffffffffffffffffffffffffffffffffff1673ffffffffffffffffffffffffffffffffffffffff16815260200182815260200192505050600060405180830381600087803b15156137fb57600080fd5b6102c65a03f1151561380c57600080fd5b5050508273ffffffffffffffffffffffffffffffffffffffff167f889cb149d426eca2f86c88cc89ad9051b8c6b15ddd9bf509a9307bff27816a726001604051808215151515815260200191505060405180910390a26001915061386c565b5b600960008260001916600019168152602001908152602001600020600090555b50919050565b600080600e5414156139cd5781601760019054906101000a900473ffffffffffffffffffffffffffffffffffffffff1673ffffffffffffffffffffffffffffffffffffffff16635c65816585336000604051602001526040518363ffffffff167c0100000000000000000000000000000000000000000000000000000000028152600401808373ffffffffffffffffffffffffffffffffffffffff1673ffffffffffffffffffffffffffffffffffffffff1681526020018273ffffffffffffffffffffffffffffffffffffffff1673ffffffffffffffffffffffffffffffffffffffff16815260200192505050602060405180830381600087803b151561399857600080fd5b6102c65a03f115156139a957600080fd5b505050604051805190501015156139cb576139c48383611235565b90506139cc565b5b5b92915050565b60158054600181600116156101000203166002900480601f016020809104026020016040519081016040528092919081815260200182805460018160011615610100020316600290048015613a695780601f10613a3e57610100808354040283529160200191613a69565b820191906000526020600020905b815481529060010190602001808311613a4c57829003601f168201915b505050505081565b600036604051808383808284378201915050925050506040518091039020613a988161629a565b15613adc5760096000836000191660001916815260200190815260200160002060009055600960008260001916600019168152602001908152602001600020600090555b5050565b600036604051808383808284378201915050925050506040518091039020613b078161629a565b15613bb5576000600e541415613b955760003660405180838380828437820191505092505050604051809103902060326000613b4483838361664e565b15613b9157613b528561645f565b60106000846000191660001916815260200190815260200160002060008082016000905560018201600090556004820160009055600582016000905550505b5050505b600960008260001916600019168152602001908152602001600020600090555b5050565b600060106000846000191660001916815260200190815260200160002060030160003373ffffffffffffffffffffffffffffffffffffffff1673ffffffffffffffffffffffffffffffffffffffff1681526020019081526020016000205460106000856000191660001916815260200190815260200160002060020160003373ffffffffffffffffffffffffffffffffffffffff1673ffffffffffffffffffffffffffffffffffffffff1681526020019081526020016000205401141515613c8057613f02565b8015613d9e57601260003373ffffffffffffffffffffffffffffffffffffffff1673ffffffffffffffffffffffffffffffffffffffff1681526020019081526020016000205460106000846000191660001916815260200190815260200160002060020160003373ffffffffffffffffffffffffffffffffffffffff1673ffffffffffffffffffffffffffffffffffffffff16815260200190815260200160002060008282540192505081905550601260003373ffffffffffffffffffffffffffffffffffffffff1673ffffffffffffffffffffffffffffffffffffffff1681526020019081526020016000205460106000846000191660001916815260200190815260200160002060040160008282540192505081905550613eb2565b601260003373ffffffffffffffffffffffffffffffffffffffff1673ffffffffffffffffffffffffffffffffffffffff1681526020019081526020016000205460106000846000191660001916815260200190815260200160002060030160003373ffffffffffffffffffffffffffffffffffffffff1673ffffffffffffffffffffffffffffffffffffffff16815260200190815260200160002060008282540192505081905550601260003373ffffffffffffffffffffffffffffffffffffffff1673ffffffffffffffffffffffffffffffffffffffff16815260200190815260200160002054601060008460001916600019168152602001908152602001600020600501600082825401925050819055505b601160003373ffffffffffffffffffffffffffffffffffffffff1673ffffffffffffffffffffffffffffffffffffffff168152602001908152602001600020600081548092919060010191905055505b5050565b600060011515600560003373ffffffffffffffffffffffffffffffffffffffff1673ffffffffffffffffffffffffffffffffffffffff16815260200190815260200160002060009054906101000a900460ff161515141515613f6757600080fd5b6000600e541415613f7f57613f7c8383611235565b90505b92915050565b6000613f8f6167f3565b82601760019054906101000a900473ffffffffffffffffffffffffffffffffffffffff1673ffffffffffffffffffffffffffffffffffffffff166327e235e3336000604051602001526040518263ffffffff167c0100000000000000000000000000000000000000000000000000000000028152600401808273ffffffffffffffffffffffffffffffffffffffff1673ffffffffffffffffffffffffffffffffffffffff168152602001915050602060405180830381600087803b151561405557600080fd5b6102c65a03f1151561406657600080fd5b505050604051805190501015156142c357601760019054906101000a900473ffffffffffffffffffffffffffffffffffffffff1673ffffffffffffffffffffffffffffffffffffffff1663beabacc83386866040518463ffffffff167c0100000000000000000000000000000000000000000000000000000000028152600401808473ffffffffffffffffffffffffffffffffffffffff1673ffffffffffffffffffffffffffffffffffffffff1681526020018373ffffffffffffffffffffffffffffffffffffffff1673ffffffffffffffffffffffffffffffffffffffff1681526020018281526020019350505050600060405180830381600087803b151561416f57600080fd5b6102c65a03f1151561418057600080fd5b5050508373ffffffffffffffffffffffffffffffffffffffff163373ffffffffffffffffffffffffffffffffffffffff167fddf252ad1be2c89b69c2b068fc378daa952ba7f163c4a11628f55a4df523b3ef856040518082815260200191505060405180910390a38373ffffffffffffffffffffffffffffffffffffffff163373ffffffffffffffffffffffffffffffffffffffff167fe19260aff97b920c7df27010903aeb9c8d2be5d310a2c67824cf3f15396e4c1685846040518083815260200180602001828103825283818151815260200191508051906020019080838360005b8381101561427f578082015181840152602081019050614264565b50505050905090810190601f1680156142ac5780820380516001836020036101000a031916815260200191505b50935050505060405180910390a3600191506142c4565b5b5092915050565b600080600060011515600560003373ffffffffffffffffffffffffffffffffffffffff1673ffffffffffffffffffffffffffffffffffffffff16815260200190815260200160002060009054906101000a900460ff16151514151561432f57600080fd5b6000600e54141561478a57439250600091505b835182101561478957601760019054906101000a900473ffffffffffffffffffffffffffffffffffffffff1673ffffffffffffffffffffffffffffffffffffffff166327e235e3858481518110151561439757fe5b906020019060200201516000604051602001526040518263ffffffff167c0100000000000000000000000000000000000000000000000000000000028152600401808273ffffffffffffffffffffffffffffffffffffffff1673ffffffffffffffffffffffffffffffffffffffff168152602001915050602060405180830381600087803b151561442757600080fd5b6102c65a03f1151561443857600080fd5b505050604051805190509050601760019054906101000a900473ffffffffffffffffffffffffffffffffffffffff1673ffffffffffffffffffffffffffffffffffffffff166328e69b16858481518110151561449057fe5b9060200190602002015160006040518363ffffffff167c0100000000000000000000000000000000000000000000000000000000028152600401808373ffffffffffffffffffffffffffffffffffffffff1673ffffffffffffffffffffffffffffffffffffffff16815260200182815260200192505050600060405180830381600087803b151561452057600080fd5b6102c65a03f1151561453157600080fd5b505050601760019054906101000a900473ffffffffffffffffffffffffffffffffffffffff1673ffffffffffffffffffffffffffffffffffffffff166354134cd2858481518110151561458057fe5b90602001906020020151836040518363ffffffff167c0100000000000000000000000000000000000000000000000000000000028152600401808373ffffffffffffffffffffffffffffffffffffffff1673ffffffffffffffffffffffffffffffffffffffff16815260200182815260200192505050600060405180830381600087803b151561460f57600080fd5b6102c65a03f1151561462057600080fd5b505050601760019054906101000a900473ffffffffffffffffffffffffffffffffffffffff1673ffffffffffffffffffffffffffffffffffffffff1663ffac8182858481518110151561466f57fe5b90602001906020020151856040518363ffffffff167c0100000000000000000000000000000000000000000000000000000000028152600401808373ffffffffffffffffffffffffffffffffffffffff1673ffffffffffffffffffffffffffffffffffffffff16815260200182815260200192505050600060405180830381600087803b15156146fe57600080fd5b6102c65a03f1151561470f57600080fd5b505050838281518110151561472057fe5b9060200190602002015173ffffffffffffffffffffffffffffffffffffffff167f85a80b3c69e65851b9558eb027b8e071efc4f8d6c7fb04a15ca15246ac2eb4b96001604051808215151515815260200191505060405180910390a28180600101925050614342565b5b50505050565b600060011515600560003373ffffffffffffffffffffffffffffffffffffffff1673ffffffffffffffffffffffffffffffffffffffff16815260200190815260200160002060009054906101000a900460ff1615151415156147f157600080fd5b6000366040518083838082843782019150509250505060405180910390206148188161621d565b15614b3557601760019054906101000a900473ffffffffffffffffffffffffffffffffffffffff1673ffffffffffffffffffffffffffffffffffffffff16638f8e83c4846000604051602001526040518263ffffffff167c0100000000000000000000000000000000000000000000000000000000028152600401808273ffffffffffffffffffffffffffffffffffffffff1673ffffffffffffffffffffffffffffffffffffffff168152602001915050602060405180830381600087803b15156148e257600080fd5b6102c65a03f115156148f357600080fd5b5050506040518051905015614b1457601760019054906101000a900473ffffffffffffffffffffffffffffffffffffffff1673ffffffffffffffffffffffffffffffffffffffff1663329388aa8460006040518363ffffffff167c0100000000000000000000000000000000000000000000000000000000028152600401808373ffffffffffffffffffffffffffffffffffffffff1673ffffffffffffffffffffffffffffffffffffffff1681526020018215151515815260200192505050600060405180830381600087803b15156149cb57600080fd5b6102c65a03f115156149dc57600080fd5b505050601760019054906101000a900473ffffffffffffffffffffffffffffffffffffffff1673ffffffffffffffffffffffffffffffffffffffff1663c244c1138460006040518363ffffffff167c0100000000000000000000000000000000000000000000000000000000028152600401808373ffffffffffffffffffffffffffffffffffffffff1673ffffffffffffffffffffffffffffffffffffffff16815260200182815260200192505050600060405180830381600087803b1515614aa457600080fd5b6102c65a03f11515614ab557600080fd5b5050508273ffffffffffffffffffffffffffffffffffffffff167f889cb149d426eca2f86c88cc89ad9051b8c6b15ddd9bf509a9307bff27816a726000604051808215151515815260200191505060405180910390a260019150614b15565b5b600960008260001916600019168152602001908152602001600020600090555b50919050565b600060106000836000191660001916815260200190815260200160002060030160003373ffffffffffffffffffffffffffffffffffffffff1673ffffffffffffffffffffffffffffffffffffffff1681526020019081526020016000205460106000846000191660001916815260200190815260200160002060020160003373ffffffffffffffffffffffffffffffffffffffff1673ffffffffffffffffffffffffffffffffffffffff16815260200190815260200160002054011415614c0157614e22565b60106000826000191660001916815260200190815260200160002060020160003373ffffffffffffffffffffffffffffffffffffffff1673ffffffffffffffffffffffffffffffffffffffff1681526020019081526020016000205460106000836000191660001916815260200190815260200160002060040160008282540392505081905550600060106000836000191660001916815260200190815260200160002060020160003373ffffffffffffffffffffffffffffffffffffffff1673ffffffffffffffffffffffffffffffffffffffff1681526020019081526020016000208190555060106000826000191660001916815260200190815260200160002060030160003373ffffffffffffffffffffffffffffffffffffffff1673ffffffffffffffffffffffffffffffffffffffff1681526020019081526020016000205460106000836000191660001916815260200190815260200160002060050160008282540392505081905550600060106000836000191660001916815260200190815260200160002060030160003373ffffffffffffffffffffffffffffffffffffffff1673ffffffffffffffffffffffffffffffffffffffff16815260200190815260200160002081905550601160003373ffffffffffffffffffffffffffffffffffffffff1673ffffffffffffffffffffffffffffffffffffffff16815260200190815260200160002060008154809291906001900391905055505b50565b600036604051808383808284378201915050925050506040518091039020614e4c8161629a565b15614ec557600036604051808383808284378201915050925050506040518091039020614e788161621d565b15614ea45782601881905550600960008260001916600019168152602001908152602001600020600090555b50600960008260001916600019168152602001908152602001600020600090555b5050565b601760019054906101000a900473ffffffffffffffffffffffffffffffffffffffff1673ffffffffffffffffffffffffffffffffffffffff166328e69b168234601760019054906101000a900473ffffffffffffffffffffffffffffffffffffffff1673ffffffffffffffffffffffffffffffffffffffff166327e235e3866000604051602001526040518263ffffffff167c0100000000000000000000000000000000000000000000000000000000028152600401808273ffffffffffffffffffffffffffffffffffffffff1673ffffffffffffffffffffffffffffffffffffffff168152602001915050602060405180830381600087803b1515614fce57600080fd5b6102c65a03f11515614fdf57600080fd5b50505060405180519050016040518363ffffffff167c0100000000000000000000000000000000000000000000000000000000028152600401808373ffffffffffffffffffffffffffffffffffffffff1673ffffffffffffffffffffffffffffffffffffffff16815260200182815260200192505050600060405180830381600087803b151561506e57600080fd5b6102c65a03f1151561507f57600080fd5b505050346001600082825401925050819055508073ffffffffffffffffffffffffffffffffffffffff167f1b851e1031ef35a238e6c67d0c7991162390df915f70eaf9098dbf0b175a6198346040518082815260200191505060405180910390a250565b60011515600560003373ffffffffffffffffffffffffffffffffffffffff1673ffffffffffffffffffffffffffffffffffffffff16815260200190815260200160002060009054906101000a900460ff16151514151561514257600080fd5b6000600e5414156151cb576000366040518083838082843782019150509250505060405180910390206043600061517a83838361664e565b156151c7576151888461645f565b60106000846000191660001916815260200190815260200160002060008082016000905560018201600090556004820160009055600582016000905550505b5050505b50565b600660009054906101000a900473ffffffffffffffffffffffffffffffffffffffff1673ffffffffffffffffffffffffffffffffffffffff163373ffffffffffffffffffffffffffffffffffffffff1614156152bc576000366040518083838082843782019150509250505060405180910390206043600161525183838361664e565b156152b85761525e6167e8565b6001602060006101000a81548160ff02191690831515021790555060106000846000191660001916815260200190815260200160002060008082016000905560018201600090556004820160009055600582016000905550505b5050505b565b60008083601760019054906101000a900473ffffffffffffffffffffffffffffffffffffffff1673ffffffffffffffffffffffffffffffffffffffff166327e235e3336000604051602001526040518263ffffffff167c0100000000000000000000000000000000000000000000000000000000028152600401808273ffffffffffffffffffffffffffffffffffffffff1673ffffffffffffffffffffffffffffffffffffffff168152602001915050602060405180830381600087803b151561538757600080fd5b6102c65a03f1151561539857600080fd5b505050604051805190501015156156bc57843b9150601760019054906101000a900473ffffffffffffffffffffffffffffffffffffffff1673ffffffffffffffffffffffffffffffffffffffff1663beabacc83387876040518463ffffffff167c0100000000000000000000000000000000000000000000000000000000028152600401808473ffffffffffffffffffffffffffffffffffffffff1673ffffffffffffffffffffffffffffffffffffffff1681526020018373ffffffffffffffffffffffffffffffffffffffff1673ffffffffffffffffffffffffffffffffffffffff1681526020018281526020019350505050600060405180830381600087803b15156154a557600080fd5b6102c65a03f115156154b657600080fd5b50505060008211156155e9578490508073ffffffffffffffffffffffffffffffffffffffff1663c0ee0b8a3386866040518463ffffffff167c0100000000000000000000000000000000000000000000000000000000028152600401808473ffffffffffffffffffffffffffffffffffffffff1673ffffffffffffffffffffffffffffffffffffffff16815260200183815260200180602001828103825283818151815260200191508051906020019080838360005b8381101561558757808201518184015260208101905061556c565b50505050905090810190601f1680156155b45780820380516001836020036101000a031916815260200191505b50945050505050600060405180830381600087803b15156155d457600080fd5b6102c65a03f115156155e557600080fd5b5050505b8473ffffffffffffffffffffffffffffffffffffffff163373ffffffffffffffffffffffffffffffffffffffff167fe19260aff97b920c7df27010903aeb9c8d2be5d310a2c67824cf3f15396e4c1686866040518083815260200180602001828103825283818151815260200191508051906020019080838360005b83811015615680578082015181840152602081019050615665565b50505050905090810190601f1680156156ad5780820380516001836020036101000a031916815260200191505b50935050505060405180910390a35b5050505050565b6000806000806000600e54141561585d5785406001900473ffffffffffffffffffffffffffffffffffffffff169250601c600087815260200190815260200160002060009054906101000a900473ffffffffffffffffffffffffffffffffffffffff1673ffffffffffffffffffffffffffffffffffffffff1691508473ffffffffffffffffffffffffffffffffffffffff169050818303818403101561585b5784601c600088815260200190815260200160002060006101000a81548173ffffffffffffffffffffffffffffffffffffffff021916908373ffffffffffffffffffffffffffffffffffffffff160217905550857f046be9693b9b4ed56df331431ff8cc6874ab57df1e1332c0984ba4278edef38f86604051808273ffffffffffffffffffffffffffffffffffffffff1673ffffffffffffffffffffffffffffffffffffffff16815260200180602001828103825260078152602001807f636c61696d6564000000000000000000000000000000000000000000000000008152506020019250505060405180910390a26001935061585c565b5b5b50505092915050565b6000601760019054906101000a900473ffffffffffffffffffffffffffffffffffffffff1673ffffffffffffffffffffffffffffffffffffffff166333dd1b8a3386866040518463ffffffff167c0100000000000000000000000000000000000000000000000000000000028152600401808473ffffffffffffffffffffffffffffffffffffffff1673ffffffffffffffffffffffffffffffffffffffff1681526020018373ffffffffffffffffffffffffffffffffffffffff1673ffffffffffffffffffffffffffffffffffffffff1681526020018281526020019350505050600060405180830381600087803b151561596057600080fd5b6102c65a03f1151561597157600080fd5b5050508373ffffffffffffffffffffffffffffffffffffffff163373ffffffffffffffffffffffffffffffffffffffff167f8c5be1e5ebec7d5bd14f71427d1e84f3dd0314c0f7b2291e5b200ac8c7c3b925856040518082815260200191505060405180910390a38373ffffffffffffffffffffffffffffffffffffffff1660405180807f72656365697665417070726f76616c28616464726573732c75696e742c61646481526020017f726573732c627974657329000000000000000000000000000000000000000000815250602b01905060405180910390207c01000000000000000000000000000000000000000000000000000000009004338530866040518563ffffffff167c0100000000000000000000000000000000000000000000000000000000028152600401808573ffffffffffffffffffffffffffffffffffffffff1673ffffffffffffffffffffffffffffffffffffffff1681526020018481526020018373ffffffffffffffffffffffffffffffffffffffff1673ffffffffffffffffffffffffffffffffffffffff168152602001828051906020019080838360005b83811015615b32578082015181840152602081019050615b17565b50505050905090810190601f168015615b5f5780820380516001836020036101000a031916815260200191505b5094505050505060006040518083038160008761646e5a03f1925050501515615b8757600080fd5b600190509392505050565b600c546010600084600019166000191681526020019081526020016000206000015401431015615d8e57600060106000846000191660001916815260200190815260200160002060030160008373ffffffffffffffffffffffffffffffffffffffff1673ffffffffffffffffffffffffffffffffffffffff1681526020019081526020016000205460106000856000191660001916815260200190815260200160002060020160008473ffffffffffffffffffffffffffffffffffffffff1673ffffffffffffffffffffffffffffffffffffffff1681526020019081526020016000205401141515615ccf57601160003373ffffffffffffffffffffffffffffffffffffffff1673ffffffffffffffffffffffffffffffffffffffff16815260200190815260200160002060008154809291906001900391905055505b60106000836000191660001916815260200190815260200160002060020160008273ffffffffffffffffffffffffffffffffffffffff1673ffffffffffffffffffffffffffffffffffffffff1681526020019081526020016000206000905560106000836000191660001916815260200190815260200160002060030160008273ffffffffffffffffffffffffffffffffffffffff1673ffffffffffffffffffffffffffffffffffffffff168152602001908152602001600020600090555b5050565b615d9b33614ec9565b565b600036604051808383808284378201915050925050506040518091039020615dc48161629a565b15615f8c57600036604051808383808284378201915050925050506040518091039020615df08161621d565b15615f6b576000600560008673ffffffffffffffffffffffffffffffffffffffff1673ffffffffffffffffffffffffffffffffffffffff16815260200190815260200160002060006101000a81548160ff0219169083151502179055506001600560008573ffffffffffffffffffffffffffffffffffffffff1673ffffffffffffffffffffffffffffffffffffffff16815260200190815260200160002060006101000a81548160ff0219169083151502179055508373ffffffffffffffffffffffffffffffffffffffff167f3281051f50c80211481c7d83588f2aa4266a9ce1468c910f64c983093176b0d66000604051808215151515815260200191505060405180910390a28273ffffffffffffffffffffffffffffffffffffffff167f3281051f50c80211481c7d83588f2aa4266a9ce1468c910f64c983093176b0d66001604051808215151515815260200191505060405180910390a2600960008260001916600019168152602001908152602001600020600090555b50600960008260001916600019168152602001908152602001600020600090555b505050565b6000601760019054906101000a900473ffffffffffffffffffffffffffffffffffffffff1673ffffffffffffffffffffffffffffffffffffffff16635c65816584846000604051602001526040518363ffffffff167c0100000000000000000000000000000000000000000000000000000000028152600401808373ffffffffffffffffffffffffffffffffffffffff1673ffffffffffffffffffffffffffffffffffffffff1681526020018273ffffffffffffffffffffffffffffffffffffffff1673ffffffffffffffffffffffffffffffffffffffff16815260200192505050602060405180830381600087803b151561608c57600080fd5b6102c65a03f1151561609d57600080fd5b50505060405180519050905092915050565b6000366040518083838082843782019150509250505060405180910390206160d68161629a565b1561614f576000366040518083838082843782019150509250505060405180910390206161028161621d565b1561612e5782601a81905550600960008260001916600019168152602001908152602001600020600090555b50600960008260001916600019168152602001908152602001600020600090555b5050565b601760019054906101000a900473ffffffffffffffffffffffffffffffffffffffff1681565b6000366040518083838082843782019150509250505060405180910390206161a08161629a565b15616219576000366040518083838082843782019150509250505060405180910390206161cc8161621d565b156161f85782601981905550600960008260001916600019168152602001908152602001600020600090555b50600960008260001916600019168152602001908152602001600020600090555b5050565b6000806009600084600019166000191681526020019081526020016000205414156162635743600960008460001916600019168152602001908152602001600020819055505b600a546009600084600019166000191681526020019081526020016000205401431015156162945760019050616295565b5b919050565b600060011515600560003373ffffffffffffffffffffffffffffffffffffffff1673ffffffffffffffffffffffffffffffffffffffff16815260200190815260200160002060009054906101000a900460ff16151514801561636557506000151560076000846000191660001916815260200190815260200160002060003373ffffffffffffffffffffffffffffffffffffffff1673ffffffffffffffffffffffffffffffffffffffff16815260200190815260200160002060009054906101000a900460ff161515145b1561644e576001151560076000846000191660001916815260200190815260200160002060003373ffffffffffffffffffffffffffffffffffffffff1673ffffffffffffffffffffffffffffffffffffffff16815260200190815260200160002060009054906101000a90505050600860008360001916600019168152602001908152602001600020600081548092919060010191905055506004546008600084600019166000191681526020019081526020016000205410151561644d57436009600084600019166000191681526020019081526020016000208190555060019050616453565b5b600090505b919050565b6000919050565b8073ffffffffffffffffffffffffffffffffffffffff1663b7b0422d6001546000604051602001526040518263ffffffff167c010000000000000000000000000000000000000000000000000000000002815260040180828152602001915050602060405180830381600087803b15156164d857600080fd5b6102c65a03f115156164e957600080fd5b505050604051805190501561664457601760019054906101000a900473ffffffffffffffffffffffffffffffffffffffff1673ffffffffffffffffffffffffffffffffffffffff16630900f010826040518263ffffffff167c0100000000000000000000000000000000000000000000000000000000028152600401808273ffffffffffffffffffffffffffffffffffffffff1673ffffffffffffffffffffffffffffffffffffffff168152602001915050600060405180830381600087803b15156165b457600080fd5b6102c65a03f115156165c557600080fd5b5050507f0657c43252e21d6584c7ee97ba6b914710dc0b29771330a92acb3d09d57c5cf381604051808273ffffffffffffffffffffffffffffffffffffffff1673ffffffffffffffffffffffffffffffffffffffff16815260200191505060405180910390a18073ffffffffffffffffffffffffffffffffffffffff16ff5b50565b6000919050565b6000806000601060008760001916600019168152602001908152602001600020600001541415156167125782801561668a5750600b54600d5410155b1561669857600091506167e0565b82156166c357600d60008154809291906001019190505550600e600081548092919060010191905055505b43601060008760001916600019168152602001908152602001600020600001819055508360106000876000191660001916815260200190815260200160002060010181905550600091506167e0565b600c5460106000876000191660001916815260200190815260200160002060000154014311156167df57821561675657600e60008154809291906001900391905055505b6010600086600019166000191681526020019081526020016000206005015460106000876000191660001916815260200190815260200160002060040154019050601060008660001916600019168152602001908152602001600020600101548102601060008760001916600019168152602001908152602001600020600401541191506167e0565b5b509392505050565b600254600481905550565b6020604051908101604052806000815250905600a165627a7a72305820708baf3e114caefcefac60993465b107e4ab7281cde1af580b628f49beb9333c0029",
  "source": "/**\n * Define primary business logic for the Ibis token. The module includes code\n * for handling standard user accounting (deposit/withdraw/transfer), mechanisms\n * for freezing and liquidiating rogue or lost accounts, and contract\n * upgrades. This contract inherits restricted access control and democratic\n * voting from parent contracts.\n */\n\npragma solidity ^0.4.13;\n\nimport \"./ERC20.sol\";\nimport \"./ERC223.sol\";\nimport \"./Restricted.sol\";\nimport \"./Democratic.sol\";\nimport \"./Core.sol\";\n\n/// Implements the Ibis charity currency as an ERC20 token.\ncontract Ibis is ERC20, ERC223, Restricted, Democratic {\n\n    // constant values\n    uint MAX_UINT256 = 2**256-1;                 // maximum unsigned integer value\n    uint constant MAJORITY = 50;                 // majority percentage (voting)\n    uint constant SUPERMAJORITY = 67;            // supermajority percentage (voting)\n    uint constant VOTE_DURATION = 960 * 7;       // # of blocks per voting period\n    uint constant MAX_NUKES = 3;                 // # of nukes available to nuke master\n\n    // human standard token fields\n    string public name = \"Ibis\";\n    string public symbol = \"IBI\";\n    string public version = '1.1';\n    uint8 public decimals = 18;\n\n    // address of core contract core\n    Core public core;\n\n    // address freezing/redistribution\n    uint public awardMax;                      // maximum award that can be claimed in one block\n    uint public frozenMinTime;                 // min time between freezing and redistribution\n    uint public awardMinTime;                  // min time to wait for charities to claim reward\n    mapping(uint => uint) awardValue;          // value of award at a given block\n    mapping(uint => address) awardClosest;     // current winning bid for block award\n    mapping(address => bool) frozenVoted;      // votes cast by previously frozen accounts\n\n    // initial grace period emergency update\n    uint graceInit;\n    uint graceDuration = 960 * 21;\n\n    // if true then system has been nuked\n    bool nuked;\n\n    // business logic events\n    event LogDeposit(address indexed _from, uint _value);\n    event LogWithdraw(address indexed _to, uint _value);\n    event LogChangeCharities(address indexed _charity, bool _isCharity);\n    event LogFreeze(address indexed _account, bool frozen);\n    event LogAward(uint indexed _blocknum, address _addr, string _state);\n    event LogUpgrade(address _addr);\n\n    /// Define restricted ownership, voting parameters, and the Core contract\n    function Ibis(address _core, address [] _owners, uint _ownerThreshold, address nukeMaster) public\n        Restricted(_owners, _ownerThreshold, nukeMaster) Democratic(VOTE_DURATION, MAX_NUKES)\n    {\n\tgraceInit = block.number;\n\tcore = Core(_core);\n    }\n\n    ///-------------------------------- User Account Methods --------------------------------///\n\n    // Return the balance of an address\n    function balanceOf(address _owner) public constant returns (uint) {\n\treturn core.balances(_owner);\n    }\n\n    /// Transfer value from the sending address to a given recipient\n    function transfer(address _to, uint _value) public returns (bool) {\n\tif(core.balances(msg.sender) >= _value) {\n\t    core.transfer(msg.sender, _to, _value);\n\n\t    bytes memory empty;\n\t    Transfer(msg.sender, _to, _value);\n\t    Transfer(msg.sender, _to, _value, empty);\n\t    return true;\n\t}\n    }\n\n    function transfer(address _to, uint _value, bytes _data) public {\n\tif(core.balances(msg.sender) >= _value) {\n\t    // Retrieve the size of the code on target address\n\t    uint codeLength;\n\t    assembly {\n\t    codeLength := extcodesize(_to)\n\t\t    }\n\n\t    core.transfer(msg.sender, _to, _value);\n\t    if(codeLength>0) {\n\t\tERC223ReceivingContract receiver = ERC223ReceivingContract(_to);\n\t\treceiver.tokenFallback(msg.sender, _value, _data);\n\t    }\n\t    Transfer(msg.sender, _to, _value, _data);\n\t}\n    }\n\n    /// Transfer value on behalf of another account if approved by the owner\n    function transferFrom(address _from, address _to, uint _value) public returns (bool) {\n        if(core.balances(_from) >= _value && core.allowed(_from, msg.sender) >= _value) {\n\t    core.transfer(_from, _to, _value);\n\t    core.setAllowed(_from, msg.sender, core.allowed(_from, msg.sender) - _value);\n\t    Transfer(_from, _to, _value);\n\t    return true;\n\t}\n    }\n\n    /// Convert Ether to Ibis coins for the message sender\n    function deposit() public payable {\n\tdepositTo(msg.sender);\n    }\n\n    /// Convert Ether to Ibis coins for an address other than the message sender\n    function depositTo(address _to) public payable {\n        core.setBalances(_to, core.balances(_to) + msg.value);\n\ttotalSupply += msg.value;\n\tLogDeposit(_to, msg.value);\n    }\n\n    /// Convert Ibis coins to Ether for message sender\n    function withdraw(uint _value) public suspendable returns (bool) {\n\treturn withdrawHelper(msg.sender, _value);\n    }\n\n    /// Convert Ibis coins to Ether for someone other than message sender (requires pre-approval)\n    function withdrawFrom(address _from, uint _value) public suspendable returns (bool) {\n\tif(core.allowed(_from, msg.sender) >= _value) {\n\t    return withdrawHelper(_from, _value);\n\t}\n    }\n\n    /// Convert Ibis coins to Ether on behalf of a charity by an Ibis owner address\n    function withdrawOwner(address _from, uint _value) public isOwner suspendable returns (bool) {\n\treturn withdrawHelper(_from, _value);\n    }\n\n    /// Internal logic for public withdraw interfaces\n    function withdrawHelper(address _from, uint _value) public returns (bool) {\n\tif ((core.charityStatus(_from) || nuked) && _value <= core.balances(_from)) {\n\t    core.setBalances(_from, core.balances(_from) - _value);\n\t    totalSupply -= _value;\n\t    _from.transfer(_value);\n\t    LogWithdraw(_from, _value);\n\t    return true;\n\t}\n    }\n\n    /// Approve a third party address to manage funds on behalf of the owner\n    function approve(address _spender, uint _value) public returns (bool) {\n\tcore.setAllowed(msg.sender, _spender, _value);\n\tApproval(msg.sender, _spender, _value);\n\treturn true;\n    }\n\n    /// Return the amount by which a third party is approved to transfer an owner's funds\n    function allowance(address _owner, address _spender) public constant returns (uint) {\n\treturn core.allowed(_owner, _spender);\n    }\n\n    /// Approve a third party to manange funds and callback a predesignated function signature\n    function approveAndCall(address _spender, uint _value, bytes _extraCore) public returns (bool) {\n        core.setAllowed(msg.sender, _spender, _value);\n        Approval(msg.sender, _spender, _value);\n\n        if(!_spender.call(bytes4(keccak256(\"receiveApproval(address,uint,address,bytes)\")),\n\t\t\t  msg.sender, _value, this, _extraCore)) {\n\t    revert();\n\t}\n        return true;\n    }\n\n    /// Approve a new charity\n    function addCharity(address _charity) public isOwner delayed(keccak256(msg.data)) returns (bool) {\n\tif(!core.charityStatus(_charity)) {\n\t    core.setCharityStatus(_charity, true);\n\t    core.setCharityBlocknum(_charity, block.number);\n\t    LogChangeCharities(_charity, true);\n\t    return true;\n\t}\n    }\n\n    /// Remove an existing charity\n    function removeCharity(address _charity) public isOwner delayed(keccak256(msg.data)) returns (bool) {\n\tif(core.charityStatus(_charity)) {\n\t    core.setCharityStatus(_charity, false);\n\t    core.setCharityBlocknum(_charity, 0);\n\t    LogChangeCharities(_charity, false);\n\t    return true;\n\t}\n    }\n\n    ///---------------------------------- Freeze Methods ------------------------------------///\n\n    /// Suspend accounts by moving the existing balance into a frozen funds table\n    function freezeAccounts(address[] _accounts) public isOwner suspendable {\n\tuint blocknum = block.number;\n\tfor(uint i = 0; i < _accounts.length; i++) {\n\t    uint balance = core.balances(_accounts[i]);\n\t    core.setBalances(_accounts[i], 0);\n\t    core.setFrozenValue(_accounts[i], balance);\n\t    core.setFrozenBlocknum(_accounts[i], blocknum);\n\t    LogFreeze(_accounts[i], true);\n\t}\n    }\n\n    /// Reinstantiate frozen accounts\n    function unfreezeAccounts(address[] _accounts) public isOwner delayed(keccak256(msg.data))\n\tsuspendable {\n\tfor(uint i = 0; i < _accounts.length; i++) {\n\t    uint frozen = core.frozenValue(_accounts[i]);\n\t    core.setFrozenValue(_accounts[i], 0);\n\t    core.setFrozenBlocknum(_accounts[i], 0);\n\t    core.setBalances(_accounts[i], frozen);\n\t    LogFreeze(_accounts[i], false);\n\t}\n    }\n\n    /// Liquidate frozen accounts and offer funds as reward for a randomly selected charity\n    function awardExcess(address[] _accounts) public multiowner(keccak256(msg.data))\n\tdelayed(keccak256(msg.data)) votable(keccak256(msg.data), MAJORITY, false) {\n\n\tuint frozenAward;\n\n\tfor(uint i = 0; i < _accounts.length; i++) {\n\t    if(core.frozenBlocknum(_accounts[i]) + frozenMinTime < block.number) {\n\t\tcontinue;\n\t    }\n\t    uint frozen = core.frozenValue(_accounts[i]);\n\t    if(frozenAward + frozen <= awardMax) {\n\t\tcore.setFrozenValue(_accounts[i], 0);\n\t\tfrozenAward += frozen;\n\t    }\n\t    else {\n\t\tcore.setFrozenValue(_accounts[i], frozen - (awardMax - frozenAward));\n\t\tfrozenAward = awardMax;\n\t\tbreak;\n\t    }\n\t}\n\tawardValue[block.number] = frozenAward;\n\tawardClosest[block.number] = address(MAX_UINT256);\n\tLogAward(block.number, address(MAX_UINT256), \"initialized\");\n    }\n\n    /// Claim that a charity is the closest to the random target for a given award\n    function claimAward(uint _blocknum, address _charity) public suspendable returns (bool) {\n\n\tuint target = uint(address(block.blockhash(_blocknum)));\n\tuint closest = uint(awardClosest[_blocknum]);\n\tuint challenge = uint(_charity);\n\n\tif(target - challenge < target - closest) {\n\t    awardClosest[_blocknum] = _charity;\n\t    LogAward(_blocknum, _charity, \"claimed\");\n\t    return true;\n\t}\n    }\n\n    /// Move funds into the balance of a winning charity after enough time has passed\n    function cashAward(uint _blocknum, address _charity) public suspendable returns (bool) {\n\tif(_blocknum <= block.number - awardMinTime && awardClosest[_blocknum] == _charity) {\n\t    uint award = awardValue[_blocknum];\n\t    delete awardValue[_blocknum];\n\t    delete awardClosest[_blocknum];\n\t    core.setBalances(_charity, core.balances(_charity) + award);\n\t    LogAward(_blocknum, _charity, \"awarded\");\n\t    return true;\n\t}\n    }\n\n    /// Set the minimum time for an account to be frozen before distribution (block height)\n    function setFrozenMinTime(uint _frozenMinTime) public multiowner(keccak256(msg.data))\n\tdelayed(keccak256(msg.data)) {\n\tfrozenMinTime = _frozenMinTime;\n    }\n\n    /// Set the window of time that charities can claim to be the closest to an award\n    function setAwardMinTime(uint _awardMinTime) public multiowner(keccak256(msg.data))\n\tdelayed(keccak256(msg.data)) {\n\tawardMinTime = _awardMinTime;\n    }\n\n    /// Set the maximum amount of funds that can be placed on a single block\n    function setAwardMax(uint _awardMax) public multiowner(keccak256(msg.data))\n\tdelayed(keccak256(msg.data)) {\n\tawardMax = _awardMax;\n    }\n\n    ///---------------------------------- Upgrade Methods -----------------------------------///\n\n    /// Standard path to propose a new controlling contract\n    function upgradeStandard(address _addr) public multiowner(keccak256(msg.data)) suspendable\n\tvotable(keccak256(msg.data), MAJORITY, false) {\n\tupgrade(_addr);\n    }\n\n    /// Emergency path to upgrade contracts if majority owner keys have been compromised\n    function upgradeInitEmergency(address _addr) public isOwner suspendable\n\tvotable(keccak256(msg.data), SUPERMAJORITY, false) {\n\n\tupgrade(_addr);\n    }\n\n    /// Emergency path to upgrade if something has gone wrong within the grace period\n    function upgradeInitial(address _addr) public isOwner() {\n\tif(graceInit + graceDuration < block.number) {\n\t    upgrade(_addr);\n\t}\n    }\n\n    /// Perform actual upgrade\n    function upgrade(address _addr) internal {\n\tif(IbisNew(_addr).init(totalSupply)) {\n\t    core.upgrade(_addr);\n\t    LogUpgrade(_addr);\n\t    selfdestruct(_addr);\n\t}\n    }\n\n    ///---------------------------------- Nuke Methods -----------------------------------///\n\n    /// Supermajority vote to nuke the contract logic and allow free ether withdrawal\n    function nuke() isMaster votable(keccak256(msg.data), SUPERMAJORITY, true) public {\n\tRestrictedDestruct();\n\tnuked = true;\n    }\n}\n\n/// Abstract contract placeholder to facilitate a future transition to the next version of Ibis\ncontract IbisNew {\n    /// This method will be implemented in the future contract version to process legacy data\n    function init(uint totalSupply) public returns (bool);\n}\n\ncontract ERC223ReceivingContract {\n    function tokenFallback(address _from, uint _value, bytes _data) public;\n}\n",
  "sourcePath": "/home/thien-nam/Code/Ibis/src/contracts/Ibis.sol",
  "compiler": {
    "name": "solc",
    "version": "0.4.18+commit.9cf6e910.Emscripten.clang"
  },
  "schemaVersion": "1.0.1",
  "updatedAt": "2018-01-02T08:08:25.579Z"
}