{
  "contractName": "Ibis",
  "abi": [
    {
      "constant": true,
      "inputs": [
        {
          "name": "",
          "type": "address"
        }
      ],
      "name": "owners",
      "outputs": [
        {
          "name": "",
          "type": "bool"
        }
      ],
      "payable": false,
      "stateMutability": "view",
      "type": "function"
    },
    {
      "constant": true,
      "inputs": [],
      "name": "activeSuspensions",
      "outputs": [
        {
          "name": "",
          "type": "uint256"
        }
      ],
      "payable": false,
      "stateMutability": "view",
      "type": "function"
    },
    {
      "constant": true,
      "inputs": [],
      "name": "name",
      "outputs": [
        {
          "name": "",
          "type": "string"
        }
      ],
      "payable": false,
      "stateMutability": "view",
      "type": "function"
    },
    {
      "constant": false,
      "inputs": [
        {
          "name": "_spender",
          "type": "address"
        },
        {
          "name": "_value",
          "type": "uint256"
        }
      ],
      "name": "approve",
      "outputs": [
        {
          "name": "",
          "type": "bool"
        }
      ],
      "payable": false,
      "stateMutability": "nonpayable",
      "type": "function"
    },
    {
      "constant": false,
      "inputs": [
        {
          "name": "_from",
          "type": "address"
        },
        {
          "name": "_value",
          "type": "uint256"
        }
      ],
      "name": "withdrawHelper",
      "outputs": [
        {
          "name": "",
          "type": "bool"
        }
      ],
      "payable": false,
      "stateMutability": "nonpayable",
      "type": "function"
    },
    {
      "constant": true,
      "inputs": [],
      "name": "frozenMinTime",
      "outputs": [
        {
          "name": "",
          "type": "uint256"
        }
      ],
      "payable": false,
      "stateMutability": "view",
      "type": "function"
    },
    {
      "constant": false,
      "inputs": [
        {
          "name": "_accounts",
          "type": "address[]"
        }
      ],
      "name": "unfreezeAccounts",
      "outputs": [],
      "payable": false,
      "stateMutability": "nonpayable",
      "type": "function"
    },
    {
      "constant": false,
      "inputs": [
        {
          "name": "_owner",
          "type": "address"
        }
      ],
      "name": "removeOwner",
      "outputs": [],
      "payable": false,
      "stateMutability": "nonpayable",
      "type": "function"
    },
    {
      "constant": true,
      "inputs": [],
      "name": "totalSupply",
      "outputs": [
        {
          "name": "",
          "type": "uint256"
        }
      ],
      "payable": false,
      "stateMutability": "view",
      "type": "function"
    },
    {
      "constant": true,
      "inputs": [],
      "name": "awardMax",
      "outputs": [
        {
          "name": "",
          "type": "uint256"
        }
      ],
      "payable": false,
      "stateMutability": "view",
      "type": "function"
    },
    {
      "constant": false,
      "inputs": [
        {
          "name": "_from",
          "type": "address"
        },
        {
          "name": "_to",
          "type": "address"
        },
        {
          "name": "_value",
          "type": "uint256"
        }
      ],
      "name": "transferFrom",
      "outputs": [
        {
          "name": "",
          "type": "bool"
        }
      ],
      "payable": false,
      "stateMutability": "nonpayable",
      "type": "function"
    },
    {
      "constant": false,
      "inputs": [
        {
          "name": "_time",
          "type": "uint256"
        },
        {
          "name": "_charity",
          "type": "address"
        }
      ],
      "name": "cashAward",
      "outputs": [
        {
          "name": "",
          "type": "bool"
        }
      ],
      "payable": false,
      "stateMutability": "nonpayable",
      "type": "function"
    },
    {
      "constant": false,
      "inputs": [
        {
          "name": "_addr",
          "type": "address"
        }
      ],
      "name": "upgradeInitial",
      "outputs": [],
      "payable": false,
      "stateMutability": "nonpayable",
      "type": "function"
    },
    {
      "constant": false,
      "inputs": [
        {
          "name": "_value",
          "type": "uint256"
        }
      ],
      "name": "withdraw",
      "outputs": [
        {
          "name": "",
          "type": "bool"
        }
      ],
      "payable": false,
      "stateMutability": "nonpayable",
      "type": "function"
    },
    {
      "constant": true,
      "inputs": [],
      "name": "decimals",
      "outputs": [
        {
          "name": "",
          "type": "uint8"
        }
      ],
      "payable": false,
      "stateMutability": "view",
      "type": "function"
    },
    {
      "constant": false,
      "inputs": [
        {
          "name": "_accounts",
          "type": "address[]"
        }
      ],
      "name": "awardExcess",
      "outputs": [],
      "payable": false,
      "stateMutability": "nonpayable",
      "type": "function"
    },
    {
      "constant": true,
      "inputs": [
        {
          "name": "",
          "type": "address"
        }
      ],
      "name": "numParticipating",
      "outputs": [
        {
          "name": "",
          "type": "uint256"
        }
      ],
      "payable": false,
      "stateMutability": "view",
      "type": "function"
    },
    {
      "constant": false,
      "inputs": [
        {
          "name": "_addr",
          "type": "address"
        }
      ],
      "name": "unregisterFor",
      "outputs": [],
      "payable": false,
      "stateMutability": "nonpayable",
      "type": "function"
    },
    {
      "constant": true,
      "inputs": [],
      "name": "usedSuspensions",
      "outputs": [
        {
          "name": "",
          "type": "uint256"
        }
      ],
      "payable": false,
      "stateMutability": "view",
      "type": "function"
    },
    {
      "constant": false,
      "inputs": [
        {
          "name": "_delayDuration",
          "type": "uint256"
        }
      ],
      "name": "changeDelay",
      "outputs": [],
      "payable": false,
      "stateMutability": "nonpayable",
      "type": "function"
    },
    {
      "constant": true,
      "inputs": [],
      "name": "version",
      "outputs": [
        {
          "name": "",
          "type": "string"
        }
      ],
      "payable": false,
      "stateMutability": "view",
      "type": "function"
    },
    {
      "constant": true,
      "inputs": [],
      "name": "voteDuration",
      "outputs": [
        {
          "name": "",
          "type": "uint256"
        }
      ],
      "payable": false,
      "stateMutability": "view",
      "type": "function"
    },
    {
      "constant": false,
      "inputs": [],
      "name": "removeSelf",
      "outputs": [],
      "payable": false,
      "stateMutability": "nonpayable",
      "type": "function"
    },
    {
      "constant": false,
      "inputs": [
        {
          "name": "_operation",
          "type": "bytes32"
        }
      ],
      "name": "ownerRevoke",
      "outputs": [],
      "payable": false,
      "stateMutability": "nonpayable",
      "type": "function"
    },
    {
      "constant": true,
      "inputs": [],
      "name": "awardMinTime",
      "outputs": [
        {
          "name": "",
          "type": "uint256"
        }
      ],
      "payable": false,
      "stateMutability": "view",
      "type": "function"
    },
    {
      "constant": false,
      "inputs": [
        {
          "name": "_threshold",
          "type": "uint256"
        }
      ],
      "name": "changeThreshold",
      "outputs": [],
      "payable": false,
      "stateMutability": "nonpayable",
      "type": "function"
    },
    {
      "constant": false,
      "inputs": [
        {
          "name": "_owner",
          "type": "address"
        }
      ],
      "name": "addOwner",
      "outputs": [],
      "payable": false,
      "stateMutability": "nonpayable",
      "type": "function"
    },
    {
      "constant": true,
      "inputs": [
        {
          "name": "_owner",
          "type": "address"
        }
      ],
      "name": "balanceOf",
      "outputs": [
        {
          "name": "",
          "type": "uint256"
        }
      ],
      "payable": false,
      "stateMutability": "view",
      "type": "function"
    },
    {
      "constant": false,
      "inputs": [
        {
          "name": "_charity",
          "type": "address"
        }
      ],
      "name": "addCharity",
      "outputs": [
        {
          "name": "",
          "type": "bool"
        }
      ],
      "payable": false,
      "stateMutability": "nonpayable",
      "type": "function"
    },
    {
      "constant": true,
      "inputs": [],
      "name": "numOwners",
      "outputs": [
        {
          "name": "",
          "type": "uint256"
        }
      ],
      "payable": false,
      "stateMutability": "view",
      "type": "function"
    },
    {
      "constant": true,
      "inputs": [],
      "name": "maxSuspensions",
      "outputs": [
        {
          "name": "",
          "type": "uint256"
        }
      ],
      "payable": false,
      "stateMutability": "view",
      "type": "function"
    },
    {
      "constant": false,
      "inputs": [
        {
          "name": "_from",
          "type": "address"
        },
        {
          "name": "_value",
          "type": "uint256"
        }
      ],
      "name": "withdrawFrom",
      "outputs": [
        {
          "name": "",
          "type": "bool"
        }
      ],
      "payable": false,
      "stateMutability": "nonpayable",
      "type": "function"
    },
    {
      "constant": true,
      "inputs": [],
      "name": "symbol",
      "outputs": [
        {
          "name": "",
          "type": "string"
        }
      ],
      "payable": false,
      "stateMutability": "view",
      "type": "function"
    },
    {
      "constant": false,
      "inputs": [
        {
          "name": "_operation",
          "type": "bytes32"
        }
      ],
      "name": "killDelayed",
      "outputs": [],
      "payable": false,
      "stateMutability": "nonpayable",
      "type": "function"
    },
    {
      "constant": false,
      "inputs": [
        {
          "name": "_addr",
          "type": "address"
        }
      ],
      "name": "upgradeStandard",
      "outputs": [],
      "payable": false,
      "stateMutability": "nonpayable",
      "type": "function"
    },
    {
      "constant": false,
      "inputs": [
        {
          "name": "_operation",
          "type": "bytes32"
        },
        {
          "name": "_supporting",
          "type": "bool"
        }
      ],
      "name": "vote",
      "outputs": [],
      "payable": false,
      "stateMutability": "nonpayable",
      "type": "function"
    },
    {
      "constant": true,
      "inputs": [
        {
          "name": "",
          "type": "address"
        }
      ],
      "name": "votingStake",
      "outputs": [
        {
          "name": "",
          "type": "uint256"
        }
      ],
      "payable": false,
      "stateMutability": "view",
      "type": "function"
    },
    {
      "constant": false,
      "inputs": [
        {
          "name": "_from",
          "type": "address"
        },
        {
          "name": "_value",
          "type": "uint256"
        }
      ],
      "name": "withdrawOwner",
      "outputs": [
        {
          "name": "",
          "type": "bool"
        }
      ],
      "payable": false,
      "stateMutability": "nonpayable",
      "type": "function"
    },
    {
      "constant": false,
      "inputs": [
        {
          "name": "_to",
          "type": "address"
        },
        {
          "name": "_value",
          "type": "uint256"
        }
      ],
      "name": "transfer",
      "outputs": [
        {
          "name": "",
          "type": "bool"
        }
      ],
      "payable": false,
      "stateMutability": "nonpayable",
      "type": "function"
    },
    {
      "constant": false,
      "inputs": [
        {
          "name": "_accounts",
          "type": "address[]"
        }
      ],
      "name": "freezeAccounts",
      "outputs": [],
      "payable": false,
      "stateMutability": "nonpayable",
      "type": "function"
    },
    {
      "constant": false,
      "inputs": [
        {
          "name": "_charity",
          "type": "address"
        }
      ],
      "name": "removeCharity",
      "outputs": [
        {
          "name": "",
          "type": "bool"
        }
      ],
      "payable": false,
      "stateMutability": "nonpayable",
      "type": "function"
    },
    {
      "constant": true,
      "inputs": [
        {
          "name": "",
          "type": "bytes32"
        }
      ],
      "name": "issues",
      "outputs": [
        {
          "name": "initTime",
          "type": "uint256"
        },
        {
          "name": "threshold",
          "type": "uint256"
        },
        {
          "name": "supportingTotal",
          "type": "uint256"
        },
        {
          "name": "dissentingTotal",
          "type": "uint256"
        }
      ],
      "payable": false,
      "stateMutability": "view",
      "type": "function"
    },
    {
      "constant": false,
      "inputs": [
        {
          "name": "_operation",
          "type": "bytes32"
        }
      ],
      "name": "unvote",
      "outputs": [],
      "payable": false,
      "stateMutability": "nonpayable",
      "type": "function"
    },
    {
      "constant": false,
      "inputs": [
        {
          "name": "_awardMax",
          "type": "uint256"
        }
      ],
      "name": "setAwardMax",
      "outputs": [],
      "payable": false,
      "stateMutability": "nonpayable",
      "type": "function"
    },
    {
      "constant": true,
      "inputs": [],
      "name": "delayDuration",
      "outputs": [
        {
          "name": "",
          "type": "uint256"
        }
      ],
      "payable": false,
      "stateMutability": "view",
      "type": "function"
    },
    {
      "constant": false,
      "inputs": [
        {
          "name": "_addr",
          "type": "address"
        }
      ],
      "name": "upgradeEmergency",
      "outputs": [],
      "payable": false,
      "stateMutability": "nonpayable",
      "type": "function"
    },
    {
      "constant": false,
      "inputs": [
        {
          "name": "_to",
          "type": "address"
        }
      ],
      "name": "depositTo",
      "outputs": [],
      "payable": true,
      "stateMutability": "payable",
      "type": "function"
    },
    {
      "constant": false,
      "inputs": [],
      "name": "nuke",
      "outputs": [],
      "payable": false,
      "stateMutability": "nonpayable",
      "type": "function"
    },
    {
      "constant": false,
      "inputs": [
        {
          "name": "_to",
          "type": "address"
        },
        {
          "name": "_value",
          "type": "uint256"
        },
        {
          "name": "_data",
          "type": "bytes"
        }
      ],
      "name": "transfer",
      "outputs": [],
      "payable": false,
      "stateMutability": "nonpayable",
      "type": "function"
    },
    {
      "constant": false,
      "inputs": [
        {
          "name": "_time",
          "type": "uint256"
        },
        {
          "name": "_charity",
          "type": "address"
        }
      ],
      "name": "claimAward",
      "outputs": [
        {
          "name": "",
          "type": "bool"
        }
      ],
      "payable": false,
      "stateMutability": "nonpayable",
      "type": "function"
    },
    {
      "constant": false,
      "inputs": [
        {
          "name": "_spender",
          "type": "address"
        },
        {
          "name": "_value",
          "type": "uint256"
        },
        {
          "name": "_extraCore",
          "type": "bytes"
        }
      ],
      "name": "approveAndCall",
      "outputs": [
        {
          "name": "",
          "type": "bool"
        }
      ],
      "payable": false,
      "stateMutability": "nonpayable",
      "type": "function"
    },
    {
      "constant": false,
      "inputs": [
        {
          "name": "_operation",
          "type": "bytes32"
        },
        {
          "name": "_addr",
          "type": "address"
        }
      ],
      "name": "clearVote",
      "outputs": [],
      "payable": false,
      "stateMutability": "nonpayable",
      "type": "function"
    },
    {
      "constant": false,
      "inputs": [],
      "name": "deposit",
      "outputs": [],
      "payable": true,
      "stateMutability": "payable",
      "type": "function"
    },
    {
      "constant": false,
      "inputs": [
        {
          "name": "_old",
          "type": "address"
        },
        {
          "name": "_new",
          "type": "address"
        }
      ],
      "name": "switchOwner",
      "outputs": [],
      "payable": false,
      "stateMutability": "nonpayable",
      "type": "function"
    },
    {
      "constant": true,
      "inputs": [
        {
          "name": "_owner",
          "type": "address"
        },
        {
          "name": "_spender",
          "type": "address"
        }
      ],
      "name": "allowance",
      "outputs": [
        {
          "name": "",
          "type": "uint256"
        }
      ],
      "payable": false,
      "stateMutability": "view",
      "type": "function"
    },
    {
      "constant": false,
      "inputs": [],
      "name": "unregister",
      "outputs": [],
      "payable": false,
      "stateMutability": "nonpayable",
      "type": "function"
    },
    {
      "constant": false,
      "inputs": [
        {
          "name": "_awardMinTime",
          "type": "uint256"
        }
      ],
      "name": "setAwardMinTime",
      "outputs": [],
      "payable": false,
      "stateMutability": "nonpayable",
      "type": "function"
    },
    {
      "constant": false,
      "inputs": [
        {
          "name": "_votes",
          "type": "uint256"
        }
      ],
      "name": "register",
      "outputs": [],
      "payable": false,
      "stateMutability": "nonpayable",
      "type": "function"
    },
    {
      "constant": true,
      "inputs": [],
      "name": "core",
      "outputs": [
        {
          "name": "",
          "type": "address"
        }
      ],
      "payable": false,
      "stateMutability": "view",
      "type": "function"
    },
    {
      "constant": false,
      "inputs": [
        {
          "name": "_frozenMinTime",
          "type": "uint256"
        }
      ],
      "name": "setFrozenMinTime",
      "outputs": [],
      "payable": false,
      "stateMutability": "nonpayable",
      "type": "function"
    },
    {
      "inputs": [
        {
          "name": "_core",
          "type": "address"
        },
        {
          "name": "_owners",
          "type": "address[]"
        },
        {
          "name": "_ownerThreshold",
          "type": "uint256"
        },
        {
          "name": "nukeMaster",
          "type": "address"
        }
      ],
      "payable": false,
      "stateMutability": "nonpayable",
      "type": "constructor"
    },
    {
      "anonymous": false,
      "inputs": [
        {
          "indexed": true,
          "name": "_from",
          "type": "address"
        },
        {
          "indexed": false,
          "name": "_value",
          "type": "uint256"
        }
      ],
      "name": "LogDeposit",
      "type": "event"
    },
    {
      "anonymous": false,
      "inputs": [
        {
          "indexed": true,
          "name": "_to",
          "type": "address"
        },
        {
          "indexed": false,
          "name": "_value",
          "type": "uint256"
        }
      ],
      "name": "LogWithdraw",
      "type": "event"
    },
    {
      "anonymous": false,
      "inputs": [
        {
          "indexed": true,
          "name": "_charity",
          "type": "address"
        },
        {
          "indexed": false,
          "name": "_isCharity",
          "type": "bool"
        }
      ],
      "name": "LogChangeCharities",
      "type": "event"
    },
    {
      "anonymous": false,
      "inputs": [
        {
          "indexed": true,
          "name": "_account",
          "type": "address"
        },
        {
          "indexed": false,
          "name": "frozen",
          "type": "bool"
        }
      ],
      "name": "LogFreeze",
      "type": "event"
    },
    {
      "anonymous": false,
      "inputs": [
        {
          "indexed": true,
          "name": "_time",
          "type": "uint256"
        },
        {
          "indexed": false,
          "name": "_addr",
          "type": "address"
        },
        {
          "indexed": false,
          "name": "_state",
          "type": "string"
        }
      ],
      "name": "LogAward",
      "type": "event"
    },
    {
      "anonymous": false,
      "inputs": [
        {
          "indexed": false,
          "name": "_addr",
          "type": "address"
        }
      ],
      "name": "LogUpgrade",
      "type": "event"
    },
    {
      "anonymous": false,
      "inputs": [
        {
          "indexed": true,
          "name": "_addr",
          "type": "address"
        },
        {
          "indexed": false,
          "name": "isOwner",
          "type": "bool"
        }
      ],
      "name": "LogOwnerChange",
      "type": "event"
    },
    {
      "anonymous": false,
      "inputs": [
        {
          "indexed": false,
          "name": "thresh",
          "type": "uint256"
        }
      ],
      "name": "LogChangeThreshold",
      "type": "event"
    },
    {
      "anonymous": false,
      "inputs": [
        {
          "indexed": false,
          "name": "thresh",
          "type": "uint256"
        }
      ],
      "name": "LogChangeDelay",
      "type": "event"
    },
    {
      "anonymous": false,
      "inputs": [],
      "name": "LogNuke",
      "type": "event"
    },
    {
      "anonymous": false,
      "inputs": [
        {
          "indexed": true,
          "name": "from",
          "type": "address"
        },
        {
          "indexed": true,
          "name": "to",
          "type": "address"
        },
        {
          "indexed": false,
          "name": "value",
          "type": "uint256"
        },
        {
          "indexed": false,
          "name": "data",
          "type": "bytes"
        }
      ],
      "name": "Transfer",
      "type": "event"
    },
    {
      "anonymous": false,
      "inputs": [
        {
          "indexed": true,
          "name": "_from",
          "type": "address"
        },
        {
          "indexed": true,
          "name": "_to",
          "type": "address"
        },
        {
          "indexed": false,
          "name": "_value",
          "type": "uint256"
        }
      ],
      "name": "Transfer",
      "type": "event"
    },
    {
      "anonymous": false,
      "inputs": [
        {
          "indexed": true,
          "name": "_owner",
          "type": "address"
        },
        {
          "indexed": true,
          "name": "_spender",
          "type": "address"
        },
        {
          "indexed": false,
          "name": "_value",
          "type": "uint256"
        }
      ],
      "name": "Approval",
      "type": "event"
    }
  ],
  "bytecode": "0x60606040527fffffffffffffffffffffffffffffffffffffffffffffffffffffffffffffffff6002556103e8600a557fffffffffffffffffffffffffffffffffffffffffffffffffffffffffffffffff6013556040805190810160405280600481526020017f4962697300000000000000000000000000000000000000000000000000000000815250601490805190602001906200009f929190620003a1565b506040805190810160405280600381526020017f494249000000000000000000000000000000000000000000000000000000000081525060159080519060200190620000ed929190620003a1565b506040805190810160405280600381526020017f312e310000000000000000000000000000000000000000000000000000000000815250601690805190602001906200013b929190620003a1565b506012601760006101000a81548160ff021916908360ff160217905550614ec060205534156200016a57600080fd5b604051620076b1380380620076b1833981016040528080519060200190919080518201919060200180519060200190919080519060200190919050506103e860038484846000826003819055507f3dafdf04a2a91e1f13fb84664194bba4aef5c95d086769d9e38c574e33c8fedf6003546040518082815260200191505060405180910390a181600560006101000a81548173ffffffffffffffffffffffffffffffffffffffff021916908373ffffffffffffffffffffffffffffffffffffffff160217905550600090505b83518110156200033b5760016004600086848151811015156200025557fe5b9060200190602002015173ffffffffffffffffffffffffffffffffffffffff1673ffffffffffffffffffffffffffffffffffffffff16815260200190815260200160002060006101000a81548160ff0219169083151502179055506009600081548092919060010191905055508381815181101515620002d157fe5b9060200190602002015173ffffffffffffffffffffffffffffffffffffffff167f3281051f50c80211481c7d83588f2aa4266a9ce1468c910f64c983093176b0d66001604051808215151515815260200191505060405180910390a2808060010191505062000236565b5050505081600c8190555080600b81905550505042601f8190555083601760016101000a81548173ffffffffffffffffffffffffffffffffffffffff021916908373ffffffffffffffffffffffffffffffffffffffff1602179055505050505062000450565b828054600181600116156101000203166002900490600052602060002090601f016020900481019282601f10620003e457805160ff191683800117855562000415565b8280016001018555821562000415579182015b8281111562000414578251825591602001919060010190620003f7565b5b50905062000424919062000428565b5090565b6200044d91905b80821115620004495760008160009055506001016200042f565b5090565b90565b61725180620004606000396000f3006060604052600436106102ca576000357c0100000000000000000000000000000000000000000000000000000000900463ffffffff168063022914a7146102cf578063039f69081461032057806306fdde0314610349578063095ea7b3146103d75780630e9540991461043157806311de36751461048b578063170e2070146104b4578063173825d91461050e57806318160ddd146105475780631b0f5d001461057057806323b872dd146105995780632927cda3146106125780632c2f54fd1461066c5780632e1a7d4d146106a5578063313ce567146106e057806335d9ffef1461070f578063422e1245146107695780634d2e54a8146107b65780634f3c9e30146107ef5780635037ec621461081857806354fd4d501461083b57806356364499146108c95780635e898dac146108f25780635f6171e614610907578063655c82a51461092e578063694e80c3146109575780637065cb481461097a57806370a08231146109b357806378b14f0a14610a0057806387ab18e114610a515780638deae71c14610a7a5780639470b0bd14610aa357806395d89b4114610afd57806399629da514610b8b5780639a46455014610bb25780639f2ce67814610beb5780639f45b13314610c1d578063a388541314610c6a578063a9059cbb14610cc4578063aad1202914610d1e578063abefe59114610d78578063ad52652a14610dc9578063b1f6a4bf14610e19578063b53eda3214610e40578063b5984a3614610e63578063b607d32214610e8c578063b760faf914610ec5578063bc8fbbf814610ef3578063be45fd6214610f08578063c26f96cf14610f8d578063cae9ca5114610fe7578063d090884214611084578063d0e30db0146110ca578063dd1ae3b0146110d4578063dd62ed3e1461112c578063e79a198f14611198578063e7fa61b7146111ad578063f207564e146111d0578063f2f4eb26146111f3578063feb992c514611248575b600080fd5b34156102da57600080fd5b610306600480803573ffffffffffffffffffffffffffffffffffffffff1690602001909190505061126b565b604051808215151515815260200191505060405180910390f35b341561032b57600080fd5b61033361128b565b6040518082815260200191505060405180910390f35b341561035457600080fd5b61035c611291565b6040518080602001828103825283818151815260200191508051906020019080838360005b8381101561039c578082015181840152602081019050610381565b50505050905090810190601f1680156103c95780820380516001836020036101000a031916815260200191505b509250505060405180910390f35b34156103e257600080fd5b610417600480803573ffffffffffffffffffffffffffffffffffffffff1690602001909190803590602001909190505061132f565b604051808215151515815260200191505060405180910390f35b341561043c57600080fd5b610471600480803573ffffffffffffffffffffffffffffffffffffffff169060200190919080359060200190919050506114ac565b604051808215151515815260200191505060405180910390f35b341561049657600080fd5b61049e6118fc565b6040518082815260200191505060405180910390f35b34156104bf57600080fd5b61050c600480803590602001908201803590602001908080602002602001604051908101604052809392919081815260200183836020028082843782019150505050505091905050611902565b005b341561051957600080fd5b610545600480803573ffffffffffffffffffffffffffffffffffffffff16906020019091905050611e11565b005b341561055257600080fd5b61055a611f21565b6040518082815260200191505060405180910390f35b341561057b57600080fd5b610583611f27565b6040518082815260200191505060405180910390f35b34156105a457600080fd5b6105f8600480803573ffffffffffffffffffffffffffffffffffffffff1690602001909190803573ffffffffffffffffffffffffffffffffffffffff16906020019091908035906020019091905050611f2d565b604051808215151515815260200191505060405180910390f35b341561061d57600080fd5b610652600480803590602001909190803573ffffffffffffffffffffffffffffffffffffffff169060200190919050506124d9565b604051808215151515815260200191505060405180910390f35b341561067757600080fd5b6106a3600480803573ffffffffffffffffffffffffffffffffffffffff1690602001909190505061282e565b005b34156106b057600080fd5b6106c660048080359060200190919050506128a8565b604051808215151515815260200191505060405180910390f35b34156106eb57600080fd5b6106f36128c6565b604051808260ff1660ff16815260200191505060405180910390f35b341561071a57600080fd5b6107676004808035906020019082018035906020019080806020026020016040519081016040528093929190818152602001838360200280828437820191505050505050919050506128d9565b005b341561077457600080fd5b6107a0600480803573ffffffffffffffffffffffffffffffffffffffff16906020019091905050612f38565b6040518082815260200191505060405180910390f35b34156107c157600080fd5b6107ed600480803573ffffffffffffffffffffffffffffffffffffffff16906020019091905050612f50565b005b34156107fa57600080fd5b610802612ff7565b6040518082815260200191505060405180910390f35b341561082357600080fd5b6108396004808035906020019091905050612ffd565b005b341561084657600080fd5b61084e6130de565b6040518080602001828103825283818151815260200191508051906020019080838360005b8381101561088e578082015181840152602081019050610873565b50505050905090810190601f1680156108bb5780820380516001836020036101000a031916815260200191505b509250505060405180910390f35b34156108d457600080fd5b6108dc61317c565b6040518082815260200191505060405180910390f35b34156108fd57600080fd5b610905613182565b005b341561091257600080fd5b61092c60048080356000191690602001909190505061328e565b005b341561093957600080fd5b6109416133a5565b6040518082815260200191505060405180910390f35b341561096257600080fd5b61097860048080359060200190919050506133ab565b005b341561098557600080fd5b6109b1600480803573ffffffffffffffffffffffffffffffffffffffff1690602001909190505061348c565b005b34156109be57600080fd5b6109ea600480803573ffffffffffffffffffffffffffffffffffffffff16906020019091905050613644565b6040518082815260200191505060405180910390f35b3415610a0b57600080fd5b610a37600480803573ffffffffffffffffffffffffffffffffffffffff1690602001909190505061372d565b604051808215151515815260200191505060405180910390f35b3415610a5c57600080fd5b610a64613ada565b6040518082815260200191505060405180910390f35b3415610a8557600080fd5b610a8d613ae0565b6040518082815260200191505060405180910390f35b3415610aae57600080fd5b610ae3600480803573ffffffffffffffffffffffffffffffffffffffff16906020019091908035906020019091905050613ae6565b604051808215151515815260200191505060405180910390f35b3415610b0857600080fd5b610b10613c27565b6040518080602001828103825283818151815260200191508051906020019080838360005b83811015610b50578082015181840152602081019050610b35565b50505050905090810190601f168015610b7d5780820380516001836020036101000a031916815260200191505b509250505060405180910390f35b3415610b9657600080fd5b610bb0600480803560001916906020019091905050613cc5565b005b3415610bbd57600080fd5b610be9600480803573ffffffffffffffffffffffffffffffffffffffff16906020019091905050613d36565b005b3415610bf657600080fd5b610c1b6004808035600019169060200190919080351515906020019091905050613e13565b005b3415610c2857600080fd5b610c54600480803573ffffffffffffffffffffffffffffffffffffffff169060200190919050506140d0565b6040518082815260200191505060405180910390f35b3415610c7557600080fd5b610caa600480803573ffffffffffffffffffffffffffffffffffffffff169060200190919080359060200190919050506140e8565b604051808215151515815260200191505060405180910390f35b3415610ccf57600080fd5b610d04600480803573ffffffffffffffffffffffffffffffffffffffff16906020019091908035906020019091905050614167565b604051808215151515815260200191505060405180910390f35b3415610d2957600080fd5b610d766004808035906020019082018035906020019080806020026020016040519081016040528093929190818152602001838360200280828437820191505050505050919050506144ad565b005b3415610d8357600080fd5b610daf600480803573ffffffffffffffffffffffffffffffffffffffff16906020019091905050614972565b604051808215151515815260200191505060405180910390f35b3415610dd457600080fd5b610dee600480803560001916906020019091905050614d1f565b6040518085815260200184815260200183815260200182815260200194505050505060405180910390f35b3415610e2457600080fd5b610e3e600480803560001916906020019091905050614d4f565b005b3415610e4b57600080fd5b610e616004808035906020019091905050615096565b005b3415610e6e57600080fd5b610e7661513e565b6040518082815260200191505060405180910390f35b3415610e9757600080fd5b610ec3600480803573ffffffffffffffffffffffffffffffffffffffff16906020019091905050615144565b005b610ef1600480803573ffffffffffffffffffffffffffffffffffffffff16906020019091905050615225565b005b3415610efe57600080fd5b610f0661543f565b005b3415610f1357600080fd5b610f8b600480803573ffffffffffffffffffffffffffffffffffffffff1690602001909190803590602001909190803590602001908201803590602001908080601f01602080910402602001604051908101604052809392919081815260200183838082843782019150505050505091905050615531565b005b3415610f9857600080fd5b610fcd600480803590602001909190803573ffffffffffffffffffffffffffffffffffffffff16906020019091905050615936565b604051808215151515815260200191505060405180910390f35b3415610ff257600080fd5b61106a600480803573ffffffffffffffffffffffffffffffffffffffff1690602001909190803590602001909190803590602001908201803590602001908080601f01602080910402602001604051908101604052809392919081815260200183838082843782019150505050505091905050615abd565b604051808215151515815260200191505060405180910390f35b341561108f57600080fd5b6110c860048080356000191690602001909190803573ffffffffffffffffffffffffffffffffffffffff16906020019091905050615de9565b005b6110d2615f5c565b005b34156110df57600080fd5b61112a600480803573ffffffffffffffffffffffffffffffffffffffff1690602001909190803573ffffffffffffffffffffffffffffffffffffffff16906020019091905050615f67565b005b341561113757600080fd5b611182600480803573ffffffffffffffffffffffffffffffffffffffff1690602001909190803573ffffffffffffffffffffffffffffffffffffffff1690602001909190505061615f565b6040518082815260200191505060405180910390f35b34156111a357600080fd5b6111ab61627d565b005b34156111b857600080fd5b6111ce6004808035906020019091905050616360565b005b34156111db57600080fd5b6111f16004808035906020019091905050616408565b005b34156111fe57600080fd5b6112066164a1565b604051808273ffffffffffffffffffffffffffffffffffffffff1673ffffffffffffffffffffffffffffffffffffffff16815260200191505060405180910390f35b341561125357600080fd5b61126960048080359060200190919050506164c7565b005b60046020528060005260406000206000915054906101000a900460ff1681565b600e5481565b60148054600181600116156101000203166002900480601f0160208091040260200160405190810160405280929190818152602001828054600181600116156101000203166002900480156113275780601f106112fc57610100808354040283529160200191611327565b820191906000526020600020905b81548152906001019060200180831161130a57829003601f168201915b505050505081565b6000601760019054906101000a900473ffffffffffffffffffffffffffffffffffffffff1673ffffffffffffffffffffffffffffffffffffffff166333dd1b8a3385856040518463ffffffff167c0100000000000000000000000000000000000000000000000000000000028152600401808473ffffffffffffffffffffffffffffffffffffffff1673ffffffffffffffffffffffffffffffffffffffff1681526020018373ffffffffffffffffffffffffffffffffffffffff1673ffffffffffffffffffffffffffffffffffffffff1681526020018281526020019350505050600060405180830381600087803b151561142957600080fd5b6102c65a03f1151561143a57600080fd5b5050508273ffffffffffffffffffffffffffffffffffffffff163373ffffffffffffffffffffffffffffffffffffffff167f8c5be1e5ebec7d5bd14f71427d1e84f3dd0314c0f7b2291e5b200ac8c7c3b925846040518082815260200191505060405180910390a36001905092915050565b6000601760019054906101000a900473ffffffffffffffffffffffffffffffffffffffff1673ffffffffffffffffffffffffffffffffffffffff16638f8e83c4846000604051602001526040518263ffffffff167c0100000000000000000000000000000000000000000000000000000000028152600401808273ffffffffffffffffffffffffffffffffffffffff1673ffffffffffffffffffffffffffffffffffffffff168152602001915050602060405180830381600087803b151561157357600080fd5b6102c65a03f1151561158457600080fd5b50505060405180519050806115a55750602160009054906101000a900460ff165b80156116905750601760019054906101000a900473ffffffffffffffffffffffffffffffffffffffff1673ffffffffffffffffffffffffffffffffffffffff166327e235e3846000604051602001526040518263ffffffff167c0100000000000000000000000000000000000000000000000000000000028152600401808273ffffffffffffffffffffffffffffffffffffffff1673ffffffffffffffffffffffffffffffffffffffff168152602001915050602060405180830381600087803b151561167157600080fd5b6102c65a03f1151561168257600080fd5b505050604051805190508211155b156118f557601760019054906101000a900473ffffffffffffffffffffffffffffffffffffffff1673ffffffffffffffffffffffffffffffffffffffff166328e69b168484601760019054906101000a900473ffffffffffffffffffffffffffffffffffffffff1673ffffffffffffffffffffffffffffffffffffffff166327e235e3886000604051602001526040518263ffffffff167c0100000000000000000000000000000000000000000000000000000000028152600401808273ffffffffffffffffffffffffffffffffffffffff1673ffffffffffffffffffffffffffffffffffffffff168152602001915050602060405180830381600087803b151561179a57600080fd5b6102c65a03f115156117ab57600080fd5b50505060405180519050036040518363ffffffff167c0100000000000000000000000000000000000000000000000000000000028152600401808373ffffffffffffffffffffffffffffffffffffffff1673ffffffffffffffffffffffffffffffffffffffff16815260200182815260200192505050600060405180830381600087803b151561183a57600080fd5b6102c65a03f1151561184b57600080fd5b505050816001600082825403925050819055508273ffffffffffffffffffffffffffffffffffffffff166108fc839081150290604051600060405180830381858888f19350505050151561189e57600080fd5b8273ffffffffffffffffffffffffffffffffffffffff167f4ce7033d118120e254016dccf195288400b28fc8936425acd5f17ce2df3ab708836040518082815260200191505060405180910390a2600190506118f6565b5b92915050565b60195481565b60008060011515600460003373ffffffffffffffffffffffffffffffffffffffff1673ffffffffffffffffffffffffffffffffffffffff16815260200190815260200160002060009054906101000a900460ff16151514151561196457600080fd5b60003660405180838380828437820191505092505050604051809103902061198b8161656f565b151561199357005b6000600e541415611dec57600092505b8351831015611deb57601760019054906101000a900473ffffffffffffffffffffffffffffffffffffffff1673ffffffffffffffffffffffffffffffffffffffff1663c77fd87785858151811015156119f857fe5b906020019060200201516000604051602001526040518263ffffffff167c0100000000000000000000000000000000000000000000000000000000028152600401808273ffffffffffffffffffffffffffffffffffffffff1673ffffffffffffffffffffffffffffffffffffffff168152602001915050602060405180830381600087803b1515611a8857600080fd5b6102c65a03f11515611a9957600080fd5b505050604051805190509150601760019054906101000a900473ffffffffffffffffffffffffffffffffffffffff1673ffffffffffffffffffffffffffffffffffffffff166354134cd28585815181101515611af157fe5b9060200190602002015160006040518363ffffffff167c0100000000000000000000000000000000000000000000000000000000028152600401808373ffffffffffffffffffffffffffffffffffffffff1673ffffffffffffffffffffffffffffffffffffffff16815260200182815260200192505050600060405180830381600087803b1515611b8157600080fd5b6102c65a03f11515611b9257600080fd5b505050601760019054906101000a900473ffffffffffffffffffffffffffffffffffffffff1673ffffffffffffffffffffffffffffffffffffffff1663b65dc4138585815181101515611be157fe5b9060200190602002015160006040518363ffffffff167c0100000000000000000000000000000000000000000000000000000000028152600401808373ffffffffffffffffffffffffffffffffffffffff1673ffffffffffffffffffffffffffffffffffffffff16815260200182815260200192505050600060405180830381600087803b1515611c7157600080fd5b6102c65a03f11515611c8257600080fd5b505050601760019054906101000a900473ffffffffffffffffffffffffffffffffffffffff1673ffffffffffffffffffffffffffffffffffffffff166328e69b168585815181101515611cd157fe5b90602001906020020151846040518363ffffffff167c0100000000000000000000000000000000000000000000000000000000028152600401808373ffffffffffffffffffffffffffffffffffffffff1673ffffffffffffffffffffffffffffffffffffffff16815260200182815260200192505050600060405180830381600087803b1515611d6057600080fd5b6102c65a03f11515611d7157600080fd5b5050508383815181101515611d8257fe5b9060200190602002015173ffffffffffffffffffffffffffffffffffffffff167f85a80b3c69e65851b9558eb027b8e071efc4f8d6c7fb04a15ca15246ac2eb4b96000604051808215151515815260200191505060405180910390a282806001019350506119a3565b5b6008600082600019166000191681526020019081526020016000206000905550505050565b600036604051808383808284378201915050925050506040518091039020611e38816165ec565b1515611e4057005b6000600460008473ffffffffffffffffffffffffffffffffffffffff1673ffffffffffffffffffffffffffffffffffffffff16815260200190815260200160002060006101000a81548160ff021916908315150217905550600960008154809291906001900391905055508173ffffffffffffffffffffffffffffffffffffffff167f3281051f50c80211481c7d83588f2aa4266a9ce1468c910f64c983093176b0d66000604051808215151515815260200191505060405180910390a2600860008260001916600019168152602001908152602001600020600090555050565b60015481565b60185481565b600081601760019054906101000a900473ffffffffffffffffffffffffffffffffffffffff1673ffffffffffffffffffffffffffffffffffffffff166327e235e3866000604051602001526040518263ffffffff167c0100000000000000000000000000000000000000000000000000000000028152600401808273ffffffffffffffffffffffffffffffffffffffff1673ffffffffffffffffffffffffffffffffffffffff168152602001915050602060405180830381600087803b1515611ff557600080fd5b6102c65a03f1151561200657600080fd5b5050506040518051905010158015612131575081601760019054906101000a900473ffffffffffffffffffffffffffffffffffffffff1673ffffffffffffffffffffffffffffffffffffffff16635c65816586336000604051602001526040518363ffffffff167c0100000000000000000000000000000000000000000000000000000000028152600401808373ffffffffffffffffffffffffffffffffffffffff1673ffffffffffffffffffffffffffffffffffffffff1681526020018273ffffffffffffffffffffffffffffffffffffffff1673ffffffffffffffffffffffffffffffffffffffff16815260200192505050602060405180830381600087803b151561211357600080fd5b6102c65a03f1151561212457600080fd5b5050506040518051905010155b156124d157601760019054906101000a900473ffffffffffffffffffffffffffffffffffffffff1673ffffffffffffffffffffffffffffffffffffffff1663beabacc88585856040518463ffffffff167c0100000000000000000000000000000000000000000000000000000000028152600401808473ffffffffffffffffffffffffffffffffffffffff1673ffffffffffffffffffffffffffffffffffffffff1681526020018373ffffffffffffffffffffffffffffffffffffffff1673ffffffffffffffffffffffffffffffffffffffff1681526020018281526020019350505050600060405180830381600087803b151561222e57600080fd5b6102c65a03f1151561223f57600080fd5b505050601760019054906101000a900473ffffffffffffffffffffffffffffffffffffffff1673ffffffffffffffffffffffffffffffffffffffff166333dd1b8a853385601760019054906101000a900473ffffffffffffffffffffffffffffffffffffffff1673ffffffffffffffffffffffffffffffffffffffff16635c6581658a336000604051602001526040518363ffffffff167c0100000000000000000000000000000000000000000000000000000000028152600401808373ffffffffffffffffffffffffffffffffffffffff1673ffffffffffffffffffffffffffffffffffffffff1681526020018273ffffffffffffffffffffffffffffffffffffffff1673ffffffffffffffffffffffffffffffffffffffff16815260200192505050602060405180830381600087803b151561237c57600080fd5b6102c65a03f1151561238d57600080fd5b50505060405180519050036040518463ffffffff167c0100000000000000000000000000000000000000000000000000000000028152600401808473ffffffffffffffffffffffffffffffffffffffff1673ffffffffffffffffffffffffffffffffffffffff1681526020018373ffffffffffffffffffffffffffffffffffffffff1673ffffffffffffffffffffffffffffffffffffffff1681526020018281526020019350505050600060405180830381600087803b151561244f57600080fd5b6102c65a03f1151561246057600080fd5b5050508273ffffffffffffffffffffffffffffffffffffffff168473ffffffffffffffffffffffffffffffffffffffff167fddf252ad1be2c89b69c2b068fc378daa952ba7f163c4a11628f55a4df523b3ef846040518082815260200191505060405180910390a3600190506124d2565b5b9392505050565b600080600080600e5414156128265783604051808273ffffffffffffffffffffffffffffffffffffffff1673ffffffffffffffffffffffffffffffffffffffff166c010000000000000000000000000281526014019150506040518091039020600190049150601a5442038511158015612565575081601d600087815260200190815260200160002054145b1561282457601b6000868152602001908152602001600020549050601b600086815260200190815260200160002060009055601c600086815260200190815260200160002060009055601d600086815260200190815260200160002060009055601760019054906101000a900473ffffffffffffffffffffffffffffffffffffffff1673ffffffffffffffffffffffffffffffffffffffff166328e69b168583601760019054906101000a900473ffffffffffffffffffffffffffffffffffffffff1673ffffffffffffffffffffffffffffffffffffffff166327e235e3896000604051602001526040518263ffffffff167c0100000000000000000000000000000000000000000000000000000000028152600401808273ffffffffffffffffffffffffffffffffffffffff1673ffffffffffffffffffffffffffffffffffffffff168152602001915050602060405180830381600087803b15156126ca57600080fd5b6102c65a03f115156126db57600080fd5b50505060405180519050016040518363ffffffff167c0100000000000000000000000000000000000000000000000000000000028152600401808373ffffffffffffffffffffffffffffffffffffffff1673ffffffffffffffffffffffffffffffffffffffff16815260200182815260200192505050600060405180830381600087803b151561276a57600080fd5b6102c65a03f1151561277b57600080fd5b505050847f046be9693b9b4ed56df331431ff8cc6874ab57df1e1332c0984ba4278edef38f85604051808273ffffffffffffffffffffffffffffffffffffffff1673ffffffffffffffffffffffffffffffffffffffff16815260200180602001828103825260078152602001807f61776172646564000000000000000000000000000000000000000000000000008152506020019250505060405180910390a260019250612825565b5b5b505092915050565b60011515600460003373ffffffffffffffffffffffffffffffffffffffff1673ffffffffffffffffffffffffffffffffffffffff16815260200190815260200160002060009054906101000a900460ff16151514151561288d57600080fd5b42602054601f540110156128a5576128a4816167db565b5b50565b600080600e5414156128c1576128be33836114ac565b90505b919050565b601760009054906101000a900460ff1681565b600080600060011515600460003373ffffffffffffffffffffffffffffffffffffffff1673ffffffffffffffffffffffffffffffffffffffff16815260200190815260200160002060009054906101000a900460ff16151514151561293d57600080fd5b6000366040518083838082843782019150509250505060405180910390206129648161656f565b151561296c57005b600036604051808383808284378201915050925050506040518091039020603260006129998383836169c3565b15156129a157005b600095505b8751861015612dc35742601954601760019054906101000a900473ffffffffffffffffffffffffffffffffffffffff1673ffffffffffffffffffffffffffffffffffffffff1663b06230748b8a8151811015156129ff57fe5b906020019060200201516000604051602001526040518263ffffffff167c0100000000000000000000000000000000000000000000000000000000028152600401808273ffffffffffffffffffffffffffffffffffffffff1673ffffffffffffffffffffffffffffffffffffffff168152602001915050602060405180830381600087803b1515612a8f57600080fd5b6102c65a03f11515612aa057600080fd5b50505060405180519050011015612ab657612db6565b601760019054906101000a900473ffffffffffffffffffffffffffffffffffffffff1673ffffffffffffffffffffffffffffffffffffffff1663c77fd8778988815181101515612b0257fe5b906020019060200201516000604051602001526040518263ffffffff167c0100000000000000000000000000000000000000000000000000000000028152600401808273ffffffffffffffffffffffffffffffffffffffff1673ffffffffffffffffffffffffffffffffffffffff168152602001915050602060405180830381600087803b1515612b9257600080fd5b6102c65a03f11515612ba357600080fd5b505050604051805190509450601854858801111515612cb657601760019054906101000a900473ffffffffffffffffffffffffffffffffffffffff1673ffffffffffffffffffffffffffffffffffffffff166354134cd28988815181101515612c0857fe5b9060200190602002015160006040518363ffffffff167c0100000000000000000000000000000000000000000000000000000000028152600401808373ffffffffffffffffffffffffffffffffffffffff1673ffffffffffffffffffffffffffffffffffffffff16815260200182815260200192505050600060405180830381600087803b1515612c9857600080fd5b6102c65a03f11515612ca957600080fd5b5050508487019650612db5565b601760019054906101000a900473ffffffffffffffffffffffffffffffffffffffff1673ffffffffffffffffffffffffffffffffffffffff166354134cd28988815181101515612d0257fe5b90602001906020020151896018540388036040518363ffffffff167c0100000000000000000000000000000000000000000000000000000000028152600401808373ffffffffffffffffffffffffffffffffffffffff1673ffffffffffffffffffffffffffffffffffffffff16815260200182815260200192505050600060405180830381600087803b1515612d9757600080fd5b6102c65a03f11515612da857600080fd5b5050506018549650612dc3565b5b85806001019650506129a6565b86601b600042815260200190815260200160002081905550434060019004601c6000428152602001908152602001600020819055506002601354811515612e0657fe5b04601c60004281526020019081526020016000205401601d600042815260200190815260200160002081905550427f046be9693b9b4ed56df331431ff8cc6874ab57df1e1332c0984ba4278edef38f6000604051808273ffffffffffffffffffffffffffffffffffffffff1673ffffffffffffffffffffffffffffffffffffffff168152602001806020018281038252600b8152602001807f696e697469616c697a65640000000000000000000000000000000000000000008152506020019250505060405180910390a26010600084600019166000191681526020019081526020016000206000808201600090556001820160009055600282016000905560038201600090555050505050600860008260001916600019168152602001908152602001600020600090555050505050565b60116020528060005260406000206000915090505481565b6000601260008373ffffffffffffffffffffffffffffffffffffffff1673ffffffffffffffffffffffffffffffffffffffff1681526020019081526020016000205414158015612fa257506000600f54145b15612ff457601260008273ffffffffffffffffffffffffffffffffffffffff1673ffffffffffffffffffffffffffffffffffffffff16815260200190815260200160002060009055612ff381616ba9565b5b50565b600d5481565b600036604051808383808284378201915050925050506040518091039020613024816165ec565b151561302c57005b6000366040518083838082843782019150509250505060405180910390206130538161656f565b151561305b57005b82600a819055507f9d46c50cb19a491fb2eaba8b18e5328816184146ae5f4d9ab621d76d2ed1a9a2600a546040518082815260200191505060405180910390a16008600082600019166000191681526020019081526020016000206000905550600860008260001916600019168152602001908152602001600020600090555050565b60168054600181600116156101000203166002900480601f0160208091040260200160405190810160405280929190818152602001828054600181600116156101000203166002900480156131745780601f1061314957610100808354040283529160200191613174565b820191906000526020600020905b81548152906001019060200180831161315757829003601f168201915b505050505081565b600c5481565b60011515600460003373ffffffffffffffffffffffffffffffffffffffff1673ffffffffffffffffffffffffffffffffffffffff16815260200190815260200160002060009054906101000a900460ff1615151415156131e157600080fd5b6000600460003373ffffffffffffffffffffffffffffffffffffffff1673ffffffffffffffffffffffffffffffffffffffff16815260200190815260200160002060006101000a81548160ff0219169083151502179055503373ffffffffffffffffffffffffffffffffffffffff167f3281051f50c80211481c7d83588f2aa4266a9ce1468c910f64c983093176b0d66000604051808215151515815260200191505060405180910390a2565b60011515600460003373ffffffffffffffffffffffffffffffffffffffff1673ffffffffffffffffffffffffffffffffffffffff16815260200190815260200160002060009054906101000a900460ff1615151415156132ed57600080fd5b600060066000836000191660001916815260200190815260200160002060003373ffffffffffffffffffffffffffffffffffffffff1673ffffffffffffffffffffffffffffffffffffffff16815260200190815260200160002060006101000a81548160ff02191690831515021790555060006007600083600019166000191681526020019081526020016000205414156133a257600860008260001916600019168152602001908152602001600020600090555b50565b601a5481565b6000366040518083838082843782019150509250505060405180910390206133d2816165ec565b15156133da57005b6000366040518083838082843782019150509250505060405180910390206134018161656f565b151561340957005b826003819055507f3dafdf04a2a91e1f13fb84664194bba4aef5c95d086769d9e38c574e33c8fedf6003546040518082815260200191505060405180910390a16008600082600019166000191681526020019081526020016000206000905550600860008260001916600019168152602001908152602001600020600090555050565b6000366040518083838082843782019150509250505060405180910390206134b3816165ec565b15156134bb57005b6000366040518083838082843782019150509250505060405180910390206134e28161656f565b15156134ea57005b60001515600460008573ffffffffffffffffffffffffffffffffffffffff1673ffffffffffffffffffffffffffffffffffffffff16815260200190815260200160002060009054906101000a900460ff1615151415613601576001600460008573ffffffffffffffffffffffffffffffffffffffff1673ffffffffffffffffffffffffffffffffffffffff16815260200190815260200160002060006101000a81548160ff0219169083151502179055506009600081548092919060010191905055508273ffffffffffffffffffffffffffffffffffffffff167f3281051f50c80211481c7d83588f2aa4266a9ce1468c910f64c983093176b0d66001604051808215151515815260200191505060405180910390a25b6008600082600019166000191681526020019081526020016000206000905550600860008260001916600019168152602001908152602001600020600090555050565b6000601760019054906101000a900473ffffffffffffffffffffffffffffffffffffffff1673ffffffffffffffffffffffffffffffffffffffff166327e235e3836000604051602001526040518263ffffffff167c0100000000000000000000000000000000000000000000000000000000028152600401808273ffffffffffffffffffffffffffffffffffffffff1673ffffffffffffffffffffffffffffffffffffffff168152602001915050602060405180830381600087803b151561370b57600080fd5b6102c65a03f1151561371c57600080fd5b505050604051805190509050919050565b600060011515600460003373ffffffffffffffffffffffffffffffffffffffff1673ffffffffffffffffffffffffffffffffffffffff16815260200190815260200160002060009054906101000a900460ff16151514151561378e57600080fd5b6000366040518083838082843782019150509250505060405180910390206137b58161656f565b15156137bd57005b601760019054906101000a900473ffffffffffffffffffffffffffffffffffffffff1673ffffffffffffffffffffffffffffffffffffffff16638f8e83c4846000604051602001526040518263ffffffff167c0100000000000000000000000000000000000000000000000000000000028152600401808273ffffffffffffffffffffffffffffffffffffffff1673ffffffffffffffffffffffffffffffffffffffff168152602001915050602060405180830381600087803b151561388257600080fd5b6102c65a03f1151561389357600080fd5b505050604051805190501515613ab457601760019054906101000a900473ffffffffffffffffffffffffffffffffffffffff1673ffffffffffffffffffffffffffffffffffffffff1663329388aa8460016040518363ffffffff167c0100000000000000000000000000000000000000000000000000000000028152600401808373ffffffffffffffffffffffffffffffffffffffff1673ffffffffffffffffffffffffffffffffffffffff1681526020018215151515815260200192505050600060405180830381600087803b151561396c57600080fd5b6102c65a03f1151561397d57600080fd5b505050601760019054906101000a900473ffffffffffffffffffffffffffffffffffffffff1673ffffffffffffffffffffffffffffffffffffffff16637a30ab2f84426040518363ffffffff167c0100000000000000000000000000000000000000000000000000000000028152600401808373ffffffffffffffffffffffffffffffffffffffff1673ffffffffffffffffffffffffffffffffffffffff16815260200182815260200192505050600060405180830381600087803b1515613a4457600080fd5b6102c65a03f11515613a5557600080fd5b5050508273ffffffffffffffffffffffffffffffffffffffff167f889cb149d426eca2f86c88cc89ad9051b8c6b15ddd9bf509a9307bff27816a726001604051808215151515815260200191505060405180910390a260019150613ab5565b5b6008600082600019166000191681526020019081526020016000206000905550919050565b60095481565b600b5481565b600080600e541415613c215781601760019054906101000a900473ffffffffffffffffffffffffffffffffffffffff1673ffffffffffffffffffffffffffffffffffffffff16635c65816585336000604051602001526040518363ffffffff167c0100000000000000000000000000000000000000000000000000000000028152600401808373ffffffffffffffffffffffffffffffffffffffff1673ffffffffffffffffffffffffffffffffffffffff1681526020018273ffffffffffffffffffffffffffffffffffffffff1673ffffffffffffffffffffffffffffffffffffffff16815260200192505050602060405180830381600087803b1515613bec57600080fd5b6102c65a03f11515613bfd57600080fd5b50505060405180519050101515613c1f57613c1883836114ac565b9050613c20565b5b5b92915050565b60158054600181600116156101000203166002900480601f016020809104026020016040519081016040528092919081815260200182805460018160011615610100020316600290048015613cbd5780601f10613c9257610100808354040283529160200191613cbd565b820191906000526020600020905b815481529060010190602001808311613ca057829003601f168201915b505050505081565b600036604051808383808284378201915050925050506040518091039020613cec816165ec565b1515613cf457005b60086000836000191660001916815260200190815260200160002060009055600860008260001916600019168152602001908152602001600020600090555050565b600036604051808383808284378201915050925050506040518091039020613d5d816165ec565b1515613d6557005b6000600e541415613df05760003660405180838380828437820191505092505050604051809103902060326000613d9d8383836169c3565b1515613da557005b613dae856167db565b60106000846000191660001916815260200190815260200160002060008082016000905560018201600090556002820160009055600382016000905550505050505b600860008260001916600019168152602001908152602001600020600090555050565b60006002811115613e2057fe5b60106000846000191660001916815260200190815260200160002060040160003373ffffffffffffffffffffffffffffffffffffffff1673ffffffffffffffffffffffffffffffffffffffff16815260200190815260200160002060009054906101000a900460ff166002811115613e9457fe5b141515613ea0576140cc565b8015613f9357600160106000846000191660001916815260200190815260200160002060040160003373ffffffffffffffffffffffffffffffffffffffff1673ffffffffffffffffffffffffffffffffffffffff16815260200190815260200160002060006101000a81548160ff02191690836002811115613f1e57fe5b0217905550601260003373ffffffffffffffffffffffffffffffffffffffff1673ffffffffffffffffffffffffffffffffffffffff168152602001908152602001600020546010600084600019166000191681526020019081526020016000206002016000828254019250508190555061407c565b600260106000846000191660001916815260200190815260200160002060040160003373ffffffffffffffffffffffffffffffffffffffff1673ffffffffffffffffffffffffffffffffffffffff16815260200190815260200160002060006101000a81548160ff0219169083600281111561400b57fe5b0217905550601260003373ffffffffffffffffffffffffffffffffffffffff1673ffffffffffffffffffffffffffffffffffffffff16815260200190815260200160002054601060008460001916600019168152602001908152602001600020600301600082825401925050819055505b601160003373ffffffffffffffffffffffffffffffffffffffff1673ffffffffffffffffffffffffffffffffffffffff168152602001908152602001600020600081548092919060010191905055505b5050565b60126020528060005260406000206000915090505481565b600060011515600460003373ffffffffffffffffffffffffffffffffffffffff1673ffffffffffffffffffffffffffffffffffffffff16815260200190815260200160002060009054906101000a900460ff16151514151561414957600080fd5b6000600e5414156141615761415e83836114ac565b90505b92915050565b6000614171617211565b82601760019054906101000a900473ffffffffffffffffffffffffffffffffffffffff1673ffffffffffffffffffffffffffffffffffffffff166327e235e3336000604051602001526040518263ffffffff167c0100000000000000000000000000000000000000000000000000000000028152600401808273ffffffffffffffffffffffffffffffffffffffff1673ffffffffffffffffffffffffffffffffffffffff168152602001915050602060405180830381600087803b151561423757600080fd5b6102c65a03f1151561424857600080fd5b505050604051805190501015156144a557601760019054906101000a900473ffffffffffffffffffffffffffffffffffffffff1673ffffffffffffffffffffffffffffffffffffffff1663beabacc83386866040518463ffffffff167c0100000000000000000000000000000000000000000000000000000000028152600401808473ffffffffffffffffffffffffffffffffffffffff1673ffffffffffffffffffffffffffffffffffffffff1681526020018373ffffffffffffffffffffffffffffffffffffffff1673ffffffffffffffffffffffffffffffffffffffff1681526020018281526020019350505050600060405180830381600087803b151561435157600080fd5b6102c65a03f1151561436257600080fd5b5050508373ffffffffffffffffffffffffffffffffffffffff163373ffffffffffffffffffffffffffffffffffffffff167fddf252ad1be2c89b69c2b068fc378daa952ba7f163c4a11628f55a4df523b3ef856040518082815260200191505060405180910390a38373ffffffffffffffffffffffffffffffffffffffff163373ffffffffffffffffffffffffffffffffffffffff167fe19260aff97b920c7df27010903aeb9c8d2be5d310a2c67824cf3f15396e4c1685846040518083815260200180602001828103825283818151815260200191508051906020019080838360005b83811015614461578082015181840152602081019050614446565b50505050905090810190601f16801561448e5780820380516001836020036101000a031916815260200191505b50935050505060405180910390a3600191506144a6565b5b5092915050565b600080600060011515600460003373ffffffffffffffffffffffffffffffffffffffff1673ffffffffffffffffffffffffffffffffffffffff16815260200190815260200160002060009054906101000a900460ff16151514151561451157600080fd5b6000600e54141561496c57429250600091505b835182101561496b57601760019054906101000a900473ffffffffffffffffffffffffffffffffffffffff1673ffffffffffffffffffffffffffffffffffffffff166327e235e3858481518110151561457957fe5b906020019060200201516000604051602001526040518263ffffffff167c0100000000000000000000000000000000000000000000000000000000028152600401808273ffffffffffffffffffffffffffffffffffffffff1673ffffffffffffffffffffffffffffffffffffffff168152602001915050602060405180830381600087803b151561460957600080fd5b6102c65a03f1151561461a57600080fd5b505050604051805190509050601760019054906101000a900473ffffffffffffffffffffffffffffffffffffffff1673ffffffffffffffffffffffffffffffffffffffff166328e69b16858481518110151561467257fe5b9060200190602002015160006040518363ffffffff167c0100000000000000000000000000000000000000000000000000000000028152600401808373ffffffffffffffffffffffffffffffffffffffff1673ffffffffffffffffffffffffffffffffffffffff16815260200182815260200192505050600060405180830381600087803b151561470257600080fd5b6102c65a03f1151561471357600080fd5b505050601760019054906101000a900473ffffffffffffffffffffffffffffffffffffffff1673ffffffffffffffffffffffffffffffffffffffff166354134cd2858481518110151561476257fe5b90602001906020020151836040518363ffffffff167c0100000000000000000000000000000000000000000000000000000000028152600401808373ffffffffffffffffffffffffffffffffffffffff1673ffffffffffffffffffffffffffffffffffffffff16815260200182815260200192505050600060405180830381600087803b15156147f157600080fd5b6102c65a03f1151561480257600080fd5b505050601760019054906101000a900473ffffffffffffffffffffffffffffffffffffffff1673ffffffffffffffffffffffffffffffffffffffff1663b65dc413858481518110151561485157fe5b90602001906020020151856040518363ffffffff167c0100000000000000000000000000000000000000000000000000000000028152600401808373ffffffffffffffffffffffffffffffffffffffff1673ffffffffffffffffffffffffffffffffffffffff16815260200182815260200192505050600060405180830381600087803b15156148e057600080fd5b6102c65a03f115156148f157600080fd5b505050838281518110151561490257fe5b9060200190602002015173ffffffffffffffffffffffffffffffffffffffff167f85a80b3c69e65851b9558eb027b8e071efc4f8d6c7fb04a15ca15246ac2eb4b96001604051808215151515815260200191505060405180910390a28180600101925050614524565b5b50505050565b600060011515600460003373ffffffffffffffffffffffffffffffffffffffff1673ffffffffffffffffffffffffffffffffffffffff16815260200190815260200160002060009054906101000a900460ff1615151415156149d357600080fd5b6000366040518083838082843782019150509250505060405180910390206149fa8161656f565b1515614a0257005b601760019054906101000a900473ffffffffffffffffffffffffffffffffffffffff1673ffffffffffffffffffffffffffffffffffffffff16638f8e83c4846000604051602001526040518263ffffffff167c0100000000000000000000000000000000000000000000000000000000028152600401808273ffffffffffffffffffffffffffffffffffffffff1673ffffffffffffffffffffffffffffffffffffffff168152602001915050602060405180830381600087803b1515614ac757600080fd5b6102c65a03f11515614ad857600080fd5b5050506040518051905015614cf957601760019054906101000a900473ffffffffffffffffffffffffffffffffffffffff1673ffffffffffffffffffffffffffffffffffffffff1663329388aa8460006040518363ffffffff167c0100000000000000000000000000000000000000000000000000000000028152600401808373ffffffffffffffffffffffffffffffffffffffff1673ffffffffffffffffffffffffffffffffffffffff1681526020018215151515815260200192505050600060405180830381600087803b1515614bb057600080fd5b6102c65a03f11515614bc157600080fd5b505050601760019054906101000a900473ffffffffffffffffffffffffffffffffffffffff1673ffffffffffffffffffffffffffffffffffffffff16637a30ab2f8460006040518363ffffffff167c0100000000000000000000000000000000000000000000000000000000028152600401808373ffffffffffffffffffffffffffffffffffffffff1673ffffffffffffffffffffffffffffffffffffffff16815260200182815260200192505050600060405180830381600087803b1515614c8957600080fd5b6102c65a03f11515614c9a57600080fd5b5050508273ffffffffffffffffffffffffffffffffffffffff167f889cb149d426eca2f86c88cc89ad9051b8c6b15ddd9bf509a9307bff27816a726000604051808215151515815260200191505060405180910390a260019150614cfa565b5b6008600082600019166000191681526020019081526020016000206000905550919050565b60106020528060005260406000206000915090508060000154908060010154908060020154908060030154905084565b60006002811115614d5c57fe5b60106000836000191660001916815260200190815260200160002060040160003373ffffffffffffffffffffffffffffffffffffffff1673ffffffffffffffffffffffffffffffffffffffff16815260200190815260200160002060009054906101000a900460ff166002811115614dd057fe5b1415614ddb57615093565b60016002811115614de857fe5b60106000836000191660001916815260200190815260200160002060040160003373ffffffffffffffffffffffffffffffffffffffff1673ffffffffffffffffffffffffffffffffffffffff16815260200190815260200160002060009054906101000a900460ff166002811115614e5c57fe5b1415614ed257601260003373ffffffffffffffffffffffffffffffffffffffff1673ffffffffffffffffffffffffffffffffffffffff1681526020019081526020016000205460106000836000191660001916815260200190815260200160002060020160008282540392505081905550614fc5565b600280811115614ede57fe5b60106000836000191660001916815260200190815260200160002060040160003373ffffffffffffffffffffffffffffffffffffffff1673ffffffffffffffffffffffffffffffffffffffff16815260200190815260200160002060009054906101000a900460ff166002811115614f5257fe5b1415614fc457601260003373ffffffffffffffffffffffffffffffffffffffff1673ffffffffffffffffffffffffffffffffffffffff16815260200190815260200160002054601060008360001916600019168152602001908152602001600020600301600082825403925050819055505b5b601160003373ffffffffffffffffffffffffffffffffffffffff1673ffffffffffffffffffffffffffffffffffffffff1681526020019081526020016000206000815480929190600190039190505550600060106000836000191660001916815260200190815260200160002060040160003373ffffffffffffffffffffffffffffffffffffffff1673ffffffffffffffffffffffffffffffffffffffff16815260200190815260200160002060006101000a81548160ff0219169083600281111561508d57fe5b02179055505b50565b6000366040518083838082843782019150509250505060405180910390206150bd816165ec565b15156150c557005b6000366040518083838082843782019150509250505060405180910390206150ec8161656f565b15156150f457005b826018819055506008600082600019166000191681526020019081526020016000206000905550600860008260001916600019168152602001908152602001600020600090555050565b600a5481565b60011515600460003373ffffffffffffffffffffffffffffffffffffffff1673ffffffffffffffffffffffffffffffffffffffff16815260200190815260200160002060009054906101000a900460ff1615151415156151a357600080fd5b600036604051808383808284378201915050925050506040518091039020604360016151d08383836169c3565b15156151d857005b6151e1846167db565b601060008460001916600019168152602001908152602001600020600080820160009055600182016000905560028201600090556003820160009055505050505050565b601760019054906101000a900473ffffffffffffffffffffffffffffffffffffffff1673ffffffffffffffffffffffffffffffffffffffff166328e69b168234601760019054906101000a900473ffffffffffffffffffffffffffffffffffffffff1673ffffffffffffffffffffffffffffffffffffffff166327e235e3866000604051602001526040518263ffffffff167c0100000000000000000000000000000000000000000000000000000000028152600401808273ffffffffffffffffffffffffffffffffffffffff1673ffffffffffffffffffffffffffffffffffffffff168152602001915050602060405180830381600087803b151561532a57600080fd5b6102c65a03f1151561533b57600080fd5b50505060405180519050016040518363ffffffff167c0100000000000000000000000000000000000000000000000000000000028152600401808373ffffffffffffffffffffffffffffffffffffffff1673ffffffffffffffffffffffffffffffffffffffff16815260200182815260200192505050600060405180830381600087803b15156153ca57600080fd5b6102c65a03f115156153db57600080fd5b505050346001600082825401925050819055508073ffffffffffffffffffffffffffffffffffffffff167f1b851e1031ef35a238e6c67d0c7991162390df915f70eaf9098dbf0b175a6198346040518082815260200191505060405180910390a250565b600560009054906101000a900473ffffffffffffffffffffffffffffffffffffffff1673ffffffffffffffffffffffffffffffffffffffff163373ffffffffffffffffffffffffffffffffffffffff16141561552f57600036604051808383808284378201915050925050506040518091039020604360016154c28383836169c3565b15156154ca57005b6154d2616de7565b6001602160006101000a81548160ff02191690831515021790555060106000846000191660001916815260200190815260200160002060008082016000905560018201600090556002820160009055600382016000905550505050505b565b60008083601760019054906101000a900473ffffffffffffffffffffffffffffffffffffffff1673ffffffffffffffffffffffffffffffffffffffff166327e235e3336000604051602001526040518263ffffffff167c0100000000000000000000000000000000000000000000000000000000028152600401808273ffffffffffffffffffffffffffffffffffffffff1673ffffffffffffffffffffffffffffffffffffffff168152602001915050602060405180830381600087803b15156155fa57600080fd5b6102c65a03f1151561560b57600080fd5b5050506040518051905010151561592f57843b9150601760019054906101000a900473ffffffffffffffffffffffffffffffffffffffff1673ffffffffffffffffffffffffffffffffffffffff1663beabacc83387876040518463ffffffff167c0100000000000000000000000000000000000000000000000000000000028152600401808473ffffffffffffffffffffffffffffffffffffffff1673ffffffffffffffffffffffffffffffffffffffff1681526020018373ffffffffffffffffffffffffffffffffffffffff1673ffffffffffffffffffffffffffffffffffffffff1681526020018281526020019350505050600060405180830381600087803b151561571857600080fd5b6102c65a03f1151561572957600080fd5b505050600082111561585c578490508073ffffffffffffffffffffffffffffffffffffffff1663c0ee0b8a3386866040518463ffffffff167c0100000000000000000000000000000000000000000000000000000000028152600401808473ffffffffffffffffffffffffffffffffffffffff1673ffffffffffffffffffffffffffffffffffffffff16815260200183815260200180602001828103825283818151815260200191508051906020019080838360005b838110156157fa5780820151818401526020810190506157df565b50505050905090810190601f1680156158275780820380516001836020036101000a031916815260200191505b50945050505050600060405180830381600087803b151561584757600080fd5b6102c65a03f1151561585857600080fd5b5050505b8473ffffffffffffffffffffffffffffffffffffffff163373ffffffffffffffffffffffffffffffffffffffff167fe19260aff97b920c7df27010903aeb9c8d2be5d310a2c67824cf3f15396e4c1686866040518083815260200180602001828103825283818151815260200191508051906020019080838360005b838110156158f35780820151818401526020810190506158d8565b50505050905090810190601f1680156159205780820380516001836020036101000a031916815260200191505b50935050505060405180910390a35b5050505050565b6000806000600e541415615ab65782604051808273ffffffffffffffffffffffffffffffffffffffff1673ffffffffffffffffffffffffffffffffffffffff166c010000000000000000000000000281526014019150506040518091039020600190049050601d600085815260200190815260200160002054601c600086815260200190815260200160002054038373ffffffffffffffffffffffffffffffffffffffff16601c600087815260200190815260200160002054031015615ab45780601d600086815260200190815260200160002081905550837f046be9693b9b4ed56df331431ff8cc6874ab57df1e1332c0984ba4278edef38f84604051808273ffffffffffffffffffffffffffffffffffffffff1673ffffffffffffffffffffffffffffffffffffffff16815260200180602001828103825260078152602001807f636c61696d6564000000000000000000000000000000000000000000000000008152506020019250505060405180910390a260019150615ab5565b5b5b5092915050565b6000601760019054906101000a900473ffffffffffffffffffffffffffffffffffffffff1673ffffffffffffffffffffffffffffffffffffffff166333dd1b8a3386866040518463ffffffff167c0100000000000000000000000000000000000000000000000000000000028152600401808473ffffffffffffffffffffffffffffffffffffffff1673ffffffffffffffffffffffffffffffffffffffff1681526020018373ffffffffffffffffffffffffffffffffffffffff1673ffffffffffffffffffffffffffffffffffffffff1681526020018281526020019350505050600060405180830381600087803b1515615bb757600080fd5b6102c65a03f11515615bc857600080fd5b5050508373ffffffffffffffffffffffffffffffffffffffff163373ffffffffffffffffffffffffffffffffffffffff167f8c5be1e5ebec7d5bd14f71427d1e84f3dd0314c0f7b2291e5b200ac8c7c3b925856040518082815260200191505060405180910390a38373ffffffffffffffffffffffffffffffffffffffff1660405180807f72656365697665417070726f76616c28616464726573732c75696e742c61646481526020017f726573732c627974657329000000000000000000000000000000000000000000815250602b01905060405180910390207c01000000000000000000000000000000000000000000000000000000009004338530866040518563ffffffff167c0100000000000000000000000000000000000000000000000000000000028152600401808573ffffffffffffffffffffffffffffffffffffffff1673ffffffffffffffffffffffffffffffffffffffff1681526020018481526020018373ffffffffffffffffffffffffffffffffffffffff1673ffffffffffffffffffffffffffffffffffffffff168152602001828051906020019080838360005b83811015615d89578082015181840152602081019050615d6e565b50505050905090810190601f168015615db65780820380516001836020036101000a031916815260200191505b5094505050505060006040518083038160008761646e5a03f1925050501515615dde57600080fd5b600190509392505050565b600c546010600084600019166000191681526020019081526020016000206000015401421015615f585760006002811115615e2057fe5b60106000846000191660001916815260200190815260200160002060040160008373ffffffffffffffffffffffffffffffffffffffff1673ffffffffffffffffffffffffffffffffffffffff16815260200190815260200160002060009054906101000a900460ff166002811115615e9457fe5b141515615eec57601160008273ffffffffffffffffffffffffffffffffffffffff1673ffffffffffffffffffffffffffffffffffffffff16815260200190815260200160002060008154809291906001900391905055505b60106000836000191660001916815260200190815260200160002060040160008273ffffffffffffffffffffffffffffffffffffffff1673ffffffffffffffffffffffffffffffffffffffff16815260200190815260200160002060006101000a81549060ff02191690555b5050565b615f6533615225565b565b600036604051808383808284378201915050925050506040518091039020615f8e816165ec565b1515615f9657005b600036604051808383808284378201915050925050506040518091039020615fbd8161656f565b1515615fc557005b6000600460008673ffffffffffffffffffffffffffffffffffffffff1673ffffffffffffffffffffffffffffffffffffffff16815260200190815260200160002060006101000a81548160ff0219169083151502179055506001600460008573ffffffffffffffffffffffffffffffffffffffff1673ffffffffffffffffffffffffffffffffffffffff16815260200190815260200160002060006101000a81548160ff0219169083151502179055508373ffffffffffffffffffffffffffffffffffffffff167f3281051f50c80211481c7d83588f2aa4266a9ce1468c910f64c983093176b0d66000604051808215151515815260200191505060405180910390a28273ffffffffffffffffffffffffffffffffffffffff167f3281051f50c80211481c7d83588f2aa4266a9ce1468c910f64c983093176b0d66001604051808215151515815260200191505060405180910390a2600860008260001916600019168152602001908152602001600020600090555060086000826000191660001916815260200190815260200160002060009055505050565b6000601760019054906101000a900473ffffffffffffffffffffffffffffffffffffffff1673ffffffffffffffffffffffffffffffffffffffff16635c65816584846000604051602001526040518363ffffffff167c0100000000000000000000000000000000000000000000000000000000028152600401808373ffffffffffffffffffffffffffffffffffffffff1673ffffffffffffffffffffffffffffffffffffffff1681526020018273ffffffffffffffffffffffffffffffffffffffff1673ffffffffffffffffffffffffffffffffffffffff16815260200192505050602060405180830381600087803b151561625a57600080fd5b6102c65a03f1151561626b57600080fd5b50505060405180519050905092915050565b6000601260003373ffffffffffffffffffffffffffffffffffffffff1673ffffffffffffffffffffffffffffffffffffffff168152602001908152602001600020541415801561630c57506000601160003373ffffffffffffffffffffffffffffffffffffffff1673ffffffffffffffffffffffffffffffffffffffff16815260200190815260200160002054145b1561635e57601260003373ffffffffffffffffffffffffffffffffffffffff1673ffffffffffffffffffffffffffffffffffffffff1681526020019081526020016000206000905561635d33616ba9565b5b565b600036604051808383808284378201915050925050506040518091039020616387816165ec565b151561638f57005b6000366040518083838082843782019150509250505060405180910390206163b68161656f565b15156163be57005b82601a819055506008600082600019166000191681526020019081526020016000206000905550600860008260001916600019168152602001908152602001600020600090555050565b6000601260003373ffffffffffffffffffffffffffffffffffffffff1673ffffffffffffffffffffffffffffffffffffffff16815260200190815260200160002054141561649e5761645a3382616df2565b601260003373ffffffffffffffffffffffffffffffffffffffff1673ffffffffffffffffffffffffffffffffffffffff168152602001908152602001600020819055505b50565b601760019054906101000a900473ffffffffffffffffffffffffffffffffffffffff1681565b6000366040518083838082843782019150509250505060405180910390206164ee816165ec565b15156164f657005b60003660405180838380828437820191505092505050604051809103902061651d8161656f565b151561652557005b826019819055506008600082600019166000191681526020019081526020016000206000905550600860008260001916600019168152602001908152602001600020600090555050565b6000806008600084600019166000191681526020019081526020016000205414156165b55742600860008460001916600019168152602001908152602001600020819055505b600a546008600084600019166000191681526020019081526020016000205401421015156165e657600190506165e7565b5b919050565b6000806008600084600019166000191681526020019081526020016000205414151561661b57600190506167d6565b60011515600460003373ffffffffffffffffffffffffffffffffffffffff1673ffffffffffffffffffffffffffffffffffffffff16815260200190815260200160002060009054906101000a900460ff1615151480156166e457506000151560066000846000191660001916815260200190815260200160002060003373ffffffffffffffffffffffffffffffffffffffff1673ffffffffffffffffffffffffffffffffffffffff16815260200190815260200160002060009054906101000a900460ff161515145b156167d557600160066000846000191660001916815260200190815260200160002060003373ffffffffffffffffffffffffffffffffffffffff1673ffffffffffffffffffffffffffffffffffffffff16815260200190815260200160002060006101000a81548160ff02191690831515021790555060076000836000191660001916815260200190815260200160002060008154809291906001019190505550600354600760008460001916600019168152602001908152602001600020541015156167d4574260086000846000191660001916815260200190815260200160002081905550600190506167d6565b5b5b919050565b8073ffffffffffffffffffffffffffffffffffffffff1663b7b0422d6001546000604051602001526040518263ffffffff167c010000000000000000000000000000000000000000000000000000000002815260040180828152602001915050602060405180830381600087803b151561685457600080fd5b6102c65a03f1151561686557600080fd5b50505060405180519050156169c057601760019054906101000a900473ffffffffffffffffffffffffffffffffffffffff1673ffffffffffffffffffffffffffffffffffffffff16630900f010826040518263ffffffff167c0100000000000000000000000000000000000000000000000000000000028152600401808273ffffffffffffffffffffffffffffffffffffffff1673ffffffffffffffffffffffffffffffffffffffff168152602001915050600060405180830381600087803b151561693057600080fd5b6102c65a03f1151561694157600080fd5b5050507f0657c43252e21d6584c7ee97ba6b914710dc0b29771330a92acb3d09d57c5cf381604051808273ffffffffffffffffffffffffffffffffffffffff1673ffffffffffffffffffffffffffffffffffffffff16815260200191505060405180910390a18073ffffffffffffffffffffffffffffffffffffffff16ff5b50565b6000806000601060008760001916600019168152602001908152602001600020600001541415616a98578280156169fe5750600b54600d5410155b15616a0c5760009150616ba1565b8215616a3757600d60008154809291906001019190505550600e600081548092919060010191905055505b42601060008760001916600019168152602001908152602001600020600001819055508360106000876000191660001916815260200190815260200160002060010181905550600f6000815480929190600101919050555060009150616ba1565b600c54601060008760001916600019168152602001908152602001600020600001540142101515616ba0578215616add57600e60008154809291906001900391905055505b600f6000815480929190600190039190505550600560106000876000191660001916815260200190815260200160002060010181905550601060008660001916600019168152602001908152602001600020600301546010600087600019166000191681526020019081526020016000206002015401905060106000866000191660001916815260200190815260200160002060010154810260646010600088600019166000191681526020019081526020016000206002015402119150616ba1565b5b509392505050565b601760019054906101000a900473ffffffffffffffffffffffffffffffffffffffff1673ffffffffffffffffffffffffffffffffffffffff166328e69b1682602260008573ffffffffffffffffffffffffffffffffffffffff1673ffffffffffffffffffffffffffffffffffffffff16815260200190815260200160002054601760019054906101000a900473ffffffffffffffffffffffffffffffffffffffff1673ffffffffffffffffffffffffffffffffffffffff166327e235e3866000604051602001526040518263ffffffff167c0100000000000000000000000000000000000000000000000000000000028152600401808273ffffffffffffffffffffffffffffffffffffffff1673ffffffffffffffffffffffffffffffffffffffff168152602001915050602060405180830381600087803b1515616ced57600080fd5b6102c65a03f11515616cfe57600080fd5b50505060405180519050016040518363ffffffff167c0100000000000000000000000000000000000000000000000000000000028152600401808373ffffffffffffffffffffffffffffffffffffffff1673ffffffffffffffffffffffffffffffffffffffff16815260200182815260200192505050600060405180830381600087803b1515616d8d57600080fd5b6102c65a03f11515616d9e57600080fd5b505050602260008273ffffffffffffffffffffffffffffffffffffffff1673ffffffffffffffffffffffffffffffffffffffff1681526020019081526020016000206000905550565b600254600381905550565b6000601760019054906101000a900473ffffffffffffffffffffffffffffffffffffffff1673ffffffffffffffffffffffffffffffffffffffff166327e235e3846000604051602001526040518263ffffffff167c0100000000000000000000000000000000000000000000000000000000028152600401808273ffffffffffffffffffffffffffffffffffffffff1673ffffffffffffffffffffffffffffffffffffffff168152602001915050602060405180830381600087803b1515616eb957600080fd5b6102c65a03f11515616eca57600080fd5b505050604051805190508211151561720a5781602260008573ffffffffffffffffffffffffffffffffffffffff1673ffffffffffffffffffffffffffffffffffffffff16815260200190815260200160002060008282540192505081905550601760019054906101000a900473ffffffffffffffffffffffffffffffffffffffff1673ffffffffffffffffffffffffffffffffffffffff166328e69b168484601760019054906101000a900473ffffffffffffffffffffffffffffffffffffffff1673ffffffffffffffffffffffffffffffffffffffff166327e235e3886000604051602001526040518263ffffffff167c0100000000000000000000000000000000000000000000000000000000028152600401808273ffffffffffffffffffffffffffffffffffffffff1673ffffffffffffffffffffffffffffffffffffffff168152602001915050602060405180830381600087803b151561702e57600080fd5b6102c65a03f1151561703f57600080fd5b50505060405180519050036040518363ffffffff167c0100000000000000000000000000000000000000000000000000000000028152600401808373ffffffffffffffffffffffffffffffffffffffff1673ffffffffffffffffffffffffffffffffffffffff16815260200182815260200192505050600060405180830381600087803b15156170ce57600080fd5b6102c65a03f115156170df57600080fd5b505050601760019054906101000a900473ffffffffffffffffffffffffffffffffffffffff1673ffffffffffffffffffffffffffffffffffffffff1663c77fd877846000604051602001526040518263ffffffff167c0100000000000000000000000000000000000000000000000000000000028152600401808273ffffffffffffffffffffffffffffffffffffffff1673ffffffffffffffffffffffffffffffffffffffff168152602001915050602060405180830381600087803b15156171a757600080fd5b6102c65a03f115156171b857600080fd5b50505060405180519050602260008573ffffffffffffffffffffffffffffffffffffffff1673ffffffffffffffffffffffffffffffffffffffff1681526020019081526020016000205401905061720b565b5b92915050565b6020604051908101604052806000815250905600a165627a7a72305820c4c07c5b16f7c5c6c7b6e8379cda20f4e740650a8518ec050c279b23e904fb860029",
  "source": "/**\n * Define primary business logic for the Ibis token. The module includes code\n * for handling standard user accounting (deposit/withdraw/transfer), mechanisms\n * for freezing and liquidiating rogue or lost accounts, and contract\n * upgrades. This contract inherits restricted access control and democratic\n * voting from parent contracts.\n */\n\npragma solidity ^0.4.13;\n\nimport \"./ERC20.sol\";\nimport \"./ERC223.sol\";\nimport \"./Restricted.sol\";\nimport \"./Democratic.sol\";\nimport \"./Core.sol\";\n\n/// Implements the Ibis charity currency as an ERC20 token.\ncontract Ibis is ERC20, ERC223, Restricted, Democratic {\n\n    // constant values\n    uint MAX_UINT256 = 2**256-1;                 // maximum unsigned integer value\n    uint constant MAJORITY = 50;                 // majority percentage (voting)\n    uint constant SUPERMAJORITY = 67;            // supermajority percentage (voting)\n    uint constant VOTE_DURATION = 1000;          // # of blocks per voting period\n    uint constant MAX_NUKES = 3;                 // # of nukes available to nuke master\n\n    // human standard token fields\n    string public name = \"Ibis\";\n    string public symbol = \"IBI\";\n    string public version = '1.1';\n    uint8 public decimals = 18;\n\n    // address of core contract core\n    Core public core;\n\n    // address freezing/redistribution\n    uint public awardMax;                      // maximum award that can be claimed in one block\n    uint public frozenMinTime;                 // min time between freezing and redistribution\n    uint public awardMinTime;                  // min time to wait for charities to claim reward\n    mapping(uint => uint) awardValue;          // value of award at a given block\n    mapping(uint => uint) awardTarget;      // target address that would be closest\n    mapping(uint => uint) awardClosest;     // current winning bid for block award\n    mapping(address => bool) frozenVoted;      // votes cast by previously frozen accounts\n\n    // initial grace period emergency update\n    uint graceInit;\n    uint graceDuration = 960 * 21;\n\n    // if true then system has been nuked\n    bool nuked;\n\n    // business logic events\n    event LogDeposit(address indexed _from, uint _value);\n    event LogWithdraw(address indexed _to, uint _value);\n    event LogChangeCharities(address indexed _charity, bool _isCharity);\n    event LogFreeze(address indexed _account, bool frozen);\n    event LogAward(uint indexed _time, address _addr, string _state);\n    event LogUpgrade(address _addr);\n\n    /// Define restricted ownership, voting parameters, and the Core contract\n    function Ibis(address _core, address [] _owners, uint _ownerThreshold, address nukeMaster) public\n        Restricted(_owners, _ownerThreshold, nukeMaster)\n\tDemocratic(VOTE_DURATION, MAX_NUKES)\n    {\n\tgraceInit = block.timestamp;\n\tcore = Core(_core);\n    }\n\n    ///-------------------------------- User Account Methods --------------------------------///\n\n    // Return the balance of an address\n    function balanceOf(address _owner) public constant returns (uint) {\n\treturn core.balances(_owner);\n    }\n\n    /// Transfer value from the sending address to a given recipient\n    function transfer(address _to, uint _value) public returns (bool) {\n\tif(core.balances(msg.sender) >= _value) {\n\t    core.transfer(msg.sender, _to, _value);\n\n\t    bytes memory empty;\n\t    Transfer(msg.sender, _to, _value);\n\t    Transfer(msg.sender, _to, _value, empty);\n\t    return true;\n\t}\n    }\n\n    function transfer(address _to, uint _value, bytes _data) public {\n\tif(core.balances(msg.sender) >= _value) {\n\t    // Retrieve the size of the code on target address\n\t    uint codeLength;\n\t    assembly {\n\t    codeLength := extcodesize(_to)\n\t\t    }\n\n\t    core.transfer(msg.sender, _to, _value);\n\t    if(codeLength>0) {\n\t\tERC223ReceivingContract receiver = ERC223ReceivingContract(_to);\n\t\treceiver.tokenFallback(msg.sender, _value, _data);\n\t    }\n\t    Transfer(msg.sender, _to, _value, _data);\n\t}\n    }\n\n    /// Transfer value on behalf of another account if approved by the owner\n    function transferFrom(address _from, address _to, uint _value) public returns (bool) {\n        if(core.balances(_from) >= _value && core.allowed(_from, msg.sender) >= _value) {\n\t    core.transfer(_from, _to, _value);\n\t    core.setAllowed(_from, msg.sender, core.allowed(_from, msg.sender) - _value);\n\t    Transfer(_from, _to, _value);\n\t    return true;\n\t}\n    }\n\n    /// Convert Ether to Ibis coins for the message sender\n    function deposit() public payable {\n\tdepositTo(msg.sender);\n    }\n\n    /// Convert Ether to Ibis coins for an address other than the message sender\n    function depositTo(address _to) public payable {\n        core.setBalances(_to, core.balances(_to) + msg.value);\n\ttotalSupply += msg.value;\n\tLogDeposit(_to, msg.value);\n    }\n\n    /// Convert Ibis coins to Ether for message sender\n    function withdraw(uint _value) public suspendable returns (bool) {\n\treturn withdrawHelper(msg.sender, _value);\n    }\n\n    /// Convert Ibis coins to Ether for someone other than message sender (requires pre-approval)\n    function withdrawFrom(address _from, uint _value) public suspendable returns (bool) {\n\tif(core.allowed(_from, msg.sender) >= _value) {\n\t    return withdrawHelper(_from, _value);\n\t}\n    }\n\n    /// Convert Ibis coins to Ether on behalf of a charity by an Ibis owner address\n    function withdrawOwner(address _from, uint _value) public isOwner suspendable returns (bool) {\n\treturn withdrawHelper(_from, _value);\n    }\n\n    /// Internal logic for public withdraw interfaces\n    function withdrawHelper(address _from, uint _value) public returns (bool) {\n\tif ((core.charityStatus(_from) || nuked) && _value <= core.balances(_from)) {\n\t    core.setBalances(_from, core.balances(_from) - _value);\n\t    totalSupply -= _value;\n\t    _from.transfer(_value);\n\t    LogWithdraw(_from, _value);\n\t    return true;\n\t}\n    }\n\n    /// Approve a third party address to manage funds on behalf of the owner\n    function approve(address _spender, uint _value) public returns (bool) {\n\tcore.setAllowed(msg.sender, _spender, _value);\n\tApproval(msg.sender, _spender, _value);\n\treturn true;\n    }\n\n    /// Return the amount by which a third party is approved to transfer an owner's funds\n    function allowance(address _owner, address _spender) public constant returns (uint) {\n\treturn core.allowed(_owner, _spender);\n    }\n\n    /// Approve a third party to manange funds and callback a predesignated function signature\n    function approveAndCall(address _spender, uint _value, bytes _extraCore) public returns (bool) {\n        core.setAllowed(msg.sender, _spender, _value);\n        Approval(msg.sender, _spender, _value);\n\n        if(!_spender.call(bytes4(keccak256(\"receiveApproval(address,uint,address,bytes)\")),\n\t\t\t  msg.sender, _value, this, _extraCore)) {\n\t    revert();\n\t}\n        return true;\n    }\n\n    /// Approve a new charity\n    function addCharity(address _charity) public isOwner delayed(keccak256(msg.data)) returns (bool) {\n\tif(!core.charityStatus(_charity)) {\n\t    core.setCharityStatus(_charity, true);\n\t    core.setCharityTime(_charity, block.timestamp);\n\t    LogChangeCharities(_charity, true);\n\t    return true;\n\t}\n    }\n\n    /// Remove an existing charity\n    function removeCharity(address _charity) public isOwner delayed(keccak256(msg.data)) returns (bool) {\n\tif(core.charityStatus(_charity)) {\n\t    core.setCharityStatus(_charity, false);\n\t    core.setCharityTime(_charity, 0);\n\t    LogChangeCharities(_charity, false);\n\t    return true;\n\t}\n    }\n\n    ///---------------------------------- Freeze Methods ------------------------------------///\n\n    /// Suspend accounts by moving the existing balance into a frozen funds table\n    function freezeAccounts(address[] _accounts) public isOwner suspendable {\n\tuint time = block.timestamp;\n\tfor(uint i = 0; i < _accounts.length; i++) {\n\t    uint balance = core.balances(_accounts[i]);\n\t    core.setBalances(_accounts[i], 0);\n\t    core.setFrozenValue(_accounts[i], balance);\n\t    core.setFrozenTime(_accounts[i], time);\n\t    LogFreeze(_accounts[i], true);\n\t}\n    }\n\n    /// Reinstantiate frozen accounts\n    function unfreezeAccounts(address[] _accounts) public isOwner delayed(keccak256(msg.data))\n\tsuspendable {\n\tfor(uint i = 0; i < _accounts.length; i++) {\n\t    uint frozen = core.frozenValue(_accounts[i]);\n\t    core.setFrozenValue(_accounts[i], 0);\n\t    core.setFrozenTime(_accounts[i], 0);\n\t    core.setBalances(_accounts[i], frozen);\n\t    LogFreeze(_accounts[i], false);\n\t}\n    }\n\n    /// Liquidate frozen accounts and offer funds as reward for a randomly selected charity\n    function awardExcess(address[] _accounts) public isOwner delayed(keccak256(msg.data))\n\tvotable(keccak256(msg.data), MAJORITY, false) {\n\n\tuint frozenAward;\n\n\tfor(uint i = 0; i < _accounts.length; i++) {\n\t    if(core.frozenTime(_accounts[i]) + frozenMinTime < block.timestamp) {\n\t\tcontinue;\n\t    }\n\t    uint frozen = core.frozenValue(_accounts[i]);\n\t    if(frozenAward + frozen <= awardMax) {\n\t\tcore.setFrozenValue(_accounts[i], 0);\n\t\tfrozenAward += frozen;\n\t    }\n\t    else {\n\t\tcore.setFrozenValue(_accounts[i], frozen - (awardMax - frozenAward));\n\t\tfrozenAward = awardMax;\n\t\tbreak;\n\t    }\n\t}\n\n\t// prepare reward slot\n\tawardValue[block.timestamp] = frozenAward;\n\tawardTarget[block.timestamp] = uint(block.blockhash(block.number));\n\tawardClosest[block.timestamp] = awardTarget[block.timestamp] + (MAX_UINT256 / 2);\n\tLogAward(block.timestamp, address(0), \"initialized\");\n    }\n\n    /// Claim that a charity is the closest to the random target for a given award\n    function claimAward(uint _time, address _charity) public suspendable returns (bool) {\n\n\tuint challenge = uint(keccak256(_charity));\n\n\tif(awardTarget[_time] - uint(_charity) < awardTarget[_time] - awardClosest[_time]) {\n\t    awardClosest[_time] = challenge;\n\t    LogAward(_time, _charity, \"claimed\");\n\t    return true;\n\t}\n    }\n\n    /// Move funds into the balance of a winning charity after enough time has passed\n    function cashAward(uint _time, address _charity) public suspendable returns (bool) {\n\n\tuint claim = uint(keccak256(_charity));\n\n\tif(_time <= block.timestamp - awardMinTime && awardClosest[_time] == claim) {\n\t    uint award = awardValue[_time];\n\t    delete awardValue[_time];\n\t    delete awardTarget[_time];\n\t    delete awardClosest[_time];\n\t    core.setBalances(_charity, core.balances(_charity) + award);\n\t    LogAward(_time, _charity, \"awarded\");\n\t    return true;\n\t}\n    }\n\n    /// Set the minimum time for an account to be frozen before distribution (block height)\n    function setFrozenMinTime(uint _frozenMinTime) public multiowner(keccak256(msg.data))\n\tdelayed(keccak256(msg.data)) {\n\tfrozenMinTime = _frozenMinTime;\n    }\n\n    /// Set the window of time that charities can claim to be the closest to an award\n    function setAwardMinTime(uint _awardMinTime) public multiowner(keccak256(msg.data))\n\tdelayed(keccak256(msg.data)) {\n\tawardMinTime = _awardMinTime;\n    }\n\n    /// Set the maximum amount of funds that can be placed on a single block\n    function setAwardMax(uint _awardMax) public multiowner(keccak256(msg.data))\n\tdelayed(keccak256(msg.data)) {\n\tawardMax = _awardMax;\n    }\n\n    ///---------------------------------- Upgrade Methods -----------------------------------///\n\n    /// Standard path to propose a new controlling contract\n    function upgradeStandard(address _addr) public multiowner(keccak256(msg.data)) suspendable\n\tvotable(keccak256(msg.data), MAJORITY, false) {\n\tupgrade(_addr);\n    }\n\n    /// Emergency path to upgrade contracts if majority owner keys have been compromised\n    function upgradeEmergency(address _addr) public isOwner\n\tvotable(keccak256(msg.data), SUPERMAJORITY, true) {\n\tupgrade(_addr);\n    }\n\n    /// Emergency path to upgrade if something has gone wrong within the grace period\n    function upgradeInitial(address _addr) public isOwner() {\n\tif(graceInit + graceDuration < block.timestamp) {\n\t    upgrade(_addr);\n\t}\n    }\n\n    /// Perform actual upgrade\n    function upgrade(address _addr) internal {\n\tif(IbisNew(_addr).init(totalSupply)) {\n\t    core.upgrade(_addr);\n\t    LogUpgrade(_addr);\n\t    selfdestruct(_addr);\n\t}\n    }\n\n    ///---------------------------------- Nuke Methods -----------------------------------///\n\n    /// Supermajority vote to nuke the contract logic and allow free ether withdrawal\n    function nuke() isMaster votable(keccak256(msg.data), SUPERMAJORITY, true) public {\n\tRestrictedDestruct();\n\tnuked = true;\n    }\n\n    ///------------------------------ Democratic Interface ------------------------------///\n\n    mapping(address => uint) voteBalances;\n\n    function purchaseVotes(address _addr, uint _votes) internal returns (uint) {\n\tif(_votes <= core.balances(_addr)){\n\t    voteBalances[_addr] += _votes;\n\t    core.setBalances(_addr, core.balances(_addr) - _votes);\n\t    return voteBalances[_addr] + core.frozenValue(_addr);\n\t}\n    }\n\n    function returnVotes(address _addr) internal {\n\tcore.setBalances(_addr, core.balances(_addr) + voteBalances[_addr]);\n\tdelete voteBalances[_addr];\n    }\n}\n\n/// Abstract contract placeholder to facilitate a future transition to the next version of Ibis\ncontract IbisNew {\n    /// This method will be implemented in the future contract version to process legacy data\n    function init(uint totalSupply) public returns (bool);\n}\n\ncontract ERC223ReceivingContract {\n    function tokenFallback(address _from, uint _value, bytes _data) public;\n}\n\n/// for testing\ncontract IbisNewConcrete is IbisNew {\n    function IbisNewConcrete(){}\n    function init(uint /*totalSupply*/) public returns (bool){return true;}\n}\n",
  "sourcePath": "/home/thien-nam/Code/Ibis/src/contracts/Ibis.sol",
  "compiler": {
    "name": "solc",
    "version": "0.4.18+commit.9cf6e910.Emscripten.clang"
  },
  "schemaVersion": "1.0.1",
  "updatedAt": "2018-01-03T21:01:03.008Z"
}