{
  "contractName": "Restricted",
  "abi": [
    {
      "constant": true,
      "inputs": [
        {
          "name": "",
          "type": "address"
        }
      ],
      "name": "owners",
      "outputs": [
        {
          "name": "",
          "type": "bool"
        }
      ],
      "payable": false,
      "stateMutability": "view",
      "type": "function"
    },
    {
      "constant": false,
      "inputs": [
        {
          "name": "_owner",
          "type": "address"
        }
      ],
      "name": "removeOwner",
      "outputs": [],
      "payable": false,
      "stateMutability": "nonpayable",
      "type": "function"
    },
    {
      "constant": false,
      "inputs": [
        {
          "name": "_delayDuration",
          "type": "uint256"
        }
      ],
      "name": "changeDelay",
      "outputs": [],
      "payable": false,
      "stateMutability": "nonpayable",
      "type": "function"
    },
    {
      "constant": false,
      "inputs": [],
      "name": "removeSelf",
      "outputs": [],
      "payable": false,
      "stateMutability": "nonpayable",
      "type": "function"
    },
    {
      "constant": false,
      "inputs": [
        {
          "name": "_operation",
          "type": "bytes32"
        }
      ],
      "name": "ownerRevoke",
      "outputs": [],
      "payable": false,
      "stateMutability": "nonpayable",
      "type": "function"
    },
    {
      "constant": false,
      "inputs": [
        {
          "name": "_threshold",
          "type": "uint256"
        }
      ],
      "name": "changeThreshold",
      "outputs": [],
      "payable": false,
      "stateMutability": "nonpayable",
      "type": "function"
    },
    {
      "constant": false,
      "inputs": [
        {
          "name": "_owner",
          "type": "address"
        }
      ],
      "name": "addOwner",
      "outputs": [],
      "payable": false,
      "stateMutability": "nonpayable",
      "type": "function"
    },
    {
      "constant": false,
      "inputs": [
        {
          "name": "_operation",
          "type": "bytes32"
        }
      ],
      "name": "killDelayed",
      "outputs": [],
      "payable": false,
      "stateMutability": "nonpayable",
      "type": "function"
    },
    {
      "constant": false,
      "inputs": [
        {
          "name": "_old",
          "type": "address"
        },
        {
          "name": "_new",
          "type": "address"
        }
      ],
      "name": "switchOwner",
      "outputs": [],
      "payable": false,
      "stateMutability": "nonpayable",
      "type": "function"
    },
    {
      "inputs": [
        {
          "name": "_ownerList",
          "type": "address[]"
        },
        {
          "name": "_threshold",
          "type": "uint256"
        },
        {
          "name": "_masterAddress",
          "type": "address"
        }
      ],
      "payable": false,
      "stateMutability": "nonpayable",
      "type": "constructor"
    },
    {
      "anonymous": false,
      "inputs": [
        {
          "indexed": true,
          "name": "_addr",
          "type": "address"
        },
        {
          "indexed": false,
          "name": "isOwner",
          "type": "bool"
        }
      ],
      "name": "LogOwnerChange",
      "type": "event"
    },
    {
      "anonymous": false,
      "inputs": [
        {
          "indexed": false,
          "name": "thresh",
          "type": "uint256"
        }
      ],
      "name": "LogChangeThreshold",
      "type": "event"
    },
    {
      "anonymous": false,
      "inputs": [
        {
          "indexed": false,
          "name": "thresh",
          "type": "uint256"
        }
      ],
      "name": "LogChangeDelay",
      "type": "event"
    },
    {
      "anonymous": false,
      "inputs": [],
      "name": "LogNuke",
      "type": "event"
    }
  ],
  "bytecode": "0x60606040527fffffffffffffffffffffffffffffffffffffffffffffffffffffffffffffffff6000556103c0600855341561003957600080fd5b604051610f97380380610f97833981016040528080518201919060200180519060200190919080519060200190919050506000826002819055507f3dafdf04a2a91e1f13fb84664194bba4aef5c95d086769d9e38c574e33c8fedf6002546040518082815260200191505060405180910390a181600460006101000a81548173ffffffffffffffffffffffffffffffffffffffff021916908373ffffffffffffffffffffffffffffffffffffffff160217905550600090505b83518110156101f357600160036000868481518110151561010f57fe5b9060200190602002015173ffffffffffffffffffffffffffffffffffffffff1673ffffffffffffffffffffffffffffffffffffffff16815260200190815260200160002060006101000a81548160ff021916908315150217905550600160008154809291906001019190505550838181518110151561018a57fe5b9060200190602002015173ffffffffffffffffffffffffffffffffffffffff167f3281051f50c80211481c7d83588f2aa4266a9ce1468c910f64c983093176b0d66001604051808215151515815260200191505060405180910390a280806001019150506100f2565b50505050610d91806102066000396000f300606060405260043610610099576000357c0100000000000000000000000000000000000000000000000000000000900463ffffffff168063022914a71461009e578063173825d9146100ef5780635037ec62146101285780635e898dac1461014b5780635f6171e614610160578063694e80c3146101875780637065cb48146101aa57806399629da5146101e3578063dd1ae3b01461020a575b600080fd5b34156100a957600080fd5b6100d5600480803573ffffffffffffffffffffffffffffffffffffffff16906020019091905050610262565b604051808215151515815260200191505060405180910390f35b34156100fa57600080fd5b610126600480803573ffffffffffffffffffffffffffffffffffffffff16906020019091905050610282565b005b341561013357600080fd5b6101496004808035906020019091905050610390565b005b341561015657600080fd5b61015e61046d565b005b341561016b57600080fd5b610185600480803560001916906020019091905050610579565b005b341561019257600080fd5b6101a86004808035906020019091905050610690565b005b34156101b557600080fd5b6101e1600480803573ffffffffffffffffffffffffffffffffffffffff1690602001909190505061076d565b005b34156101ee57600080fd5b6102086004808035600019169060200190919050506108c7565b005b341561021557600080fd5b610260600480803573ffffffffffffffffffffffffffffffffffffffff1690602001909190803573ffffffffffffffffffffffffffffffffffffffff16906020019091905050610936565b005b60036020528060005260406000206000915054906101000a900460ff1681565b6000366040518083838082843782019150509250505060405180910390206102a981610b2a565b1561038c576000600360008473ffffffffffffffffffffffffffffffffffffffff1673ffffffffffffffffffffffffffffffffffffffff16815260200190815260200160002060006101000a81548160ff021916908315150217905550600160008154809291906001900391905055508173ffffffffffffffffffffffffffffffffffffffff167f3281051f50c80211481c7d83588f2aa4266a9ce1468c910f64c983093176b0d66000604051808215151515815260200191505060405180910390a2600760008260001916600019168152602001908152602001600020600090555b5050565b6000366040518083838082843782019150509250505060405180910390206103b781610b2a565b15610469576000366040518083838082843782019150509250505060405180910390206103e381610ce8565b1561044857826008819055507f9d46c50cb19a491fb2eaba8b18e5328816184146ae5f4d9ab621d76d2ed1a9a26008546040518082815260200191505060405180910390a1600760008260001916600019168152602001908152602001600020600090555b50600760008260001916600019168152602001908152602001600020600090555b5050565b60011515600360003373ffffffffffffffffffffffffffffffffffffffff1673ffffffffffffffffffffffffffffffffffffffff16815260200190815260200160002060009054906101000a900460ff1615151415156104cc57600080fd5b6000600360003373ffffffffffffffffffffffffffffffffffffffff1673ffffffffffffffffffffffffffffffffffffffff16815260200190815260200160002060006101000a81548160ff0219169083151502179055503373ffffffffffffffffffffffffffffffffffffffff167f3281051f50c80211481c7d83588f2aa4266a9ce1468c910f64c983093176b0d66000604051808215151515815260200191505060405180910390a2565b60011515600360003373ffffffffffffffffffffffffffffffffffffffff1673ffffffffffffffffffffffffffffffffffffffff16815260200190815260200160002060009054906101000a900460ff1615151415156105d857600080fd5b600060056000836000191660001916815260200190815260200160002060003373ffffffffffffffffffffffffffffffffffffffff1673ffffffffffffffffffffffffffffffffffffffff16815260200190815260200160002060006101000a81548160ff021916908315150217905550600060066000836000191660001916815260200190815260200160002054141561068d57600760008260001916600019168152602001908152602001600020600090555b50565b6000366040518083838082843782019150509250505060405180910390206106b781610b2a565b15610769576000366040518083838082843782019150509250505060405180910390206106e381610ce8565b1561074857826002819055507f3dafdf04a2a91e1f13fb84664194bba4aef5c95d086769d9e38c574e33c8fedf6002546040518082815260200191505060405180910390a1600760008260001916600019168152602001908152602001600020600090555b50600760008260001916600019168152602001908152602001600020600090555b5050565b60003660405180838380828437820191505092505050604051809103902061079481610b2a565b156108c3576000366040518083838082843782019150509250505060405180910390206107c081610ce8565b156108a2576001600360008573ffffffffffffffffffffffffffffffffffffffff1673ffffffffffffffffffffffffffffffffffffffff16815260200190815260200160002060006101000a81548160ff0219169083151502179055506001600081548092919060010191905055508273ffffffffffffffffffffffffffffffffffffffff167f3281051f50c80211481c7d83588f2aa4266a9ce1468c910f64c983093176b0d66001604051808215151515815260200191505060405180910390a2600760008260001916600019168152602001908152602001600020600090555b50600760008260001916600019168152602001908152602001600020600090555b5050565b6000366040518083838082843782019150509250505060405180910390206108ee81610b2a565b156109325760076000836000191660001916815260200190815260200160002060009055600760008260001916600019168152602001908152602001600020600090555b5050565b60003660405180838380828437820191505092505050604051809103902061095d81610b2a565b15610b255760003660405180838380828437820191505092505050604051809103902061098981610ce8565b15610b04576000600360008673ffffffffffffffffffffffffffffffffffffffff1673ffffffffffffffffffffffffffffffffffffffff16815260200190815260200160002060006101000a81548160ff0219169083151502179055506001600360008573ffffffffffffffffffffffffffffffffffffffff1673ffffffffffffffffffffffffffffffffffffffff16815260200190815260200160002060006101000a81548160ff0219169083151502179055508373ffffffffffffffffffffffffffffffffffffffff167f3281051f50c80211481c7d83588f2aa4266a9ce1468c910f64c983093176b0d66000604051808215151515815260200191505060405180910390a28273ffffffffffffffffffffffffffffffffffffffff167f3281051f50c80211481c7d83588f2aa4266a9ce1468c910f64c983093176b0d66001604051808215151515815260200191505060405180910390a2600760008260001916600019168152602001908152602001600020600090555b50600760008260001916600019168152602001908152602001600020600090555b505050565b600060011515600360003373ffffffffffffffffffffffffffffffffffffffff1673ffffffffffffffffffffffffffffffffffffffff16815260200190815260200160002060009054906101000a900460ff161515148015610bf557506000151560056000846000191660001916815260200190815260200160002060003373ffffffffffffffffffffffffffffffffffffffff1673ffffffffffffffffffffffffffffffffffffffff16815260200190815260200160002060009054906101000a900460ff161515145b15610cde576001151560056000846000191660001916815260200190815260200160002060003373ffffffffffffffffffffffffffffffffffffffff1673ffffffffffffffffffffffffffffffffffffffff16815260200190815260200160002060009054906101000a905050506006600083600019166000191681526020019081526020016000206000815480929190600101919050555060025460066000846000191660001916815260200190815260200160002054101515610cdd57436007600084600019166000191681526020019081526020016000208190555060019050610ce3565b5b600090505b919050565b600080600760008460001916600019168152602001908152602001600020541415610d2e5743600760008460001916600019168152602001908152602001600020819055505b600854600760008460001916600019168152602001908152602001600020540143101515610d5f5760019050610d60565b5b9190505600a165627a7a723058204ab06704d0a60b5299de097cc4da1165c92d093ba11e42581f8fbb5266caa2ac0029",
  "source": "pragma solidity ^0.4.13;\n\n/// Defines various access striction modifiers to be used by inheriting class\ncontract Restricted {\n\n    uint256 MAX_UINT256 = 2**256-1;\n    uint numOwners;\n    uint threshold;\n    mapping(address => bool) public owners;\n\n    address masterAddress;\n\n    mapping(bytes32 => mapping(address => bool)) supporting;\n    mapping(bytes32 => uint) numSupporting;\n    mapping(bytes32 => uint) initBlock;\n\n    uint delayDuration = 960;                      // # of blocks delayed by \"delay\" modifier\n    // note: approximately 960 blocks are mined daily\n\n    event LogOwnerChange(address indexed _addr, bool isOwner);\n    event LogChangeThreshold(uint thresh);\n    event LogChangeDelay(uint thresh);\n    event LogNuke();\n\n    ///--------------------------------- Function Modifiers ---------------------------------///\n\n    /// Function is only accessible to owners\n    modifier isOwner() {\n\trequire(owners[msg.sender] == true);\n\t_;\n    }\n\n    /// Function call must be approved by the stated threshold of owners\n    modifier multiowner(bytes32 _operation) {\n\tif(checkOwners(_operation)) {\n\t    _;\n\t    delete initBlock[_operation];\n\t}\n    }\n\n    modifier isMaster() {\n\tif(msg.sender == masterAddress) {\n\t    _;\n\t}\n    }\n\n    /// Function call will be delayed by a set number of blocks regardless of approval\n    modifier delayed(bytes32 _operation) {\n\tif(checkDelay(_operation)) {\n\t    _;\n\t    delete initBlock[_operation];\n\t}\n    }\n\n    ///---------------------------------- Public Methods ------------------------------------///\n\n    /// Constructor takes a list of owners and a threshold\n    function Restricted(address[] _ownerList, uint _threshold, address _masterAddress) public {\n\tthreshold = _threshold;\n\tLogChangeThreshold(threshold);\n\n\tmasterAddress = _masterAddress;\n\n\tfor(uint256 i = 0; i < _ownerList.length; i++) {\n\t    owners[_ownerList[i]] = true;\n\t    numOwners++;\n\t    LogOwnerChange(_ownerList[i], true);\n\t}\n    }\n\n    /// Add address to list of owners\n    function addOwner(address _owner) public multiowner(keccak256(msg.data))\n\tdelayed(keccak256(msg.data)) {\n\towners[_owner] = true;\n\tnumOwners++;\n\tLogOwnerChange(_owner, true);\n    }\n\n    /// Remove address from list of owners\n    function removeOwner(address _owner) public multiowner(keccak256(msg.data)) {\n\towners[_owner] = false;\n\tnumOwners--;\n\tLogOwnerChange(_owner, false);\n    }\n\n    /// Atomically swap out an owner address (avoids corner cases from changing # of owners)\n    function switchOwner(address _old, address _new) public multiowner(keccak256(msg.data))\n\tdelayed(keccak256(msg.data)) {\n\n\towners[_old] = false;\n\towners[_new] = true;\n\n\tLogOwnerChange(_old, false);\n\tLogOwnerChange(_new, true);\n    }\n\n    /// Instantly remove oneself as an owner (useful if a key has been compromised)\n    function removeSelf() public isOwner {\n\towners[msg.sender] = false;\n\tLogOwnerChange(msg.sender, false);\n    }\n\n    /// Change the min number of approving owners\n    function changeThreshold(uint _threshold) public multiowner(keccak256(msg.data))\n\tdelayed(keccak256(msg.data)) {\n\n\tthreshold = _threshold;\n\tLogChangeThreshold(threshold);\n    }\n\n    /// Change the duration of the delay modifier\n    function changeDelay(uint _delayDuration) public multiowner(keccak256(msg.data))\n\tdelayed(keccak256(msg.data)) {\n\tdelayDuration = _delayDuration;\n\tLogChangeDelay(delayDuration);\n    }\n\n    /// Cancel a currently delayed block\n    function killDelayed(bytes32 _operation) public multiowner(keccak256(msg.data)) {\n\tdelete initBlock[_operation];\n    }\n\n    /// Allow an owner to revoke a previously approved call in a multi-owner vote\n    function ownerRevoke(bytes32 _operation) public isOwner {\n\tsupporting[_operation][msg.sender] = false;\n\tif(numSupporting[_operation] == 0) {\n\t    delete initBlock[_operation];\n\t}\n    }\n\n    /// Cast vote for a multi-owner function call and return true if the call has been approved\n    function checkOwners(bytes32 _operation) private returns (bool) {\n\tif(owners[msg.sender] == true && supporting[_operation][msg.sender] == false) {\n\t    supporting[_operation][msg.sender] == true;\n\t    numSupporting[_operation]++;\n\t    if(numSupporting[_operation] >= threshold) {\n\t\tinitBlock[_operation] = block.number;\n\t\treturn true;\n\t    }\n\t}\n\treturn false;\n    }\n\n    /// Check to see if the call has been sufficiently delayed and if so return true\n    function checkDelay(bytes32 _operation) private view returns (bool) {\n\tif(initBlock[_operation] == 0) {\n\t    initBlock[_operation] = block.number;\n\t}\n\n\tif(block.number >= initBlock[_operation] + delayDuration) {\n\t    return true;\n\t}\n    }\n\n    function RestrictedDestruct() internal {\n\tthreshold = MAX_UINT256;\n    }\n}\n",
  "sourcePath": "/home/thien-nam/Code/Ibis/src/contracts/Restricted.sol",
  "compiler": {
    "name": "solc",
    "version": "0.4.18+commit.9cf6e910.Emscripten.clang"
  },
  "schemaVersion": "1.0.1",
  "updatedAt": "2018-01-02T08:08:25.051Z"
}