{
  "contractName": "Restricted",
  "abi": [
    {
      "constant": true,
      "inputs": [
        {
          "name": "",
          "type": "address"
        }
      ],
      "name": "owners",
      "outputs": [
        {
          "name": "",
          "type": "bool"
        }
      ],
      "payable": false,
      "stateMutability": "view",
      "type": "function"
    },
    {
      "constant": false,
      "inputs": [
        {
          "name": "_owner",
          "type": "address"
        }
      ],
      "name": "removeOwner",
      "outputs": [],
      "payable": false,
      "stateMutability": "nonpayable",
      "type": "function"
    },
    {
      "constant": false,
      "inputs": [
        {
          "name": "_delayDuration",
          "type": "uint256"
        }
      ],
      "name": "changeDelay",
      "outputs": [],
      "payable": false,
      "stateMutability": "nonpayable",
      "type": "function"
    },
    {
      "constant": false,
      "inputs": [],
      "name": "removeSelf",
      "outputs": [],
      "payable": false,
      "stateMutability": "nonpayable",
      "type": "function"
    },
    {
      "constant": false,
      "inputs": [
        {
          "name": "_operation",
          "type": "bytes32"
        }
      ],
      "name": "ownerRevoke",
      "outputs": [],
      "payable": false,
      "stateMutability": "nonpayable",
      "type": "function"
    },
    {
      "constant": false,
      "inputs": [
        {
          "name": "_threshold",
          "type": "uint256"
        }
      ],
      "name": "changeThreshold",
      "outputs": [],
      "payable": false,
      "stateMutability": "nonpayable",
      "type": "function"
    },
    {
      "constant": false,
      "inputs": [
        {
          "name": "_owner",
          "type": "address"
        }
      ],
      "name": "addOwner",
      "outputs": [],
      "payable": false,
      "stateMutability": "nonpayable",
      "type": "function"
    },
    {
      "constant": true,
      "inputs": [],
      "name": "numOwners",
      "outputs": [
        {
          "name": "",
          "type": "uint256"
        }
      ],
      "payable": false,
      "stateMutability": "view",
      "type": "function"
    },
    {
      "constant": false,
      "inputs": [
        {
          "name": "_operation",
          "type": "bytes32"
        }
      ],
      "name": "killDelayed",
      "outputs": [],
      "payable": false,
      "stateMutability": "nonpayable",
      "type": "function"
    },
    {
      "constant": true,
      "inputs": [],
      "name": "delayDuration",
      "outputs": [
        {
          "name": "",
          "type": "uint256"
        }
      ],
      "payable": false,
      "stateMutability": "view",
      "type": "function"
    },
    {
      "constant": false,
      "inputs": [
        {
          "name": "_old",
          "type": "address"
        },
        {
          "name": "_new",
          "type": "address"
        }
      ],
      "name": "switchOwner",
      "outputs": [],
      "payable": false,
      "stateMutability": "nonpayable",
      "type": "function"
    },
    {
      "inputs": [
        {
          "name": "_ownerList",
          "type": "address[]"
        },
        {
          "name": "_threshold",
          "type": "uint256"
        },
        {
          "name": "_masterAddress",
          "type": "address"
        }
      ],
      "payable": false,
      "stateMutability": "nonpayable",
      "type": "constructor"
    },
    {
      "anonymous": false,
      "inputs": [
        {
          "indexed": true,
          "name": "_addr",
          "type": "address"
        },
        {
          "indexed": false,
          "name": "isOwner",
          "type": "bool"
        }
      ],
      "name": "LogOwnerChange",
      "type": "event"
    },
    {
      "anonymous": false,
      "inputs": [
        {
          "indexed": false,
          "name": "thresh",
          "type": "uint256"
        }
      ],
      "name": "LogChangeThreshold",
      "type": "event"
    },
    {
      "anonymous": false,
      "inputs": [
        {
          "indexed": false,
          "name": "thresh",
          "type": "uint256"
        }
      ],
      "name": "LogChangeDelay",
      "type": "event"
    },
    {
      "anonymous": false,
      "inputs": [],
      "name": "LogNuke",
      "type": "event"
    }
  ],
  "bytecode": "0x60606040527fffffffffffffffffffffffffffffffffffffffffffffffffffffffffffffffff6000556103e8600855341561003957600080fd5b6040516110aa3803806110aa833981016040528080518201919060200180519060200190919080519060200190919050506000826001819055507f3dafdf04a2a91e1f13fb84664194bba4aef5c95d086769d9e38c574e33c8fedf6001546040518082815260200191505060405180910390a181600360006101000a81548173ffffffffffffffffffffffffffffffffffffffff021916908373ffffffffffffffffffffffffffffffffffffffff160217905550600090505b83518110156101f357600160026000868481518110151561010f57fe5b9060200190602002015173ffffffffffffffffffffffffffffffffffffffff1673ffffffffffffffffffffffffffffffffffffffff16815260200190815260200160002060006101000a81548160ff021916908315150217905550600760008154809291906001019190505550838181518110151561018a57fe5b9060200190602002015173ffffffffffffffffffffffffffffffffffffffff167f3281051f50c80211481c7d83588f2aa4266a9ce1468c910f64c983093176b0d66001604051808215151515815260200191505060405180910390a280806001019150506100f2565b50505050610ea4806102066000396000f3006060604052600436106100af576000357c0100000000000000000000000000000000000000000000000000000000900463ffffffff168063022914a7146100b4578063173825d9146101055780635037ec621461013e5780635e898dac146101615780635f6171e614610176578063694e80c31461019d5780637065cb48146101c057806387ab18e1146101f957806399629da514610222578063b5984a3614610249578063dd1ae3b014610272575b600080fd5b34156100bf57600080fd5b6100eb600480803573ffffffffffffffffffffffffffffffffffffffff169060200190919050506102ca565b604051808215151515815260200191505060405180910390f35b341561011057600080fd5b61013c600480803573ffffffffffffffffffffffffffffffffffffffff169060200190919050506102ea565b005b341561014957600080fd5b61015f60048080359060200190919050506103fa565b005b341561016c57600080fd5b6101746104db565b005b341561018157600080fd5b61019b6004808035600019169060200190919050506105e7565b005b34156101a857600080fd5b6101be60048080359060200190919050506106fe565b005b34156101cb57600080fd5b6101f7600480803573ffffffffffffffffffffffffffffffffffffffff169060200190919050506107df565b005b341561020457600080fd5b61020c610997565b6040518082815260200191505060405180910390f35b341561022d57600080fd5b61024760048080356000191690602001909190505061099d565b005b341561025457600080fd5b61025c610a0e565b6040518082815260200191505060405180910390f35b341561027d57600080fd5b6102c8600480803573ffffffffffffffffffffffffffffffffffffffff1690602001909190803573ffffffffffffffffffffffffffffffffffffffff16906020019091905050610a14565b005b60026020528060005260406000206000915054906101000a900460ff1681565b60003660405180838380828437820191505092505050604051809103902061031181610c0c565b151561031957005b6000600260008473ffffffffffffffffffffffffffffffffffffffff1673ffffffffffffffffffffffffffffffffffffffff16815260200190815260200160002060006101000a81548160ff021916908315150217905550600760008154809291906001900391905055508173ffffffffffffffffffffffffffffffffffffffff167f3281051f50c80211481c7d83588f2aa4266a9ce1468c910f64c983093176b0d66000604051808215151515815260200191505060405180910390a2600660008260001916600019168152602001908152602001600020600090555050565b60003660405180838380828437820191505092505050604051809103902061042181610c0c565b151561042957005b60003660405180838380828437820191505092505050604051809103902061045081610dfb565b151561045857005b826008819055507f9d46c50cb19a491fb2eaba8b18e5328816184146ae5f4d9ab621d76d2ed1a9a26008546040518082815260200191505060405180910390a16006600082600019166000191681526020019081526020016000206000905550600660008260001916600019168152602001908152602001600020600090555050565b60011515600260003373ffffffffffffffffffffffffffffffffffffffff1673ffffffffffffffffffffffffffffffffffffffff16815260200190815260200160002060009054906101000a900460ff16151514151561053a57600080fd5b6000600260003373ffffffffffffffffffffffffffffffffffffffff1673ffffffffffffffffffffffffffffffffffffffff16815260200190815260200160002060006101000a81548160ff0219169083151502179055503373ffffffffffffffffffffffffffffffffffffffff167f3281051f50c80211481c7d83588f2aa4266a9ce1468c910f64c983093176b0d66000604051808215151515815260200191505060405180910390a2565b60011515600260003373ffffffffffffffffffffffffffffffffffffffff1673ffffffffffffffffffffffffffffffffffffffff16815260200190815260200160002060009054906101000a900460ff16151514151561064657600080fd5b600060046000836000191660001916815260200190815260200160002060003373ffffffffffffffffffffffffffffffffffffffff1673ffffffffffffffffffffffffffffffffffffffff16815260200190815260200160002060006101000a81548160ff02191690831515021790555060006005600083600019166000191681526020019081526020016000205414156106fb57600660008260001916600019168152602001908152602001600020600090555b50565b60003660405180838380828437820191505092505050604051809103902061072581610c0c565b151561072d57005b60003660405180838380828437820191505092505050604051809103902061075481610dfb565b151561075c57005b826001819055507f3dafdf04a2a91e1f13fb84664194bba4aef5c95d086769d9e38c574e33c8fedf6001546040518082815260200191505060405180910390a16006600082600019166000191681526020019081526020016000206000905550600660008260001916600019168152602001908152602001600020600090555050565b60003660405180838380828437820191505092505050604051809103902061080681610c0c565b151561080e57005b60003660405180838380828437820191505092505050604051809103902061083581610dfb565b151561083d57005b60001515600260008573ffffffffffffffffffffffffffffffffffffffff1673ffffffffffffffffffffffffffffffffffffffff16815260200190815260200160002060009054906101000a900460ff1615151415610954576001600260008573ffffffffffffffffffffffffffffffffffffffff1673ffffffffffffffffffffffffffffffffffffffff16815260200190815260200160002060006101000a81548160ff0219169083151502179055506007600081548092919060010191905055508273ffffffffffffffffffffffffffffffffffffffff167f3281051f50c80211481c7d83588f2aa4266a9ce1468c910f64c983093176b0d66001604051808215151515815260200191505060405180910390a25b6006600082600019166000191681526020019081526020016000206000905550600660008260001916600019168152602001908152602001600020600090555050565b60075481565b6000366040518083838082843782019150509250505060405180910390206109c481610c0c565b15156109cc57005b60066000836000191660001916815260200190815260200160002060009055600660008260001916600019168152602001908152602001600020600090555050565b60085481565b600036604051808383808284378201915050925050506040518091039020610a3b81610c0c565b1515610a4357005b600036604051808383808284378201915050925050506040518091039020610a6a81610dfb565b1515610a7257005b6000600260008673ffffffffffffffffffffffffffffffffffffffff1673ffffffffffffffffffffffffffffffffffffffff16815260200190815260200160002060006101000a81548160ff0219169083151502179055506001600260008573ffffffffffffffffffffffffffffffffffffffff1673ffffffffffffffffffffffffffffffffffffffff16815260200190815260200160002060006101000a81548160ff0219169083151502179055508373ffffffffffffffffffffffffffffffffffffffff167f3281051f50c80211481c7d83588f2aa4266a9ce1468c910f64c983093176b0d66000604051808215151515815260200191505060405180910390a28273ffffffffffffffffffffffffffffffffffffffff167f3281051f50c80211481c7d83588f2aa4266a9ce1468c910f64c983093176b0d66001604051808215151515815260200191505060405180910390a2600660008260001916600019168152602001908152602001600020600090555060066000826000191660001916815260200190815260200160002060009055505050565b60008060066000846000191660001916815260200190815260200160002054141515610c3b5760019050610df6565b60011515600260003373ffffffffffffffffffffffffffffffffffffffff1673ffffffffffffffffffffffffffffffffffffffff16815260200190815260200160002060009054906101000a900460ff161515148015610d0457506000151560046000846000191660001916815260200190815260200160002060003373ffffffffffffffffffffffffffffffffffffffff1673ffffffffffffffffffffffffffffffffffffffff16815260200190815260200160002060009054906101000a900460ff161515145b15610df557600160046000846000191660001916815260200190815260200160002060003373ffffffffffffffffffffffffffffffffffffffff1673ffffffffffffffffffffffffffffffffffffffff16815260200190815260200160002060006101000a81548160ff0219169083151502179055506005600083600019166000191681526020019081526020016000206000815480929190600101919050555060015460056000846000191660001916815260200190815260200160002054101515610df457426006600084600019166000191681526020019081526020016000208190555060019050610df6565b5b5b919050565b600080600660008460001916600019168152602001908152602001600020541415610e415742600660008460001916600019168152602001908152602001600020819055505b600854600660008460001916600019168152602001908152602001600020540142101515610e725760019050610e73565b5b9190505600a165627a7a7230582065b7f5c73f9ef4dd99b2fdc12ba8c096993e853838aa5a1313d4fae71f3dc5300029",
  "source": "pragma solidity ^0.4.13;\n\n/// Defines various access striction modifiers to be used by inheriting class\ncontract Restricted {\n\n    uint256 MAX_UINT256 = 2**256-1;\n    uint threshold;\n    mapping(address => bool) public owners;\n\n    address masterAddress;\n\n    mapping(bytes32 => mapping(address => bool)) supporting;\n    mapping(bytes32 => uint) numSupporting;\n    mapping(bytes32 => uint) initTime;\n\n    uint public numOwners;\n    uint public delayDuration = 1000;\n\n    event LogOwnerChange(address indexed _addr, bool isOwner);\n    event LogChangeThreshold(uint thresh);\n    event LogChangeDelay(uint thresh);\n    event LogNuke();\n\n    ///--------------------------------- Function Modifiers ---------------------------------///\n\n    /// Function is only accessible to owners\n    modifier isOwner() {\n\trequire(owners[msg.sender] == true);\n\t_;\n    }\n\n    /// Function call must be approved by the stated threshold of owners\n    modifier multiowner(bytes32 _operation) {\n\tif(!checkOwners(_operation)) {\n\t    assembly{stop}\n\t}\n\t_;\n\tdelete initTime[_operation];\n    }\n\n    modifier isMaster() {\n\tif(msg.sender == masterAddress) {\n\t    _;\n\t}\n    }\n\n    /// Function call will be delayed by a set time regardless of approval\n    modifier delayed(bytes32 _operation) {\n\tif(!checkDelay(_operation)) {\n\t    assembly{stop}\n\t}\n\t_;\n\tdelete initTime[_operation];\n    }\n\n    ///---------------------------------- Public Methods ------------------------------------///\n\n    /// Constructor takes a list of owners and a threshold\n    function Restricted(address[] _ownerList, uint _threshold, address _masterAddress) public {\n\n\tthreshold = _threshold;\n\tLogChangeThreshold(threshold);\n\n\tmasterAddress = _masterAddress;\n\n\tfor(uint256 i = 0; i < _ownerList.length; i++) {\n\t    owners[_ownerList[i]] = true;\n\t    numOwners++;\n\t    LogOwnerChange(_ownerList[i], true);\n\t}\n    }\n\n    /// Add address to list of owners\n    function addOwner(address _owner) public multiowner(keccak256(msg.data))\n\tdelayed(keccak256(msg.data))\n    {\n\tif(owners[_owner] == false){\n\t    owners[_owner] = true;\n\t    numOwners++;\n\t    LogOwnerChange(_owner, true);\n\t}\n    }\n\n    /// Remove address from list of owners\n    function removeOwner(address _owner) public multiowner(keccak256(msg.data)) {\n\towners[_owner] = false;\n\tnumOwners--;\n\tLogOwnerChange(_owner, false);\n    }\n\n    /// Atomically swap out an owner address (avoids corner cases from changing # of owners)\n    function switchOwner(address _old, address _new) public multiowner(keccak256(msg.data))\n\tdelayed(keccak256(msg.data)) {\n\n\towners[_old] = false;\n\towners[_new] = true;\n\n\tLogOwnerChange(_old, false);\n\tLogOwnerChange(_new, true);\n    }\n\n    /// Instantly remove oneself as an owner (useful if a key has been compromised)\n    function removeSelf() public isOwner {\n\towners[msg.sender] = false;\n\tLogOwnerChange(msg.sender, false);\n    }\n\n    /// Change the min number of approving owners\n    function changeThreshold(uint _threshold) public multiowner(keccak256(msg.data))\n\tdelayed(keccak256(msg.data)) {\n\n\tthreshold = _threshold;\n\tLogChangeThreshold(threshold);\n    }\n\n    /// Change the duration of the delay modifier\n    function changeDelay(uint _delayDuration) public multiowner(keccak256(msg.data))\n\tdelayed(keccak256(msg.data)) {\n\tdelayDuration = _delayDuration;\n\tLogChangeDelay(delayDuration);\n    }\n\n    /// Cancel a currently delayed operation\n    function killDelayed(bytes32 _operation) public multiowner(keccak256(msg.data)) {\n\tdelete initTime[_operation];\n    }\n\n    /// Allow an owner to revoke a previously approved call in a multi-owner vote\n    function ownerRevoke(bytes32 _operation) public isOwner {\n\tsupporting[_operation][msg.sender] = false;\n\tif(numSupporting[_operation] == 0) {\n\t    delete initTime[_operation];\n\t}\n    }\n\n    /// Cast vote for a multi-owner function call and return true if the call has been approved\n    function checkOwners(bytes32 _operation) private returns (bool) {\n\n\t// if operation has already been approved then pass through\n\tif(initTime[_operation] != 0) {\n\t    return true;\n\t}\n\n\t// tally another owner vote\n\tif(owners[msg.sender] == true && supporting[_operation][msg.sender] == false) {\n\t    supporting[_operation][msg.sender] = true;\n\t    numSupporting[_operation]++;\n\n\t    // if enough owners have approved then continue execution\n\t    if(numSupporting[_operation] >= threshold) {\n\t\tinitTime[_operation] = block.timestamp;\n\t\treturn true;\n\t    }\n\t}\n    }\n\n    /// Check to see if the call has been sufficiently delayed and if so return true\n    function checkDelay(bytes32 _operation) private returns (bool) {\n\tif(initTime[_operation] == 0) {\n\t    initTime[_operation] = block.timestamp;\n\t}\n\n\tif(block.timestamp >= initTime[_operation] + delayDuration) {\n\t    return true;\n\t}\n    }\n\n    function RestrictedDestruct() internal {\n\tthreshold = MAX_UINT256;\n    }\n}\n",
  "sourcePath": "/home/thien-nam/Code/Ibis/src/contracts/Restricted.sol",
  "compiler": {
    "name": "solc",
    "version": "0.4.18+commit.9cf6e910.Emscripten.clang"
  },
  "schemaVersion": "1.0.1",
  "updatedAt": "2018-01-03T04:38:34.714Z"
}